{
	"data": {
		"bytecode": {
			"linkReferences": {},
			"object": "6080604052600060045560006005556000600655600060075534801561002457600080fd5b506103c9806100346000396000f3fe608060405234801561001057600080fd5b50600436106100885760003560e01c8063c8a768e61161005b578063c8a768e614610288578063cb9953e714610291578063cefa3e9f1461029a578063d7da9e4f1461037157600080fd5b80630c8027891461008d5780631280cb621461010e57806375794a3c146101fc578063b38d817c14610213575b600080fd5b6100d861009b36600461037a565b6003602081905260009182526040909120805460018201549282015460048301546005840154600690940154929460ff9081169492939192911686565b6040805196875260ff90951660208701529385019290925260608401526080830152151560a082015260c0015b60405180910390f35b61019261011c36600461037a565b60006020819052908152604090208054600182015460028301546003840154600490940154929391926001600160a01b0382169260ff600160a01b8404811693600160a81b8104821693600160b01b8204831693600160b81b8304841693600160c01b8404811693600160c81b9004811692168b565b604080519b8c5260208c019a909a526001600160a01b03909816988a019890985260ff95861660608a0152938516608089015291841660a0880152831660c0870152821660e086015216610100840152610120830191909152151561014082015261016001610105565b61020560045481565b604051908152602001610105565b61025861022136600461037a565b60026020526000908152604090208054600182015460038301546004840154600590940154929360ff928316939183169290911685565b6040805195865260ff9485166020870152929093169184019190915260608301521515608082015260a001610105565b61020560055481565b61020560065481565b6103156102a836600461037a565b6001602081905260009182526040909120805491810154600282015460039092015460ff808316936101008404821693620100008104831693630100000082048416936401000000008304811693650100000000008404821693660100000000000090048216929091168a565b604080519a8b5260ff998a1660208c0152978916978a01979097529487166060890152928616608088015290851660a0870152841660c086015290921660e0840152610100830191909152151561012082015261014001610105565b61020560075481565b60006020828403121561038c57600080fd5b503591905056fea264697066735822122036d73c8e57ec7c89160d3d50491af6577fee95e0017d5e599fdd99e0ef766f9c64736f6c63430008070033",
			"opcodes": "PUSH1 0x80 PUSH1 0x40 MSTORE PUSH1 0x0 PUSH1 0x4 SSTORE PUSH1 0x0 PUSH1 0x5 SSTORE PUSH1 0x0 PUSH1 0x6 SSTORE PUSH1 0x0 PUSH1 0x7 SSTORE CALLVALUE DUP1 ISZERO PUSH2 0x24 JUMPI PUSH1 0x0 DUP1 REVERT JUMPDEST POP PUSH2 0x3C9 DUP1 PUSH2 0x34 PUSH1 0x0 CODECOPY PUSH1 0x0 RETURN INVALID PUSH1 0x80 PUSH1 0x40 MSTORE CALLVALUE DUP1 ISZERO PUSH2 0x10 JUMPI PUSH1 0x0 DUP1 REVERT JUMPDEST POP PUSH1 0x4 CALLDATASIZE LT PUSH2 0x88 JUMPI PUSH1 0x0 CALLDATALOAD PUSH1 0xE0 SHR DUP1 PUSH4 0xC8A768E6 GT PUSH2 0x5B JUMPI DUP1 PUSH4 0xC8A768E6 EQ PUSH2 0x288 JUMPI DUP1 PUSH4 0xCB9953E7 EQ PUSH2 0x291 JUMPI DUP1 PUSH4 0xCEFA3E9F EQ PUSH2 0x29A JUMPI DUP1 PUSH4 0xD7DA9E4F EQ PUSH2 0x371 JUMPI PUSH1 0x0 DUP1 REVERT JUMPDEST DUP1 PUSH4 0xC802789 EQ PUSH2 0x8D JUMPI DUP1 PUSH4 0x1280CB62 EQ PUSH2 0x10E JUMPI DUP1 PUSH4 0x75794A3C EQ PUSH2 0x1FC JUMPI DUP1 PUSH4 0xB38D817C EQ PUSH2 0x213 JUMPI JUMPDEST PUSH1 0x0 DUP1 REVERT JUMPDEST PUSH2 0xD8 PUSH2 0x9B CALLDATASIZE PUSH1 0x4 PUSH2 0x37A JUMP JUMPDEST PUSH1 0x3 PUSH1 0x20 DUP2 SWAP1 MSTORE PUSH1 0x0 SWAP2 DUP3 MSTORE PUSH1 0x40 SWAP1 SWAP2 KECCAK256 DUP1 SLOAD PUSH1 0x1 DUP3 ADD SLOAD SWAP3 DUP3 ADD SLOAD PUSH1 0x4 DUP4 ADD SLOAD PUSH1 0x5 DUP5 ADD SLOAD PUSH1 0x6 SWAP1 SWAP5 ADD SLOAD SWAP3 SWAP5 PUSH1 0xFF SWAP1 DUP2 AND SWAP5 SWAP3 SWAP4 SWAP2 SWAP3 SWAP2 AND DUP7 JUMP JUMPDEST PUSH1 0x40 DUP1 MLOAD SWAP7 DUP8 MSTORE PUSH1 0xFF SWAP1 SWAP6 AND PUSH1 0x20 DUP8 ADD MSTORE SWAP4 DUP6 ADD SWAP3 SWAP1 SWAP3 MSTORE PUSH1 0x60 DUP5 ADD MSTORE PUSH1 0x80 DUP4 ADD MSTORE ISZERO ISZERO PUSH1 0xA0 DUP3 ADD MSTORE PUSH1 0xC0 ADD JUMPDEST PUSH1 0x40 MLOAD DUP1 SWAP2 SUB SWAP1 RETURN JUMPDEST PUSH2 0x192 PUSH2 0x11C CALLDATASIZE PUSH1 0x4 PUSH2 0x37A JUMP JUMPDEST PUSH1 0x0 PUSH1 0x20 DUP2 SWAP1 MSTORE SWAP1 DUP2 MSTORE PUSH1 0x40 SWAP1 KECCAK256 DUP1 SLOAD PUSH1 0x1 DUP3 ADD SLOAD PUSH1 0x2 DUP4 ADD SLOAD PUSH1 0x3 DUP5 ADD SLOAD PUSH1 0x4 SWAP1 SWAP5 ADD SLOAD SWAP3 SWAP4 SWAP2 SWAP3 PUSH1 0x1 PUSH1 0x1 PUSH1 0xA0 SHL SUB DUP3 AND SWAP3 PUSH1 0xFF PUSH1 0x1 PUSH1 0xA0 SHL DUP5 DIV DUP2 AND SWAP4 PUSH1 0x1 PUSH1 0xA8 SHL DUP2 DIV DUP3 AND SWAP4 PUSH1 0x1 PUSH1 0xB0 SHL DUP3 DIV DUP4 AND SWAP4 PUSH1 0x1 PUSH1 0xB8 SHL DUP4 DIV DUP5 AND SWAP4 PUSH1 0x1 PUSH1 0xC0 SHL DUP5 DIV DUP2 AND SWAP4 PUSH1 0x1 PUSH1 0xC8 SHL SWAP1 DIV DUP2 AND SWAP3 AND DUP12 JUMP JUMPDEST PUSH1 0x40 DUP1 MLOAD SWAP12 DUP13 MSTORE PUSH1 0x20 DUP13 ADD SWAP11 SWAP1 SWAP11 MSTORE PUSH1 0x1 PUSH1 0x1 PUSH1 0xA0 SHL SUB SWAP1 SWAP9 AND SWAP9 DUP11 ADD SWAP9 SWAP1 SWAP9 MSTORE PUSH1 0xFF SWAP6 DUP7 AND PUSH1 0x60 DUP11 ADD MSTORE SWAP4 DUP6 AND PUSH1 0x80 DUP10 ADD MSTORE SWAP2 DUP5 AND PUSH1 0xA0 DUP9 ADD MSTORE DUP4 AND PUSH1 0xC0 DUP8 ADD MSTORE DUP3 AND PUSH1 0xE0 DUP7 ADD MSTORE AND PUSH2 0x100 DUP5 ADD MSTORE PUSH2 0x120 DUP4 ADD SWAP2 SWAP1 SWAP2 MSTORE ISZERO ISZERO PUSH2 0x140 DUP3 ADD MSTORE PUSH2 0x160 ADD PUSH2 0x105 JUMP JUMPDEST PUSH2 0x205 PUSH1 0x4 SLOAD DUP2 JUMP JUMPDEST PUSH1 0x40 MLOAD SWAP1 DUP2 MSTORE PUSH1 0x20 ADD PUSH2 0x105 JUMP JUMPDEST PUSH2 0x258 PUSH2 0x221 CALLDATASIZE PUSH1 0x4 PUSH2 0x37A JUMP JUMPDEST PUSH1 0x2 PUSH1 0x20 MSTORE PUSH1 0x0 SWAP1 DUP2 MSTORE PUSH1 0x40 SWAP1 KECCAK256 DUP1 SLOAD PUSH1 0x1 DUP3 ADD SLOAD PUSH1 0x3 DUP4 ADD SLOAD PUSH1 0x4 DUP5 ADD SLOAD PUSH1 0x5 SWAP1 SWAP5 ADD SLOAD SWAP3 SWAP4 PUSH1 0xFF SWAP3 DUP4 AND SWAP4 SWAP2 DUP4 AND SWAP3 SWAP1 SWAP2 AND DUP6 JUMP JUMPDEST PUSH1 0x40 DUP1 MLOAD SWAP6 DUP7 MSTORE PUSH1 0xFF SWAP5 DUP6 AND PUSH1 0x20 DUP8 ADD MSTORE SWAP3 SWAP1 SWAP4 AND SWAP2 DUP5 ADD SWAP2 SWAP1 SWAP2 MSTORE PUSH1 0x60 DUP4 ADD MSTORE ISZERO ISZERO PUSH1 0x80 DUP3 ADD MSTORE PUSH1 0xA0 ADD PUSH2 0x105 JUMP JUMPDEST PUSH2 0x205 PUSH1 0x5 SLOAD DUP2 JUMP JUMPDEST PUSH2 0x205 PUSH1 0x6 SLOAD DUP2 JUMP JUMPDEST PUSH2 0x315 PUSH2 0x2A8 CALLDATASIZE PUSH1 0x4 PUSH2 0x37A JUMP JUMPDEST PUSH1 0x1 PUSH1 0x20 DUP2 SWAP1 MSTORE PUSH1 0x0 SWAP2 DUP3 MSTORE PUSH1 0x40 SWAP1 SWAP2 KECCAK256 DUP1 SLOAD SWAP2 DUP2 ADD SLOAD PUSH1 0x2 DUP3 ADD SLOAD PUSH1 0x3 SWAP1 SWAP3 ADD SLOAD PUSH1 0xFF DUP1 DUP4 AND SWAP4 PUSH2 0x100 DUP5 DIV DUP3 AND SWAP4 PUSH3 0x10000 DUP2 DIV DUP4 AND SWAP4 PUSH4 0x1000000 DUP3 DIV DUP5 AND SWAP4 PUSH5 0x100000000 DUP4 DIV DUP2 AND SWAP4 PUSH6 0x10000000000 DUP5 DIV DUP3 AND SWAP4 PUSH7 0x1000000000000 SWAP1 DIV DUP3 AND SWAP3 SWAP1 SWAP2 AND DUP11 JUMP JUMPDEST PUSH1 0x40 DUP1 MLOAD SWAP11 DUP12 MSTORE PUSH1 0xFF SWAP10 DUP11 AND PUSH1 0x20 DUP13 ADD MSTORE SWAP8 DUP10 AND SWAP8 DUP11 ADD SWAP8 SWAP1 SWAP8 MSTORE SWAP5 DUP8 AND PUSH1 0x60 DUP10 ADD MSTORE SWAP3 DUP7 AND PUSH1 0x80 DUP9 ADD MSTORE SWAP1 DUP6 AND PUSH1 0xA0 DUP8 ADD MSTORE DUP5 AND PUSH1 0xC0 DUP7 ADD MSTORE SWAP1 SWAP3 AND PUSH1 0xE0 DUP5 ADD MSTORE PUSH2 0x100 DUP4 ADD SWAP2 SWAP1 SWAP2 MSTORE ISZERO ISZERO PUSH2 0x120 DUP3 ADD MSTORE PUSH2 0x140 ADD PUSH2 0x105 JUMP JUMPDEST PUSH2 0x205 PUSH1 0x7 SLOAD DUP2 JUMP JUMPDEST PUSH1 0x0 PUSH1 0x20 DUP3 DUP5 SUB SLT ISZERO PUSH2 0x38C JUMPI PUSH1 0x0 DUP1 REVERT JUMPDEST POP CALLDATALOAD SWAP2 SWAP1 POP JUMP INVALID LOG2 PUSH5 0x6970667358 0x22 SLT KECCAK256 CALLDATASIZE 0xD7 EXTCODECOPY DUP15 JUMPI 0xEC PUSH29 0x89160D3D50491AF6577FEE95E0017D5E599FDD99E0EF766F9C64736F6C PUSH4 0x43000807 STOP CALLER "
		},
		"gasEstimates": {
			"creation": {
				"codeDepositCost": "193800",
				"executionCost": "20262",
				"totalCost": "214062"
			},
			"external": {
				"crateUmblData(uint256)": "11091",
				"nextCrateId()": "2317",
				"nextPackageId()": "2361",
				"nextPresetId()": "2295",
				"nextTokenId()": "2340",
				"packageUmblData(uint256)": "13132",
				"presetUmblData(uint256)": "9193",
				"tokenUmblData(uint256)": "11359"
			}
		},
		"methodIdentifiers": {
			"crateUmblData(uint256)": "b38d817c",
			"nextCrateId()": "cb9953e7",
			"nextPackageId()": "d7da9e4f",
			"nextPresetId()": "c8a768e6",
			"nextTokenId()": "75794a3c",
			"packageUmblData(uint256)": "0c802789",
			"presetUmblData(uint256)": "cefa3e9f",
			"tokenUmblData(uint256)": "1280cb62"
		}
	},
	"abi": [
		{
			"inputs": [
				{
					"internalType": "uint256",
					"name": "",
					"type": "uint256"
				}
			],
			"name": "crateUmblData",
			"outputs": [
				{
					"internalType": "uint256",
					"name": "id",
					"type": "uint256"
				},
				{
					"internalType": "uint8",
					"name": "faction",
					"type": "uint8"
				},
				{
					"internalType": "uint8",
					"name": "tokenCount",
					"type": "uint8"
				},
				{
					"internalType": "uint256",
					"name": "price",
					"type": "uint256"
				},
				{
					"internalType": "bool",
					"name": "isDeleted",
					"type": "bool"
				}
			],
			"stateMutability": "view",
			"type": "function"
		},
		{
			"inputs": [],
			"name": "nextCrateId",
			"outputs": [
				{
					"internalType": "uint256",
					"name": "",
					"type": "uint256"
				}
			],
			"stateMutability": "view",
			"type": "function"
		},
		{
			"inputs": [],
			"name": "nextPackageId",
			"outputs": [
				{
					"internalType": "uint256",
					"name": "",
					"type": "uint256"
				}
			],
			"stateMutability": "view",
			"type": "function"
		},
		{
			"inputs": [],
			"name": "nextPresetId",
			"outputs": [
				{
					"internalType": "uint256",
					"name": "",
					"type": "uint256"
				}
			],
			"stateMutability": "view",
			"type": "function"
		},
		{
			"inputs": [],
			"name": "nextTokenId",
			"outputs": [
				{
					"internalType": "uint256",
					"name": "",
					"type": "uint256"
				}
			],
			"stateMutability": "view",
			"type": "function"
		},
		{
			"inputs": [
				{
					"internalType": "uint256",
					"name": "",
					"type": "uint256"
				}
			],
			"name": "packageUmblData",
			"outputs": [
				{
					"internalType": "uint256",
					"name": "id",
					"type": "uint256"
				},
				{
					"internalType": "uint8",
					"name": "tokenCount",
					"type": "uint8"
				},
				{
					"internalType": "uint256",
					"name": "startTime",
					"type": "uint256"
				},
				{
					"internalType": "uint256",
					"name": "endTime",
					"type": "uint256"
				},
				{
					"internalType": "uint256",
					"name": "price",
					"type": "uint256"
				},
				{
					"internalType": "bool",
					"name": "isDeleted",
					"type": "bool"
				}
			],
			"stateMutability": "view",
			"type": "function"
		},
		{
			"inputs": [
				{
					"internalType": "uint256",
					"name": "",
					"type": "uint256"
				}
			],
			"name": "presetUmblData",
			"outputs": [
				{
					"internalType": "uint256",
					"name": "id",
					"type": "uint256"
				},
				{
					"internalType": "uint8",
					"name": "tokenType",
					"type": "uint8"
				},
				{
					"internalType": "uint8",
					"name": "level",
					"type": "uint8"
				},
				{
					"internalType": "uint8",
					"name": "faction",
					"type": "uint8"
				},
				{
					"internalType": "uint8",
					"name": "category",
					"type": "uint8"
				},
				{
					"internalType": "uint8",
					"name": "rarity",
					"type": "uint8"
				},
				{
					"internalType": "uint8",
					"name": "badgeType",
					"type": "uint8"
				},
				{
					"internalType": "uint8",
					"name": "zoneType",
					"type": "uint8"
				},
				{
					"internalType": "uint256",
					"name": "price",
					"type": "uint256"
				},
				{
					"internalType": "bool",
					"name": "isDeleted",
					"type": "bool"
				}
			],
			"stateMutability": "view",
			"type": "function"
		},
		{
			"inputs": [
				{
					"internalType": "uint256",
					"name": "",
					"type": "uint256"
				}
			],
			"name": "tokenUmblData",
			"outputs": [
				{
					"internalType": "uint256",
					"name": "id",
					"type": "uint256"
				},
				{
					"internalType": "uint256",
					"name": "presetId",
					"type": "uint256"
				},
				{
					"internalType": "address",
					"name": "owner",
					"type": "address"
				},
				{
					"internalType": "uint8",
					"name": "level",
					"type": "uint8"
				},
				{
					"internalType": "uint8",
					"name": "faction",
					"type": "uint8"
				},
				{
					"internalType": "uint8",
					"name": "category",
					"type": "uint8"
				},
				{
					"internalType": "uint8",
					"name": "rarity",
					"type": "uint8"
				},
				{
					"internalType": "uint8",
					"name": "state",
					"type": "uint8"
				},
				{
					"internalType": "uint8",
					"name": "health",
					"type": "uint8"
				},
				{
					"internalType": "uint256",
					"name": "price",
					"type": "uint256"
				},
				{
					"internalType": "bool",
					"name": "isSale",
					"type": "bool"
				}
			],
			"stateMutability": "view",
			"type": "function"
		}
	]
}