{
	"data": {
		"bytecode": {
			"linkReferences": {},
			"object": "600060048190556005819055600681905560075560c0604052600c60808190526b155b589c995b1b184813919560a21b60a09081526200004391600d91906200061c565b5060408051808201909152600780825266155b589b13919560ca1b60209092019182526200007491600e916200061c565b5060405180606001604052806027815260200162002376602791398051620000a591600f916020909101906200061c565b50348015620000b357600080fd5b50600f8054620000c390620007c8565b80601f0160208091040260200160405190810160405280929190818152602001828054620000f190620007c8565b8015620001425780601f10620001165761010080835404028352916020019162000142565b820191906000526020600020905b8154815290600101906020018083116200012457829003601f168201915b5050505050620001616200015b6200024960201b60201c565b6200024d565b600160095562000171816200029f565b506200019e336000670de0b6b3a764000060405180602001604052806000815250620002b860201b60201c565b620001ce3360016b033b2e3c9fd0803ce800000060405180602001604052806000815250620002b860201b60201c565b620001f3336002600160405180602001604052806000815250620002b860201b60201c565b6200021b336003633b9aca0060405180602001604052806000815250620002b860201b60201c565b62000243336004633b9aca0060405180602001604052806000815250620002b860201b60201c565b62000902565b3390565b600880546001600160a01b038381166001600160a01b0319831681179093556040519116919082907f8be0079c531659141344cd1fd0a4f28419497f9722a3daafe3b4186f6b6457e090600090a35050565b8051620002b490600c9060208401906200061c565b5050565b6001600160a01b0384166200031e5760405162461bcd60e51b815260206004820152602160248201527f455243313135353a206d696e7420746f20746865207a65726f206164647265736044820152607360f81b60648201526084015b60405180910390fd5b3362000344816000876200033288620003da565b6200033d88620003da565b5050505050565b6000848152600a602090815260408083206001600160a01b03891684529091528120805485929062000378908490620007a1565b909155505060408051858152602081018590526001600160a01b0380881692600092918516917fc3d58168c5ae7397731d063d5bbf3d657854427343f4c083240f7aacaa2d0f62910160405180910390a46200033d8160008787878762000430565b6040805160018082528183019092526060916000919060208083019080368337019050509050828160008151811062000417576200041762000840565b602090810291909101015292915050565b505050505050565b6200044f846001600160a01b03166200061660201b62000b461760201c565b15620004285760405163f23a6e6160e01b81526001600160a01b0385169063f23a6e61906200048b908990899088908890889060040162000745565b602060405180830381600087803b158015620004a657600080fd5b505af1925050508015620004d9575060408051601f3d908101601f19168201909252620004d691810190620006c2565b60015b6200059a57620004e862000856565b806308c379a014156200052957506200050062000873565b806200050d57506200052b565b8060405162461bcd60e51b81526004016200031591906200078c565b505b60405162461bcd60e51b815260206004820152603460248201527f455243313135353a207472616e7366657220746f206e6f6e204552433131353560448201527f526563656976657220696d706c656d656e746572000000000000000000000000606482015260840162000315565b6001600160e01b0319811663f23a6e6160e01b146200060d5760405162461bcd60e51b815260206004820152602860248201527f455243313135353a204552433131353552656365697665722072656a656374656044820152676420746f6b656e7360c01b606482015260840162000315565b50505050505050565b3b151590565b8280546200062a90620007c8565b90600052602060002090601f0160209004810192826200064e576000855562000699565b82601f106200066957805160ff191683800117855562000699565b8280016001018555821562000699579182015b82811115620006995782518255916020019190600101906200067c565b50620006a7929150620006ab565b5090565b5b80821115620006a75760008155600101620006ac565b600060208284031215620006d557600080fd5b81516001600160e01b031981168114620006ee57600080fd5b9392505050565b6000815180845260005b818110156200071d57602081850181015186830182015201620006ff565b8181111562000730576000602083870101525b50601f01601f19169290920160200192915050565b6001600160a01b03868116825285166020820152604081018490526060810183905260a0608082018190526000906200078190830184620006f5565b979650505050505050565b602081526000620006ee6020830184620006f5565b60008219821115620007c357634e487b7160e01b600052601160045260246000fd5b500190565b600181811c90821680620007dd57607f821691505b60208210811415620007ff57634e487b7160e01b600052602260045260246000fd5b50919050565b601f8201601f191681016001600160401b03811182821017156200083957634e487b7160e01b600052604160045260246000fd5b6040525050565b634e487b7160e01b600052603260045260246000fd5b600060033d1115620008705760046000803e5060005160e01c5b90565b600060443d1015620008825790565b6040516003193d81016004833e81513d6001600160401b038083116024840183101715620008b257505050505090565b8285019150815181811115620008cb5750505050505090565b843d8701016020828501011115620008e65750505050505090565b620008f76020828601018762000805565b509095945050505050565b611a6480620009126000396000f3fe608060405234801561001057600080fd5b50600436106101a85760003560e01c8063763c87bf116100f9578063cefa3e9f11610097578063e3e55f0811610071578063e3e55f0814610465578063e985e9c51461046d578063f242432a146104a9578063f2fde38b146104bc57600080fd5b8063cefa3e9f146103fd578063d562e20414610454578063d7da9e4f1461045c57600080fd5b8063a22cb465116100d3578063a22cb46514610383578063b38d817c14610396578063c8a768e6146103eb578063cb9953e7146103f457600080fd5b8063763c87bf146103585780638da5cb5b1461036057806395d89b411461037b57600080fd5b806313dc989f116101665780634e1273f4116101405780634e1273f41461031f5780635b2725ed1461033f578063715018a61461034757806375794a3c1461034f57600080fd5b806313dc989f146102fa5780632eb2c2d6146103025780633e4bee381461031757600080fd5b8062fdd58e146101ad57806301ffc9a7146101d357806306fdde03146101f65780630c8027891461020b5780630e89341c146102805780631280cb6214610293575b600080fd5b6101c06101bb3660046113cf565b6104cf565b6040519081526020015b60405180910390f35b6101e66101e13660046114ca565b610568565b60405190151581526020016101ca565b6101fe6105ba565b6040516101ca91906116bd565b610251610219366004611504565b600360205260009081526040902080546001820154600283015460048401546005850154600690950154939492939192909160ff1686565b6040805196875260208701959095529385019290925260608401526080830152151560a082015260c0016101ca565b6101fe61028e366004611504565b610648565b6102e76102a1366004611504565b60006020819052908152604090208054600182015460028301546003909301549192909160ff808216916101008104821691620100008204811691630100000090041687565b6040516101ca9796959493929190611809565b6101c0600381565b610315610310366004611284565b6106dc565b005b6101c0600081565b61033261032d3660046113f9565b610773565b6040516101ca919061167c565b6101c0600481565b61031561089d565b6101c060045481565b6101fe610903565b6008546040516001600160a01b0390911681526020016101ca565b6101fe610910565b610315610391366004611393565b61091d565b6103da6103a4366004611504565b600260208190526000918252604090912080546001820154928201546003830154600590930154919392909160ff918216911685565b6040516101ca9594939291906117e7565b6101c060055481565b6101c060065481565b61044361040b366004611504565b6001602081905260009182526040909120805491015460ff808216916101008104821691620100008204811691630100000090041685565b6040516101ca9594939291906117a7565b6101c0600281565b6101c060075481565b6101c0600181565b6101e661047b366004611251565b6001600160a01b039182166000908152600b6020908152604080832093909416825291909152205460ff1690565b6103156104b736600461132e565b6109f4565b6103156104ca36600461122f565b610a7b565b60006001600160a01b0383166105405760405162461bcd60e51b815260206004820152602b60248201527f455243313135353a2062616c616e636520717565727920666f7220746865207a60448201526a65726f206164647265737360a81b60648201526084015b60405180910390fd5b506000908152600a602090815260408083206001600160a01b03949094168352929052205490565b60006001600160e01b03198216636cdb3d1360e11b148061059957506001600160e01b031982166303a24d0760e21b145b806105b457506301ffc9a760e01b6001600160e01b03198316145b92915050565b600d80546105c790611897565b80601f01602080910402602001604051908101604052809291908181526020018280546105f390611897565b80156106405780601f1061061557610100808354040283529160200191610640565b820191906000526020600020905b81548152906001019060200180831161062357829003601f168201915b505050505081565b6060600c805461065790611897565b80601f016020809104026020016040519081016040528092919081815260200182805461068390611897565b80156106d05780601f106106a5576101008083540402835291602001916106d0565b820191906000526020600020905b8154815290600101906020018083116106b357829003601f168201915b50505050509050919050565b6001600160a01b0385163314806106f857506106f8853361047b565b61075f5760405162461bcd60e51b815260206004820152603260248201527f455243313135353a207472616e736665722063616c6c6572206973206e6f74206044820152711bdddb995c881b9bdc88185c1c1c9bdd995960721b6064820152608401610537565b61076c8585858585610b4c565b5050505050565b606081518351146107d85760405162461bcd60e51b815260206004820152602960248201527f455243313135353a206163636f756e747320616e6420696473206c656e677468604482015268040dad2e6dac2e8c6d60bb1b6064820152608401610537565b6000835167ffffffffffffffff8111156107f4576107f461195c565b60405190808252806020026020018201604052801561081d578160200160208202803683370190505b50905060005b84518110156108955761086885828151811061084157610841611946565b602002602001015185838151811061085b5761085b611946565b60200260200101516104cf565b82828151811061087a5761087a611946565b602090810291909101015261088e816118ff565b9050610823565b509392505050565b6008546001600160a01b031633146108f75760405162461bcd60e51b815260206004820181905260248201527f4f776e61626c653a2063616c6c6572206973206e6f7420746865206f776e65726044820152606401610537565b6109016000610d2c565b565b600f80546105c790611897565b600e80546105c790611897565b336001600160a01b03831614156109885760405162461bcd60e51b815260206004820152602960248201527f455243313135353a2073657474696e6720617070726f76616c20737461747573604482015268103337b91039b2b63360b91b6064820152608401610537565b336000818152600b602090815260408083206001600160a01b03871680855290835292819020805460ff191686151590811790915590519081529192917f17307eab39ab6107e8899845ad3d59bd9653f200f220920489ca2b5937696c31910160405180910390a35050565b6001600160a01b038516331480610a105750610a10853361047b565b610a6e5760405162461bcd60e51b815260206004820152602960248201527f455243313135353a2063616c6c6572206973206e6f74206f776e6572206e6f7260448201526808185c1c1c9bdd995960ba1b6064820152608401610537565b61076c8585858585610d7e565b6008546001600160a01b03163314610ad55760405162461bcd60e51b815260206004820181905260248201527f4f776e61626c653a2063616c6c6572206973206e6f7420746865206f776e65726044820152606401610537565b6001600160a01b038116610b3a5760405162461bcd60e51b815260206004820152602660248201527f4f776e61626c653a206e6577206f776e657220697320746865207a65726f206160448201526564647265737360d01b6064820152608401610537565b610b4381610d2c565b50565b3b151590565b8151835114610bae5760405162461bcd60e51b815260206004820152602860248201527f455243313135353a2069647320616e6420616d6f756e7473206c656e677468206044820152670dad2e6dac2e8c6d60c31b6064820152608401610537565b6001600160a01b038416610bd45760405162461bcd60e51b815260040161053790611718565b3360005b8451811015610cbe576000858281518110610bf557610bf5611946565b602002602001015190506000858381518110610c1357610c13611946565b6020908102919091018101516000848152600a835260408082206001600160a01b038e168352909352919091205490915081811015610c645760405162461bcd60e51b81526004016105379061175d565b6000838152600a602090815260408083206001600160a01b038e8116855292528083208585039055908b16825281208054849290610ca390849061187f565b9250508190555050505080610cb7906118ff565b9050610bd8565b50846001600160a01b0316866001600160a01b0316826001600160a01b03167f4a39dc06d4c0dbc64b70af90fd698a233a518aa5d07e595d983b8c0526c8f7fb8787604051610d0e92919061168f565b60405180910390a4610d24818787878787610ea8565b505050505050565b600880546001600160a01b038381166001600160a01b0319831681179093556040519116919082907f8be0079c531659141344cd1fd0a4f28419497f9722a3daafe3b4186f6b6457e090600090a35050565b6001600160a01b038416610da45760405162461bcd60e51b815260040161053790611718565b33610dbd818787610db488611013565b61076c88611013565b6000848152600a602090815260408083206001600160a01b038a16845290915290205483811015610e005760405162461bcd60e51b81526004016105379061175d565b6000858152600a602090815260408083206001600160a01b038b8116855292528083208785039055908816825281208054869290610e3f90849061187f565b909155505060408051868152602081018690526001600160a01b03808916928a821692918616917fc3d58168c5ae7397731d063d5bbf3d657854427343f4c083240f7aacaa2d0f62910160405180910390a4610e9f82888888888861105e565b50505050505050565b6001600160a01b0384163b15610d245760405163bc197c8160e01b81526001600160a01b0385169063bc197c8190610eec90899089908890889088906004016115d9565b602060405180830381600087803b158015610f0657600080fd5b505af1925050508015610f36575060408051601f3d908101601f19168201909252610f33918101906114e7565b60015b610fe357610f42611972565b806308c379a01415610f7c5750610f5761198e565b80610f625750610f7e565b8060405162461bcd60e51b815260040161053791906116bd565b505b60405162461bcd60e51b815260206004820152603460248201527f455243313135353a207472616e7366657220746f206e6f6e20455243313135356044820152732932b1b2b4bb32b91034b6b83632b6b2b73a32b960611b6064820152608401610537565b6001600160e01b0319811663bc197c8160e01b14610e9f5760405162461bcd60e51b8152600401610537906116d0565b6040805160018082528183019092526060916000919060208083019080368337019050509050828160008151811061104d5761104d611946565b602090810291909101015292915050565b6001600160a01b0384163b15610d245760405163f23a6e6160e01b81526001600160a01b0385169063f23a6e61906110a29089908990889088908890600401611637565b602060405180830381600087803b1580156110bc57600080fd5b505af19250505080156110ec575060408051601f3d908101601f191682019092526110e9918101906114e7565b60015b6110f857610f42611972565b6001600160e01b0319811663f23a6e6160e01b14610e9f5760405162461bcd60e51b8152600401610537906116d0565b80356001600160a01b038116811461113f57600080fd5b919050565b600082601f83011261115557600080fd5b813560206111628261185b565b60405161116f82826118d2565b8381528281019150858301600585901b8701840188101561118f57600080fd5b60005b858110156111ae57813584529284019290840190600101611192565b5090979650505050505050565b600082601f8301126111cc57600080fd5b813567ffffffffffffffff8111156111e6576111e661195c565b6040516111fd601f8301601f1916602001826118d2565b81815284602083860101111561121257600080fd5b816020850160208301376000918101602001919091529392505050565b60006020828403121561124157600080fd5b61124a82611128565b9392505050565b6000806040838503121561126457600080fd5b61126d83611128565b915061127b60208401611128565b90509250929050565b600080600080600060a0868803121561129c57600080fd5b6112a586611128565b94506112b360208701611128565b9350604086013567ffffffffffffffff808211156112d057600080fd5b6112dc89838a01611144565b945060608801359150808211156112f257600080fd5b6112fe89838a01611144565b9350608088013591508082111561131457600080fd5b50611321888289016111bb565b9150509295509295909350565b600080600080600060a0868803121561134657600080fd5b61134f86611128565b945061135d60208701611128565b93506040860135925060608601359150608086013567ffffffffffffffff81111561138757600080fd5b611321888289016111bb565b600080604083850312156113a657600080fd5b6113af83611128565b9150602083013580151581146113c457600080fd5b809150509250929050565b600080604083850312156113e257600080fd5b6113eb83611128565b946020939093013593505050565b6000806040838503121561140c57600080fd5b823567ffffffffffffffff8082111561142457600080fd5b818501915085601f83011261143857600080fd5b813560206114458261185b565b60405161145282826118d2565b8381528281019150858301600585901b870184018b101561147257600080fd5b600096505b8487101561149c5761148881611128565b835260019690960195918301918301611477565b50965050860135925050808211156114b357600080fd5b506114c085828601611144565b9150509250929050565b6000602082840312156114dc57600080fd5b813561124a81611a18565b6000602082840312156114f957600080fd5b815161124a81611a18565b60006020828403121561151657600080fd5b5035919050565b600081518084526020808501945080840160005b8381101561154d57815187529582019590820190600101611531565b509495945050505050565b6000815180845260005b8181101561157e57602081850181015186830182015201611562565b81811115611590576000602083870101525b50601f01601f19169290920160200192915050565b600781106115b5576115b5611930565b9052565b600381106115b5576115b5611930565b600881106115b5576115b5611930565b6001600160a01b0386811682528516602082015260a0604082018190526000906116059083018661151d565b8281036060840152611617818661151d565b9050828103608084015261162b8185611558565b98975050505050505050565b6001600160a01b03868116825285166020820152604081018490526060810183905260a06080820181905260009061167190830184611558565b979650505050505050565b60208152600061124a602083018461151d565b6040815260006116a2604083018561151d565b82810360208401526116b4818561151d565b95945050505050565b60208152600061124a6020830184611558565b60208082526028908201527f455243313135353a204552433131353552656365697665722072656a656374656040820152676420746f6b656e7360c01b606082015260800190565b60208082526025908201527f455243313135353a207472616e7366657220746f20746865207a65726f206164604082015264647265737360d81b606082015260800190565b6020808252602a908201527f455243313135353a20696e73756666696369656e742062616c616e636520666f60408201526939103a3930b739b332b960b11b606082015260800190565b85815260a081016117bb60208301876115b9565b6117c860408301866115a5565b6117d560608301856115c9565b82151560808301529695505050505050565b858152602081018590526040810184905260a081016117d560608301856115b9565b878152602081018790526040810186905260e081016005861061182e5761182e611930565b85606083015261184160808301866115b9565b61184e60a08301856115a5565b61162b60c08301846115c9565b600067ffffffffffffffff8211156118755761187561195c565b5060051b60200190565b600082198211156118925761189261191a565b500190565b600181811c908216806118ab57607f821691505b602082108114156118cc57634e487b7160e01b600052602260045260246000fd5b50919050565b601f8201601f1916810167ffffffffffffffff811182821017156118f8576118f861195c565b6040525050565b60006000198214156119135761191361191a565b5060010190565b634e487b7160e01b600052601160045260246000fd5b634e487b7160e01b600052602160045260246000fd5b634e487b7160e01b600052603260045260246000fd5b634e487b7160e01b600052604160045260246000fd5b600060033d111561198b5760046000803e5060005160e01c5b90565b600060443d101561199c5790565b6040516003193d81016004833e81513d67ffffffffffffffff81602484011181841117156119cc57505050505090565b82850191508151818111156119e45750505050505090565b843d87010160208285010111156119fe5750505050505090565b611a0d602082860101876118d2565b509095945050505050565b6001600160e01b031981168114610b4357600080fdfea26469706673582212206acfc32eff346e3ff2cd16bdedfd250b1421dc11e8a4b14cc9f407802227a8d464736f6c6343000807003368747470733a2f2f67616d652e6578616d706c652f6170692f6974656d2f7b69647d2e6a736f6e",
			"opcodes": "PUSH1 0x0 PUSH1 0x4 DUP2 SWAP1 SSTORE PUSH1 0x5 DUP2 SWAP1 SSTORE PUSH1 0x6 DUP2 SWAP1 SSTORE PUSH1 0x7 SSTORE PUSH1 0xC0 PUSH1 0x40 MSTORE PUSH1 0xC PUSH1 0x80 DUP2 SWAP1 MSTORE PUSH12 0x155B589C995B1B1848139195 PUSH1 0xA2 SHL PUSH1 0xA0 SWAP1 DUP2 MSTORE PUSH3 0x43 SWAP2 PUSH1 0xD SWAP2 SWAP1 PUSH3 0x61C JUMP JUMPDEST POP PUSH1 0x40 DUP1 MLOAD DUP1 DUP3 ADD SWAP1 SWAP2 MSTORE PUSH1 0x7 DUP1 DUP3 MSTORE PUSH7 0x155B589B139195 PUSH1 0xCA SHL PUSH1 0x20 SWAP1 SWAP3 ADD SWAP2 DUP3 MSTORE PUSH3 0x74 SWAP2 PUSH1 0xE SWAP2 PUSH3 0x61C JUMP JUMPDEST POP PUSH1 0x40 MLOAD DUP1 PUSH1 0x60 ADD PUSH1 0x40 MSTORE DUP1 PUSH1 0x27 DUP2 MSTORE PUSH1 0x20 ADD PUSH3 0x2376 PUSH1 0x27 SWAP2 CODECOPY DUP1 MLOAD PUSH3 0xA5 SWAP2 PUSH1 0xF SWAP2 PUSH1 0x20 SWAP1 SWAP2 ADD SWAP1 PUSH3 0x61C JUMP JUMPDEST POP CALLVALUE DUP1 ISZERO PUSH3 0xB3 JUMPI PUSH1 0x0 DUP1 REVERT JUMPDEST POP PUSH1 0xF DUP1 SLOAD PUSH3 0xC3 SWAP1 PUSH3 0x7C8 JUMP JUMPDEST DUP1 PUSH1 0x1F ADD PUSH1 0x20 DUP1 SWAP2 DIV MUL PUSH1 0x20 ADD PUSH1 0x40 MLOAD SWAP1 DUP2 ADD PUSH1 0x40 MSTORE DUP1 SWAP3 SWAP2 SWAP1 DUP2 DUP2 MSTORE PUSH1 0x20 ADD DUP3 DUP1 SLOAD PUSH3 0xF1 SWAP1 PUSH3 0x7C8 JUMP JUMPDEST DUP1 ISZERO PUSH3 0x142 JUMPI DUP1 PUSH1 0x1F LT PUSH3 0x116 JUMPI PUSH2 0x100 DUP1 DUP4 SLOAD DIV MUL DUP4 MSTORE SWAP2 PUSH1 0x20 ADD SWAP2 PUSH3 0x142 JUMP JUMPDEST DUP3 ADD SWAP2 SWAP1 PUSH1 0x0 MSTORE PUSH1 0x20 PUSH1 0x0 KECCAK256 SWAP1 JUMPDEST DUP2 SLOAD DUP2 MSTORE SWAP1 PUSH1 0x1 ADD SWAP1 PUSH1 0x20 ADD DUP1 DUP4 GT PUSH3 0x124 JUMPI DUP3 SWAP1 SUB PUSH1 0x1F AND DUP3 ADD SWAP2 JUMPDEST POP POP POP POP POP PUSH3 0x161 PUSH3 0x15B PUSH3 0x249 PUSH1 0x20 SHL PUSH1 0x20 SHR JUMP JUMPDEST PUSH3 0x24D JUMP JUMPDEST PUSH1 0x1 PUSH1 0x9 SSTORE PUSH3 0x171 DUP2 PUSH3 0x29F JUMP JUMPDEST POP PUSH3 0x19E CALLER PUSH1 0x0 PUSH8 0xDE0B6B3A7640000 PUSH1 0x40 MLOAD DUP1 PUSH1 0x20 ADD PUSH1 0x40 MSTORE DUP1 PUSH1 0x0 DUP2 MSTORE POP PUSH3 0x2B8 PUSH1 0x20 SHL PUSH1 0x20 SHR JUMP JUMPDEST PUSH3 0x1CE CALLER PUSH1 0x1 PUSH12 0x33B2E3C9FD0803CE8000000 PUSH1 0x40 MLOAD DUP1 PUSH1 0x20 ADD PUSH1 0x40 MSTORE DUP1 PUSH1 0x0 DUP2 MSTORE POP PUSH3 0x2B8 PUSH1 0x20 SHL PUSH1 0x20 SHR JUMP JUMPDEST PUSH3 0x1F3 CALLER PUSH1 0x2 PUSH1 0x1 PUSH1 0x40 MLOAD DUP1 PUSH1 0x20 ADD PUSH1 0x40 MSTORE DUP1 PUSH1 0x0 DUP2 MSTORE POP PUSH3 0x2B8 PUSH1 0x20 SHL PUSH1 0x20 SHR JUMP JUMPDEST PUSH3 0x21B CALLER PUSH1 0x3 PUSH4 0x3B9ACA00 PUSH1 0x40 MLOAD DUP1 PUSH1 0x20 ADD PUSH1 0x40 MSTORE DUP1 PUSH1 0x0 DUP2 MSTORE POP PUSH3 0x2B8 PUSH1 0x20 SHL PUSH1 0x20 SHR JUMP JUMPDEST PUSH3 0x243 CALLER PUSH1 0x4 PUSH4 0x3B9ACA00 PUSH1 0x40 MLOAD DUP1 PUSH1 0x20 ADD PUSH1 0x40 MSTORE DUP1 PUSH1 0x0 DUP2 MSTORE POP PUSH3 0x2B8 PUSH1 0x20 SHL PUSH1 0x20 SHR JUMP JUMPDEST PUSH3 0x902 JUMP JUMPDEST CALLER SWAP1 JUMP JUMPDEST PUSH1 0x8 DUP1 SLOAD PUSH1 0x1 PUSH1 0x1 PUSH1 0xA0 SHL SUB DUP4 DUP2 AND PUSH1 0x1 PUSH1 0x1 PUSH1 0xA0 SHL SUB NOT DUP4 AND DUP2 OR SWAP1 SWAP4 SSTORE PUSH1 0x40 MLOAD SWAP2 AND SWAP2 SWAP1 DUP3 SWAP1 PUSH32 0x8BE0079C531659141344CD1FD0A4F28419497F9722A3DAAFE3B4186F6B6457E0 SWAP1 PUSH1 0x0 SWAP1 LOG3 POP POP JUMP JUMPDEST DUP1 MLOAD PUSH3 0x2B4 SWAP1 PUSH1 0xC SWAP1 PUSH1 0x20 DUP5 ADD SWAP1 PUSH3 0x61C JUMP JUMPDEST POP POP JUMP JUMPDEST PUSH1 0x1 PUSH1 0x1 PUSH1 0xA0 SHL SUB DUP5 AND PUSH3 0x31E JUMPI PUSH1 0x40 MLOAD PUSH3 0x461BCD PUSH1 0xE5 SHL DUP2 MSTORE PUSH1 0x20 PUSH1 0x4 DUP3 ADD MSTORE PUSH1 0x21 PUSH1 0x24 DUP3 ADD MSTORE PUSH32 0x455243313135353A206D696E7420746F20746865207A65726F20616464726573 PUSH1 0x44 DUP3 ADD MSTORE PUSH1 0x73 PUSH1 0xF8 SHL PUSH1 0x64 DUP3 ADD MSTORE PUSH1 0x84 ADD JUMPDEST PUSH1 0x40 MLOAD DUP1 SWAP2 SUB SWAP1 REVERT JUMPDEST CALLER PUSH3 0x344 DUP2 PUSH1 0x0 DUP8 PUSH3 0x332 DUP9 PUSH3 0x3DA JUMP JUMPDEST PUSH3 0x33D DUP9 PUSH3 0x3DA JUMP JUMPDEST POP POP POP POP POP JUMP JUMPDEST PUSH1 0x0 DUP5 DUP2 MSTORE PUSH1 0xA PUSH1 0x20 SWAP1 DUP2 MSTORE PUSH1 0x40 DUP1 DUP4 KECCAK256 PUSH1 0x1 PUSH1 0x1 PUSH1 0xA0 SHL SUB DUP10 AND DUP5 MSTORE SWAP1 SWAP2 MSTORE DUP2 KECCAK256 DUP1 SLOAD DUP6 SWAP3 SWAP1 PUSH3 0x378 SWAP1 DUP5 SWAP1 PUSH3 0x7A1 JUMP JUMPDEST SWAP1 SWAP2 SSTORE POP POP PUSH1 0x40 DUP1 MLOAD DUP6 DUP2 MSTORE PUSH1 0x20 DUP2 ADD DUP6 SWAP1 MSTORE PUSH1 0x1 PUSH1 0x1 PUSH1 0xA0 SHL SUB DUP1 DUP9 AND SWAP3 PUSH1 0x0 SWAP3 SWAP2 DUP6 AND SWAP2 PUSH32 0xC3D58168C5AE7397731D063D5BBF3D657854427343F4C083240F7AACAA2D0F62 SWAP2 ADD PUSH1 0x40 MLOAD DUP1 SWAP2 SUB SWAP1 LOG4 PUSH3 0x33D DUP2 PUSH1 0x0 DUP8 DUP8 DUP8 DUP8 PUSH3 0x430 JUMP JUMPDEST PUSH1 0x40 DUP1 MLOAD PUSH1 0x1 DUP1 DUP3 MSTORE DUP2 DUP4 ADD SWAP1 SWAP3 MSTORE PUSH1 0x60 SWAP2 PUSH1 0x0 SWAP2 SWAP1 PUSH1 0x20 DUP1 DUP4 ADD SWAP1 DUP1 CALLDATASIZE DUP4 CALLDATACOPY ADD SWAP1 POP POP SWAP1 POP DUP3 DUP2 PUSH1 0x0 DUP2 MLOAD DUP2 LT PUSH3 0x417 JUMPI PUSH3 0x417 PUSH3 0x840 JUMP JUMPDEST PUSH1 0x20 SWAP1 DUP2 MUL SWAP2 SWAP1 SWAP2 ADD ADD MSTORE SWAP3 SWAP2 POP POP JUMP JUMPDEST POP POP POP POP POP POP JUMP JUMPDEST PUSH3 0x44F DUP5 PUSH1 0x1 PUSH1 0x1 PUSH1 0xA0 SHL SUB AND PUSH3 0x616 PUSH1 0x20 SHL PUSH3 0xB46 OR PUSH1 0x20 SHR JUMP JUMPDEST ISZERO PUSH3 0x428 JUMPI PUSH1 0x40 MLOAD PUSH4 0xF23A6E61 PUSH1 0xE0 SHL DUP2 MSTORE PUSH1 0x1 PUSH1 0x1 PUSH1 0xA0 SHL SUB DUP6 AND SWAP1 PUSH4 0xF23A6E61 SWAP1 PUSH3 0x48B SWAP1 DUP10 SWAP1 DUP10 SWAP1 DUP9 SWAP1 DUP9 SWAP1 DUP9 SWAP1 PUSH1 0x4 ADD PUSH3 0x745 JUMP JUMPDEST PUSH1 0x20 PUSH1 0x40 MLOAD DUP1 DUP4 SUB DUP2 PUSH1 0x0 DUP8 DUP1 EXTCODESIZE ISZERO DUP1 ISZERO PUSH3 0x4A6 JUMPI PUSH1 0x0 DUP1 REVERT JUMPDEST POP GAS CALL SWAP3 POP POP POP DUP1 ISZERO PUSH3 0x4D9 JUMPI POP PUSH1 0x40 DUP1 MLOAD PUSH1 0x1F RETURNDATASIZE SWAP1 DUP2 ADD PUSH1 0x1F NOT AND DUP3 ADD SWAP1 SWAP3 MSTORE PUSH3 0x4D6 SWAP2 DUP2 ADD SWAP1 PUSH3 0x6C2 JUMP JUMPDEST PUSH1 0x1 JUMPDEST PUSH3 0x59A JUMPI PUSH3 0x4E8 PUSH3 0x856 JUMP JUMPDEST DUP1 PUSH4 0x8C379A0 EQ ISZERO PUSH3 0x529 JUMPI POP PUSH3 0x500 PUSH3 0x873 JUMP JUMPDEST DUP1 PUSH3 0x50D JUMPI POP PUSH3 0x52B JUMP JUMPDEST DUP1 PUSH1 0x40 MLOAD PUSH3 0x461BCD PUSH1 0xE5 SHL DUP2 MSTORE PUSH1 0x4 ADD PUSH3 0x315 SWAP2 SWAP1 PUSH3 0x78C JUMP JUMPDEST POP JUMPDEST PUSH1 0x40 MLOAD PUSH3 0x461BCD PUSH1 0xE5 SHL DUP2 MSTORE PUSH1 0x20 PUSH1 0x4 DUP3 ADD MSTORE PUSH1 0x34 PUSH1 0x24 DUP3 ADD MSTORE PUSH32 0x455243313135353A207472616E7366657220746F206E6F6E2045524331313535 PUSH1 0x44 DUP3 ADD MSTORE PUSH32 0x526563656976657220696D706C656D656E746572000000000000000000000000 PUSH1 0x64 DUP3 ADD MSTORE PUSH1 0x84 ADD PUSH3 0x315 JUMP JUMPDEST PUSH1 0x1 PUSH1 0x1 PUSH1 0xE0 SHL SUB NOT DUP2 AND PUSH4 0xF23A6E61 PUSH1 0xE0 SHL EQ PUSH3 0x60D JUMPI PUSH1 0x40 MLOAD PUSH3 0x461BCD PUSH1 0xE5 SHL DUP2 MSTORE PUSH1 0x20 PUSH1 0x4 DUP3 ADD MSTORE PUSH1 0x28 PUSH1 0x24 DUP3 ADD MSTORE PUSH32 0x455243313135353A204552433131353552656365697665722072656A65637465 PUSH1 0x44 DUP3 ADD MSTORE PUSH8 0x6420746F6B656E73 PUSH1 0xC0 SHL PUSH1 0x64 DUP3 ADD MSTORE PUSH1 0x84 ADD PUSH3 0x315 JUMP JUMPDEST POP POP POP POP POP POP POP JUMP JUMPDEST EXTCODESIZE ISZERO ISZERO SWAP1 JUMP JUMPDEST DUP3 DUP1 SLOAD PUSH3 0x62A SWAP1 PUSH3 0x7C8 JUMP JUMPDEST SWAP1 PUSH1 0x0 MSTORE PUSH1 0x20 PUSH1 0x0 KECCAK256 SWAP1 PUSH1 0x1F ADD PUSH1 0x20 SWAP1 DIV DUP2 ADD SWAP3 DUP3 PUSH3 0x64E JUMPI PUSH1 0x0 DUP6 SSTORE PUSH3 0x699 JUMP JUMPDEST DUP3 PUSH1 0x1F LT PUSH3 0x669 JUMPI DUP1 MLOAD PUSH1 0xFF NOT AND DUP4 DUP1 ADD OR DUP6 SSTORE PUSH3 0x699 JUMP JUMPDEST DUP3 DUP1 ADD PUSH1 0x1 ADD DUP6 SSTORE DUP3 ISZERO PUSH3 0x699 JUMPI SWAP2 DUP3 ADD JUMPDEST DUP3 DUP2 GT ISZERO PUSH3 0x699 JUMPI DUP3 MLOAD DUP3 SSTORE SWAP2 PUSH1 0x20 ADD SWAP2 SWAP1 PUSH1 0x1 ADD SWAP1 PUSH3 0x67C JUMP JUMPDEST POP PUSH3 0x6A7 SWAP3 SWAP2 POP PUSH3 0x6AB JUMP JUMPDEST POP SWAP1 JUMP JUMPDEST JUMPDEST DUP1 DUP3 GT ISZERO PUSH3 0x6A7 JUMPI PUSH1 0x0 DUP2 SSTORE PUSH1 0x1 ADD PUSH3 0x6AC JUMP JUMPDEST PUSH1 0x0 PUSH1 0x20 DUP3 DUP5 SUB SLT ISZERO PUSH3 0x6D5 JUMPI PUSH1 0x0 DUP1 REVERT JUMPDEST DUP2 MLOAD PUSH1 0x1 PUSH1 0x1 PUSH1 0xE0 SHL SUB NOT DUP2 AND DUP2 EQ PUSH3 0x6EE JUMPI PUSH1 0x0 DUP1 REVERT JUMPDEST SWAP4 SWAP3 POP POP POP JUMP JUMPDEST PUSH1 0x0 DUP2 MLOAD DUP1 DUP5 MSTORE PUSH1 0x0 JUMPDEST DUP2 DUP2 LT ISZERO PUSH3 0x71D JUMPI PUSH1 0x20 DUP2 DUP6 ADD DUP2 ADD MLOAD DUP7 DUP4 ADD DUP3 ADD MSTORE ADD PUSH3 0x6FF JUMP JUMPDEST DUP2 DUP2 GT ISZERO PUSH3 0x730 JUMPI PUSH1 0x0 PUSH1 0x20 DUP4 DUP8 ADD ADD MSTORE JUMPDEST POP PUSH1 0x1F ADD PUSH1 0x1F NOT AND SWAP3 SWAP1 SWAP3 ADD PUSH1 0x20 ADD SWAP3 SWAP2 POP POP JUMP JUMPDEST PUSH1 0x1 PUSH1 0x1 PUSH1 0xA0 SHL SUB DUP7 DUP2 AND DUP3 MSTORE DUP6 AND PUSH1 0x20 DUP3 ADD MSTORE PUSH1 0x40 DUP2 ADD DUP5 SWAP1 MSTORE PUSH1 0x60 DUP2 ADD DUP4 SWAP1 MSTORE PUSH1 0xA0 PUSH1 0x80 DUP3 ADD DUP2 SWAP1 MSTORE PUSH1 0x0 SWAP1 PUSH3 0x781 SWAP1 DUP4 ADD DUP5 PUSH3 0x6F5 JUMP JUMPDEST SWAP8 SWAP7 POP POP POP POP POP POP POP JUMP JUMPDEST PUSH1 0x20 DUP2 MSTORE PUSH1 0x0 PUSH3 0x6EE PUSH1 0x20 DUP4 ADD DUP5 PUSH3 0x6F5 JUMP JUMPDEST PUSH1 0x0 DUP3 NOT DUP3 GT ISZERO PUSH3 0x7C3 JUMPI PUSH4 0x4E487B71 PUSH1 0xE0 SHL PUSH1 0x0 MSTORE PUSH1 0x11 PUSH1 0x4 MSTORE PUSH1 0x24 PUSH1 0x0 REVERT JUMPDEST POP ADD SWAP1 JUMP JUMPDEST PUSH1 0x1 DUP2 DUP2 SHR SWAP1 DUP3 AND DUP1 PUSH3 0x7DD JUMPI PUSH1 0x7F DUP3 AND SWAP2 POP JUMPDEST PUSH1 0x20 DUP3 LT DUP2 EQ ISZERO PUSH3 0x7FF JUMPI PUSH4 0x4E487B71 PUSH1 0xE0 SHL PUSH1 0x0 MSTORE PUSH1 0x22 PUSH1 0x4 MSTORE PUSH1 0x24 PUSH1 0x0 REVERT JUMPDEST POP SWAP2 SWAP1 POP JUMP JUMPDEST PUSH1 0x1F DUP3 ADD PUSH1 0x1F NOT AND DUP2 ADD PUSH1 0x1 PUSH1 0x1 PUSH1 0x40 SHL SUB DUP2 GT DUP3 DUP3 LT OR ISZERO PUSH3 0x839 JUMPI PUSH4 0x4E487B71 PUSH1 0xE0 SHL PUSH1 0x0 MSTORE PUSH1 0x41 PUSH1 0x4 MSTORE PUSH1 0x24 PUSH1 0x0 REVERT JUMPDEST PUSH1 0x40 MSTORE POP POP JUMP JUMPDEST PUSH4 0x4E487B71 PUSH1 0xE0 SHL PUSH1 0x0 MSTORE PUSH1 0x32 PUSH1 0x4 MSTORE PUSH1 0x24 PUSH1 0x0 REVERT JUMPDEST PUSH1 0x0 PUSH1 0x3 RETURNDATASIZE GT ISZERO PUSH3 0x870 JUMPI PUSH1 0x4 PUSH1 0x0 DUP1 RETURNDATACOPY POP PUSH1 0x0 MLOAD PUSH1 0xE0 SHR JUMPDEST SWAP1 JUMP JUMPDEST PUSH1 0x0 PUSH1 0x44 RETURNDATASIZE LT ISZERO PUSH3 0x882 JUMPI SWAP1 JUMP JUMPDEST PUSH1 0x40 MLOAD PUSH1 0x3 NOT RETURNDATASIZE DUP2 ADD PUSH1 0x4 DUP4 RETURNDATACOPY DUP2 MLOAD RETURNDATASIZE PUSH1 0x1 PUSH1 0x1 PUSH1 0x40 SHL SUB DUP1 DUP4 GT PUSH1 0x24 DUP5 ADD DUP4 LT OR ISZERO PUSH3 0x8B2 JUMPI POP POP POP POP POP SWAP1 JUMP JUMPDEST DUP3 DUP6 ADD SWAP2 POP DUP2 MLOAD DUP2 DUP2 GT ISZERO PUSH3 0x8CB JUMPI POP POP POP POP POP POP SWAP1 JUMP JUMPDEST DUP5 RETURNDATASIZE DUP8 ADD ADD PUSH1 0x20 DUP3 DUP6 ADD ADD GT ISZERO PUSH3 0x8E6 JUMPI POP POP POP POP POP POP SWAP1 JUMP JUMPDEST PUSH3 0x8F7 PUSH1 0x20 DUP3 DUP7 ADD ADD DUP8 PUSH3 0x805 JUMP JUMPDEST POP SWAP1 SWAP6 SWAP5 POP POP POP POP POP JUMP JUMPDEST PUSH2 0x1A64 DUP1 PUSH3 0x912 PUSH1 0x0 CODECOPY PUSH1 0x0 RETURN INVALID PUSH1 0x80 PUSH1 0x40 MSTORE CALLVALUE DUP1 ISZERO PUSH2 0x10 JUMPI PUSH1 0x0 DUP1 REVERT JUMPDEST POP PUSH1 0x4 CALLDATASIZE LT PUSH2 0x1A8 JUMPI PUSH1 0x0 CALLDATALOAD PUSH1 0xE0 SHR DUP1 PUSH4 0x763C87BF GT PUSH2 0xF9 JUMPI DUP1 PUSH4 0xCEFA3E9F GT PUSH2 0x97 JUMPI DUP1 PUSH4 0xE3E55F08 GT PUSH2 0x71 JUMPI DUP1 PUSH4 0xE3E55F08 EQ PUSH2 0x465 JUMPI DUP1 PUSH4 0xE985E9C5 EQ PUSH2 0x46D JUMPI DUP1 PUSH4 0xF242432A EQ PUSH2 0x4A9 JUMPI DUP1 PUSH4 0xF2FDE38B EQ PUSH2 0x4BC JUMPI PUSH1 0x0 DUP1 REVERT JUMPDEST DUP1 PUSH4 0xCEFA3E9F EQ PUSH2 0x3FD JUMPI DUP1 PUSH4 0xD562E204 EQ PUSH2 0x454 JUMPI DUP1 PUSH4 0xD7DA9E4F EQ PUSH2 0x45C JUMPI PUSH1 0x0 DUP1 REVERT JUMPDEST DUP1 PUSH4 0xA22CB465 GT PUSH2 0xD3 JUMPI DUP1 PUSH4 0xA22CB465 EQ PUSH2 0x383 JUMPI DUP1 PUSH4 0xB38D817C EQ PUSH2 0x396 JUMPI DUP1 PUSH4 0xC8A768E6 EQ PUSH2 0x3EB JUMPI DUP1 PUSH4 0xCB9953E7 EQ PUSH2 0x3F4 JUMPI PUSH1 0x0 DUP1 REVERT JUMPDEST DUP1 PUSH4 0x763C87BF EQ PUSH2 0x358 JUMPI DUP1 PUSH4 0x8DA5CB5B EQ PUSH2 0x360 JUMPI DUP1 PUSH4 0x95D89B41 EQ PUSH2 0x37B JUMPI PUSH1 0x0 DUP1 REVERT JUMPDEST DUP1 PUSH4 0x13DC989F GT PUSH2 0x166 JUMPI DUP1 PUSH4 0x4E1273F4 GT PUSH2 0x140 JUMPI DUP1 PUSH4 0x4E1273F4 EQ PUSH2 0x31F JUMPI DUP1 PUSH4 0x5B2725ED EQ PUSH2 0x33F JUMPI DUP1 PUSH4 0x715018A6 EQ PUSH2 0x347 JUMPI DUP1 PUSH4 0x75794A3C EQ PUSH2 0x34F JUMPI PUSH1 0x0 DUP1 REVERT JUMPDEST DUP1 PUSH4 0x13DC989F EQ PUSH2 0x2FA JUMPI DUP1 PUSH4 0x2EB2C2D6 EQ PUSH2 0x302 JUMPI DUP1 PUSH4 0x3E4BEE38 EQ PUSH2 0x317 JUMPI PUSH1 0x0 DUP1 REVERT JUMPDEST DUP1 PUSH3 0xFDD58E EQ PUSH2 0x1AD JUMPI DUP1 PUSH4 0x1FFC9A7 EQ PUSH2 0x1D3 JUMPI DUP1 PUSH4 0x6FDDE03 EQ PUSH2 0x1F6 JUMPI DUP1 PUSH4 0xC802789 EQ PUSH2 0x20B JUMPI DUP1 PUSH4 0xE89341C EQ PUSH2 0x280 JUMPI DUP1 PUSH4 0x1280CB62 EQ PUSH2 0x293 JUMPI JUMPDEST PUSH1 0x0 DUP1 REVERT JUMPDEST PUSH2 0x1C0 PUSH2 0x1BB CALLDATASIZE PUSH1 0x4 PUSH2 0x13CF JUMP JUMPDEST PUSH2 0x4CF JUMP JUMPDEST PUSH1 0x40 MLOAD SWAP1 DUP2 MSTORE PUSH1 0x20 ADD JUMPDEST PUSH1 0x40 MLOAD DUP1 SWAP2 SUB SWAP1 RETURN JUMPDEST PUSH2 0x1E6 PUSH2 0x1E1 CALLDATASIZE PUSH1 0x4 PUSH2 0x14CA JUMP JUMPDEST PUSH2 0x568 JUMP JUMPDEST PUSH1 0x40 MLOAD SWAP1 ISZERO ISZERO DUP2 MSTORE PUSH1 0x20 ADD PUSH2 0x1CA JUMP JUMPDEST PUSH2 0x1FE PUSH2 0x5BA JUMP JUMPDEST PUSH1 0x40 MLOAD PUSH2 0x1CA SWAP2 SWAP1 PUSH2 0x16BD JUMP JUMPDEST PUSH2 0x251 PUSH2 0x219 CALLDATASIZE PUSH1 0x4 PUSH2 0x1504 JUMP JUMPDEST PUSH1 0x3 PUSH1 0x20 MSTORE PUSH1 0x0 SWAP1 DUP2 MSTORE PUSH1 0x40 SWAP1 KECCAK256 DUP1 SLOAD PUSH1 0x1 DUP3 ADD SLOAD PUSH1 0x2 DUP4 ADD SLOAD PUSH1 0x4 DUP5 ADD SLOAD PUSH1 0x5 DUP6 ADD SLOAD PUSH1 0x6 SWAP1 SWAP6 ADD SLOAD SWAP4 SWAP5 SWAP3 SWAP4 SWAP2 SWAP3 SWAP1 SWAP2 PUSH1 0xFF AND DUP7 JUMP JUMPDEST PUSH1 0x40 DUP1 MLOAD SWAP7 DUP8 MSTORE PUSH1 0x20 DUP8 ADD SWAP6 SWAP1 SWAP6 MSTORE SWAP4 DUP6 ADD SWAP3 SWAP1 SWAP3 MSTORE PUSH1 0x60 DUP5 ADD MSTORE PUSH1 0x80 DUP4 ADD MSTORE ISZERO ISZERO PUSH1 0xA0 DUP3 ADD MSTORE PUSH1 0xC0 ADD PUSH2 0x1CA JUMP JUMPDEST PUSH2 0x1FE PUSH2 0x28E CALLDATASIZE PUSH1 0x4 PUSH2 0x1504 JUMP JUMPDEST PUSH2 0x648 JUMP JUMPDEST PUSH2 0x2E7 PUSH2 0x2A1 CALLDATASIZE PUSH1 0x4 PUSH2 0x1504 JUMP JUMPDEST PUSH1 0x0 PUSH1 0x20 DUP2 SWAP1 MSTORE SWAP1 DUP2 MSTORE PUSH1 0x40 SWAP1 KECCAK256 DUP1 SLOAD PUSH1 0x1 DUP3 ADD SLOAD PUSH1 0x2 DUP4 ADD SLOAD PUSH1 0x3 SWAP1 SWAP4 ADD SLOAD SWAP2 SWAP3 SWAP1 SWAP2 PUSH1 0xFF DUP1 DUP3 AND SWAP2 PUSH2 0x100 DUP2 DIV DUP3 AND SWAP2 PUSH3 0x10000 DUP3 DIV DUP2 AND SWAP2 PUSH4 0x1000000 SWAP1 DIV AND DUP8 JUMP JUMPDEST PUSH1 0x40 MLOAD PUSH2 0x1CA SWAP8 SWAP7 SWAP6 SWAP5 SWAP4 SWAP3 SWAP2 SWAP1 PUSH2 0x1809 JUMP JUMPDEST PUSH2 0x1C0 PUSH1 0x3 DUP2 JUMP JUMPDEST PUSH2 0x315 PUSH2 0x310 CALLDATASIZE PUSH1 0x4 PUSH2 0x1284 JUMP JUMPDEST PUSH2 0x6DC JUMP JUMPDEST STOP JUMPDEST PUSH2 0x1C0 PUSH1 0x0 DUP2 JUMP JUMPDEST PUSH2 0x332 PUSH2 0x32D CALLDATASIZE PUSH1 0x4 PUSH2 0x13F9 JUMP JUMPDEST PUSH2 0x773 JUMP JUMPDEST PUSH1 0x40 MLOAD PUSH2 0x1CA SWAP2 SWAP1 PUSH2 0x167C JUMP JUMPDEST PUSH2 0x1C0 PUSH1 0x4 DUP2 JUMP JUMPDEST PUSH2 0x315 PUSH2 0x89D JUMP JUMPDEST PUSH2 0x1C0 PUSH1 0x4 SLOAD DUP2 JUMP JUMPDEST PUSH2 0x1FE PUSH2 0x903 JUMP JUMPDEST PUSH1 0x8 SLOAD PUSH1 0x40 MLOAD PUSH1 0x1 PUSH1 0x1 PUSH1 0xA0 SHL SUB SWAP1 SWAP2 AND DUP2 MSTORE PUSH1 0x20 ADD PUSH2 0x1CA JUMP JUMPDEST PUSH2 0x1FE PUSH2 0x910 JUMP JUMPDEST PUSH2 0x315 PUSH2 0x391 CALLDATASIZE PUSH1 0x4 PUSH2 0x1393 JUMP JUMPDEST PUSH2 0x91D JUMP JUMPDEST PUSH2 0x3DA PUSH2 0x3A4 CALLDATASIZE PUSH1 0x4 PUSH2 0x1504 JUMP JUMPDEST PUSH1 0x2 PUSH1 0x20 DUP2 SWAP1 MSTORE PUSH1 0x0 SWAP2 DUP3 MSTORE PUSH1 0x40 SWAP1 SWAP2 KECCAK256 DUP1 SLOAD PUSH1 0x1 DUP3 ADD SLOAD SWAP3 DUP3 ADD SLOAD PUSH1 0x3 DUP4 ADD SLOAD PUSH1 0x5 SWAP1 SWAP4 ADD SLOAD SWAP2 SWAP4 SWAP3 SWAP1 SWAP2 PUSH1 0xFF SWAP2 DUP3 AND SWAP2 AND DUP6 JUMP JUMPDEST PUSH1 0x40 MLOAD PUSH2 0x1CA SWAP6 SWAP5 SWAP4 SWAP3 SWAP2 SWAP1 PUSH2 0x17E7 JUMP JUMPDEST PUSH2 0x1C0 PUSH1 0x5 SLOAD DUP2 JUMP JUMPDEST PUSH2 0x1C0 PUSH1 0x6 SLOAD DUP2 JUMP JUMPDEST PUSH2 0x443 PUSH2 0x40B CALLDATASIZE PUSH1 0x4 PUSH2 0x1504 JUMP JUMPDEST PUSH1 0x1 PUSH1 0x20 DUP2 SWAP1 MSTORE PUSH1 0x0 SWAP2 DUP3 MSTORE PUSH1 0x40 SWAP1 SWAP2 KECCAK256 DUP1 SLOAD SWAP2 ADD SLOAD PUSH1 0xFF DUP1 DUP3 AND SWAP2 PUSH2 0x100 DUP2 DIV DUP3 AND SWAP2 PUSH3 0x10000 DUP3 DIV DUP2 AND SWAP2 PUSH4 0x1000000 SWAP1 DIV AND DUP6 JUMP JUMPDEST PUSH1 0x40 MLOAD PUSH2 0x1CA SWAP6 SWAP5 SWAP4 SWAP3 SWAP2 SWAP1 PUSH2 0x17A7 JUMP JUMPDEST PUSH2 0x1C0 PUSH1 0x2 DUP2 JUMP JUMPDEST PUSH2 0x1C0 PUSH1 0x7 SLOAD DUP2 JUMP JUMPDEST PUSH2 0x1C0 PUSH1 0x1 DUP2 JUMP JUMPDEST PUSH2 0x1E6 PUSH2 0x47B CALLDATASIZE PUSH1 0x4 PUSH2 0x1251 JUMP JUMPDEST PUSH1 0x1 PUSH1 0x1 PUSH1 0xA0 SHL SUB SWAP2 DUP3 AND PUSH1 0x0 SWAP1 DUP2 MSTORE PUSH1 0xB PUSH1 0x20 SWAP1 DUP2 MSTORE PUSH1 0x40 DUP1 DUP4 KECCAK256 SWAP4 SWAP1 SWAP5 AND DUP3 MSTORE SWAP2 SWAP1 SWAP2 MSTORE KECCAK256 SLOAD PUSH1 0xFF AND SWAP1 JUMP JUMPDEST PUSH2 0x315 PUSH2 0x4B7 CALLDATASIZE PUSH1 0x4 PUSH2 0x132E JUMP JUMPDEST PUSH2 0x9F4 JUMP JUMPDEST PUSH2 0x315 PUSH2 0x4CA CALLDATASIZE PUSH1 0x4 PUSH2 0x122F JUMP JUMPDEST PUSH2 0xA7B JUMP JUMPDEST PUSH1 0x0 PUSH1 0x1 PUSH1 0x1 PUSH1 0xA0 SHL SUB DUP4 AND PUSH2 0x540 JUMPI PUSH1 0x40 MLOAD PUSH3 0x461BCD PUSH1 0xE5 SHL DUP2 MSTORE PUSH1 0x20 PUSH1 0x4 DUP3 ADD MSTORE PUSH1 0x2B PUSH1 0x24 DUP3 ADD MSTORE PUSH32 0x455243313135353A2062616C616E636520717565727920666F7220746865207A PUSH1 0x44 DUP3 ADD MSTORE PUSH11 0x65726F2061646472657373 PUSH1 0xA8 SHL PUSH1 0x64 DUP3 ADD MSTORE PUSH1 0x84 ADD JUMPDEST PUSH1 0x40 MLOAD DUP1 SWAP2 SUB SWAP1 REVERT JUMPDEST POP PUSH1 0x0 SWAP1 DUP2 MSTORE PUSH1 0xA PUSH1 0x20 SWAP1 DUP2 MSTORE PUSH1 0x40 DUP1 DUP4 KECCAK256 PUSH1 0x1 PUSH1 0x1 PUSH1 0xA0 SHL SUB SWAP5 SWAP1 SWAP5 AND DUP4 MSTORE SWAP3 SWAP1 MSTORE KECCAK256 SLOAD SWAP1 JUMP JUMPDEST PUSH1 0x0 PUSH1 0x1 PUSH1 0x1 PUSH1 0xE0 SHL SUB NOT DUP3 AND PUSH4 0x6CDB3D13 PUSH1 0xE1 SHL EQ DUP1 PUSH2 0x599 JUMPI POP PUSH1 0x1 PUSH1 0x1 PUSH1 0xE0 SHL SUB NOT DUP3 AND PUSH4 0x3A24D07 PUSH1 0xE2 SHL EQ JUMPDEST DUP1 PUSH2 0x5B4 JUMPI POP PUSH4 0x1FFC9A7 PUSH1 0xE0 SHL PUSH1 0x1 PUSH1 0x1 PUSH1 0xE0 SHL SUB NOT DUP4 AND EQ JUMPDEST SWAP3 SWAP2 POP POP JUMP JUMPDEST PUSH1 0xD DUP1 SLOAD PUSH2 0x5C7 SWAP1 PUSH2 0x1897 JUMP JUMPDEST DUP1 PUSH1 0x1F ADD PUSH1 0x20 DUP1 SWAP2 DIV MUL PUSH1 0x20 ADD PUSH1 0x40 MLOAD SWAP1 DUP2 ADD PUSH1 0x40 MSTORE DUP1 SWAP3 SWAP2 SWAP1 DUP2 DUP2 MSTORE PUSH1 0x20 ADD DUP3 DUP1 SLOAD PUSH2 0x5F3 SWAP1 PUSH2 0x1897 JUMP JUMPDEST DUP1 ISZERO PUSH2 0x640 JUMPI DUP1 PUSH1 0x1F LT PUSH2 0x615 JUMPI PUSH2 0x100 DUP1 DUP4 SLOAD DIV MUL DUP4 MSTORE SWAP2 PUSH1 0x20 ADD SWAP2 PUSH2 0x640 JUMP JUMPDEST DUP3 ADD SWAP2 SWAP1 PUSH1 0x0 MSTORE PUSH1 0x20 PUSH1 0x0 KECCAK256 SWAP1 JUMPDEST DUP2 SLOAD DUP2 MSTORE SWAP1 PUSH1 0x1 ADD SWAP1 PUSH1 0x20 ADD DUP1 DUP4 GT PUSH2 0x623 JUMPI DUP3 SWAP1 SUB PUSH1 0x1F AND DUP3 ADD SWAP2 JUMPDEST POP POP POP POP POP DUP2 JUMP JUMPDEST PUSH1 0x60 PUSH1 0xC DUP1 SLOAD PUSH2 0x657 SWAP1 PUSH2 0x1897 JUMP JUMPDEST DUP1 PUSH1 0x1F ADD PUSH1 0x20 DUP1 SWAP2 DIV MUL PUSH1 0x20 ADD PUSH1 0x40 MLOAD SWAP1 DUP2 ADD PUSH1 0x40 MSTORE DUP1 SWAP3 SWAP2 SWAP1 DUP2 DUP2 MSTORE PUSH1 0x20 ADD DUP3 DUP1 SLOAD PUSH2 0x683 SWAP1 PUSH2 0x1897 JUMP JUMPDEST DUP1 ISZERO PUSH2 0x6D0 JUMPI DUP1 PUSH1 0x1F LT PUSH2 0x6A5 JUMPI PUSH2 0x100 DUP1 DUP4 SLOAD DIV MUL DUP4 MSTORE SWAP2 PUSH1 0x20 ADD SWAP2 PUSH2 0x6D0 JUMP JUMPDEST DUP3 ADD SWAP2 SWAP1 PUSH1 0x0 MSTORE PUSH1 0x20 PUSH1 0x0 KECCAK256 SWAP1 JUMPDEST DUP2 SLOAD DUP2 MSTORE SWAP1 PUSH1 0x1 ADD SWAP1 PUSH1 0x20 ADD DUP1 DUP4 GT PUSH2 0x6B3 JUMPI DUP3 SWAP1 SUB PUSH1 0x1F AND DUP3 ADD SWAP2 JUMPDEST POP POP POP POP POP SWAP1 POP SWAP2 SWAP1 POP JUMP JUMPDEST PUSH1 0x1 PUSH1 0x1 PUSH1 0xA0 SHL SUB DUP6 AND CALLER EQ DUP1 PUSH2 0x6F8 JUMPI POP PUSH2 0x6F8 DUP6 CALLER PUSH2 0x47B JUMP JUMPDEST PUSH2 0x75F JUMPI PUSH1 0x40 MLOAD PUSH3 0x461BCD PUSH1 0xE5 SHL DUP2 MSTORE PUSH1 0x20 PUSH1 0x4 DUP3 ADD MSTORE PUSH1 0x32 PUSH1 0x24 DUP3 ADD MSTORE PUSH32 0x455243313135353A207472616E736665722063616C6C6572206973206E6F7420 PUSH1 0x44 DUP3 ADD MSTORE PUSH18 0x1BDDDB995C881B9BDC88185C1C1C9BDD9959 PUSH1 0x72 SHL PUSH1 0x64 DUP3 ADD MSTORE PUSH1 0x84 ADD PUSH2 0x537 JUMP JUMPDEST PUSH2 0x76C DUP6 DUP6 DUP6 DUP6 DUP6 PUSH2 0xB4C JUMP JUMPDEST POP POP POP POP POP JUMP JUMPDEST PUSH1 0x60 DUP2 MLOAD DUP4 MLOAD EQ PUSH2 0x7D8 JUMPI PUSH1 0x40 MLOAD PUSH3 0x461BCD PUSH1 0xE5 SHL DUP2 MSTORE PUSH1 0x20 PUSH1 0x4 DUP3 ADD MSTORE PUSH1 0x29 PUSH1 0x24 DUP3 ADD MSTORE PUSH32 0x455243313135353A206163636F756E747320616E6420696473206C656E677468 PUSH1 0x44 DUP3 ADD MSTORE PUSH9 0x40DAD2E6DAC2E8C6D PUSH1 0xBB SHL PUSH1 0x64 DUP3 ADD MSTORE PUSH1 0x84 ADD PUSH2 0x537 JUMP JUMPDEST PUSH1 0x0 DUP4 MLOAD PUSH8 0xFFFFFFFFFFFFFFFF DUP2 GT ISZERO PUSH2 0x7F4 JUMPI PUSH2 0x7F4 PUSH2 0x195C JUMP JUMPDEST PUSH1 0x40 MLOAD SWAP1 DUP1 DUP3 MSTORE DUP1 PUSH1 0x20 MUL PUSH1 0x20 ADD DUP3 ADD PUSH1 0x40 MSTORE DUP1 ISZERO PUSH2 0x81D JUMPI DUP2 PUSH1 0x20 ADD PUSH1 0x20 DUP3 MUL DUP1 CALLDATASIZE DUP4 CALLDATACOPY ADD SWAP1 POP JUMPDEST POP SWAP1 POP PUSH1 0x0 JUMPDEST DUP5 MLOAD DUP2 LT ISZERO PUSH2 0x895 JUMPI PUSH2 0x868 DUP6 DUP3 DUP2 MLOAD DUP2 LT PUSH2 0x841 JUMPI PUSH2 0x841 PUSH2 0x1946 JUMP JUMPDEST PUSH1 0x20 MUL PUSH1 0x20 ADD ADD MLOAD DUP6 DUP4 DUP2 MLOAD DUP2 LT PUSH2 0x85B JUMPI PUSH2 0x85B PUSH2 0x1946 JUMP JUMPDEST PUSH1 0x20 MUL PUSH1 0x20 ADD ADD MLOAD PUSH2 0x4CF JUMP JUMPDEST DUP3 DUP3 DUP2 MLOAD DUP2 LT PUSH2 0x87A JUMPI PUSH2 0x87A PUSH2 0x1946 JUMP JUMPDEST PUSH1 0x20 SWAP1 DUP2 MUL SWAP2 SWAP1 SWAP2 ADD ADD MSTORE PUSH2 0x88E DUP2 PUSH2 0x18FF JUMP JUMPDEST SWAP1 POP PUSH2 0x823 JUMP JUMPDEST POP SWAP4 SWAP3 POP POP POP JUMP JUMPDEST PUSH1 0x8 SLOAD PUSH1 0x1 PUSH1 0x1 PUSH1 0xA0 SHL SUB AND CALLER EQ PUSH2 0x8F7 JUMPI PUSH1 0x40 MLOAD PUSH3 0x461BCD PUSH1 0xE5 SHL DUP2 MSTORE PUSH1 0x20 PUSH1 0x4 DUP3 ADD DUP2 SWAP1 MSTORE PUSH1 0x24 DUP3 ADD MSTORE PUSH32 0x4F776E61626C653A2063616C6C6572206973206E6F7420746865206F776E6572 PUSH1 0x44 DUP3 ADD MSTORE PUSH1 0x64 ADD PUSH2 0x537 JUMP JUMPDEST PUSH2 0x901 PUSH1 0x0 PUSH2 0xD2C JUMP JUMPDEST JUMP JUMPDEST PUSH1 0xF DUP1 SLOAD PUSH2 0x5C7 SWAP1 PUSH2 0x1897 JUMP JUMPDEST PUSH1 0xE DUP1 SLOAD PUSH2 0x5C7 SWAP1 PUSH2 0x1897 JUMP JUMPDEST CALLER PUSH1 0x1 PUSH1 0x1 PUSH1 0xA0 SHL SUB DUP4 AND EQ ISZERO PUSH2 0x988 JUMPI PUSH1 0x40 MLOAD PUSH3 0x461BCD PUSH1 0xE5 SHL DUP2 MSTORE PUSH1 0x20 PUSH1 0x4 DUP3 ADD MSTORE PUSH1 0x29 PUSH1 0x24 DUP3 ADD MSTORE PUSH32 0x455243313135353A2073657474696E6720617070726F76616C20737461747573 PUSH1 0x44 DUP3 ADD MSTORE PUSH9 0x103337B91039B2B633 PUSH1 0xB9 SHL PUSH1 0x64 DUP3 ADD MSTORE PUSH1 0x84 ADD PUSH2 0x537 JUMP JUMPDEST CALLER PUSH1 0x0 DUP2 DUP2 MSTORE PUSH1 0xB PUSH1 0x20 SWAP1 DUP2 MSTORE PUSH1 0x40 DUP1 DUP4 KECCAK256 PUSH1 0x1 PUSH1 0x1 PUSH1 0xA0 SHL SUB DUP8 AND DUP1 DUP6 MSTORE SWAP1 DUP4 MSTORE SWAP3 DUP2 SWAP1 KECCAK256 DUP1 SLOAD PUSH1 0xFF NOT AND DUP7 ISZERO ISZERO SWAP1 DUP2 OR SWAP1 SWAP2 SSTORE SWAP1 MLOAD SWAP1 DUP2 MSTORE SWAP2 SWAP3 SWAP2 PUSH32 0x17307EAB39AB6107E8899845AD3D59BD9653F200F220920489CA2B5937696C31 SWAP2 ADD PUSH1 0x40 MLOAD DUP1 SWAP2 SUB SWAP1 LOG3 POP POP JUMP JUMPDEST PUSH1 0x1 PUSH1 0x1 PUSH1 0xA0 SHL SUB DUP6 AND CALLER EQ DUP1 PUSH2 0xA10 JUMPI POP PUSH2 0xA10 DUP6 CALLER PUSH2 0x47B JUMP JUMPDEST PUSH2 0xA6E JUMPI PUSH1 0x40 MLOAD PUSH3 0x461BCD PUSH1 0xE5 SHL DUP2 MSTORE PUSH1 0x20 PUSH1 0x4 DUP3 ADD MSTORE PUSH1 0x29 PUSH1 0x24 DUP3 ADD MSTORE PUSH32 0x455243313135353A2063616C6C6572206973206E6F74206F776E6572206E6F72 PUSH1 0x44 DUP3 ADD MSTORE PUSH9 0x8185C1C1C9BDD9959 PUSH1 0xBA SHL PUSH1 0x64 DUP3 ADD MSTORE PUSH1 0x84 ADD PUSH2 0x537 JUMP JUMPDEST PUSH2 0x76C DUP6 DUP6 DUP6 DUP6 DUP6 PUSH2 0xD7E JUMP JUMPDEST PUSH1 0x8 SLOAD PUSH1 0x1 PUSH1 0x1 PUSH1 0xA0 SHL SUB AND CALLER EQ PUSH2 0xAD5 JUMPI PUSH1 0x40 MLOAD PUSH3 0x461BCD PUSH1 0xE5 SHL DUP2 MSTORE PUSH1 0x20 PUSH1 0x4 DUP3 ADD DUP2 SWAP1 MSTORE PUSH1 0x24 DUP3 ADD MSTORE PUSH32 0x4F776E61626C653A2063616C6C6572206973206E6F7420746865206F776E6572 PUSH1 0x44 DUP3 ADD MSTORE PUSH1 0x64 ADD PUSH2 0x537 JUMP JUMPDEST PUSH1 0x1 PUSH1 0x1 PUSH1 0xA0 SHL SUB DUP2 AND PUSH2 0xB3A JUMPI PUSH1 0x40 MLOAD PUSH3 0x461BCD PUSH1 0xE5 SHL DUP2 MSTORE PUSH1 0x20 PUSH1 0x4 DUP3 ADD MSTORE PUSH1 0x26 PUSH1 0x24 DUP3 ADD MSTORE PUSH32 0x4F776E61626C653A206E6577206F776E657220697320746865207A65726F2061 PUSH1 0x44 DUP3 ADD MSTORE PUSH6 0x646472657373 PUSH1 0xD0 SHL PUSH1 0x64 DUP3 ADD MSTORE PUSH1 0x84 ADD PUSH2 0x537 JUMP JUMPDEST PUSH2 0xB43 DUP2 PUSH2 0xD2C JUMP JUMPDEST POP JUMP JUMPDEST EXTCODESIZE ISZERO ISZERO SWAP1 JUMP JUMPDEST DUP2 MLOAD DUP4 MLOAD EQ PUSH2 0xBAE JUMPI PUSH1 0x40 MLOAD PUSH3 0x461BCD PUSH1 0xE5 SHL DUP2 MSTORE PUSH1 0x20 PUSH1 0x4 DUP3 ADD MSTORE PUSH1 0x28 PUSH1 0x24 DUP3 ADD MSTORE PUSH32 0x455243313135353A2069647320616E6420616D6F756E7473206C656E67746820 PUSH1 0x44 DUP3 ADD MSTORE PUSH8 0xDAD2E6DAC2E8C6D PUSH1 0xC3 SHL PUSH1 0x64 DUP3 ADD MSTORE PUSH1 0x84 ADD PUSH2 0x537 JUMP JUMPDEST PUSH1 0x1 PUSH1 0x1 PUSH1 0xA0 SHL SUB DUP5 AND PUSH2 0xBD4 JUMPI PUSH1 0x40 MLOAD PUSH3 0x461BCD PUSH1 0xE5 SHL DUP2 MSTORE PUSH1 0x4 ADD PUSH2 0x537 SWAP1 PUSH2 0x1718 JUMP JUMPDEST CALLER PUSH1 0x0 JUMPDEST DUP5 MLOAD DUP2 LT ISZERO PUSH2 0xCBE JUMPI PUSH1 0x0 DUP6 DUP3 DUP2 MLOAD DUP2 LT PUSH2 0xBF5 JUMPI PUSH2 0xBF5 PUSH2 0x1946 JUMP JUMPDEST PUSH1 0x20 MUL PUSH1 0x20 ADD ADD MLOAD SWAP1 POP PUSH1 0x0 DUP6 DUP4 DUP2 MLOAD DUP2 LT PUSH2 0xC13 JUMPI PUSH2 0xC13 PUSH2 0x1946 JUMP JUMPDEST PUSH1 0x20 SWAP1 DUP2 MUL SWAP2 SWAP1 SWAP2 ADD DUP2 ADD MLOAD PUSH1 0x0 DUP5 DUP2 MSTORE PUSH1 0xA DUP4 MSTORE PUSH1 0x40 DUP1 DUP3 KECCAK256 PUSH1 0x1 PUSH1 0x1 PUSH1 0xA0 SHL SUB DUP15 AND DUP4 MSTORE SWAP1 SWAP4 MSTORE SWAP2 SWAP1 SWAP2 KECCAK256 SLOAD SWAP1 SWAP2 POP DUP2 DUP2 LT ISZERO PUSH2 0xC64 JUMPI PUSH1 0x40 MLOAD PUSH3 0x461BCD PUSH1 0xE5 SHL DUP2 MSTORE PUSH1 0x4 ADD PUSH2 0x537 SWAP1 PUSH2 0x175D JUMP JUMPDEST PUSH1 0x0 DUP4 DUP2 MSTORE PUSH1 0xA PUSH1 0x20 SWAP1 DUP2 MSTORE PUSH1 0x40 DUP1 DUP4 KECCAK256 PUSH1 0x1 PUSH1 0x1 PUSH1 0xA0 SHL SUB DUP15 DUP2 AND DUP6 MSTORE SWAP3 MSTORE DUP1 DUP4 KECCAK256 DUP6 DUP6 SUB SWAP1 SSTORE SWAP1 DUP12 AND DUP3 MSTORE DUP2 KECCAK256 DUP1 SLOAD DUP5 SWAP3 SWAP1 PUSH2 0xCA3 SWAP1 DUP5 SWAP1 PUSH2 0x187F JUMP JUMPDEST SWAP3 POP POP DUP2 SWAP1 SSTORE POP POP POP POP DUP1 PUSH2 0xCB7 SWAP1 PUSH2 0x18FF JUMP JUMPDEST SWAP1 POP PUSH2 0xBD8 JUMP JUMPDEST POP DUP5 PUSH1 0x1 PUSH1 0x1 PUSH1 0xA0 SHL SUB AND DUP7 PUSH1 0x1 PUSH1 0x1 PUSH1 0xA0 SHL SUB AND DUP3 PUSH1 0x1 PUSH1 0x1 PUSH1 0xA0 SHL SUB AND PUSH32 0x4A39DC06D4C0DBC64B70AF90FD698A233A518AA5D07E595D983B8C0526C8F7FB DUP8 DUP8 PUSH1 0x40 MLOAD PUSH2 0xD0E SWAP3 SWAP2 SWAP1 PUSH2 0x168F JUMP JUMPDEST PUSH1 0x40 MLOAD DUP1 SWAP2 SUB SWAP1 LOG4 PUSH2 0xD24 DUP2 DUP8 DUP8 DUP8 DUP8 DUP8 PUSH2 0xEA8 JUMP JUMPDEST POP POP POP POP POP POP JUMP JUMPDEST PUSH1 0x8 DUP1 SLOAD PUSH1 0x1 PUSH1 0x1 PUSH1 0xA0 SHL SUB DUP4 DUP2 AND PUSH1 0x1 PUSH1 0x1 PUSH1 0xA0 SHL SUB NOT DUP4 AND DUP2 OR SWAP1 SWAP4 SSTORE PUSH1 0x40 MLOAD SWAP2 AND SWAP2 SWAP1 DUP3 SWAP1 PUSH32 0x8BE0079C531659141344CD1FD0A4F28419497F9722A3DAAFE3B4186F6B6457E0 SWAP1 PUSH1 0x0 SWAP1 LOG3 POP POP JUMP JUMPDEST PUSH1 0x1 PUSH1 0x1 PUSH1 0xA0 SHL SUB DUP5 AND PUSH2 0xDA4 JUMPI PUSH1 0x40 MLOAD PUSH3 0x461BCD PUSH1 0xE5 SHL DUP2 MSTORE PUSH1 0x4 ADD PUSH2 0x537 SWAP1 PUSH2 0x1718 JUMP JUMPDEST CALLER PUSH2 0xDBD DUP2 DUP8 DUP8 PUSH2 0xDB4 DUP9 PUSH2 0x1013 JUMP JUMPDEST PUSH2 0x76C DUP9 PUSH2 0x1013 JUMP JUMPDEST PUSH1 0x0 DUP5 DUP2 MSTORE PUSH1 0xA PUSH1 0x20 SWAP1 DUP2 MSTORE PUSH1 0x40 DUP1 DUP4 KECCAK256 PUSH1 0x1 PUSH1 0x1 PUSH1 0xA0 SHL SUB DUP11 AND DUP5 MSTORE SWAP1 SWAP2 MSTORE SWAP1 KECCAK256 SLOAD DUP4 DUP2 LT ISZERO PUSH2 0xE00 JUMPI PUSH1 0x40 MLOAD PUSH3 0x461BCD PUSH1 0xE5 SHL DUP2 MSTORE PUSH1 0x4 ADD PUSH2 0x537 SWAP1 PUSH2 0x175D JUMP JUMPDEST PUSH1 0x0 DUP6 DUP2 MSTORE PUSH1 0xA PUSH1 0x20 SWAP1 DUP2 MSTORE PUSH1 0x40 DUP1 DUP4 KECCAK256 PUSH1 0x1 PUSH1 0x1 PUSH1 0xA0 SHL SUB DUP12 DUP2 AND DUP6 MSTORE SWAP3 MSTORE DUP1 DUP4 KECCAK256 DUP8 DUP6 SUB SWAP1 SSTORE SWAP1 DUP9 AND DUP3 MSTORE DUP2 KECCAK256 DUP1 SLOAD DUP7 SWAP3 SWAP1 PUSH2 0xE3F SWAP1 DUP5 SWAP1 PUSH2 0x187F JUMP JUMPDEST SWAP1 SWAP2 SSTORE POP POP PUSH1 0x40 DUP1 MLOAD DUP7 DUP2 MSTORE PUSH1 0x20 DUP2 ADD DUP7 SWAP1 MSTORE PUSH1 0x1 PUSH1 0x1 PUSH1 0xA0 SHL SUB DUP1 DUP10 AND SWAP3 DUP11 DUP3 AND SWAP3 SWAP2 DUP7 AND SWAP2 PUSH32 0xC3D58168C5AE7397731D063D5BBF3D657854427343F4C083240F7AACAA2D0F62 SWAP2 ADD PUSH1 0x40 MLOAD DUP1 SWAP2 SUB SWAP1 LOG4 PUSH2 0xE9F DUP3 DUP9 DUP9 DUP9 DUP9 DUP9 PUSH2 0x105E JUMP JUMPDEST POP POP POP POP POP POP POP JUMP JUMPDEST PUSH1 0x1 PUSH1 0x1 PUSH1 0xA0 SHL SUB DUP5 AND EXTCODESIZE ISZERO PUSH2 0xD24 JUMPI PUSH1 0x40 MLOAD PUSH4 0xBC197C81 PUSH1 0xE0 SHL DUP2 MSTORE PUSH1 0x1 PUSH1 0x1 PUSH1 0xA0 SHL SUB DUP6 AND SWAP1 PUSH4 0xBC197C81 SWAP1 PUSH2 0xEEC SWAP1 DUP10 SWAP1 DUP10 SWAP1 DUP9 SWAP1 DUP9 SWAP1 DUP9 SWAP1 PUSH1 0x4 ADD PUSH2 0x15D9 JUMP JUMPDEST PUSH1 0x20 PUSH1 0x40 MLOAD DUP1 DUP4 SUB DUP2 PUSH1 0x0 DUP8 DUP1 EXTCODESIZE ISZERO DUP1 ISZERO PUSH2 0xF06 JUMPI PUSH1 0x0 DUP1 REVERT JUMPDEST POP GAS CALL SWAP3 POP POP POP DUP1 ISZERO PUSH2 0xF36 JUMPI POP PUSH1 0x40 DUP1 MLOAD PUSH1 0x1F RETURNDATASIZE SWAP1 DUP2 ADD PUSH1 0x1F NOT AND DUP3 ADD SWAP1 SWAP3 MSTORE PUSH2 0xF33 SWAP2 DUP2 ADD SWAP1 PUSH2 0x14E7 JUMP JUMPDEST PUSH1 0x1 JUMPDEST PUSH2 0xFE3 JUMPI PUSH2 0xF42 PUSH2 0x1972 JUMP JUMPDEST DUP1 PUSH4 0x8C379A0 EQ ISZERO PUSH2 0xF7C JUMPI POP PUSH2 0xF57 PUSH2 0x198E JUMP JUMPDEST DUP1 PUSH2 0xF62 JUMPI POP PUSH2 0xF7E JUMP JUMPDEST DUP1 PUSH1 0x40 MLOAD PUSH3 0x461BCD PUSH1 0xE5 SHL DUP2 MSTORE PUSH1 0x4 ADD PUSH2 0x537 SWAP2 SWAP1 PUSH2 0x16BD JUMP JUMPDEST POP JUMPDEST PUSH1 0x40 MLOAD PUSH3 0x461BCD PUSH1 0xE5 SHL DUP2 MSTORE PUSH1 0x20 PUSH1 0x4 DUP3 ADD MSTORE PUSH1 0x34 PUSH1 0x24 DUP3 ADD MSTORE PUSH32 0x455243313135353A207472616E7366657220746F206E6F6E2045524331313535 PUSH1 0x44 DUP3 ADD MSTORE PUSH20 0x2932B1B2B4BB32B91034B6B83632B6B2B73A32B9 PUSH1 0x61 SHL PUSH1 0x64 DUP3 ADD MSTORE PUSH1 0x84 ADD PUSH2 0x537 JUMP JUMPDEST PUSH1 0x1 PUSH1 0x1 PUSH1 0xE0 SHL SUB NOT DUP2 AND PUSH4 0xBC197C81 PUSH1 0xE0 SHL EQ PUSH2 0xE9F JUMPI PUSH1 0x40 MLOAD PUSH3 0x461BCD PUSH1 0xE5 SHL DUP2 MSTORE PUSH1 0x4 ADD PUSH2 0x537 SWAP1 PUSH2 0x16D0 JUMP JUMPDEST PUSH1 0x40 DUP1 MLOAD PUSH1 0x1 DUP1 DUP3 MSTORE DUP2 DUP4 ADD SWAP1 SWAP3 MSTORE PUSH1 0x60 SWAP2 PUSH1 0x0 SWAP2 SWAP1 PUSH1 0x20 DUP1 DUP4 ADD SWAP1 DUP1 CALLDATASIZE DUP4 CALLDATACOPY ADD SWAP1 POP POP SWAP1 POP DUP3 DUP2 PUSH1 0x0 DUP2 MLOAD DUP2 LT PUSH2 0x104D JUMPI PUSH2 0x104D PUSH2 0x1946 JUMP JUMPDEST PUSH1 0x20 SWAP1 DUP2 MUL SWAP2 SWAP1 SWAP2 ADD ADD MSTORE SWAP3 SWAP2 POP POP JUMP JUMPDEST PUSH1 0x1 PUSH1 0x1 PUSH1 0xA0 SHL SUB DUP5 AND EXTCODESIZE ISZERO PUSH2 0xD24 JUMPI PUSH1 0x40 MLOAD PUSH4 0xF23A6E61 PUSH1 0xE0 SHL DUP2 MSTORE PUSH1 0x1 PUSH1 0x1 PUSH1 0xA0 SHL SUB DUP6 AND SWAP1 PUSH4 0xF23A6E61 SWAP1 PUSH2 0x10A2 SWAP1 DUP10 SWAP1 DUP10 SWAP1 DUP9 SWAP1 DUP9 SWAP1 DUP9 SWAP1 PUSH1 0x4 ADD PUSH2 0x1637 JUMP JUMPDEST PUSH1 0x20 PUSH1 0x40 MLOAD DUP1 DUP4 SUB DUP2 PUSH1 0x0 DUP8 DUP1 EXTCODESIZE ISZERO DUP1 ISZERO PUSH2 0x10BC JUMPI PUSH1 0x0 DUP1 REVERT JUMPDEST POP GAS CALL SWAP3 POP POP POP DUP1 ISZERO PUSH2 0x10EC JUMPI POP PUSH1 0x40 DUP1 MLOAD PUSH1 0x1F RETURNDATASIZE SWAP1 DUP2 ADD PUSH1 0x1F NOT AND DUP3 ADD SWAP1 SWAP3 MSTORE PUSH2 0x10E9 SWAP2 DUP2 ADD SWAP1 PUSH2 0x14E7 JUMP JUMPDEST PUSH1 0x1 JUMPDEST PUSH2 0x10F8 JUMPI PUSH2 0xF42 PUSH2 0x1972 JUMP JUMPDEST PUSH1 0x1 PUSH1 0x1 PUSH1 0xE0 SHL SUB NOT DUP2 AND PUSH4 0xF23A6E61 PUSH1 0xE0 SHL EQ PUSH2 0xE9F JUMPI PUSH1 0x40 MLOAD PUSH3 0x461BCD PUSH1 0xE5 SHL DUP2 MSTORE PUSH1 0x4 ADD PUSH2 0x537 SWAP1 PUSH2 0x16D0 JUMP JUMPDEST DUP1 CALLDATALOAD PUSH1 0x1 PUSH1 0x1 PUSH1 0xA0 SHL SUB DUP2 AND DUP2 EQ PUSH2 0x113F JUMPI PUSH1 0x0 DUP1 REVERT JUMPDEST SWAP2 SWAP1 POP JUMP JUMPDEST PUSH1 0x0 DUP3 PUSH1 0x1F DUP4 ADD SLT PUSH2 0x1155 JUMPI PUSH1 0x0 DUP1 REVERT JUMPDEST DUP2 CALLDATALOAD PUSH1 0x20 PUSH2 0x1162 DUP3 PUSH2 0x185B JUMP JUMPDEST PUSH1 0x40 MLOAD PUSH2 0x116F DUP3 DUP3 PUSH2 0x18D2 JUMP JUMPDEST DUP4 DUP2 MSTORE DUP3 DUP2 ADD SWAP2 POP DUP6 DUP4 ADD PUSH1 0x5 DUP6 SWAP1 SHL DUP8 ADD DUP5 ADD DUP9 LT ISZERO PUSH2 0x118F JUMPI PUSH1 0x0 DUP1 REVERT JUMPDEST PUSH1 0x0 JUMPDEST DUP6 DUP2 LT ISZERO PUSH2 0x11AE JUMPI DUP2 CALLDATALOAD DUP5 MSTORE SWAP3 DUP5 ADD SWAP3 SWAP1 DUP5 ADD SWAP1 PUSH1 0x1 ADD PUSH2 0x1192 JUMP JUMPDEST POP SWAP1 SWAP8 SWAP7 POP POP POP POP POP POP POP JUMP JUMPDEST PUSH1 0x0 DUP3 PUSH1 0x1F DUP4 ADD SLT PUSH2 0x11CC JUMPI PUSH1 0x0 DUP1 REVERT JUMPDEST DUP2 CALLDATALOAD PUSH8 0xFFFFFFFFFFFFFFFF DUP2 GT ISZERO PUSH2 0x11E6 JUMPI PUSH2 0x11E6 PUSH2 0x195C JUMP JUMPDEST PUSH1 0x40 MLOAD PUSH2 0x11FD PUSH1 0x1F DUP4 ADD PUSH1 0x1F NOT AND PUSH1 0x20 ADD DUP3 PUSH2 0x18D2 JUMP JUMPDEST DUP2 DUP2 MSTORE DUP5 PUSH1 0x20 DUP4 DUP7 ADD ADD GT ISZERO PUSH2 0x1212 JUMPI PUSH1 0x0 DUP1 REVERT JUMPDEST DUP2 PUSH1 0x20 DUP6 ADD PUSH1 0x20 DUP4 ADD CALLDATACOPY PUSH1 0x0 SWAP2 DUP2 ADD PUSH1 0x20 ADD SWAP2 SWAP1 SWAP2 MSTORE SWAP4 SWAP3 POP POP POP JUMP JUMPDEST PUSH1 0x0 PUSH1 0x20 DUP3 DUP5 SUB SLT ISZERO PUSH2 0x1241 JUMPI PUSH1 0x0 DUP1 REVERT JUMPDEST PUSH2 0x124A DUP3 PUSH2 0x1128 JUMP JUMPDEST SWAP4 SWAP3 POP POP POP JUMP JUMPDEST PUSH1 0x0 DUP1 PUSH1 0x40 DUP4 DUP6 SUB SLT ISZERO PUSH2 0x1264 JUMPI PUSH1 0x0 DUP1 REVERT JUMPDEST PUSH2 0x126D DUP4 PUSH2 0x1128 JUMP JUMPDEST SWAP2 POP PUSH2 0x127B PUSH1 0x20 DUP5 ADD PUSH2 0x1128 JUMP JUMPDEST SWAP1 POP SWAP3 POP SWAP3 SWAP1 POP JUMP JUMPDEST PUSH1 0x0 DUP1 PUSH1 0x0 DUP1 PUSH1 0x0 PUSH1 0xA0 DUP7 DUP9 SUB SLT ISZERO PUSH2 0x129C JUMPI PUSH1 0x0 DUP1 REVERT JUMPDEST PUSH2 0x12A5 DUP7 PUSH2 0x1128 JUMP JUMPDEST SWAP5 POP PUSH2 0x12B3 PUSH1 0x20 DUP8 ADD PUSH2 0x1128 JUMP JUMPDEST SWAP4 POP PUSH1 0x40 DUP7 ADD CALLDATALOAD PUSH8 0xFFFFFFFFFFFFFFFF DUP1 DUP3 GT ISZERO PUSH2 0x12D0 JUMPI PUSH1 0x0 DUP1 REVERT JUMPDEST PUSH2 0x12DC DUP10 DUP4 DUP11 ADD PUSH2 0x1144 JUMP JUMPDEST SWAP5 POP PUSH1 0x60 DUP9 ADD CALLDATALOAD SWAP2 POP DUP1 DUP3 GT ISZERO PUSH2 0x12F2 JUMPI PUSH1 0x0 DUP1 REVERT JUMPDEST PUSH2 0x12FE DUP10 DUP4 DUP11 ADD PUSH2 0x1144 JUMP JUMPDEST SWAP4 POP PUSH1 0x80 DUP9 ADD CALLDATALOAD SWAP2 POP DUP1 DUP3 GT ISZERO PUSH2 0x1314 JUMPI PUSH1 0x0 DUP1 REVERT JUMPDEST POP PUSH2 0x1321 DUP9 DUP3 DUP10 ADD PUSH2 0x11BB JUMP JUMPDEST SWAP2 POP POP SWAP3 SWAP6 POP SWAP3 SWAP6 SWAP1 SWAP4 POP JUMP JUMPDEST PUSH1 0x0 DUP1 PUSH1 0x0 DUP1 PUSH1 0x0 PUSH1 0xA0 DUP7 DUP9 SUB SLT ISZERO PUSH2 0x1346 JUMPI PUSH1 0x0 DUP1 REVERT JUMPDEST PUSH2 0x134F DUP7 PUSH2 0x1128 JUMP JUMPDEST SWAP5 POP PUSH2 0x135D PUSH1 0x20 DUP8 ADD PUSH2 0x1128 JUMP JUMPDEST SWAP4 POP PUSH1 0x40 DUP7 ADD CALLDATALOAD SWAP3 POP PUSH1 0x60 DUP7 ADD CALLDATALOAD SWAP2 POP PUSH1 0x80 DUP7 ADD CALLDATALOAD PUSH8 0xFFFFFFFFFFFFFFFF DUP2 GT ISZERO PUSH2 0x1387 JUMPI PUSH1 0x0 DUP1 REVERT JUMPDEST PUSH2 0x1321 DUP9 DUP3 DUP10 ADD PUSH2 0x11BB JUMP JUMPDEST PUSH1 0x0 DUP1 PUSH1 0x40 DUP4 DUP6 SUB SLT ISZERO PUSH2 0x13A6 JUMPI PUSH1 0x0 DUP1 REVERT JUMPDEST PUSH2 0x13AF DUP4 PUSH2 0x1128 JUMP JUMPDEST SWAP2 POP PUSH1 0x20 DUP4 ADD CALLDATALOAD DUP1 ISZERO ISZERO DUP2 EQ PUSH2 0x13C4 JUMPI PUSH1 0x0 DUP1 REVERT JUMPDEST DUP1 SWAP2 POP POP SWAP3 POP SWAP3 SWAP1 POP JUMP JUMPDEST PUSH1 0x0 DUP1 PUSH1 0x40 DUP4 DUP6 SUB SLT ISZERO PUSH2 0x13E2 JUMPI PUSH1 0x0 DUP1 REVERT JUMPDEST PUSH2 0x13EB DUP4 PUSH2 0x1128 JUMP JUMPDEST SWAP5 PUSH1 0x20 SWAP4 SWAP1 SWAP4 ADD CALLDATALOAD SWAP4 POP POP POP JUMP JUMPDEST PUSH1 0x0 DUP1 PUSH1 0x40 DUP4 DUP6 SUB SLT ISZERO PUSH2 0x140C JUMPI PUSH1 0x0 DUP1 REVERT JUMPDEST DUP3 CALLDATALOAD PUSH8 0xFFFFFFFFFFFFFFFF DUP1 DUP3 GT ISZERO PUSH2 0x1424 JUMPI PUSH1 0x0 DUP1 REVERT JUMPDEST DUP2 DUP6 ADD SWAP2 POP DUP6 PUSH1 0x1F DUP4 ADD SLT PUSH2 0x1438 JUMPI PUSH1 0x0 DUP1 REVERT JUMPDEST DUP2 CALLDATALOAD PUSH1 0x20 PUSH2 0x1445 DUP3 PUSH2 0x185B JUMP JUMPDEST PUSH1 0x40 MLOAD PUSH2 0x1452 DUP3 DUP3 PUSH2 0x18D2 JUMP JUMPDEST DUP4 DUP2 MSTORE DUP3 DUP2 ADD SWAP2 POP DUP6 DUP4 ADD PUSH1 0x5 DUP6 SWAP1 SHL DUP8 ADD DUP5 ADD DUP12 LT ISZERO PUSH2 0x1472 JUMPI PUSH1 0x0 DUP1 REVERT JUMPDEST PUSH1 0x0 SWAP7 POP JUMPDEST DUP5 DUP8 LT ISZERO PUSH2 0x149C JUMPI PUSH2 0x1488 DUP2 PUSH2 0x1128 JUMP JUMPDEST DUP4 MSTORE PUSH1 0x1 SWAP7 SWAP1 SWAP7 ADD SWAP6 SWAP2 DUP4 ADD SWAP2 DUP4 ADD PUSH2 0x1477 JUMP JUMPDEST POP SWAP7 POP POP DUP7 ADD CALLDATALOAD SWAP3 POP POP DUP1 DUP3 GT ISZERO PUSH2 0x14B3 JUMPI PUSH1 0x0 DUP1 REVERT JUMPDEST POP PUSH2 0x14C0 DUP6 DUP3 DUP7 ADD PUSH2 0x1144 JUMP JUMPDEST SWAP2 POP POP SWAP3 POP SWAP3 SWAP1 POP JUMP JUMPDEST PUSH1 0x0 PUSH1 0x20 DUP3 DUP5 SUB SLT ISZERO PUSH2 0x14DC JUMPI PUSH1 0x0 DUP1 REVERT JUMPDEST DUP2 CALLDATALOAD PUSH2 0x124A DUP2 PUSH2 0x1A18 JUMP JUMPDEST PUSH1 0x0 PUSH1 0x20 DUP3 DUP5 SUB SLT ISZERO PUSH2 0x14F9 JUMPI PUSH1 0x0 DUP1 REVERT JUMPDEST DUP2 MLOAD PUSH2 0x124A DUP2 PUSH2 0x1A18 JUMP JUMPDEST PUSH1 0x0 PUSH1 0x20 DUP3 DUP5 SUB SLT ISZERO PUSH2 0x1516 JUMPI PUSH1 0x0 DUP1 REVERT JUMPDEST POP CALLDATALOAD SWAP2 SWAP1 POP JUMP JUMPDEST PUSH1 0x0 DUP2 MLOAD DUP1 DUP5 MSTORE PUSH1 0x20 DUP1 DUP6 ADD SWAP5 POP DUP1 DUP5 ADD PUSH1 0x0 JUMPDEST DUP4 DUP2 LT ISZERO PUSH2 0x154D JUMPI DUP2 MLOAD DUP8 MSTORE SWAP6 DUP3 ADD SWAP6 SWAP1 DUP3 ADD SWAP1 PUSH1 0x1 ADD PUSH2 0x1531 JUMP JUMPDEST POP SWAP5 SWAP6 SWAP5 POP POP POP POP POP JUMP JUMPDEST PUSH1 0x0 DUP2 MLOAD DUP1 DUP5 MSTORE PUSH1 0x0 JUMPDEST DUP2 DUP2 LT ISZERO PUSH2 0x157E JUMPI PUSH1 0x20 DUP2 DUP6 ADD DUP2 ADD MLOAD DUP7 DUP4 ADD DUP3 ADD MSTORE ADD PUSH2 0x1562 JUMP JUMPDEST DUP2 DUP2 GT ISZERO PUSH2 0x1590 JUMPI PUSH1 0x0 PUSH1 0x20 DUP4 DUP8 ADD ADD MSTORE JUMPDEST POP PUSH1 0x1F ADD PUSH1 0x1F NOT AND SWAP3 SWAP1 SWAP3 ADD PUSH1 0x20 ADD SWAP3 SWAP2 POP POP JUMP JUMPDEST PUSH1 0x7 DUP2 LT PUSH2 0x15B5 JUMPI PUSH2 0x15B5 PUSH2 0x1930 JUMP JUMPDEST SWAP1 MSTORE JUMP JUMPDEST PUSH1 0x3 DUP2 LT PUSH2 0x15B5 JUMPI PUSH2 0x15B5 PUSH2 0x1930 JUMP JUMPDEST PUSH1 0x8 DUP2 LT PUSH2 0x15B5 JUMPI PUSH2 0x15B5 PUSH2 0x1930 JUMP JUMPDEST PUSH1 0x1 PUSH1 0x1 PUSH1 0xA0 SHL SUB DUP7 DUP2 AND DUP3 MSTORE DUP6 AND PUSH1 0x20 DUP3 ADD MSTORE PUSH1 0xA0 PUSH1 0x40 DUP3 ADD DUP2 SWAP1 MSTORE PUSH1 0x0 SWAP1 PUSH2 0x1605 SWAP1 DUP4 ADD DUP7 PUSH2 0x151D JUMP JUMPDEST DUP3 DUP2 SUB PUSH1 0x60 DUP5 ADD MSTORE PUSH2 0x1617 DUP2 DUP7 PUSH2 0x151D JUMP JUMPDEST SWAP1 POP DUP3 DUP2 SUB PUSH1 0x80 DUP5 ADD MSTORE PUSH2 0x162B DUP2 DUP6 PUSH2 0x1558 JUMP JUMPDEST SWAP9 SWAP8 POP POP POP POP POP POP POP POP JUMP JUMPDEST PUSH1 0x1 PUSH1 0x1 PUSH1 0xA0 SHL SUB DUP7 DUP2 AND DUP3 MSTORE DUP6 AND PUSH1 0x20 DUP3 ADD MSTORE PUSH1 0x40 DUP2 ADD DUP5 SWAP1 MSTORE PUSH1 0x60 DUP2 ADD DUP4 SWAP1 MSTORE PUSH1 0xA0 PUSH1 0x80 DUP3 ADD DUP2 SWAP1 MSTORE PUSH1 0x0 SWAP1 PUSH2 0x1671 SWAP1 DUP4 ADD DUP5 PUSH2 0x1558 JUMP JUMPDEST SWAP8 SWAP7 POP POP POP POP POP POP POP JUMP JUMPDEST PUSH1 0x20 DUP2 MSTORE PUSH1 0x0 PUSH2 0x124A PUSH1 0x20 DUP4 ADD DUP5 PUSH2 0x151D JUMP JUMPDEST PUSH1 0x40 DUP2 MSTORE PUSH1 0x0 PUSH2 0x16A2 PUSH1 0x40 DUP4 ADD DUP6 PUSH2 0x151D JUMP JUMPDEST DUP3 DUP2 SUB PUSH1 0x20 DUP5 ADD MSTORE PUSH2 0x16B4 DUP2 DUP6 PUSH2 0x151D JUMP JUMPDEST SWAP6 SWAP5 POP POP POP POP POP JUMP JUMPDEST PUSH1 0x20 DUP2 MSTORE PUSH1 0x0 PUSH2 0x124A PUSH1 0x20 DUP4 ADD DUP5 PUSH2 0x1558 JUMP JUMPDEST PUSH1 0x20 DUP1 DUP3 MSTORE PUSH1 0x28 SWAP1 DUP3 ADD MSTORE PUSH32 0x455243313135353A204552433131353552656365697665722072656A65637465 PUSH1 0x40 DUP3 ADD MSTORE PUSH8 0x6420746F6B656E73 PUSH1 0xC0 SHL PUSH1 0x60 DUP3 ADD MSTORE PUSH1 0x80 ADD SWAP1 JUMP JUMPDEST PUSH1 0x20 DUP1 DUP3 MSTORE PUSH1 0x25 SWAP1 DUP3 ADD MSTORE PUSH32 0x455243313135353A207472616E7366657220746F20746865207A65726F206164 PUSH1 0x40 DUP3 ADD MSTORE PUSH5 0x6472657373 PUSH1 0xD8 SHL PUSH1 0x60 DUP3 ADD MSTORE PUSH1 0x80 ADD SWAP1 JUMP JUMPDEST PUSH1 0x20 DUP1 DUP3 MSTORE PUSH1 0x2A SWAP1 DUP3 ADD MSTORE PUSH32 0x455243313135353A20696E73756666696369656E742062616C616E636520666F PUSH1 0x40 DUP3 ADD MSTORE PUSH10 0x39103A3930B739B332B9 PUSH1 0xB1 SHL PUSH1 0x60 DUP3 ADD MSTORE PUSH1 0x80 ADD SWAP1 JUMP JUMPDEST DUP6 DUP2 MSTORE PUSH1 0xA0 DUP2 ADD PUSH2 0x17BB PUSH1 0x20 DUP4 ADD DUP8 PUSH2 0x15B9 JUMP JUMPDEST PUSH2 0x17C8 PUSH1 0x40 DUP4 ADD DUP7 PUSH2 0x15A5 JUMP JUMPDEST PUSH2 0x17D5 PUSH1 0x60 DUP4 ADD DUP6 PUSH2 0x15C9 JUMP JUMPDEST DUP3 ISZERO ISZERO PUSH1 0x80 DUP4 ADD MSTORE SWAP7 SWAP6 POP POP POP POP POP POP JUMP JUMPDEST DUP6 DUP2 MSTORE PUSH1 0x20 DUP2 ADD DUP6 SWAP1 MSTORE PUSH1 0x40 DUP2 ADD DUP5 SWAP1 MSTORE PUSH1 0xA0 DUP2 ADD PUSH2 0x17D5 PUSH1 0x60 DUP4 ADD DUP6 PUSH2 0x15B9 JUMP JUMPDEST DUP8 DUP2 MSTORE PUSH1 0x20 DUP2 ADD DUP8 SWAP1 MSTORE PUSH1 0x40 DUP2 ADD DUP7 SWAP1 MSTORE PUSH1 0xE0 DUP2 ADD PUSH1 0x5 DUP7 LT PUSH2 0x182E JUMPI PUSH2 0x182E PUSH2 0x1930 JUMP JUMPDEST DUP6 PUSH1 0x60 DUP4 ADD MSTORE PUSH2 0x1841 PUSH1 0x80 DUP4 ADD DUP7 PUSH2 0x15B9 JUMP JUMPDEST PUSH2 0x184E PUSH1 0xA0 DUP4 ADD DUP6 PUSH2 0x15A5 JUMP JUMPDEST PUSH2 0x162B PUSH1 0xC0 DUP4 ADD DUP5 PUSH2 0x15C9 JUMP JUMPDEST PUSH1 0x0 PUSH8 0xFFFFFFFFFFFFFFFF DUP3 GT ISZERO PUSH2 0x1875 JUMPI PUSH2 0x1875 PUSH2 0x195C JUMP JUMPDEST POP PUSH1 0x5 SHL PUSH1 0x20 ADD SWAP1 JUMP JUMPDEST PUSH1 0x0 DUP3 NOT DUP3 GT ISZERO PUSH2 0x1892 JUMPI PUSH2 0x1892 PUSH2 0x191A JUMP JUMPDEST POP ADD SWAP1 JUMP JUMPDEST PUSH1 0x1 DUP2 DUP2 SHR SWAP1 DUP3 AND DUP1 PUSH2 0x18AB JUMPI PUSH1 0x7F DUP3 AND SWAP2 POP JUMPDEST PUSH1 0x20 DUP3 LT DUP2 EQ ISZERO PUSH2 0x18CC JUMPI PUSH4 0x4E487B71 PUSH1 0xE0 SHL PUSH1 0x0 MSTORE PUSH1 0x22 PUSH1 0x4 MSTORE PUSH1 0x24 PUSH1 0x0 REVERT JUMPDEST POP SWAP2 SWAP1 POP JUMP JUMPDEST PUSH1 0x1F DUP3 ADD PUSH1 0x1F NOT AND DUP2 ADD PUSH8 0xFFFFFFFFFFFFFFFF DUP2 GT DUP3 DUP3 LT OR ISZERO PUSH2 0x18F8 JUMPI PUSH2 0x18F8 PUSH2 0x195C JUMP JUMPDEST PUSH1 0x40 MSTORE POP POP JUMP JUMPDEST PUSH1 0x0 PUSH1 0x0 NOT DUP3 EQ ISZERO PUSH2 0x1913 JUMPI PUSH2 0x1913 PUSH2 0x191A JUMP JUMPDEST POP PUSH1 0x1 ADD SWAP1 JUMP JUMPDEST PUSH4 0x4E487B71 PUSH1 0xE0 SHL PUSH1 0x0 MSTORE PUSH1 0x11 PUSH1 0x4 MSTORE PUSH1 0x24 PUSH1 0x0 REVERT JUMPDEST PUSH4 0x4E487B71 PUSH1 0xE0 SHL PUSH1 0x0 MSTORE PUSH1 0x21 PUSH1 0x4 MSTORE PUSH1 0x24 PUSH1 0x0 REVERT JUMPDEST PUSH4 0x4E487B71 PUSH1 0xE0 SHL PUSH1 0x0 MSTORE PUSH1 0x32 PUSH1 0x4 MSTORE PUSH1 0x24 PUSH1 0x0 REVERT JUMPDEST PUSH4 0x4E487B71 PUSH1 0xE0 SHL PUSH1 0x0 MSTORE PUSH1 0x41 PUSH1 0x4 MSTORE PUSH1 0x24 PUSH1 0x0 REVERT JUMPDEST PUSH1 0x0 PUSH1 0x3 RETURNDATASIZE GT ISZERO PUSH2 0x198B JUMPI PUSH1 0x4 PUSH1 0x0 DUP1 RETURNDATACOPY POP PUSH1 0x0 MLOAD PUSH1 0xE0 SHR JUMPDEST SWAP1 JUMP JUMPDEST PUSH1 0x0 PUSH1 0x44 RETURNDATASIZE LT ISZERO PUSH2 0x199C JUMPI SWAP1 JUMP JUMPDEST PUSH1 0x40 MLOAD PUSH1 0x3 NOT RETURNDATASIZE DUP2 ADD PUSH1 0x4 DUP4 RETURNDATACOPY DUP2 MLOAD RETURNDATASIZE PUSH8 0xFFFFFFFFFFFFFFFF DUP2 PUSH1 0x24 DUP5 ADD GT DUP2 DUP5 GT OR ISZERO PUSH2 0x19CC JUMPI POP POP POP POP POP SWAP1 JUMP JUMPDEST DUP3 DUP6 ADD SWAP2 POP DUP2 MLOAD DUP2 DUP2 GT ISZERO PUSH2 0x19E4 JUMPI POP POP POP POP POP POP SWAP1 JUMP JUMPDEST DUP5 RETURNDATASIZE DUP8 ADD ADD PUSH1 0x20 DUP3 DUP6 ADD ADD GT ISZERO PUSH2 0x19FE JUMPI POP POP POP POP POP POP SWAP1 JUMP JUMPDEST PUSH2 0x1A0D PUSH1 0x20 DUP3 DUP7 ADD ADD DUP8 PUSH2 0x18D2 JUMP JUMPDEST POP SWAP1 SWAP6 SWAP5 POP POP POP POP POP JUMP JUMPDEST PUSH1 0x1 PUSH1 0x1 PUSH1 0xE0 SHL SUB NOT DUP2 AND DUP2 EQ PUSH2 0xB43 JUMPI PUSH1 0x0 DUP1 REVERT INVALID LOG2 PUSH5 0x6970667358 0x22 SLT KECCAK256 PUSH11 0xCFC32EFF346E3FF2CD16BD 0xED REVERT 0x25 SIGNEXTEND EQ 0x21 0xDC GT 0xE8 LOG4 0xB1 0x4C 0xC9 DELEGATECALL SMOD DUP1 0x22 0x27 0xA8 0xD4 PUSH5 0x736F6C6343 STOP ADDMOD SMOD STOP CALLER PUSH9 0x747470733A2F2F6761 PUSH14 0x652E6578616D706C652F6170692F PUSH10 0x74656D2F7B69647D2E6A PUSH20 0x6F6E000000000000000000000000000000000000 "
		},
		"gasEstimates": {
			"creation": {
				"codeDepositCost": "1351200",
				"executionCost": "infinite",
				"totalCost": "infinite"
			},
			"external": {
				"GOLD()": "274",
				"SHIELD()": "251",
				"SILVER()": "228",
				"SWORD()": "230",
				"THORS_HAMMER()": "251",
				"balanceOf(address,uint256)": "2698",
				"balanceOfBatch(address[],uint256[])": "infinite",
				"baseMetadataUri()": "infinite",
				"crateUmblData(uint256)": "11174",
				"isApprovedForAll(address,address)": "infinite",
				"name()": "infinite",
				"nextCrateId()": "2395",
				"nextPackageId()": "2373",
				"nextPresetId()": "2373",
				"nextTokenId()": "2395",
				"owner()": "2369",
				"packageUmblData(uint256)": "13211",
				"presetUmblData(uint256)": "infinite",
				"renounceOwnership()": "28206",
				"safeBatchTransferFrom(address,address,uint256[],uint256[],bytes)": "infinite",
				"safeTransferFrom(address,address,uint256,uint256,bytes)": "infinite",
				"setApprovalForAll(address,bool)": "26673",
				"supportsInterface(bytes4)": "567",
				"symbol()": "infinite",
				"tokenUmblData(uint256)": "infinite",
				"transferOwnership(address)": "28422",
				"uri(uint256)": "infinite"
			}
		},
		"methodIdentifiers": {
			"GOLD()": "3e4bee38",
			"SHIELD()": "5b2725ed",
			"SILVER()": "e3e55f08",
			"SWORD()": "13dc989f",
			"THORS_HAMMER()": "d562e204",
			"balanceOf(address,uint256)": "00fdd58e",
			"balanceOfBatch(address[],uint256[])": "4e1273f4",
			"baseMetadataUri()": "763c87bf",
			"crateUmblData(uint256)": "b38d817c",
			"isApprovedForAll(address,address)": "e985e9c5",
			"name()": "06fdde03",
			"nextCrateId()": "cb9953e7",
			"nextPackageId()": "d7da9e4f",
			"nextPresetId()": "c8a768e6",
			"nextTokenId()": "75794a3c",
			"owner()": "8da5cb5b",
			"packageUmblData(uint256)": "0c802789",
			"presetUmblData(uint256)": "cefa3e9f",
			"renounceOwnership()": "715018a6",
			"safeBatchTransferFrom(address,address,uint256[],uint256[],bytes)": "2eb2c2d6",
			"safeTransferFrom(address,address,uint256,uint256,bytes)": "f242432a",
			"setApprovalForAll(address,bool)": "a22cb465",
			"supportsInterface(bytes4)": "01ffc9a7",
			"symbol()": "95d89b41",
			"tokenUmblData(uint256)": "1280cb62",
			"transferOwnership(address)": "f2fde38b",
			"uri(uint256)": "0e89341c"
		}
	},
	"abi": [
		{
			"inputs": [],
			"stateMutability": "nonpayable",
			"type": "constructor"
		},
		{
			"anonymous": false,
			"inputs": [
				{
					"indexed": true,
					"internalType": "address",
					"name": "account",
					"type": "address"
				},
				{
					"indexed": true,
					"internalType": "address",
					"name": "operator",
					"type": "address"
				},
				{
					"indexed": false,
					"internalType": "bool",
					"name": "approved",
					"type": "bool"
				}
			],
			"name": "ApprovalForAll",
			"type": "event"
		},
		{
			"anonymous": false,
			"inputs": [
				{
					"indexed": true,
					"internalType": "address",
					"name": "previousOwner",
					"type": "address"
				},
				{
					"indexed": true,
					"internalType": "address",
					"name": "newOwner",
					"type": "address"
				}
			],
			"name": "OwnershipTransferred",
			"type": "event"
		},
		{
			"anonymous": false,
			"inputs": [
				{
					"indexed": true,
					"internalType": "address",
					"name": "operator",
					"type": "address"
				},
				{
					"indexed": true,
					"internalType": "address",
					"name": "from",
					"type": "address"
				},
				{
					"indexed": true,
					"internalType": "address",
					"name": "to",
					"type": "address"
				},
				{
					"indexed": false,
					"internalType": "uint256[]",
					"name": "ids",
					"type": "uint256[]"
				},
				{
					"indexed": false,
					"internalType": "uint256[]",
					"name": "values",
					"type": "uint256[]"
				}
			],
			"name": "TransferBatch",
			"type": "event"
		},
		{
			"anonymous": false,
			"inputs": [
				{
					"indexed": true,
					"internalType": "address",
					"name": "operator",
					"type": "address"
				},
				{
					"indexed": true,
					"internalType": "address",
					"name": "from",
					"type": "address"
				},
				{
					"indexed": true,
					"internalType": "address",
					"name": "to",
					"type": "address"
				},
				{
					"indexed": false,
					"internalType": "uint256",
					"name": "id",
					"type": "uint256"
				},
				{
					"indexed": false,
					"internalType": "uint256",
					"name": "value",
					"type": "uint256"
				}
			],
			"name": "TransferSingle",
			"type": "event"
		},
		{
			"anonymous": false,
			"inputs": [
				{
					"indexed": false,
					"internalType": "string",
					"name": "value",
					"type": "string"
				},
				{
					"indexed": true,
					"internalType": "uint256",
					"name": "id",
					"type": "uint256"
				}
			],
			"name": "URI",
			"type": "event"
		},
		{
			"inputs": [],
			"name": "GOLD",
			"outputs": [
				{
					"internalType": "uint256",
					"name": "",
					"type": "uint256"
				}
			],
			"stateMutability": "view",
			"type": "function"
		},
		{
			"inputs": [],
			"name": "SHIELD",
			"outputs": [
				{
					"internalType": "uint256",
					"name": "",
					"type": "uint256"
				}
			],
			"stateMutability": "view",
			"type": "function"
		},
		{
			"inputs": [],
			"name": "SILVER",
			"outputs": [
				{
					"internalType": "uint256",
					"name": "",
					"type": "uint256"
				}
			],
			"stateMutability": "view",
			"type": "function"
		},
		{
			"inputs": [],
			"name": "SWORD",
			"outputs": [
				{
					"internalType": "uint256",
					"name": "",
					"type": "uint256"
				}
			],
			"stateMutability": "view",
			"type": "function"
		},
		{
			"inputs": [],
			"name": "THORS_HAMMER",
			"outputs": [
				{
					"internalType": "uint256",
					"name": "",
					"type": "uint256"
				}
			],
			"stateMutability": "view",
			"type": "function"
		},
		{
			"inputs": [
				{
					"internalType": "address",
					"name": "account",
					"type": "address"
				},
				{
					"internalType": "uint256",
					"name": "id",
					"type": "uint256"
				}
			],
			"name": "balanceOf",
			"outputs": [
				{
					"internalType": "uint256",
					"name": "",
					"type": "uint256"
				}
			],
			"stateMutability": "view",
			"type": "function"
		},
		{
			"inputs": [
				{
					"internalType": "address[]",
					"name": "accounts",
					"type": "address[]"
				},
				{
					"internalType": "uint256[]",
					"name": "ids",
					"type": "uint256[]"
				}
			],
			"name": "balanceOfBatch",
			"outputs": [
				{
					"internalType": "uint256[]",
					"name": "",
					"type": "uint256[]"
				}
			],
			"stateMutability": "view",
			"type": "function"
		},
		{
			"inputs": [],
			"name": "baseMetadataUri",
			"outputs": [
				{
					"internalType": "string",
					"name": "",
					"type": "string"
				}
			],
			"stateMutability": "view",
			"type": "function"
		},
		{
			"inputs": [
				{
					"internalType": "uint256",
					"name": "",
					"type": "uint256"
				}
			],
			"name": "crateUmblData",
			"outputs": [
				{
					"internalType": "uint256",
					"name": "id",
					"type": "uint256"
				},
				{
					"internalType": "uint256",
					"name": "tokenCount",
					"type": "uint256"
				},
				{
					"internalType": "uint256",
					"name": "price",
					"type": "uint256"
				},
				{
					"internalType": "enum UmblCoreEnums.Faction",
					"name": "faction",
					"type": "uint8"
				},
				{
					"internalType": "bool",
					"name": "isDeleted",
					"type": "bool"
				}
			],
			"stateMutability": "view",
			"type": "function"
		},
		{
			"inputs": [
				{
					"internalType": "address",
					"name": "account",
					"type": "address"
				},
				{
					"internalType": "address",
					"name": "operator",
					"type": "address"
				}
			],
			"name": "isApprovedForAll",
			"outputs": [
				{
					"internalType": "bool",
					"name": "",
					"type": "bool"
				}
			],
			"stateMutability": "view",
			"type": "function"
		},
		{
			"inputs": [],
			"name": "name",
			"outputs": [
				{
					"internalType": "string",
					"name": "",
					"type": "string"
				}
			],
			"stateMutability": "view",
			"type": "function"
		},
		{
			"inputs": [],
			"name": "nextCrateId",
			"outputs": [
				{
					"internalType": "uint256",
					"name": "",
					"type": "uint256"
				}
			],
			"stateMutability": "view",
			"type": "function"
		},
		{
			"inputs": [],
			"name": "nextPackageId",
			"outputs": [
				{
					"internalType": "uint256",
					"name": "",
					"type": "uint256"
				}
			],
			"stateMutability": "view",
			"type": "function"
		},
		{
			"inputs": [],
			"name": "nextPresetId",
			"outputs": [
				{
					"internalType": "uint256",
					"name": "",
					"type": "uint256"
				}
			],
			"stateMutability": "view",
			"type": "function"
		},
		{
			"inputs": [],
			"name": "nextTokenId",
			"outputs": [
				{
					"internalType": "uint256",
					"name": "",
					"type": "uint256"
				}
			],
			"stateMutability": "view",
			"type": "function"
		},
		{
			"inputs": [],
			"name": "owner",
			"outputs": [
				{
					"internalType": "address",
					"name": "",
					"type": "address"
				}
			],
			"stateMutability": "view",
			"type": "function"
		},
		{
			"inputs": [
				{
					"internalType": "uint256",
					"name": "",
					"type": "uint256"
				}
			],
			"name": "packageUmblData",
			"outputs": [
				{
					"internalType": "uint256",
					"name": "id",
					"type": "uint256"
				},
				{
					"internalType": "uint256",
					"name": "price",
					"type": "uint256"
				},
				{
					"internalType": "uint256",
					"name": "tokenCount",
					"type": "uint256"
				},
				{
					"internalType": "uint256",
					"name": "startTime",
					"type": "uint256"
				},
				{
					"internalType": "uint256",
					"name": "endTime",
					"type": "uint256"
				},
				{
					"internalType": "bool",
					"name": "isDeleted",
					"type": "bool"
				}
			],
			"stateMutability": "view",
			"type": "function"
		},
		{
			"inputs": [
				{
					"internalType": "uint256",
					"name": "",
					"type": "uint256"
				}
			],
			"name": "presetUmblData",
			"outputs": [
				{
					"internalType": "uint256",
					"name": "id",
					"type": "uint256"
				},
				{
					"internalType": "enum UmblCoreEnums.Faction",
					"name": "faction",
					"type": "uint8"
				},
				{
					"internalType": "enum UmblCoreEnums.Category",
					"name": "category",
					"type": "uint8"
				},
				{
					"internalType": "enum UmblCoreEnums.Rarity",
					"name": "rarity",
					"type": "uint8"
				},
				{
					"internalType": "bool",
					"name": "isDeleted",
					"type": "bool"
				}
			],
			"stateMutability": "view",
			"type": "function"
		},
		{
			"inputs": [],
			"name": "renounceOwnership",
			"outputs": [],
			"stateMutability": "nonpayable",
			"type": "function"
		},
		{
			"inputs": [
				{
					"internalType": "address",
					"name": "from",
					"type": "address"
				},
				{
					"internalType": "address",
					"name": "to",
					"type": "address"
				},
				{
					"internalType": "uint256[]",
					"name": "ids",
					"type": "uint256[]"
				},
				{
					"internalType": "uint256[]",
					"name": "amounts",
					"type": "uint256[]"
				},
				{
					"internalType": "bytes",
					"name": "data",
					"type": "bytes"
				}
			],
			"name": "safeBatchTransferFrom",
			"outputs": [],
			"stateMutability": "nonpayable",
			"type": "function"
		},
		{
			"inputs": [
				{
					"internalType": "address",
					"name": "from",
					"type": "address"
				},
				{
					"internalType": "address",
					"name": "to",
					"type": "address"
				},
				{
					"internalType": "uint256",
					"name": "id",
					"type": "uint256"
				},
				{
					"internalType": "uint256",
					"name": "amount",
					"type": "uint256"
				},
				{
					"internalType": "bytes",
					"name": "data",
					"type": "bytes"
				}
			],
			"name": "safeTransferFrom",
			"outputs": [],
			"stateMutability": "nonpayable",
			"type": "function"
		},
		{
			"inputs": [
				{
					"internalType": "address",
					"name": "operator",
					"type": "address"
				},
				{
					"internalType": "bool",
					"name": "approved",
					"type": "bool"
				}
			],
			"name": "setApprovalForAll",
			"outputs": [],
			"stateMutability": "nonpayable",
			"type": "function"
		},
		{
			"inputs": [
				{
					"internalType": "bytes4",
					"name": "interfaceId",
					"type": "bytes4"
				}
			],
			"name": "supportsInterface",
			"outputs": [
				{
					"internalType": "bool",
					"name": "",
					"type": "bool"
				}
			],
			"stateMutability": "view",
			"type": "function"
		},
		{
			"inputs": [],
			"name": "symbol",
			"outputs": [
				{
					"internalType": "string",
					"name": "",
					"type": "string"
				}
			],
			"stateMutability": "view",
			"type": "function"
		},
		{
			"inputs": [
				{
					"internalType": "uint256",
					"name": "",
					"type": "uint256"
				}
			],
			"name": "tokenUmblData",
			"outputs": [
				{
					"internalType": "uint256",
					"name": "id",
					"type": "uint256"
				},
				{
					"internalType": "uint256",
					"name": "price",
					"type": "uint256"
				},
				{
					"internalType": "uint256",
					"name": "health",
					"type": "uint256"
				},
				{
					"internalType": "enum UmblCoreEnums.State",
					"name": "state",
					"type": "uint8"
				},
				{
					"internalType": "enum UmblCoreEnums.Faction",
					"name": "faction",
					"type": "uint8"
				},
				{
					"internalType": "enum UmblCoreEnums.Category",
					"name": "category",
					"type": "uint8"
				},
				{
					"internalType": "enum UmblCoreEnums.Rarity",
					"name": "rarity",
					"type": "uint8"
				}
			],
			"stateMutability": "view",
			"type": "function"
		},
		{
			"inputs": [
				{
					"internalType": "address",
					"name": "newOwner",
					"type": "address"
				}
			],
			"name": "transferOwnership",
			"outputs": [],
			"stateMutability": "nonpayable",
			"type": "function"
		},
		{
			"inputs": [
				{
					"internalType": "uint256",
					"name": "",
					"type": "uint256"
				}
			],
			"name": "uri",
			"outputs": [
				{
					"internalType": "string",
					"name": "",
					"type": "string"
				}
			],
			"stateMutability": "view",
			"type": "function"
		}
	]
}