{
	"data": {
		"bytecode": {
			"linkReferences": {},
			"object": "6080604052600060045560006005556000600655600060075534801561002457600080fd5b5061002e33610038565b600160095561008a565b600880546001600160a01b038381166001600160a01b0319831681179093556040519116919082907f8be0079c531659141344cd1fd0a4f28419497f9722a3daafe3b4186f6b6457e090600090a35050565b6129d3806100996000396000f3fe608060405234801561001057600080fd5b506004361061012c5760003560e01c8063b99dfe18116100ad578063d71c100811610071578063d71c1008146104df578063d7da9e4f146104f2578063da4f8666146104fb578063f2fde38b1461050e578063f9d20f5c1461052157600080fd5b8063b99dfe181461041c578063c8a768e614610442578063cb9953e71461044b578063cefa3e9f14610454578063d0c2de6c146104cc57600080fd5b8063955a6615116100f4578063955a6615146102dc57806398c4dd31146102ef578063a09ea8c414610302578063aabc4b3c14610328578063b38d817c1461039757600080fd5b80630c802789146101315780631280cb62146101b2578063715018a6146102a057806375794a3c146102aa5780638da5cb5b146102c1575b600080fd5b61017c61013f366004612519565b6003602081905260009182526040909120805460018201549282015460048301546005840154600690940154929460ff9081169492939192911686565b6040805196875260ff90951660208701529385019290925260608401526080830152151560a082015260c0015b60405180910390f35b6102366101c0366004612519565b60006020819052908152604090208054600182015460028301546003840154600490940154929391926001600160a01b0382169260ff600160a01b8404811693600160a81b8104821693600160b01b8204831693600160b81b8304841693600160c01b8404811693600160c81b9004811692168b565b604080519b8c5260208c019a909a526001600160a01b03909816988a019890985260ff95861660608a0152938516608089015291841660a0880152831660c0870152821660e0860152166101008401526101208301919091521515610140820152610160016101a9565b6102a8610534565b005b6102b360045481565b6040519081526020016101a9565b6008546040516001600160a01b0390911681526020016101a9565b6102a86102ea366004612519565b610573565b6102a86102fd366004612605565b6107df565b610315610310366004612519565b610d6e565b6040516101a99796959493929190612867565b61033b610336366004612519565b610f92565b604080519a8b5260ff998a1660208c0152978916978a01979097529487166060890152928616608088015290851660a0870152841660c086015290921660e08401526101008301919091521515610120820152610140016101a9565b6103e36103a5366004612519565b60026020526000908152604090208054600182015460038301546004840154600590940154929360ff80841694610100909404811693928116921686565b6040805196875260ff958616602088015293851693860193909352921660608401526080830191909152151560a082015260c0016101a9565b61042f61042a366004612519565b6110ca565b6040516101a997969594939291906127f0565b6102b360055481565b6102b360065481565b61033b610462366004612519565b6001602081905260009182526040909120805491810154600282015460039092015460ff808316936101008404821693620100008104831693630100000082048416936401000000008304811693650100000000008404821693600160301b90048216929091168a565b6102a86104da3660046126ea565b6112c6565b6102a86104ed366004612519565b611883565b6102b360075481565b6102a8610509366004612519565b611aae565b6102a861051c3660046124e9565b611e0c565b6102a861052f366004612532565b611ea7565b6008546001600160a01b031633146105675760405162461bcd60e51b815260040161055e90612784565b60405180910390fd5b610571600061238b565b565b6008546001600160a01b0316331461059d5760405162461bcd60e51b815260040161055e90612784565b600260095414156105c05760405162461bcd60e51b815260040161055e906127b9565b60026009556006548111156106275760405162461bcd60e51b815260206004820152602760248201527f554d424c424153452364656c65746543726174653a204e4f4e4558495354454e604482015266545f435241544560c81b606482015260840161055e565b6000818152600260208181526040808420815160e08101835281548152600182015460ff80821683870152610100909104168184015293810180548351818602810186019094528084529193606086019392908301828280156106c757602002820191906000526020600020906000905b825461010083900a900460ff168152602060019283018181049485019490930390920291018084116106985790505b5050509183525050600382015460ff908116602080840191909152600484015460408085019190915260059094015482161515606093840152600160c086018190526000888152600280845290869020875181558784015192810180549789015186166101000261ffff199098169390951692909217959095179092559184015180519495508594919361076193908501929101906123dd565b50608082015160038201805460ff90921660ff1992831617905560a0830151600483015560c090920151600590910180549115159190921617905560408051338152602081018490527fa45f99a9ca24f747f4a318c973ca4b5087ea41c28b6ff10b827340279844b33591015b60405180910390a150506001600955565b6008546001600160a01b031633146108095760405162461bcd60e51b815260040161055e90612784565b6002600954141561082c5760405162461bcd60e51b815260040161055e906127b9565b60026009556000808060ff87166001148061084a575060ff87166002145b6108a25760405162461bcd60e51b815260206004820152602360248201527f554d424c42415345236d616b6543726174653a20494e56414c49445f4641435460448201526224a7a760e91b606482015260840161055e565b600086511180156108b55750600a865111155b6109135760405162461bcd60e51b815260206004820152602960248201527f554d424c42415345236d616b6543726174653a20494e56414c49445f524152496044820152680a8b2be988a9c8ea8960bb1b606482015260840161055e565b600092505b85518310156109e057600160ff1686848151811061093857610938612971565b602002602001015160ff16101580156109715750600760ff1686848151811061096357610963612971565b602002602001015160ff1611155b6109ce5760405162461bcd60e51b815260206004820152602860248201527f554d424c42415345236d616b6543726174653a20494e56414c49445f5241524960448201526754595f56414c554560c01b606482015260840161055e565b826109d881612948565b935050610918565b60008560ff161180156109f7575060648560ff1611155b610a525760405162461bcd60e51b815260206004820152602660248201527f554d424c42415345236d616b6543726174653a20494e56414c49445f544f4b456044820152651390d3d5539560d21b606482015260840161055e565b60008411610aac5760405162461bcd60e51b815260206004820152602160248201527f554d424c42415345236d616b6543726174653a20494e56414c49445f505249436044820152604560f81b606482015260840161055e565b88610ad45760068054906000610ac183612948565b9190505550600654905060019150610b3b565b600654891115610b345760405162461bcd60e51b815260206004820152602560248201527f554d424c42415345236d616b6543726174653a204e4f4e4558495354454e545f604482015264435241544560d81b606482015260840161055e565b5060009050875b60006040518060e001604052808381526020018a60ff1681526020018960ff168152602001600067ffffffffffffffff811115610b7a57610b7a612987565b604051908082528060200260200182016040528015610ba3578160200160208202803683370190505b50815260ff80891660208084019190915260408084018a90526000606094850181905287815260028084529082902086518155868401516001820180549489015187166101000261ffff199095169190961617929092179093559284015180519495508594610c199385019291909101906123dd565b50608082015160038201805460ff90921660ff1992831617905560a0830151600483015560c0909201516005909101805491151591909216179055600093505b8651841015610cdd5760026000838152602001908152602001600020600201878581518110610c8a57610c8a612971565b6020908102919091018101518254600181018455600093845292829020918304909101805460ff928316601f9094166101000a938402929093021990921617905583610cd581612948565b945050610c59565b8215610d225760408051338152602081018490527f71d6b09b1d3cb8617f35f6df2357d050aefa8ec19564d09dafbadb6256a894f191015b60405180910390a1610d5d565b60408051338152602081018490527ff37e5f6d4062b02ae67880a9f1c05ee577e8cd0c07ee5fcf5c93d957dcc0935b91015b60405180910390a15b505060016009555050505050505050565b600080600060606000806000600654881115610dd85760405162461bcd60e51b8152602060048201526024808201527f554d424c424153452367657443726174653a204e4f4e4558495354454e545f436044820152635241544560e01b606482015260840161055e565b6000888152600260208181526040808420815160e08101835281548152600182015460ff8082168387015261010090910416818401529381018054835181860281018601909452808452919360608601939290830182828015610e7857602002820191906000526020600020906000905b825461010083900a900460ff16815260206001928301818104948501949093039092029101808411610e495790505b5050509183525050600382015460ff90811660208301526004830154604083015260059092015490911615156060918201528101515190915060009067ffffffffffffffff811115610ecc57610ecc612987565b604051908082528060200260200182016040528015610ef5578160200160208202803683370190505b50905060005b826060015151811015610f5c5782606001518181518110610f1e57610f1e612971565b6020026020010151828281518110610f3857610f38612971565b60ff9092166020928302919091019091015280610f5481612948565b915050610efb565b50815160208301516040840151608085015160a086015160c090960151939e929d50909b50929950919750919550909350915050565b6000806000806000806000806000806005548b11156110025760405162461bcd60e51b815260206004820152602660248201527f554d424c42415345236765745072657365743a204e4f4e4558495354454e545f60448201526514149154d15560d21b606482015260840161055e565b5050506000978852505060016020818152604097889020885161014081018a5281548082529382015460ff80821694830185905261010080830482169c84018d9052620100008304821660608501819052630100000084048316608086018190526401000000008504841660a08701819052650100000000008604851660c08801819052600160301b909604851660e0880181905260028901549488018590526003909801549094161515610120909601869052979e969d9c509a5095985096509450909291565b60008060606000806000806007548811156111385760405162461bcd60e51b815260206004820152602860248201527f554d424c42415345236765745061636b6167653a204e4f4e4558495354454e546044820152675f5041434b41474560c01b606482015260840161055e565b6000888152600360209081526040808320815160e08101835281548152600182015460ff16818501526002820180548451818702810187018652818152929593948601938301828280156111ab57602002820191906000526020600020905b815481526020019060010190808311611197575b50505091835250506003820154602082015260048201546040808301919091526005830154606083015260069092015460ff1615156080909101528101515190915060009067ffffffffffffffff81111561120857611208612987565b604051908082528060200260200182016040528015611231578160200160208202803683370190505b50905060005b826040015151811015611291578260400151818151811061125a5761125a612971565b602002602001015182828151811061127457611274612971565b60209081029190910101528061128981612948565b915050611237565b50815160208301516060840151608085015160a086015160c090960151939e929d50939b509950919750919550909350915050565b6008546001600160a01b031633146112f05760405162461bcd60e51b815260040161055e90612784565b600260095414156113135760405162461bcd60e51b815260040161055e906127b9565b6002600955600080600460ff8b16111561137e5760405162461bcd60e51b815260206004820152602660248201527f554d424c42415345236d616b655072657365743a20494e56414c49445f544f4b604482015265454e5459504560d01b606482015260840161055e565b60648960ff1611156113e35760405162461bcd60e51b815260206004820152602860248201527f554d424c42415345236d616b655072657365743a20494e56414c49445f4c4556604482015267454c5f56414c554560c01b606482015260840161055e565b600260ff891611156114435760405162461bcd60e51b8152602060048201526024808201527f554d424c42415345236d616b655072657365743a20494e56414c49445f4641436044820152632a24a7a760e11b606482015260840161055e565b600660ff881611156114a55760405162461bcd60e51b815260206004820152602560248201527f554d424c42415345236d616b655072657365743a20494e56414c49445f43415460448201526445474f525960d81b606482015260840161055e565b600760ff871611156115055760405162461bcd60e51b815260206004820152602360248201527f554d424c42415345236d616b655072657365743a20494e56414c49445f52415260448201526249545960e81b606482015260840161055e565b600560ff861611156115685760405162461bcd60e51b815260206004820152602660248201527f554d424c42415345236d616b655072657365743a20494e56414c49445f42414460448201526547455459504560d01b606482015260840161055e565b600860ff851611156115ca5760405162461bcd60e51b815260206004820152602560248201527f554d424c42415345236d616b655072657365743a20494e56414c49445f5a4f4e604482015264455459504560d81b606482015260840161055e565b600083116116255760405162461bcd60e51b815260206004820152602260248201527f554d424c42415345236d616b655072657365743a20494e56414c49445f505249604482015261434560f01b606482015260840161055e565b8a61164d576005805490600061163a83612948565b91905055506005549050600191506116b6565b6005548b11156116af5760405162461bcd60e51b815260206004820152602760248201527f554d424c42415345236d616b655072657365743a204e4f4e4558495354454e5460448201526617d4149154d15560ca1b606482015260840161055e565b5060009050895b604080516101408101825282815260ff8c811660208084019182528d83168486019081528d8416606086019081528d8516608087019081528d861660a088019081528d871660c089019081528d881660e08a01908152610100808b018f815260006101208d018181528f825260019a8b90529d90208c5181559951988a018054985197519651955194519351998c1661ffff1990991698909817968b169091029590951763ffff0000191662010000948a169490940263ff0000001916939093176301000000928916929092029190911765ffff0000000019166401000000009188169190910265ff000000000019161765010000000000918716919091021766ff0000000000001916600160301b9390951692909202939093179092559051600282015591516003909201805460ff19169215159290921790915582156118365760408051338152602081018490527fa3e5ef09feab9d2ebb9b46e4a29ff22b784d2752957cc7cf4e9a9e18b50add19910160405180910390a1611870565b60408051338152602081018490527f45af7cf685331762081be8e61f7359823871a70d85550aa4feeb01f16a447014910160405180910390a15b5050600160095550505050505050505050565b6008546001600160a01b031633146118ad5760405162461bcd60e51b815260040161055e90612784565b600260095414156118d05760405162461bcd60e51b815260040161055e906127b9565b600260095560075481111561193b5760405162461bcd60e51b815260206004820152602b60248201527f554d424c424153452364656c6574655061636b6167653a204e4f4e455849535460448201526a454e545f5041434b41474560a81b606482015260840161055e565b6000818152600360209081526040808320815160e08101835281548152600182015460ff16818501526002820180548451818702810187018652818152929593948601938301828280156119ae57602002820191906000526020600020905b81548152602001906001019080831161199a575b505050918352505060038281015460208084019190915260048401546040808501919091526005850154606085015260069094015460ff9081161515608090940193909352600160c086018190526000888152928252918490208551815585820151928101805460ff191693909416929092179092559183015180519394508493611a3f9260028501920190612483565b50606082015160038201556080820151600482015560a0820151600582015560c0909101516006909101805460ff191691151591909117905560408051338152602081018490527f820e8eb770b2c0e12f47fdba648be0833de85f9ced90a050394e798b98a4711e91016107ce565b6008546001600160a01b03163314611ad85760405162461bcd60e51b815260040161055e90612784565b60026009541415611afb5760405162461bcd60e51b815260040161055e906127b9565b6002600955600554811115611b645760405162461bcd60e51b815260206004820152602960248201527f554d424c424153452364656c6574655072657365743a204e4f4e455849535445604482015268139517d4149154d15560ba1b606482015260840161055e565b60006001600083815260200190815260200160002060405180610140016040529081600082015481526020016001820160009054906101000a900460ff1660ff1660ff1681526020016001820160019054906101000a900460ff1660ff1660ff1681526020016001820160029054906101000a900460ff1660ff1660ff1681526020016001820160039054906101000a900460ff1660ff1660ff1681526020016001820160049054906101000a900460ff1660ff1660ff1681526020016001820160059054906101000a900460ff1660ff1660ff1681526020016001820160069054906101000a900460ff1660ff1660ff168152602001600282015481526020016003820160009054906101000a900460ff161515151581525050905060018161012001901515908115158152505080600160008481526020019081526020016000206000820151816000015560208201518160010160006101000a81548160ff021916908360ff16021790555060408201518160010160016101000a81548160ff021916908360ff16021790555060608201518160010160026101000a81548160ff021916908360ff16021790555060808201518160010160036101000a81548160ff021916908360ff16021790555060a08201518160010160046101000a81548160ff021916908360ff16021790555060c08201518160010160056101000a81548160ff021916908360ff16021790555060e08201518160010160066101000a81548160ff021916908360ff16021790555061010082015181600201556101208201518160030160006101000a81548160ff0219169083151502179055509050507f7fbfbd3c8e7bc3f73b7158da75e0698904615382767f71e38895820b30ca554d33836040516107ce9291906001600160a01b03929092168252602082015260400190565b6008546001600160a01b03163314611e365760405162461bcd60e51b815260040161055e90612784565b6001600160a01b038116611e9b5760405162461bcd60e51b815260206004820152602660248201527f4f776e61626c653a206e6577206f776e657220697320746865207a65726f206160448201526564647265737360d01b606482015260840161055e565b611ea48161238b565b50565b6008546001600160a01b03163314611ed15760405162461bcd60e51b815260040161055e90612784565b60026009541415611ef45760405162461bcd60e51b815260040161055e906127b9565b60026009556000808060ff881615801590611f13575060648860ff1611155b611f705760405162461bcd60e51b815260206004820152602860248201527f554d424c42415345236d616b655061636b6167653a20494e56414c49445f544f60448201526712d15390d3d5539560c21b606482015260840161055e565b60008751118015611f8357506064875111155b611fe35760405162461bcd60e51b815260206004820152602b60248201527f554d424c42415345236d616b655061636b6167653a20494e56414c49445f505260448201526a08aa68aa8be988a9c8ea8960ab1b606482015260840161055e565b600092505b86518310156120a657600087848151811061200557612005612971565b6020026020010151118015612035575060055487848151811061202a5761202a612971565b602002602001015111155b6120945760405162461bcd60e51b815260206004820152602a60248201527f554d424c42415345236d616b655061636b6167653a20494e56414c49445f5052604482015269455345545f56414c554560b01b606482015260840161055e565b8261209e81612948565b935050611fe8565b8486106121045760405162461bcd60e51b815260206004820152602660248201527f554d424c42415345236d616b655061636b6167653a20494e56414c49445f4441604482015265544554494d4560d01b606482015260840161055e565b600084116121605760405162461bcd60e51b815260206004820152602360248201527f554d424c42415345236d616b655061636b6167653a20494e56414c49445f505260448201526249434560e81b606482015260840161055e565b88612188576007805490600061217583612948565b91905055506007549050600191506121f3565b6007548911156121ec5760405162461bcd60e51b815260206004820152602960248201527f554d424c42415345236d616b655061636b6167653a204e4f4e4558495354454e604482015268545f5041434b41474560b81b606482015260840161055e565b5060009050875b6040805160e08101825282815260ff8a81166020808401918252845160008082528183018752858701918252606086018d9052608086018c905260a086018b905260c08601819052878152600383529590952084518155915160018301805460ff1916919094161790925592518051929384939092612279926002850192910190612483565b50606082015160038201556080820151600482015560a0820151600582015560c0909101516006909101805460ff1916911515919091179055600093505b875184101561231957600360008381526020019081526020016000206002018885815181106122e8576122e8612971565b602090810291909101810151825460018101845560009384529190922001558361231181612948565b9450506122b7565b82156123555760408051338152602081018490527f9a581db5a4322ff40f46afcf48414597cc769603683f040592c0aaacdb8308859101610d15565b60408051338152602081018490527f071124bd86cec580c57ea511ea7dba49eff5d65d0abfaf5f6f87a730f7f327229101610d54565b600880546001600160a01b038381166001600160a01b0319831681179093556040519116919082907f8be0079c531659141344cd1fd0a4f28419497f9722a3daafe3b4186f6b6457e090600090a35050565b82805482825590600052602060002090601f016020900481019282156124735791602002820160005b8382111561244457835183826101000a81548160ff021916908360ff1602179055509260200192600101602081600001049283019260010302612406565b80156124715782816101000a81549060ff0219169055600101602081600001049283019260010302612444565b505b5061247f9291506124be565b5090565b828054828255906000526020600020908101928215612473579160200282015b828111156124735782518255916020019190600101906124a3565b5b8082111561247f57600081556001016124bf565b803560ff811681146124e457600080fd5b919050565b6000602082840312156124fb57600080fd5b81356001600160a01b038116811461251257600080fd5b9392505050565b60006020828403121561252b57600080fd5b5035919050565b60008060008060008060c0878903121561254b57600080fd5b86359550602061255c8189016124d3565b9550604088013567ffffffffffffffff81111561257857600080fd5b8801601f81018a1361258957600080fd5b803561259c61259782612924565b6128f3565b8082825284820191508484018d868560051b87010111156125bc57600080fd5b600094505b838510156125df5780358352600194909401939185019185016125c1565b50999c989b5098996060810135995060808101359860a090910135975095505050505050565b60008060008060008060c0878903121561261e57600080fd5b86359550602061262f8189016124d3565b955061263d604089016124d3565b9450606088013567ffffffffffffffff81111561265957600080fd5b8801601f81018a1361266a57600080fd5b803561267861259782612924565b8082825284820191508484018d868560051b870101111561269857600080fd5b600094505b838510156126c2576126ae816124d3565b83526001949094019391850191850161269d565b5080975050505050506126d7608088016124d3565b915060a087013590509295509295509295565b60008060008060008060008060006101208a8c03121561270957600080fd5b8935985061271960208b016124d3565b975061272760408b016124d3565b965061273560608b016124d3565b955061274360808b016124d3565b945061275160a08b016124d3565b935061275f60c08b016124d3565b925061276d60e08b016124d3565b91506101008a013590509295985092959850929598565b6020808252818101527f4f776e61626c653a2063616c6c6572206973206e6f7420746865206f776e6572604082015260600190565b6020808252601f908201527f5265656e7472616e637947756172643a207265656e7472616e742063616c6c00604082015260600190565b600060e08201898352602060ff8a168185015260e0604085015281895180845261010086019150828b01935060005b8181101561283b5784518352938301939183019160010161281f565b50506060850198909852505050608081019390935260a0830191909152151560c0909101529392505050565b600060e08201898352602060ff808b1682860152808a16604086015260e0606086015282895180855261010087019150838b01945060005b818110156128bd57855184168352948401949184019160010161289f565b505060ff8916608087015293506128d392505050565b8360a08301526128e760c083018415159052565b98975050505050505050565b604051601f8201601f1916810167ffffffffffffffff8111828210171561291c5761291c612987565b604052919050565b600067ffffffffffffffff82111561293e5761293e612987565b5060051b60200190565b600060001982141561296a57634e487b7160e01b600052601160045260246000fd5b5060010190565b634e487b7160e01b600052603260045260246000fd5b634e487b7160e01b600052604160045260246000fdfea26469706673582212200dcdc5e6cadcaaf066199a8aa2395e24ef640cf2ea001b3d19bab06589ccc75264736f6c63430008070033",
			"opcodes": "PUSH1 0x80 PUSH1 0x40 MSTORE PUSH1 0x0 PUSH1 0x4 SSTORE PUSH1 0x0 PUSH1 0x5 SSTORE PUSH1 0x0 PUSH1 0x6 SSTORE PUSH1 0x0 PUSH1 0x7 SSTORE CALLVALUE DUP1 ISZERO PUSH2 0x24 JUMPI PUSH1 0x0 DUP1 REVERT JUMPDEST POP PUSH2 0x2E CALLER PUSH2 0x38 JUMP JUMPDEST PUSH1 0x1 PUSH1 0x9 SSTORE PUSH2 0x8A JUMP JUMPDEST PUSH1 0x8 DUP1 SLOAD PUSH1 0x1 PUSH1 0x1 PUSH1 0xA0 SHL SUB DUP4 DUP2 AND PUSH1 0x1 PUSH1 0x1 PUSH1 0xA0 SHL SUB NOT DUP4 AND DUP2 OR SWAP1 SWAP4 SSTORE PUSH1 0x40 MLOAD SWAP2 AND SWAP2 SWAP1 DUP3 SWAP1 PUSH32 0x8BE0079C531659141344CD1FD0A4F28419497F9722A3DAAFE3B4186F6B6457E0 SWAP1 PUSH1 0x0 SWAP1 LOG3 POP POP JUMP JUMPDEST PUSH2 0x29D3 DUP1 PUSH2 0x99 PUSH1 0x0 CODECOPY PUSH1 0x0 RETURN INVALID PUSH1 0x80 PUSH1 0x40 MSTORE CALLVALUE DUP1 ISZERO PUSH2 0x10 JUMPI PUSH1 0x0 DUP1 REVERT JUMPDEST POP PUSH1 0x4 CALLDATASIZE LT PUSH2 0x12C JUMPI PUSH1 0x0 CALLDATALOAD PUSH1 0xE0 SHR DUP1 PUSH4 0xB99DFE18 GT PUSH2 0xAD JUMPI DUP1 PUSH4 0xD71C1008 GT PUSH2 0x71 JUMPI DUP1 PUSH4 0xD71C1008 EQ PUSH2 0x4DF JUMPI DUP1 PUSH4 0xD7DA9E4F EQ PUSH2 0x4F2 JUMPI DUP1 PUSH4 0xDA4F8666 EQ PUSH2 0x4FB JUMPI DUP1 PUSH4 0xF2FDE38B EQ PUSH2 0x50E JUMPI DUP1 PUSH4 0xF9D20F5C EQ PUSH2 0x521 JUMPI PUSH1 0x0 DUP1 REVERT JUMPDEST DUP1 PUSH4 0xB99DFE18 EQ PUSH2 0x41C JUMPI DUP1 PUSH4 0xC8A768E6 EQ PUSH2 0x442 JUMPI DUP1 PUSH4 0xCB9953E7 EQ PUSH2 0x44B JUMPI DUP1 PUSH4 0xCEFA3E9F EQ PUSH2 0x454 JUMPI DUP1 PUSH4 0xD0C2DE6C EQ PUSH2 0x4CC JUMPI PUSH1 0x0 DUP1 REVERT JUMPDEST DUP1 PUSH4 0x955A6615 GT PUSH2 0xF4 JUMPI DUP1 PUSH4 0x955A6615 EQ PUSH2 0x2DC JUMPI DUP1 PUSH4 0x98C4DD31 EQ PUSH2 0x2EF JUMPI DUP1 PUSH4 0xA09EA8C4 EQ PUSH2 0x302 JUMPI DUP1 PUSH4 0xAABC4B3C EQ PUSH2 0x328 JUMPI DUP1 PUSH4 0xB38D817C EQ PUSH2 0x397 JUMPI PUSH1 0x0 DUP1 REVERT JUMPDEST DUP1 PUSH4 0xC802789 EQ PUSH2 0x131 JUMPI DUP1 PUSH4 0x1280CB62 EQ PUSH2 0x1B2 JUMPI DUP1 PUSH4 0x715018A6 EQ PUSH2 0x2A0 JUMPI DUP1 PUSH4 0x75794A3C EQ PUSH2 0x2AA JUMPI DUP1 PUSH4 0x8DA5CB5B EQ PUSH2 0x2C1 JUMPI JUMPDEST PUSH1 0x0 DUP1 REVERT JUMPDEST PUSH2 0x17C PUSH2 0x13F CALLDATASIZE PUSH1 0x4 PUSH2 0x2519 JUMP JUMPDEST PUSH1 0x3 PUSH1 0x20 DUP2 SWAP1 MSTORE PUSH1 0x0 SWAP2 DUP3 MSTORE PUSH1 0x40 SWAP1 SWAP2 KECCAK256 DUP1 SLOAD PUSH1 0x1 DUP3 ADD SLOAD SWAP3 DUP3 ADD SLOAD PUSH1 0x4 DUP4 ADD SLOAD PUSH1 0x5 DUP5 ADD SLOAD PUSH1 0x6 SWAP1 SWAP5 ADD SLOAD SWAP3 SWAP5 PUSH1 0xFF SWAP1 DUP2 AND SWAP5 SWAP3 SWAP4 SWAP2 SWAP3 SWAP2 AND DUP7 JUMP JUMPDEST PUSH1 0x40 DUP1 MLOAD SWAP7 DUP8 MSTORE PUSH1 0xFF SWAP1 SWAP6 AND PUSH1 0x20 DUP8 ADD MSTORE SWAP4 DUP6 ADD SWAP3 SWAP1 SWAP3 MSTORE PUSH1 0x60 DUP5 ADD MSTORE PUSH1 0x80 DUP4 ADD MSTORE ISZERO ISZERO PUSH1 0xA0 DUP3 ADD MSTORE PUSH1 0xC0 ADD JUMPDEST PUSH1 0x40 MLOAD DUP1 SWAP2 SUB SWAP1 RETURN JUMPDEST PUSH2 0x236 PUSH2 0x1C0 CALLDATASIZE PUSH1 0x4 PUSH2 0x2519 JUMP JUMPDEST PUSH1 0x0 PUSH1 0x20 DUP2 SWAP1 MSTORE SWAP1 DUP2 MSTORE PUSH1 0x40 SWAP1 KECCAK256 DUP1 SLOAD PUSH1 0x1 DUP3 ADD SLOAD PUSH1 0x2 DUP4 ADD SLOAD PUSH1 0x3 DUP5 ADD SLOAD PUSH1 0x4 SWAP1 SWAP5 ADD SLOAD SWAP3 SWAP4 SWAP2 SWAP3 PUSH1 0x1 PUSH1 0x1 PUSH1 0xA0 SHL SUB DUP3 AND SWAP3 PUSH1 0xFF PUSH1 0x1 PUSH1 0xA0 SHL DUP5 DIV DUP2 AND SWAP4 PUSH1 0x1 PUSH1 0xA8 SHL DUP2 DIV DUP3 AND SWAP4 PUSH1 0x1 PUSH1 0xB0 SHL DUP3 DIV DUP4 AND SWAP4 PUSH1 0x1 PUSH1 0xB8 SHL DUP4 DIV DUP5 AND SWAP4 PUSH1 0x1 PUSH1 0xC0 SHL DUP5 DIV DUP2 AND SWAP4 PUSH1 0x1 PUSH1 0xC8 SHL SWAP1 DIV DUP2 AND SWAP3 AND DUP12 JUMP JUMPDEST PUSH1 0x40 DUP1 MLOAD SWAP12 DUP13 MSTORE PUSH1 0x20 DUP13 ADD SWAP11 SWAP1 SWAP11 MSTORE PUSH1 0x1 PUSH1 0x1 PUSH1 0xA0 SHL SUB SWAP1 SWAP9 AND SWAP9 DUP11 ADD SWAP9 SWAP1 SWAP9 MSTORE PUSH1 0xFF SWAP6 DUP7 AND PUSH1 0x60 DUP11 ADD MSTORE SWAP4 DUP6 AND PUSH1 0x80 DUP10 ADD MSTORE SWAP2 DUP5 AND PUSH1 0xA0 DUP9 ADD MSTORE DUP4 AND PUSH1 0xC0 DUP8 ADD MSTORE DUP3 AND PUSH1 0xE0 DUP7 ADD MSTORE AND PUSH2 0x100 DUP5 ADD MSTORE PUSH2 0x120 DUP4 ADD SWAP2 SWAP1 SWAP2 MSTORE ISZERO ISZERO PUSH2 0x140 DUP3 ADD MSTORE PUSH2 0x160 ADD PUSH2 0x1A9 JUMP JUMPDEST PUSH2 0x2A8 PUSH2 0x534 JUMP JUMPDEST STOP JUMPDEST PUSH2 0x2B3 PUSH1 0x4 SLOAD DUP2 JUMP JUMPDEST PUSH1 0x40 MLOAD SWAP1 DUP2 MSTORE PUSH1 0x20 ADD PUSH2 0x1A9 JUMP JUMPDEST PUSH1 0x8 SLOAD PUSH1 0x40 MLOAD PUSH1 0x1 PUSH1 0x1 PUSH1 0xA0 SHL SUB SWAP1 SWAP2 AND DUP2 MSTORE PUSH1 0x20 ADD PUSH2 0x1A9 JUMP JUMPDEST PUSH2 0x2A8 PUSH2 0x2EA CALLDATASIZE PUSH1 0x4 PUSH2 0x2519 JUMP JUMPDEST PUSH2 0x573 JUMP JUMPDEST PUSH2 0x2A8 PUSH2 0x2FD CALLDATASIZE PUSH1 0x4 PUSH2 0x2605 JUMP JUMPDEST PUSH2 0x7DF JUMP JUMPDEST PUSH2 0x315 PUSH2 0x310 CALLDATASIZE PUSH1 0x4 PUSH2 0x2519 JUMP JUMPDEST PUSH2 0xD6E JUMP JUMPDEST PUSH1 0x40 MLOAD PUSH2 0x1A9 SWAP8 SWAP7 SWAP6 SWAP5 SWAP4 SWAP3 SWAP2 SWAP1 PUSH2 0x2867 JUMP JUMPDEST PUSH2 0x33B PUSH2 0x336 CALLDATASIZE PUSH1 0x4 PUSH2 0x2519 JUMP JUMPDEST PUSH2 0xF92 JUMP JUMPDEST PUSH1 0x40 DUP1 MLOAD SWAP11 DUP12 MSTORE PUSH1 0xFF SWAP10 DUP11 AND PUSH1 0x20 DUP13 ADD MSTORE SWAP8 DUP10 AND SWAP8 DUP11 ADD SWAP8 SWAP1 SWAP8 MSTORE SWAP5 DUP8 AND PUSH1 0x60 DUP10 ADD MSTORE SWAP3 DUP7 AND PUSH1 0x80 DUP9 ADD MSTORE SWAP1 DUP6 AND PUSH1 0xA0 DUP8 ADD MSTORE DUP5 AND PUSH1 0xC0 DUP7 ADD MSTORE SWAP1 SWAP3 AND PUSH1 0xE0 DUP5 ADD MSTORE PUSH2 0x100 DUP4 ADD SWAP2 SWAP1 SWAP2 MSTORE ISZERO ISZERO PUSH2 0x120 DUP3 ADD MSTORE PUSH2 0x140 ADD PUSH2 0x1A9 JUMP JUMPDEST PUSH2 0x3E3 PUSH2 0x3A5 CALLDATASIZE PUSH1 0x4 PUSH2 0x2519 JUMP JUMPDEST PUSH1 0x2 PUSH1 0x20 MSTORE PUSH1 0x0 SWAP1 DUP2 MSTORE PUSH1 0x40 SWAP1 KECCAK256 DUP1 SLOAD PUSH1 0x1 DUP3 ADD SLOAD PUSH1 0x3 DUP4 ADD SLOAD PUSH1 0x4 DUP5 ADD SLOAD PUSH1 0x5 SWAP1 SWAP5 ADD SLOAD SWAP3 SWAP4 PUSH1 0xFF DUP1 DUP5 AND SWAP5 PUSH2 0x100 SWAP1 SWAP5 DIV DUP2 AND SWAP4 SWAP3 DUP2 AND SWAP3 AND DUP7 JUMP JUMPDEST PUSH1 0x40 DUP1 MLOAD SWAP7 DUP8 MSTORE PUSH1 0xFF SWAP6 DUP7 AND PUSH1 0x20 DUP9 ADD MSTORE SWAP4 DUP6 AND SWAP4 DUP7 ADD SWAP4 SWAP1 SWAP4 MSTORE SWAP3 AND PUSH1 0x60 DUP5 ADD MSTORE PUSH1 0x80 DUP4 ADD SWAP2 SWAP1 SWAP2 MSTORE ISZERO ISZERO PUSH1 0xA0 DUP3 ADD MSTORE PUSH1 0xC0 ADD PUSH2 0x1A9 JUMP JUMPDEST PUSH2 0x42F PUSH2 0x42A CALLDATASIZE PUSH1 0x4 PUSH2 0x2519 JUMP JUMPDEST PUSH2 0x10CA JUMP JUMPDEST PUSH1 0x40 MLOAD PUSH2 0x1A9 SWAP8 SWAP7 SWAP6 SWAP5 SWAP4 SWAP3 SWAP2 SWAP1 PUSH2 0x27F0 JUMP JUMPDEST PUSH2 0x2B3 PUSH1 0x5 SLOAD DUP2 JUMP JUMPDEST PUSH2 0x2B3 PUSH1 0x6 SLOAD DUP2 JUMP JUMPDEST PUSH2 0x33B PUSH2 0x462 CALLDATASIZE PUSH1 0x4 PUSH2 0x2519 JUMP JUMPDEST PUSH1 0x1 PUSH1 0x20 DUP2 SWAP1 MSTORE PUSH1 0x0 SWAP2 DUP3 MSTORE PUSH1 0x40 SWAP1 SWAP2 KECCAK256 DUP1 SLOAD SWAP2 DUP2 ADD SLOAD PUSH1 0x2 DUP3 ADD SLOAD PUSH1 0x3 SWAP1 SWAP3 ADD SLOAD PUSH1 0xFF DUP1 DUP4 AND SWAP4 PUSH2 0x100 DUP5 DIV DUP3 AND SWAP4 PUSH3 0x10000 DUP2 DIV DUP4 AND SWAP4 PUSH4 0x1000000 DUP3 DIV DUP5 AND SWAP4 PUSH5 0x100000000 DUP4 DIV DUP2 AND SWAP4 PUSH6 0x10000000000 DUP5 DIV DUP3 AND SWAP4 PUSH1 0x1 PUSH1 0x30 SHL SWAP1 DIV DUP3 AND SWAP3 SWAP1 SWAP2 AND DUP11 JUMP JUMPDEST PUSH2 0x2A8 PUSH2 0x4DA CALLDATASIZE PUSH1 0x4 PUSH2 0x26EA JUMP JUMPDEST PUSH2 0x12C6 JUMP JUMPDEST PUSH2 0x2A8 PUSH2 0x4ED CALLDATASIZE PUSH1 0x4 PUSH2 0x2519 JUMP JUMPDEST PUSH2 0x1883 JUMP JUMPDEST PUSH2 0x2B3 PUSH1 0x7 SLOAD DUP2 JUMP JUMPDEST PUSH2 0x2A8 PUSH2 0x509 CALLDATASIZE PUSH1 0x4 PUSH2 0x2519 JUMP JUMPDEST PUSH2 0x1AAE JUMP JUMPDEST PUSH2 0x2A8 PUSH2 0x51C CALLDATASIZE PUSH1 0x4 PUSH2 0x24E9 JUMP JUMPDEST PUSH2 0x1E0C JUMP JUMPDEST PUSH2 0x2A8 PUSH2 0x52F CALLDATASIZE PUSH1 0x4 PUSH2 0x2532 JUMP JUMPDEST PUSH2 0x1EA7 JUMP JUMPDEST PUSH1 0x8 SLOAD PUSH1 0x1 PUSH1 0x1 PUSH1 0xA0 SHL SUB AND CALLER EQ PUSH2 0x567 JUMPI PUSH1 0x40 MLOAD PUSH3 0x461BCD PUSH1 0xE5 SHL DUP2 MSTORE PUSH1 0x4 ADD PUSH2 0x55E SWAP1 PUSH2 0x2784 JUMP JUMPDEST PUSH1 0x40 MLOAD DUP1 SWAP2 SUB SWAP1 REVERT JUMPDEST PUSH2 0x571 PUSH1 0x0 PUSH2 0x238B JUMP JUMPDEST JUMP JUMPDEST PUSH1 0x8 SLOAD PUSH1 0x1 PUSH1 0x1 PUSH1 0xA0 SHL SUB AND CALLER EQ PUSH2 0x59D JUMPI PUSH1 0x40 MLOAD PUSH3 0x461BCD PUSH1 0xE5 SHL DUP2 MSTORE PUSH1 0x4 ADD PUSH2 0x55E SWAP1 PUSH2 0x2784 JUMP JUMPDEST PUSH1 0x2 PUSH1 0x9 SLOAD EQ ISZERO PUSH2 0x5C0 JUMPI PUSH1 0x40 MLOAD PUSH3 0x461BCD PUSH1 0xE5 SHL DUP2 MSTORE PUSH1 0x4 ADD PUSH2 0x55E SWAP1 PUSH2 0x27B9 JUMP JUMPDEST PUSH1 0x2 PUSH1 0x9 SSTORE PUSH1 0x6 SLOAD DUP2 GT ISZERO PUSH2 0x627 JUMPI PUSH1 0x40 MLOAD PUSH3 0x461BCD PUSH1 0xE5 SHL DUP2 MSTORE PUSH1 0x20 PUSH1 0x4 DUP3 ADD MSTORE PUSH1 0x27 PUSH1 0x24 DUP3 ADD MSTORE PUSH32 0x554D424C424153452364656C65746543726174653A204E4F4E4558495354454E PUSH1 0x44 DUP3 ADD MSTORE PUSH7 0x545F4352415445 PUSH1 0xC8 SHL PUSH1 0x64 DUP3 ADD MSTORE PUSH1 0x84 ADD PUSH2 0x55E JUMP JUMPDEST PUSH1 0x0 DUP2 DUP2 MSTORE PUSH1 0x2 PUSH1 0x20 DUP2 DUP2 MSTORE PUSH1 0x40 DUP1 DUP5 KECCAK256 DUP2 MLOAD PUSH1 0xE0 DUP2 ADD DUP4 MSTORE DUP2 SLOAD DUP2 MSTORE PUSH1 0x1 DUP3 ADD SLOAD PUSH1 0xFF DUP1 DUP3 AND DUP4 DUP8 ADD MSTORE PUSH2 0x100 SWAP1 SWAP2 DIV AND DUP2 DUP5 ADD MSTORE SWAP4 DUP2 ADD DUP1 SLOAD DUP4 MLOAD DUP2 DUP7 MUL DUP2 ADD DUP7 ADD SWAP1 SWAP5 MSTORE DUP1 DUP5 MSTORE SWAP2 SWAP4 PUSH1 0x60 DUP7 ADD SWAP4 SWAP3 SWAP1 DUP4 ADD DUP3 DUP3 DUP1 ISZERO PUSH2 0x6C7 JUMPI PUSH1 0x20 MUL DUP3 ADD SWAP2 SWAP1 PUSH1 0x0 MSTORE PUSH1 0x20 PUSH1 0x0 KECCAK256 SWAP1 PUSH1 0x0 SWAP1 JUMPDEST DUP3 SLOAD PUSH2 0x100 DUP4 SWAP1 EXP SWAP1 DIV PUSH1 0xFF AND DUP2 MSTORE PUSH1 0x20 PUSH1 0x1 SWAP3 DUP4 ADD DUP2 DUP2 DIV SWAP5 DUP6 ADD SWAP5 SWAP1 SWAP4 SUB SWAP1 SWAP3 MUL SWAP2 ADD DUP1 DUP5 GT PUSH2 0x698 JUMPI SWAP1 POP JUMPDEST POP POP POP SWAP2 DUP4 MSTORE POP POP PUSH1 0x3 DUP3 ADD SLOAD PUSH1 0xFF SWAP1 DUP2 AND PUSH1 0x20 DUP1 DUP5 ADD SWAP2 SWAP1 SWAP2 MSTORE PUSH1 0x4 DUP5 ADD SLOAD PUSH1 0x40 DUP1 DUP6 ADD SWAP2 SWAP1 SWAP2 MSTORE PUSH1 0x5 SWAP1 SWAP5 ADD SLOAD DUP3 AND ISZERO ISZERO PUSH1 0x60 SWAP4 DUP5 ADD MSTORE PUSH1 0x1 PUSH1 0xC0 DUP7 ADD DUP2 SWAP1 MSTORE PUSH1 0x0 DUP9 DUP2 MSTORE PUSH1 0x2 DUP1 DUP5 MSTORE SWAP1 DUP7 SWAP1 KECCAK256 DUP8 MLOAD DUP2 SSTORE DUP8 DUP5 ADD MLOAD SWAP3 DUP2 ADD DUP1 SLOAD SWAP8 DUP10 ADD MLOAD DUP7 AND PUSH2 0x100 MUL PUSH2 0xFFFF NOT SWAP1 SWAP9 AND SWAP4 SWAP1 SWAP6 AND SWAP3 SWAP1 SWAP3 OR SWAP6 SWAP1 SWAP6 OR SWAP1 SWAP3 SSTORE SWAP2 DUP5 ADD MLOAD DUP1 MLOAD SWAP5 SWAP6 POP DUP6 SWAP5 SWAP2 SWAP4 PUSH2 0x761 SWAP4 SWAP1 DUP6 ADD SWAP3 SWAP2 ADD SWAP1 PUSH2 0x23DD JUMP JUMPDEST POP PUSH1 0x80 DUP3 ADD MLOAD PUSH1 0x3 DUP3 ADD DUP1 SLOAD PUSH1 0xFF SWAP1 SWAP3 AND PUSH1 0xFF NOT SWAP3 DUP4 AND OR SWAP1 SSTORE PUSH1 0xA0 DUP4 ADD MLOAD PUSH1 0x4 DUP4 ADD SSTORE PUSH1 0xC0 SWAP1 SWAP3 ADD MLOAD PUSH1 0x5 SWAP1 SWAP2 ADD DUP1 SLOAD SWAP2 ISZERO ISZERO SWAP2 SWAP1 SWAP3 AND OR SWAP1 SSTORE PUSH1 0x40 DUP1 MLOAD CALLER DUP2 MSTORE PUSH1 0x20 DUP2 ADD DUP5 SWAP1 MSTORE PUSH32 0xA45F99A9CA24F747F4A318C973CA4B5087EA41C28B6FF10B827340279844B335 SWAP2 ADD JUMPDEST PUSH1 0x40 MLOAD DUP1 SWAP2 SUB SWAP1 LOG1 POP POP PUSH1 0x1 PUSH1 0x9 SSTORE JUMP JUMPDEST PUSH1 0x8 SLOAD PUSH1 0x1 PUSH1 0x1 PUSH1 0xA0 SHL SUB AND CALLER EQ PUSH2 0x809 JUMPI PUSH1 0x40 MLOAD PUSH3 0x461BCD PUSH1 0xE5 SHL DUP2 MSTORE PUSH1 0x4 ADD PUSH2 0x55E SWAP1 PUSH2 0x2784 JUMP JUMPDEST PUSH1 0x2 PUSH1 0x9 SLOAD EQ ISZERO PUSH2 0x82C JUMPI PUSH1 0x40 MLOAD PUSH3 0x461BCD PUSH1 0xE5 SHL DUP2 MSTORE PUSH1 0x4 ADD PUSH2 0x55E SWAP1 PUSH2 0x27B9 JUMP JUMPDEST PUSH1 0x2 PUSH1 0x9 SSTORE PUSH1 0x0 DUP1 DUP1 PUSH1 0xFF DUP8 AND PUSH1 0x1 EQ DUP1 PUSH2 0x84A JUMPI POP PUSH1 0xFF DUP8 AND PUSH1 0x2 EQ JUMPDEST PUSH2 0x8A2 JUMPI PUSH1 0x40 MLOAD PUSH3 0x461BCD PUSH1 0xE5 SHL DUP2 MSTORE PUSH1 0x20 PUSH1 0x4 DUP3 ADD MSTORE PUSH1 0x23 PUSH1 0x24 DUP3 ADD MSTORE PUSH32 0x554D424C42415345236D616B6543726174653A20494E56414C49445F46414354 PUSH1 0x44 DUP3 ADD MSTORE PUSH3 0x24A7A7 PUSH1 0xE9 SHL PUSH1 0x64 DUP3 ADD MSTORE PUSH1 0x84 ADD PUSH2 0x55E JUMP JUMPDEST PUSH1 0x0 DUP7 MLOAD GT DUP1 ISZERO PUSH2 0x8B5 JUMPI POP PUSH1 0xA DUP7 MLOAD GT ISZERO JUMPDEST PUSH2 0x913 JUMPI PUSH1 0x40 MLOAD PUSH3 0x461BCD PUSH1 0xE5 SHL DUP2 MSTORE PUSH1 0x20 PUSH1 0x4 DUP3 ADD MSTORE PUSH1 0x29 PUSH1 0x24 DUP3 ADD MSTORE PUSH32 0x554D424C42415345236D616B6543726174653A20494E56414C49445F52415249 PUSH1 0x44 DUP3 ADD MSTORE PUSH9 0xA8B2BE988A9C8EA89 PUSH1 0xBB SHL PUSH1 0x64 DUP3 ADD MSTORE PUSH1 0x84 ADD PUSH2 0x55E JUMP JUMPDEST PUSH1 0x0 SWAP3 POP JUMPDEST DUP6 MLOAD DUP4 LT ISZERO PUSH2 0x9E0 JUMPI PUSH1 0x1 PUSH1 0xFF AND DUP7 DUP5 DUP2 MLOAD DUP2 LT PUSH2 0x938 JUMPI PUSH2 0x938 PUSH2 0x2971 JUMP JUMPDEST PUSH1 0x20 MUL PUSH1 0x20 ADD ADD MLOAD PUSH1 0xFF AND LT ISZERO DUP1 ISZERO PUSH2 0x971 JUMPI POP PUSH1 0x7 PUSH1 0xFF AND DUP7 DUP5 DUP2 MLOAD DUP2 LT PUSH2 0x963 JUMPI PUSH2 0x963 PUSH2 0x2971 JUMP JUMPDEST PUSH1 0x20 MUL PUSH1 0x20 ADD ADD MLOAD PUSH1 0xFF AND GT ISZERO JUMPDEST PUSH2 0x9CE JUMPI PUSH1 0x40 MLOAD PUSH3 0x461BCD PUSH1 0xE5 SHL DUP2 MSTORE PUSH1 0x20 PUSH1 0x4 DUP3 ADD MSTORE PUSH1 0x28 PUSH1 0x24 DUP3 ADD MSTORE PUSH32 0x554D424C42415345236D616B6543726174653A20494E56414C49445F52415249 PUSH1 0x44 DUP3 ADD MSTORE PUSH8 0x54595F56414C5545 PUSH1 0xC0 SHL PUSH1 0x64 DUP3 ADD MSTORE PUSH1 0x84 ADD PUSH2 0x55E JUMP JUMPDEST DUP3 PUSH2 0x9D8 DUP2 PUSH2 0x2948 JUMP JUMPDEST SWAP4 POP POP PUSH2 0x918 JUMP JUMPDEST PUSH1 0x0 DUP6 PUSH1 0xFF AND GT DUP1 ISZERO PUSH2 0x9F7 JUMPI POP PUSH1 0x64 DUP6 PUSH1 0xFF AND GT ISZERO JUMPDEST PUSH2 0xA52 JUMPI PUSH1 0x40 MLOAD PUSH3 0x461BCD PUSH1 0xE5 SHL DUP2 MSTORE PUSH1 0x20 PUSH1 0x4 DUP3 ADD MSTORE PUSH1 0x26 PUSH1 0x24 DUP3 ADD MSTORE PUSH32 0x554D424C42415345236D616B6543726174653A20494E56414C49445F544F4B45 PUSH1 0x44 DUP3 ADD MSTORE PUSH6 0x1390D3D55395 PUSH1 0xD2 SHL PUSH1 0x64 DUP3 ADD MSTORE PUSH1 0x84 ADD PUSH2 0x55E JUMP JUMPDEST PUSH1 0x0 DUP5 GT PUSH2 0xAAC JUMPI PUSH1 0x40 MLOAD PUSH3 0x461BCD PUSH1 0xE5 SHL DUP2 MSTORE PUSH1 0x20 PUSH1 0x4 DUP3 ADD MSTORE PUSH1 0x21 PUSH1 0x24 DUP3 ADD MSTORE PUSH32 0x554D424C42415345236D616B6543726174653A20494E56414C49445F50524943 PUSH1 0x44 DUP3 ADD MSTORE PUSH1 0x45 PUSH1 0xF8 SHL PUSH1 0x64 DUP3 ADD MSTORE PUSH1 0x84 ADD PUSH2 0x55E JUMP JUMPDEST DUP9 PUSH2 0xAD4 JUMPI PUSH1 0x6 DUP1 SLOAD SWAP1 PUSH1 0x0 PUSH2 0xAC1 DUP4 PUSH2 0x2948 JUMP JUMPDEST SWAP2 SWAP1 POP SSTORE POP PUSH1 0x6 SLOAD SWAP1 POP PUSH1 0x1 SWAP2 POP PUSH2 0xB3B JUMP JUMPDEST PUSH1 0x6 SLOAD DUP10 GT ISZERO PUSH2 0xB34 JUMPI PUSH1 0x40 MLOAD PUSH3 0x461BCD PUSH1 0xE5 SHL DUP2 MSTORE PUSH1 0x20 PUSH1 0x4 DUP3 ADD MSTORE PUSH1 0x25 PUSH1 0x24 DUP3 ADD MSTORE PUSH32 0x554D424C42415345236D616B6543726174653A204E4F4E4558495354454E545F PUSH1 0x44 DUP3 ADD MSTORE PUSH5 0x4352415445 PUSH1 0xD8 SHL PUSH1 0x64 DUP3 ADD MSTORE PUSH1 0x84 ADD PUSH2 0x55E JUMP JUMPDEST POP PUSH1 0x0 SWAP1 POP DUP8 JUMPDEST PUSH1 0x0 PUSH1 0x40 MLOAD DUP1 PUSH1 0xE0 ADD PUSH1 0x40 MSTORE DUP1 DUP4 DUP2 MSTORE PUSH1 0x20 ADD DUP11 PUSH1 0xFF AND DUP2 MSTORE PUSH1 0x20 ADD DUP10 PUSH1 0xFF AND DUP2 MSTORE PUSH1 0x20 ADD PUSH1 0x0 PUSH8 0xFFFFFFFFFFFFFFFF DUP2 GT ISZERO PUSH2 0xB7A JUMPI PUSH2 0xB7A PUSH2 0x2987 JUMP JUMPDEST PUSH1 0x40 MLOAD SWAP1 DUP1 DUP3 MSTORE DUP1 PUSH1 0x20 MUL PUSH1 0x20 ADD DUP3 ADD PUSH1 0x40 MSTORE DUP1 ISZERO PUSH2 0xBA3 JUMPI DUP2 PUSH1 0x20 ADD PUSH1 0x20 DUP3 MUL DUP1 CALLDATASIZE DUP4 CALLDATACOPY ADD SWAP1 POP JUMPDEST POP DUP2 MSTORE PUSH1 0xFF DUP1 DUP10 AND PUSH1 0x20 DUP1 DUP5 ADD SWAP2 SWAP1 SWAP2 MSTORE PUSH1 0x40 DUP1 DUP5 ADD DUP11 SWAP1 MSTORE PUSH1 0x0 PUSH1 0x60 SWAP5 DUP6 ADD DUP2 SWAP1 MSTORE DUP8 DUP2 MSTORE PUSH1 0x2 DUP1 DUP5 MSTORE SWAP1 DUP3 SWAP1 KECCAK256 DUP7 MLOAD DUP2 SSTORE DUP7 DUP5 ADD MLOAD PUSH1 0x1 DUP3 ADD DUP1 SLOAD SWAP5 DUP10 ADD MLOAD DUP8 AND PUSH2 0x100 MUL PUSH2 0xFFFF NOT SWAP1 SWAP6 AND SWAP2 SWAP1 SWAP7 AND OR SWAP3 SWAP1 SWAP3 OR SWAP1 SWAP4 SSTORE SWAP3 DUP5 ADD MLOAD DUP1 MLOAD SWAP5 SWAP6 POP DUP6 SWAP5 PUSH2 0xC19 SWAP4 DUP6 ADD SWAP3 SWAP2 SWAP1 SWAP2 ADD SWAP1 PUSH2 0x23DD JUMP JUMPDEST POP PUSH1 0x80 DUP3 ADD MLOAD PUSH1 0x3 DUP3 ADD DUP1 SLOAD PUSH1 0xFF SWAP1 SWAP3 AND PUSH1 0xFF NOT SWAP3 DUP4 AND OR SWAP1 SSTORE PUSH1 0xA0 DUP4 ADD MLOAD PUSH1 0x4 DUP4 ADD SSTORE PUSH1 0xC0 SWAP1 SWAP3 ADD MLOAD PUSH1 0x5 SWAP1 SWAP2 ADD DUP1 SLOAD SWAP2 ISZERO ISZERO SWAP2 SWAP1 SWAP3 AND OR SWAP1 SSTORE PUSH1 0x0 SWAP4 POP JUMPDEST DUP7 MLOAD DUP5 LT ISZERO PUSH2 0xCDD JUMPI PUSH1 0x2 PUSH1 0x0 DUP4 DUP2 MSTORE PUSH1 0x20 ADD SWAP1 DUP2 MSTORE PUSH1 0x20 ADD PUSH1 0x0 KECCAK256 PUSH1 0x2 ADD DUP8 DUP6 DUP2 MLOAD DUP2 LT PUSH2 0xC8A JUMPI PUSH2 0xC8A PUSH2 0x2971 JUMP JUMPDEST PUSH1 0x20 SWAP1 DUP2 MUL SWAP2 SWAP1 SWAP2 ADD DUP2 ADD MLOAD DUP3 SLOAD PUSH1 0x1 DUP2 ADD DUP5 SSTORE PUSH1 0x0 SWAP4 DUP5 MSTORE SWAP3 DUP3 SWAP1 KECCAK256 SWAP2 DUP4 DIV SWAP1 SWAP2 ADD DUP1 SLOAD PUSH1 0xFF SWAP3 DUP4 AND PUSH1 0x1F SWAP1 SWAP5 AND PUSH2 0x100 EXP SWAP4 DUP5 MUL SWAP3 SWAP1 SWAP4 MUL NOT SWAP1 SWAP3 AND OR SWAP1 SSTORE DUP4 PUSH2 0xCD5 DUP2 PUSH2 0x2948 JUMP JUMPDEST SWAP5 POP POP PUSH2 0xC59 JUMP JUMPDEST DUP3 ISZERO PUSH2 0xD22 JUMPI PUSH1 0x40 DUP1 MLOAD CALLER DUP2 MSTORE PUSH1 0x20 DUP2 ADD DUP5 SWAP1 MSTORE PUSH32 0x71D6B09B1D3CB8617F35F6DF2357D050AEFA8EC19564D09DAFBADB6256A894F1 SWAP2 ADD JUMPDEST PUSH1 0x40 MLOAD DUP1 SWAP2 SUB SWAP1 LOG1 PUSH2 0xD5D JUMP JUMPDEST PUSH1 0x40 DUP1 MLOAD CALLER DUP2 MSTORE PUSH1 0x20 DUP2 ADD DUP5 SWAP1 MSTORE PUSH32 0xF37E5F6D4062B02AE67880A9F1C05EE577E8CD0C07EE5FCF5C93D957DCC0935B SWAP2 ADD JUMPDEST PUSH1 0x40 MLOAD DUP1 SWAP2 SUB SWAP1 LOG1 JUMPDEST POP POP PUSH1 0x1 PUSH1 0x9 SSTORE POP POP POP POP POP POP POP POP JUMP JUMPDEST PUSH1 0x0 DUP1 PUSH1 0x0 PUSH1 0x60 PUSH1 0x0 DUP1 PUSH1 0x0 PUSH1 0x6 SLOAD DUP9 GT ISZERO PUSH2 0xDD8 JUMPI PUSH1 0x40 MLOAD PUSH3 0x461BCD PUSH1 0xE5 SHL DUP2 MSTORE PUSH1 0x20 PUSH1 0x4 DUP3 ADD MSTORE PUSH1 0x24 DUP1 DUP3 ADD MSTORE PUSH32 0x554D424C424153452367657443726174653A204E4F4E4558495354454E545F43 PUSH1 0x44 DUP3 ADD MSTORE PUSH4 0x52415445 PUSH1 0xE0 SHL PUSH1 0x64 DUP3 ADD MSTORE PUSH1 0x84 ADD PUSH2 0x55E JUMP JUMPDEST PUSH1 0x0 DUP9 DUP2 MSTORE PUSH1 0x2 PUSH1 0x20 DUP2 DUP2 MSTORE PUSH1 0x40 DUP1 DUP5 KECCAK256 DUP2 MLOAD PUSH1 0xE0 DUP2 ADD DUP4 MSTORE DUP2 SLOAD DUP2 MSTORE PUSH1 0x1 DUP3 ADD SLOAD PUSH1 0xFF DUP1 DUP3 AND DUP4 DUP8 ADD MSTORE PUSH2 0x100 SWAP1 SWAP2 DIV AND DUP2 DUP5 ADD MSTORE SWAP4 DUP2 ADD DUP1 SLOAD DUP4 MLOAD DUP2 DUP7 MUL DUP2 ADD DUP7 ADD SWAP1 SWAP5 MSTORE DUP1 DUP5 MSTORE SWAP2 SWAP4 PUSH1 0x60 DUP7 ADD SWAP4 SWAP3 SWAP1 DUP4 ADD DUP3 DUP3 DUP1 ISZERO PUSH2 0xE78 JUMPI PUSH1 0x20 MUL DUP3 ADD SWAP2 SWAP1 PUSH1 0x0 MSTORE PUSH1 0x20 PUSH1 0x0 KECCAK256 SWAP1 PUSH1 0x0 SWAP1 JUMPDEST DUP3 SLOAD PUSH2 0x100 DUP4 SWAP1 EXP SWAP1 DIV PUSH1 0xFF AND DUP2 MSTORE PUSH1 0x20 PUSH1 0x1 SWAP3 DUP4 ADD DUP2 DUP2 DIV SWAP5 DUP6 ADD SWAP5 SWAP1 SWAP4 SUB SWAP1 SWAP3 MUL SWAP2 ADD DUP1 DUP5 GT PUSH2 0xE49 JUMPI SWAP1 POP JUMPDEST POP POP POP SWAP2 DUP4 MSTORE POP POP PUSH1 0x3 DUP3 ADD SLOAD PUSH1 0xFF SWAP1 DUP2 AND PUSH1 0x20 DUP4 ADD MSTORE PUSH1 0x4 DUP4 ADD SLOAD PUSH1 0x40 DUP4 ADD MSTORE PUSH1 0x5 SWAP1 SWAP3 ADD SLOAD SWAP1 SWAP2 AND ISZERO ISZERO PUSH1 0x60 SWAP2 DUP3 ADD MSTORE DUP2 ADD MLOAD MLOAD SWAP1 SWAP2 POP PUSH1 0x0 SWAP1 PUSH8 0xFFFFFFFFFFFFFFFF DUP2 GT ISZERO PUSH2 0xECC JUMPI PUSH2 0xECC PUSH2 0x2987 JUMP JUMPDEST PUSH1 0x40 MLOAD SWAP1 DUP1 DUP3 MSTORE DUP1 PUSH1 0x20 MUL PUSH1 0x20 ADD DUP3 ADD PUSH1 0x40 MSTORE DUP1 ISZERO PUSH2 0xEF5 JUMPI DUP2 PUSH1 0x20 ADD PUSH1 0x20 DUP3 MUL DUP1 CALLDATASIZE DUP4 CALLDATACOPY ADD SWAP1 POP JUMPDEST POP SWAP1 POP PUSH1 0x0 JUMPDEST DUP3 PUSH1 0x60 ADD MLOAD MLOAD DUP2 LT ISZERO PUSH2 0xF5C JUMPI DUP3 PUSH1 0x60 ADD MLOAD DUP2 DUP2 MLOAD DUP2 LT PUSH2 0xF1E JUMPI PUSH2 0xF1E PUSH2 0x2971 JUMP JUMPDEST PUSH1 0x20 MUL PUSH1 0x20 ADD ADD MLOAD DUP3 DUP3 DUP2 MLOAD DUP2 LT PUSH2 0xF38 JUMPI PUSH2 0xF38 PUSH2 0x2971 JUMP JUMPDEST PUSH1 0xFF SWAP1 SWAP3 AND PUSH1 0x20 SWAP3 DUP4 MUL SWAP2 SWAP1 SWAP2 ADD SWAP1 SWAP2 ADD MSTORE DUP1 PUSH2 0xF54 DUP2 PUSH2 0x2948 JUMP JUMPDEST SWAP2 POP POP PUSH2 0xEFB JUMP JUMPDEST POP DUP2 MLOAD PUSH1 0x20 DUP4 ADD MLOAD PUSH1 0x40 DUP5 ADD MLOAD PUSH1 0x80 DUP6 ADD MLOAD PUSH1 0xA0 DUP7 ADD MLOAD PUSH1 0xC0 SWAP1 SWAP7 ADD MLOAD SWAP4 SWAP15 SWAP3 SWAP14 POP SWAP1 SWAP12 POP SWAP3 SWAP10 POP SWAP2 SWAP8 POP SWAP2 SWAP6 POP SWAP1 SWAP4 POP SWAP2 POP POP JUMP JUMPDEST PUSH1 0x0 DUP1 PUSH1 0x0 DUP1 PUSH1 0x0 DUP1 PUSH1 0x0 DUP1 PUSH1 0x0 DUP1 PUSH1 0x5 SLOAD DUP12 GT ISZERO PUSH2 0x1002 JUMPI PUSH1 0x40 MLOAD PUSH3 0x461BCD PUSH1 0xE5 SHL DUP2 MSTORE PUSH1 0x20 PUSH1 0x4 DUP3 ADD MSTORE PUSH1 0x26 PUSH1 0x24 DUP3 ADD MSTORE PUSH32 0x554D424C42415345236765745072657365743A204E4F4E4558495354454E545F PUSH1 0x44 DUP3 ADD MSTORE PUSH6 0x14149154D155 PUSH1 0xD2 SHL PUSH1 0x64 DUP3 ADD MSTORE PUSH1 0x84 ADD PUSH2 0x55E JUMP JUMPDEST POP POP POP PUSH1 0x0 SWAP8 DUP9 MSTORE POP POP PUSH1 0x1 PUSH1 0x20 DUP2 DUP2 MSTORE PUSH1 0x40 SWAP8 DUP9 SWAP1 KECCAK256 DUP9 MLOAD PUSH2 0x140 DUP2 ADD DUP11 MSTORE DUP2 SLOAD DUP1 DUP3 MSTORE SWAP4 DUP3 ADD SLOAD PUSH1 0xFF DUP1 DUP3 AND SWAP5 DUP4 ADD DUP6 SWAP1 MSTORE PUSH2 0x100 DUP1 DUP4 DIV DUP3 AND SWAP13 DUP5 ADD DUP14 SWAP1 MSTORE PUSH3 0x10000 DUP4 DIV DUP3 AND PUSH1 0x60 DUP6 ADD DUP2 SWAP1 MSTORE PUSH4 0x1000000 DUP5 DIV DUP4 AND PUSH1 0x80 DUP7 ADD DUP2 SWAP1 MSTORE PUSH5 0x100000000 DUP6 DIV DUP5 AND PUSH1 0xA0 DUP8 ADD DUP2 SWAP1 MSTORE PUSH6 0x10000000000 DUP7 DIV DUP6 AND PUSH1 0xC0 DUP9 ADD DUP2 SWAP1 MSTORE PUSH1 0x1 PUSH1 0x30 SHL SWAP1 SWAP7 DIV DUP6 AND PUSH1 0xE0 DUP9 ADD DUP2 SWAP1 MSTORE PUSH1 0x2 DUP10 ADD SLOAD SWAP5 DUP9 ADD DUP6 SWAP1 MSTORE PUSH1 0x3 SWAP1 SWAP9 ADD SLOAD SWAP1 SWAP5 AND ISZERO ISZERO PUSH2 0x120 SWAP1 SWAP7 ADD DUP7 SWAP1 MSTORE SWAP8 SWAP15 SWAP7 SWAP14 SWAP13 POP SWAP11 POP SWAP6 SWAP9 POP SWAP7 POP SWAP5 POP SWAP1 SWAP3 SWAP2 JUMP JUMPDEST PUSH1 0x0 DUP1 PUSH1 0x60 PUSH1 0x0 DUP1 PUSH1 0x0 DUP1 PUSH1 0x7 SLOAD DUP9 GT ISZERO PUSH2 0x1138 JUMPI PUSH1 0x40 MLOAD PUSH3 0x461BCD PUSH1 0xE5 SHL DUP2 MSTORE PUSH1 0x20 PUSH1 0x4 DUP3 ADD MSTORE PUSH1 0x28 PUSH1 0x24 DUP3 ADD MSTORE PUSH32 0x554D424C42415345236765745061636B6167653A204E4F4E4558495354454E54 PUSH1 0x44 DUP3 ADD MSTORE PUSH8 0x5F5041434B414745 PUSH1 0xC0 SHL PUSH1 0x64 DUP3 ADD MSTORE PUSH1 0x84 ADD PUSH2 0x55E JUMP JUMPDEST PUSH1 0x0 DUP9 DUP2 MSTORE PUSH1 0x3 PUSH1 0x20 SWAP1 DUP2 MSTORE PUSH1 0x40 DUP1 DUP4 KECCAK256 DUP2 MLOAD PUSH1 0xE0 DUP2 ADD DUP4 MSTORE DUP2 SLOAD DUP2 MSTORE PUSH1 0x1 DUP3 ADD SLOAD PUSH1 0xFF AND DUP2 DUP6 ADD MSTORE PUSH1 0x2 DUP3 ADD DUP1 SLOAD DUP5 MLOAD DUP2 DUP8 MUL DUP2 ADD DUP8 ADD DUP7 MSTORE DUP2 DUP2 MSTORE SWAP3 SWAP6 SWAP4 SWAP5 DUP7 ADD SWAP4 DUP4 ADD DUP3 DUP3 DUP1 ISZERO PUSH2 0x11AB JUMPI PUSH1 0x20 MUL DUP3 ADD SWAP2 SWAP1 PUSH1 0x0 MSTORE PUSH1 0x20 PUSH1 0x0 KECCAK256 SWAP1 JUMPDEST DUP2 SLOAD DUP2 MSTORE PUSH1 0x20 ADD SWAP1 PUSH1 0x1 ADD SWAP1 DUP1 DUP4 GT PUSH2 0x1197 JUMPI JUMPDEST POP POP POP SWAP2 DUP4 MSTORE POP POP PUSH1 0x3 DUP3 ADD SLOAD PUSH1 0x20 DUP3 ADD MSTORE PUSH1 0x4 DUP3 ADD SLOAD PUSH1 0x40 DUP1 DUP4 ADD SWAP2 SWAP1 SWAP2 MSTORE PUSH1 0x5 DUP4 ADD SLOAD PUSH1 0x60 DUP4 ADD MSTORE PUSH1 0x6 SWAP1 SWAP3 ADD SLOAD PUSH1 0xFF AND ISZERO ISZERO PUSH1 0x80 SWAP1 SWAP2 ADD MSTORE DUP2 ADD MLOAD MLOAD SWAP1 SWAP2 POP PUSH1 0x0 SWAP1 PUSH8 0xFFFFFFFFFFFFFFFF DUP2 GT ISZERO PUSH2 0x1208 JUMPI PUSH2 0x1208 PUSH2 0x2987 JUMP JUMPDEST PUSH1 0x40 MLOAD SWAP1 DUP1 DUP3 MSTORE DUP1 PUSH1 0x20 MUL PUSH1 0x20 ADD DUP3 ADD PUSH1 0x40 MSTORE DUP1 ISZERO PUSH2 0x1231 JUMPI DUP2 PUSH1 0x20 ADD PUSH1 0x20 DUP3 MUL DUP1 CALLDATASIZE DUP4 CALLDATACOPY ADD SWAP1 POP JUMPDEST POP SWAP1 POP PUSH1 0x0 JUMPDEST DUP3 PUSH1 0x40 ADD MLOAD MLOAD DUP2 LT ISZERO PUSH2 0x1291 JUMPI DUP3 PUSH1 0x40 ADD MLOAD DUP2 DUP2 MLOAD DUP2 LT PUSH2 0x125A JUMPI PUSH2 0x125A PUSH2 0x2971 JUMP JUMPDEST PUSH1 0x20 MUL PUSH1 0x20 ADD ADD MLOAD DUP3 DUP3 DUP2 MLOAD DUP2 LT PUSH2 0x1274 JUMPI PUSH2 0x1274 PUSH2 0x2971 JUMP JUMPDEST PUSH1 0x20 SWAP1 DUP2 MUL SWAP2 SWAP1 SWAP2 ADD ADD MSTORE DUP1 PUSH2 0x1289 DUP2 PUSH2 0x2948 JUMP JUMPDEST SWAP2 POP POP PUSH2 0x1237 JUMP JUMPDEST POP DUP2 MLOAD PUSH1 0x20 DUP4 ADD MLOAD PUSH1 0x60 DUP5 ADD MLOAD PUSH1 0x80 DUP6 ADD MLOAD PUSH1 0xA0 DUP7 ADD MLOAD PUSH1 0xC0 SWAP1 SWAP7 ADD MLOAD SWAP4 SWAP15 SWAP3 SWAP14 POP SWAP4 SWAP12 POP SWAP10 POP SWAP2 SWAP8 POP SWAP2 SWAP6 POP SWAP1 SWAP4 POP SWAP2 POP POP JUMP JUMPDEST PUSH1 0x8 SLOAD PUSH1 0x1 PUSH1 0x1 PUSH1 0xA0 SHL SUB AND CALLER EQ PUSH2 0x12F0 JUMPI PUSH1 0x40 MLOAD PUSH3 0x461BCD PUSH1 0xE5 SHL DUP2 MSTORE PUSH1 0x4 ADD PUSH2 0x55E SWAP1 PUSH2 0x2784 JUMP JUMPDEST PUSH1 0x2 PUSH1 0x9 SLOAD EQ ISZERO PUSH2 0x1313 JUMPI PUSH1 0x40 MLOAD PUSH3 0x461BCD PUSH1 0xE5 SHL DUP2 MSTORE PUSH1 0x4 ADD PUSH2 0x55E SWAP1 PUSH2 0x27B9 JUMP JUMPDEST PUSH1 0x2 PUSH1 0x9 SSTORE PUSH1 0x0 DUP1 PUSH1 0x4 PUSH1 0xFF DUP12 AND GT ISZERO PUSH2 0x137E JUMPI PUSH1 0x40 MLOAD PUSH3 0x461BCD PUSH1 0xE5 SHL DUP2 MSTORE PUSH1 0x20 PUSH1 0x4 DUP3 ADD MSTORE PUSH1 0x26 PUSH1 0x24 DUP3 ADD MSTORE PUSH32 0x554D424C42415345236D616B655072657365743A20494E56414C49445F544F4B PUSH1 0x44 DUP3 ADD MSTORE PUSH6 0x454E54595045 PUSH1 0xD0 SHL PUSH1 0x64 DUP3 ADD MSTORE PUSH1 0x84 ADD PUSH2 0x55E JUMP JUMPDEST PUSH1 0x64 DUP10 PUSH1 0xFF AND GT ISZERO PUSH2 0x13E3 JUMPI PUSH1 0x40 MLOAD PUSH3 0x461BCD PUSH1 0xE5 SHL DUP2 MSTORE PUSH1 0x20 PUSH1 0x4 DUP3 ADD MSTORE PUSH1 0x28 PUSH1 0x24 DUP3 ADD MSTORE PUSH32 0x554D424C42415345236D616B655072657365743A20494E56414C49445F4C4556 PUSH1 0x44 DUP3 ADD MSTORE PUSH8 0x454C5F56414C5545 PUSH1 0xC0 SHL PUSH1 0x64 DUP3 ADD MSTORE PUSH1 0x84 ADD PUSH2 0x55E JUMP JUMPDEST PUSH1 0x2 PUSH1 0xFF DUP10 AND GT ISZERO PUSH2 0x1443 JUMPI PUSH1 0x40 MLOAD PUSH3 0x461BCD PUSH1 0xE5 SHL DUP2 MSTORE PUSH1 0x20 PUSH1 0x4 DUP3 ADD MSTORE PUSH1 0x24 DUP1 DUP3 ADD MSTORE PUSH32 0x554D424C42415345236D616B655072657365743A20494E56414C49445F464143 PUSH1 0x44 DUP3 ADD MSTORE PUSH4 0x2A24A7A7 PUSH1 0xE1 SHL PUSH1 0x64 DUP3 ADD MSTORE PUSH1 0x84 ADD PUSH2 0x55E JUMP JUMPDEST PUSH1 0x6 PUSH1 0xFF DUP9 AND GT ISZERO PUSH2 0x14A5 JUMPI PUSH1 0x40 MLOAD PUSH3 0x461BCD PUSH1 0xE5 SHL DUP2 MSTORE PUSH1 0x20 PUSH1 0x4 DUP3 ADD MSTORE PUSH1 0x25 PUSH1 0x24 DUP3 ADD MSTORE PUSH32 0x554D424C42415345236D616B655072657365743A20494E56414C49445F434154 PUSH1 0x44 DUP3 ADD MSTORE PUSH5 0x45474F5259 PUSH1 0xD8 SHL PUSH1 0x64 DUP3 ADD MSTORE PUSH1 0x84 ADD PUSH2 0x55E JUMP JUMPDEST PUSH1 0x7 PUSH1 0xFF DUP8 AND GT ISZERO PUSH2 0x1505 JUMPI PUSH1 0x40 MLOAD PUSH3 0x461BCD PUSH1 0xE5 SHL DUP2 MSTORE PUSH1 0x20 PUSH1 0x4 DUP3 ADD MSTORE PUSH1 0x23 PUSH1 0x24 DUP3 ADD MSTORE PUSH32 0x554D424C42415345236D616B655072657365743A20494E56414C49445F524152 PUSH1 0x44 DUP3 ADD MSTORE PUSH3 0x495459 PUSH1 0xE8 SHL PUSH1 0x64 DUP3 ADD MSTORE PUSH1 0x84 ADD PUSH2 0x55E JUMP JUMPDEST PUSH1 0x5 PUSH1 0xFF DUP7 AND GT ISZERO PUSH2 0x1568 JUMPI PUSH1 0x40 MLOAD PUSH3 0x461BCD PUSH1 0xE5 SHL DUP2 MSTORE PUSH1 0x20 PUSH1 0x4 DUP3 ADD MSTORE PUSH1 0x26 PUSH1 0x24 DUP3 ADD MSTORE PUSH32 0x554D424C42415345236D616B655072657365743A20494E56414C49445F424144 PUSH1 0x44 DUP3 ADD MSTORE PUSH6 0x474554595045 PUSH1 0xD0 SHL PUSH1 0x64 DUP3 ADD MSTORE PUSH1 0x84 ADD PUSH2 0x55E JUMP JUMPDEST PUSH1 0x8 PUSH1 0xFF DUP6 AND GT ISZERO PUSH2 0x15CA JUMPI PUSH1 0x40 MLOAD PUSH3 0x461BCD PUSH1 0xE5 SHL DUP2 MSTORE PUSH1 0x20 PUSH1 0x4 DUP3 ADD MSTORE PUSH1 0x25 PUSH1 0x24 DUP3 ADD MSTORE PUSH32 0x554D424C42415345236D616B655072657365743A20494E56414C49445F5A4F4E PUSH1 0x44 DUP3 ADD MSTORE PUSH5 0x4554595045 PUSH1 0xD8 SHL PUSH1 0x64 DUP3 ADD MSTORE PUSH1 0x84 ADD PUSH2 0x55E JUMP JUMPDEST PUSH1 0x0 DUP4 GT PUSH2 0x1625 JUMPI PUSH1 0x40 MLOAD PUSH3 0x461BCD PUSH1 0xE5 SHL DUP2 MSTORE PUSH1 0x20 PUSH1 0x4 DUP3 ADD MSTORE PUSH1 0x22 PUSH1 0x24 DUP3 ADD MSTORE PUSH32 0x554D424C42415345236D616B655072657365743A20494E56414C49445F505249 PUSH1 0x44 DUP3 ADD MSTORE PUSH2 0x4345 PUSH1 0xF0 SHL PUSH1 0x64 DUP3 ADD MSTORE PUSH1 0x84 ADD PUSH2 0x55E JUMP JUMPDEST DUP11 PUSH2 0x164D JUMPI PUSH1 0x5 DUP1 SLOAD SWAP1 PUSH1 0x0 PUSH2 0x163A DUP4 PUSH2 0x2948 JUMP JUMPDEST SWAP2 SWAP1 POP SSTORE POP PUSH1 0x5 SLOAD SWAP1 POP PUSH1 0x1 SWAP2 POP PUSH2 0x16B6 JUMP JUMPDEST PUSH1 0x5 SLOAD DUP12 GT ISZERO PUSH2 0x16AF JUMPI PUSH1 0x40 MLOAD PUSH3 0x461BCD PUSH1 0xE5 SHL DUP2 MSTORE PUSH1 0x20 PUSH1 0x4 DUP3 ADD MSTORE PUSH1 0x27 PUSH1 0x24 DUP3 ADD MSTORE PUSH32 0x554D424C42415345236D616B655072657365743A204E4F4E4558495354454E54 PUSH1 0x44 DUP3 ADD MSTORE PUSH7 0x17D4149154D155 PUSH1 0xCA SHL PUSH1 0x64 DUP3 ADD MSTORE PUSH1 0x84 ADD PUSH2 0x55E JUMP JUMPDEST POP PUSH1 0x0 SWAP1 POP DUP10 JUMPDEST PUSH1 0x40 DUP1 MLOAD PUSH2 0x140 DUP2 ADD DUP3 MSTORE DUP3 DUP2 MSTORE PUSH1 0xFF DUP13 DUP2 AND PUSH1 0x20 DUP1 DUP5 ADD SWAP2 DUP3 MSTORE DUP14 DUP4 AND DUP5 DUP7 ADD SWAP1 DUP2 MSTORE DUP14 DUP5 AND PUSH1 0x60 DUP7 ADD SWAP1 DUP2 MSTORE DUP14 DUP6 AND PUSH1 0x80 DUP8 ADD SWAP1 DUP2 MSTORE DUP14 DUP7 AND PUSH1 0xA0 DUP9 ADD SWAP1 DUP2 MSTORE DUP14 DUP8 AND PUSH1 0xC0 DUP10 ADD SWAP1 DUP2 MSTORE DUP14 DUP9 AND PUSH1 0xE0 DUP11 ADD SWAP1 DUP2 MSTORE PUSH2 0x100 DUP1 DUP12 ADD DUP16 DUP2 MSTORE PUSH1 0x0 PUSH2 0x120 DUP14 ADD DUP2 DUP2 MSTORE DUP16 DUP3 MSTORE PUSH1 0x1 SWAP11 DUP12 SWAP1 MSTORE SWAP14 SWAP1 KECCAK256 DUP13 MLOAD DUP2 SSTORE SWAP10 MLOAD SWAP9 DUP11 ADD DUP1 SLOAD SWAP9 MLOAD SWAP8 MLOAD SWAP7 MLOAD SWAP6 MLOAD SWAP5 MLOAD SWAP4 MLOAD SWAP10 DUP13 AND PUSH2 0xFFFF NOT SWAP1 SWAP10 AND SWAP9 SWAP1 SWAP9 OR SWAP7 DUP12 AND SWAP1 SWAP2 MUL SWAP6 SWAP1 SWAP6 OR PUSH4 0xFFFF0000 NOT AND PUSH3 0x10000 SWAP5 DUP11 AND SWAP5 SWAP1 SWAP5 MUL PUSH4 0xFF000000 NOT AND SWAP4 SWAP1 SWAP4 OR PUSH4 0x1000000 SWAP3 DUP10 AND SWAP3 SWAP1 SWAP3 MUL SWAP2 SWAP1 SWAP2 OR PUSH6 0xFFFF00000000 NOT AND PUSH5 0x100000000 SWAP2 DUP9 AND SWAP2 SWAP1 SWAP2 MUL PUSH6 0xFF0000000000 NOT AND OR PUSH6 0x10000000000 SWAP2 DUP8 AND SWAP2 SWAP1 SWAP2 MUL OR PUSH7 0xFF000000000000 NOT AND PUSH1 0x1 PUSH1 0x30 SHL SWAP4 SWAP1 SWAP6 AND SWAP3 SWAP1 SWAP3 MUL SWAP4 SWAP1 SWAP4 OR SWAP1 SWAP3 SSTORE SWAP1 MLOAD PUSH1 0x2 DUP3 ADD SSTORE SWAP2 MLOAD PUSH1 0x3 SWAP1 SWAP3 ADD DUP1 SLOAD PUSH1 0xFF NOT AND SWAP3 ISZERO ISZERO SWAP3 SWAP1 SWAP3 OR SWAP1 SWAP2 SSTORE DUP3 ISZERO PUSH2 0x1836 JUMPI PUSH1 0x40 DUP1 MLOAD CALLER DUP2 MSTORE PUSH1 0x20 DUP2 ADD DUP5 SWAP1 MSTORE PUSH32 0xA3E5EF09FEAB9D2EBB9B46E4A29FF22B784D2752957CC7CF4E9A9E18B50ADD19 SWAP2 ADD PUSH1 0x40 MLOAD DUP1 SWAP2 SUB SWAP1 LOG1 PUSH2 0x1870 JUMP JUMPDEST PUSH1 0x40 DUP1 MLOAD CALLER DUP2 MSTORE PUSH1 0x20 DUP2 ADD DUP5 SWAP1 MSTORE PUSH32 0x45AF7CF685331762081BE8E61F7359823871A70D85550AA4FEEB01F16A447014 SWAP2 ADD PUSH1 0x40 MLOAD DUP1 SWAP2 SUB SWAP1 LOG1 JUMPDEST POP POP PUSH1 0x1 PUSH1 0x9 SSTORE POP POP POP POP POP POP POP POP POP POP JUMP JUMPDEST PUSH1 0x8 SLOAD PUSH1 0x1 PUSH1 0x1 PUSH1 0xA0 SHL SUB AND CALLER EQ PUSH2 0x18AD JUMPI PUSH1 0x40 MLOAD PUSH3 0x461BCD PUSH1 0xE5 SHL DUP2 MSTORE PUSH1 0x4 ADD PUSH2 0x55E SWAP1 PUSH2 0x2784 JUMP JUMPDEST PUSH1 0x2 PUSH1 0x9 SLOAD EQ ISZERO PUSH2 0x18D0 JUMPI PUSH1 0x40 MLOAD PUSH3 0x461BCD PUSH1 0xE5 SHL DUP2 MSTORE PUSH1 0x4 ADD PUSH2 0x55E SWAP1 PUSH2 0x27B9 JUMP JUMPDEST PUSH1 0x2 PUSH1 0x9 SSTORE PUSH1 0x7 SLOAD DUP2 GT ISZERO PUSH2 0x193B JUMPI PUSH1 0x40 MLOAD PUSH3 0x461BCD PUSH1 0xE5 SHL DUP2 MSTORE PUSH1 0x20 PUSH1 0x4 DUP3 ADD MSTORE PUSH1 0x2B PUSH1 0x24 DUP3 ADD MSTORE PUSH32 0x554D424C424153452364656C6574655061636B6167653A204E4F4E4558495354 PUSH1 0x44 DUP3 ADD MSTORE PUSH11 0x454E545F5041434B414745 PUSH1 0xA8 SHL PUSH1 0x64 DUP3 ADD MSTORE PUSH1 0x84 ADD PUSH2 0x55E JUMP JUMPDEST PUSH1 0x0 DUP2 DUP2 MSTORE PUSH1 0x3 PUSH1 0x20 SWAP1 DUP2 MSTORE PUSH1 0x40 DUP1 DUP4 KECCAK256 DUP2 MLOAD PUSH1 0xE0 DUP2 ADD DUP4 MSTORE DUP2 SLOAD DUP2 MSTORE PUSH1 0x1 DUP3 ADD SLOAD PUSH1 0xFF AND DUP2 DUP6 ADD MSTORE PUSH1 0x2 DUP3 ADD DUP1 SLOAD DUP5 MLOAD DUP2 DUP8 MUL DUP2 ADD DUP8 ADD DUP7 MSTORE DUP2 DUP2 MSTORE SWAP3 SWAP6 SWAP4 SWAP5 DUP7 ADD SWAP4 DUP4 ADD DUP3 DUP3 DUP1 ISZERO PUSH2 0x19AE JUMPI PUSH1 0x20 MUL DUP3 ADD SWAP2 SWAP1 PUSH1 0x0 MSTORE PUSH1 0x20 PUSH1 0x0 KECCAK256 SWAP1 JUMPDEST DUP2 SLOAD DUP2 MSTORE PUSH1 0x20 ADD SWAP1 PUSH1 0x1 ADD SWAP1 DUP1 DUP4 GT PUSH2 0x199A JUMPI JUMPDEST POP POP POP SWAP2 DUP4 MSTORE POP POP PUSH1 0x3 DUP3 DUP2 ADD SLOAD PUSH1 0x20 DUP1 DUP5 ADD SWAP2 SWAP1 SWAP2 MSTORE PUSH1 0x4 DUP5 ADD SLOAD PUSH1 0x40 DUP1 DUP6 ADD SWAP2 SWAP1 SWAP2 MSTORE PUSH1 0x5 DUP6 ADD SLOAD PUSH1 0x60 DUP6 ADD MSTORE PUSH1 0x6 SWAP1 SWAP5 ADD SLOAD PUSH1 0xFF SWAP1 DUP2 AND ISZERO ISZERO PUSH1 0x80 SWAP1 SWAP5 ADD SWAP4 SWAP1 SWAP4 MSTORE PUSH1 0x1 PUSH1 0xC0 DUP7 ADD DUP2 SWAP1 MSTORE PUSH1 0x0 DUP9 DUP2 MSTORE SWAP3 DUP3 MSTORE SWAP2 DUP5 SWAP1 KECCAK256 DUP6 MLOAD DUP2 SSTORE DUP6 DUP3 ADD MLOAD SWAP3 DUP2 ADD DUP1 SLOAD PUSH1 0xFF NOT AND SWAP4 SWAP1 SWAP5 AND SWAP3 SWAP1 SWAP3 OR SWAP1 SWAP3 SSTORE SWAP2 DUP4 ADD MLOAD DUP1 MLOAD SWAP4 SWAP5 POP DUP5 SWAP4 PUSH2 0x1A3F SWAP3 PUSH1 0x2 DUP6 ADD SWAP3 ADD SWAP1 PUSH2 0x2483 JUMP JUMPDEST POP PUSH1 0x60 DUP3 ADD MLOAD PUSH1 0x3 DUP3 ADD SSTORE PUSH1 0x80 DUP3 ADD MLOAD PUSH1 0x4 DUP3 ADD SSTORE PUSH1 0xA0 DUP3 ADD MLOAD PUSH1 0x5 DUP3 ADD SSTORE PUSH1 0xC0 SWAP1 SWAP2 ADD MLOAD PUSH1 0x6 SWAP1 SWAP2 ADD DUP1 SLOAD PUSH1 0xFF NOT AND SWAP2 ISZERO ISZERO SWAP2 SWAP1 SWAP2 OR SWAP1 SSTORE PUSH1 0x40 DUP1 MLOAD CALLER DUP2 MSTORE PUSH1 0x20 DUP2 ADD DUP5 SWAP1 MSTORE PUSH32 0x820E8EB770B2C0E12F47FDBA648BE0833DE85F9CED90A050394E798B98A4711E SWAP2 ADD PUSH2 0x7CE JUMP JUMPDEST PUSH1 0x8 SLOAD PUSH1 0x1 PUSH1 0x1 PUSH1 0xA0 SHL SUB AND CALLER EQ PUSH2 0x1AD8 JUMPI PUSH1 0x40 MLOAD PUSH3 0x461BCD PUSH1 0xE5 SHL DUP2 MSTORE PUSH1 0x4 ADD PUSH2 0x55E SWAP1 PUSH2 0x2784 JUMP JUMPDEST PUSH1 0x2 PUSH1 0x9 SLOAD EQ ISZERO PUSH2 0x1AFB JUMPI PUSH1 0x40 MLOAD PUSH3 0x461BCD PUSH1 0xE5 SHL DUP2 MSTORE PUSH1 0x4 ADD PUSH2 0x55E SWAP1 PUSH2 0x27B9 JUMP JUMPDEST PUSH1 0x2 PUSH1 0x9 SSTORE PUSH1 0x5 SLOAD DUP2 GT ISZERO PUSH2 0x1B64 JUMPI PUSH1 0x40 MLOAD PUSH3 0x461BCD PUSH1 0xE5 SHL DUP2 MSTORE PUSH1 0x20 PUSH1 0x4 DUP3 ADD MSTORE PUSH1 0x29 PUSH1 0x24 DUP3 ADD MSTORE PUSH32 0x554D424C424153452364656C6574655072657365743A204E4F4E455849535445 PUSH1 0x44 DUP3 ADD MSTORE PUSH9 0x139517D4149154D155 PUSH1 0xBA SHL PUSH1 0x64 DUP3 ADD MSTORE PUSH1 0x84 ADD PUSH2 0x55E JUMP JUMPDEST PUSH1 0x0 PUSH1 0x1 PUSH1 0x0 DUP4 DUP2 MSTORE PUSH1 0x20 ADD SWAP1 DUP2 MSTORE PUSH1 0x20 ADD PUSH1 0x0 KECCAK256 PUSH1 0x40 MLOAD DUP1 PUSH2 0x140 ADD PUSH1 0x40 MSTORE SWAP1 DUP2 PUSH1 0x0 DUP3 ADD SLOAD DUP2 MSTORE PUSH1 0x20 ADD PUSH1 0x1 DUP3 ADD PUSH1 0x0 SWAP1 SLOAD SWAP1 PUSH2 0x100 EXP SWAP1 DIV PUSH1 0xFF AND PUSH1 0xFF AND PUSH1 0xFF AND DUP2 MSTORE PUSH1 0x20 ADD PUSH1 0x1 DUP3 ADD PUSH1 0x1 SWAP1 SLOAD SWAP1 PUSH2 0x100 EXP SWAP1 DIV PUSH1 0xFF AND PUSH1 0xFF AND PUSH1 0xFF AND DUP2 MSTORE PUSH1 0x20 ADD PUSH1 0x1 DUP3 ADD PUSH1 0x2 SWAP1 SLOAD SWAP1 PUSH2 0x100 EXP SWAP1 DIV PUSH1 0xFF AND PUSH1 0xFF AND PUSH1 0xFF AND DUP2 MSTORE PUSH1 0x20 ADD PUSH1 0x1 DUP3 ADD PUSH1 0x3 SWAP1 SLOAD SWAP1 PUSH2 0x100 EXP SWAP1 DIV PUSH1 0xFF AND PUSH1 0xFF AND PUSH1 0xFF AND DUP2 MSTORE PUSH1 0x20 ADD PUSH1 0x1 DUP3 ADD PUSH1 0x4 SWAP1 SLOAD SWAP1 PUSH2 0x100 EXP SWAP1 DIV PUSH1 0xFF AND PUSH1 0xFF AND PUSH1 0xFF AND DUP2 MSTORE PUSH1 0x20 ADD PUSH1 0x1 DUP3 ADD PUSH1 0x5 SWAP1 SLOAD SWAP1 PUSH2 0x100 EXP SWAP1 DIV PUSH1 0xFF AND PUSH1 0xFF AND PUSH1 0xFF AND DUP2 MSTORE PUSH1 0x20 ADD PUSH1 0x1 DUP3 ADD PUSH1 0x6 SWAP1 SLOAD SWAP1 PUSH2 0x100 EXP SWAP1 DIV PUSH1 0xFF AND PUSH1 0xFF AND PUSH1 0xFF AND DUP2 MSTORE PUSH1 0x20 ADD PUSH1 0x2 DUP3 ADD SLOAD DUP2 MSTORE PUSH1 0x20 ADD PUSH1 0x3 DUP3 ADD PUSH1 0x0 SWAP1 SLOAD SWAP1 PUSH2 0x100 EXP SWAP1 DIV PUSH1 0xFF AND ISZERO ISZERO ISZERO ISZERO DUP2 MSTORE POP POP SWAP1 POP PUSH1 0x1 DUP2 PUSH2 0x120 ADD SWAP1 ISZERO ISZERO SWAP1 DUP2 ISZERO ISZERO DUP2 MSTORE POP POP DUP1 PUSH1 0x1 PUSH1 0x0 DUP5 DUP2 MSTORE PUSH1 0x20 ADD SWAP1 DUP2 MSTORE PUSH1 0x20 ADD PUSH1 0x0 KECCAK256 PUSH1 0x0 DUP3 ADD MLOAD DUP2 PUSH1 0x0 ADD SSTORE PUSH1 0x20 DUP3 ADD MLOAD DUP2 PUSH1 0x1 ADD PUSH1 0x0 PUSH2 0x100 EXP DUP2 SLOAD DUP2 PUSH1 0xFF MUL NOT AND SWAP1 DUP4 PUSH1 0xFF AND MUL OR SWAP1 SSTORE POP PUSH1 0x40 DUP3 ADD MLOAD DUP2 PUSH1 0x1 ADD PUSH1 0x1 PUSH2 0x100 EXP DUP2 SLOAD DUP2 PUSH1 0xFF MUL NOT AND SWAP1 DUP4 PUSH1 0xFF AND MUL OR SWAP1 SSTORE POP PUSH1 0x60 DUP3 ADD MLOAD DUP2 PUSH1 0x1 ADD PUSH1 0x2 PUSH2 0x100 EXP DUP2 SLOAD DUP2 PUSH1 0xFF MUL NOT AND SWAP1 DUP4 PUSH1 0xFF AND MUL OR SWAP1 SSTORE POP PUSH1 0x80 DUP3 ADD MLOAD DUP2 PUSH1 0x1 ADD PUSH1 0x3 PUSH2 0x100 EXP DUP2 SLOAD DUP2 PUSH1 0xFF MUL NOT AND SWAP1 DUP4 PUSH1 0xFF AND MUL OR SWAP1 SSTORE POP PUSH1 0xA0 DUP3 ADD MLOAD DUP2 PUSH1 0x1 ADD PUSH1 0x4 PUSH2 0x100 EXP DUP2 SLOAD DUP2 PUSH1 0xFF MUL NOT AND SWAP1 DUP4 PUSH1 0xFF AND MUL OR SWAP1 SSTORE POP PUSH1 0xC0 DUP3 ADD MLOAD DUP2 PUSH1 0x1 ADD PUSH1 0x5 PUSH2 0x100 EXP DUP2 SLOAD DUP2 PUSH1 0xFF MUL NOT AND SWAP1 DUP4 PUSH1 0xFF AND MUL OR SWAP1 SSTORE POP PUSH1 0xE0 DUP3 ADD MLOAD DUP2 PUSH1 0x1 ADD PUSH1 0x6 PUSH2 0x100 EXP DUP2 SLOAD DUP2 PUSH1 0xFF MUL NOT AND SWAP1 DUP4 PUSH1 0xFF AND MUL OR SWAP1 SSTORE POP PUSH2 0x100 DUP3 ADD MLOAD DUP2 PUSH1 0x2 ADD SSTORE PUSH2 0x120 DUP3 ADD MLOAD DUP2 PUSH1 0x3 ADD PUSH1 0x0 PUSH2 0x100 EXP DUP2 SLOAD DUP2 PUSH1 0xFF MUL NOT AND SWAP1 DUP4 ISZERO ISZERO MUL OR SWAP1 SSTORE POP SWAP1 POP POP PUSH32 0x7FBFBD3C8E7BC3F73B7158DA75E0698904615382767F71E38895820B30CA554D CALLER DUP4 PUSH1 0x40 MLOAD PUSH2 0x7CE SWAP3 SWAP2 SWAP1 PUSH1 0x1 PUSH1 0x1 PUSH1 0xA0 SHL SUB SWAP3 SWAP1 SWAP3 AND DUP3 MSTORE PUSH1 0x20 DUP3 ADD MSTORE PUSH1 0x40 ADD SWAP1 JUMP JUMPDEST PUSH1 0x8 SLOAD PUSH1 0x1 PUSH1 0x1 PUSH1 0xA0 SHL SUB AND CALLER EQ PUSH2 0x1E36 JUMPI PUSH1 0x40 MLOAD PUSH3 0x461BCD PUSH1 0xE5 SHL DUP2 MSTORE PUSH1 0x4 ADD PUSH2 0x55E SWAP1 PUSH2 0x2784 JUMP JUMPDEST PUSH1 0x1 PUSH1 0x1 PUSH1 0xA0 SHL SUB DUP2 AND PUSH2 0x1E9B JUMPI PUSH1 0x40 MLOAD PUSH3 0x461BCD PUSH1 0xE5 SHL DUP2 MSTORE PUSH1 0x20 PUSH1 0x4 DUP3 ADD MSTORE PUSH1 0x26 PUSH1 0x24 DUP3 ADD MSTORE PUSH32 0x4F776E61626C653A206E6577206F776E657220697320746865207A65726F2061 PUSH1 0x44 DUP3 ADD MSTORE PUSH6 0x646472657373 PUSH1 0xD0 SHL PUSH1 0x64 DUP3 ADD MSTORE PUSH1 0x84 ADD PUSH2 0x55E JUMP JUMPDEST PUSH2 0x1EA4 DUP2 PUSH2 0x238B JUMP JUMPDEST POP JUMP JUMPDEST PUSH1 0x8 SLOAD PUSH1 0x1 PUSH1 0x1 PUSH1 0xA0 SHL SUB AND CALLER EQ PUSH2 0x1ED1 JUMPI PUSH1 0x40 MLOAD PUSH3 0x461BCD PUSH1 0xE5 SHL DUP2 MSTORE PUSH1 0x4 ADD PUSH2 0x55E SWAP1 PUSH2 0x2784 JUMP JUMPDEST PUSH1 0x2 PUSH1 0x9 SLOAD EQ ISZERO PUSH2 0x1EF4 JUMPI PUSH1 0x40 MLOAD PUSH3 0x461BCD PUSH1 0xE5 SHL DUP2 MSTORE PUSH1 0x4 ADD PUSH2 0x55E SWAP1 PUSH2 0x27B9 JUMP JUMPDEST PUSH1 0x2 PUSH1 0x9 SSTORE PUSH1 0x0 DUP1 DUP1 PUSH1 0xFF DUP9 AND ISZERO DUP1 ISZERO SWAP1 PUSH2 0x1F13 JUMPI POP PUSH1 0x64 DUP9 PUSH1 0xFF AND GT ISZERO JUMPDEST PUSH2 0x1F70 JUMPI PUSH1 0x40 MLOAD PUSH3 0x461BCD PUSH1 0xE5 SHL DUP2 MSTORE PUSH1 0x20 PUSH1 0x4 DUP3 ADD MSTORE PUSH1 0x28 PUSH1 0x24 DUP3 ADD MSTORE PUSH32 0x554D424C42415345236D616B655061636B6167653A20494E56414C49445F544F PUSH1 0x44 DUP3 ADD MSTORE PUSH8 0x12D15390D3D55395 PUSH1 0xC2 SHL PUSH1 0x64 DUP3 ADD MSTORE PUSH1 0x84 ADD PUSH2 0x55E JUMP JUMPDEST PUSH1 0x0 DUP8 MLOAD GT DUP1 ISZERO PUSH2 0x1F83 JUMPI POP PUSH1 0x64 DUP8 MLOAD GT ISZERO JUMPDEST PUSH2 0x1FE3 JUMPI PUSH1 0x40 MLOAD PUSH3 0x461BCD PUSH1 0xE5 SHL DUP2 MSTORE PUSH1 0x20 PUSH1 0x4 DUP3 ADD MSTORE PUSH1 0x2B PUSH1 0x24 DUP3 ADD MSTORE PUSH32 0x554D424C42415345236D616B655061636B6167653A20494E56414C49445F5052 PUSH1 0x44 DUP3 ADD MSTORE PUSH11 0x8AA68AA8BE988A9C8EA89 PUSH1 0xAB SHL PUSH1 0x64 DUP3 ADD MSTORE PUSH1 0x84 ADD PUSH2 0x55E JUMP JUMPDEST PUSH1 0x0 SWAP3 POP JUMPDEST DUP7 MLOAD DUP4 LT ISZERO PUSH2 0x20A6 JUMPI PUSH1 0x0 DUP8 DUP5 DUP2 MLOAD DUP2 LT PUSH2 0x2005 JUMPI PUSH2 0x2005 PUSH2 0x2971 JUMP JUMPDEST PUSH1 0x20 MUL PUSH1 0x20 ADD ADD MLOAD GT DUP1 ISZERO PUSH2 0x2035 JUMPI POP PUSH1 0x5 SLOAD DUP8 DUP5 DUP2 MLOAD DUP2 LT PUSH2 0x202A JUMPI PUSH2 0x202A PUSH2 0x2971 JUMP JUMPDEST PUSH1 0x20 MUL PUSH1 0x20 ADD ADD MLOAD GT ISZERO JUMPDEST PUSH2 0x2094 JUMPI PUSH1 0x40 MLOAD PUSH3 0x461BCD PUSH1 0xE5 SHL DUP2 MSTORE PUSH1 0x20 PUSH1 0x4 DUP3 ADD MSTORE PUSH1 0x2A PUSH1 0x24 DUP3 ADD MSTORE PUSH32 0x554D424C42415345236D616B655061636B6167653A20494E56414C49445F5052 PUSH1 0x44 DUP3 ADD MSTORE PUSH10 0x455345545F56414C5545 PUSH1 0xB0 SHL PUSH1 0x64 DUP3 ADD MSTORE PUSH1 0x84 ADD PUSH2 0x55E JUMP JUMPDEST DUP3 PUSH2 0x209E DUP2 PUSH2 0x2948 JUMP JUMPDEST SWAP4 POP POP PUSH2 0x1FE8 JUMP JUMPDEST DUP5 DUP7 LT PUSH2 0x2104 JUMPI PUSH1 0x40 MLOAD PUSH3 0x461BCD PUSH1 0xE5 SHL DUP2 MSTORE PUSH1 0x20 PUSH1 0x4 DUP3 ADD MSTORE PUSH1 0x26 PUSH1 0x24 DUP3 ADD MSTORE PUSH32 0x554D424C42415345236D616B655061636B6167653A20494E56414C49445F4441 PUSH1 0x44 DUP3 ADD MSTORE PUSH6 0x544554494D45 PUSH1 0xD0 SHL PUSH1 0x64 DUP3 ADD MSTORE PUSH1 0x84 ADD PUSH2 0x55E JUMP JUMPDEST PUSH1 0x0 DUP5 GT PUSH2 0x2160 JUMPI PUSH1 0x40 MLOAD PUSH3 0x461BCD PUSH1 0xE5 SHL DUP2 MSTORE PUSH1 0x20 PUSH1 0x4 DUP3 ADD MSTORE PUSH1 0x23 PUSH1 0x24 DUP3 ADD MSTORE PUSH32 0x554D424C42415345236D616B655061636B6167653A20494E56414C49445F5052 PUSH1 0x44 DUP3 ADD MSTORE PUSH3 0x494345 PUSH1 0xE8 SHL PUSH1 0x64 DUP3 ADD MSTORE PUSH1 0x84 ADD PUSH2 0x55E JUMP JUMPDEST DUP9 PUSH2 0x2188 JUMPI PUSH1 0x7 DUP1 SLOAD SWAP1 PUSH1 0x0 PUSH2 0x2175 DUP4 PUSH2 0x2948 JUMP JUMPDEST SWAP2 SWAP1 POP SSTORE POP PUSH1 0x7 SLOAD SWAP1 POP PUSH1 0x1 SWAP2 POP PUSH2 0x21F3 JUMP JUMPDEST PUSH1 0x7 SLOAD DUP10 GT ISZERO PUSH2 0x21EC JUMPI PUSH1 0x40 MLOAD PUSH3 0x461BCD PUSH1 0xE5 SHL DUP2 MSTORE PUSH1 0x20 PUSH1 0x4 DUP3 ADD MSTORE PUSH1 0x29 PUSH1 0x24 DUP3 ADD MSTORE PUSH32 0x554D424C42415345236D616B655061636B6167653A204E4F4E4558495354454E PUSH1 0x44 DUP3 ADD MSTORE PUSH9 0x545F5041434B414745 PUSH1 0xB8 SHL PUSH1 0x64 DUP3 ADD MSTORE PUSH1 0x84 ADD PUSH2 0x55E JUMP JUMPDEST POP PUSH1 0x0 SWAP1 POP DUP8 JUMPDEST PUSH1 0x40 DUP1 MLOAD PUSH1 0xE0 DUP2 ADD DUP3 MSTORE DUP3 DUP2 MSTORE PUSH1 0xFF DUP11 DUP2 AND PUSH1 0x20 DUP1 DUP5 ADD SWAP2 DUP3 MSTORE DUP5 MLOAD PUSH1 0x0 DUP1 DUP3 MSTORE DUP2 DUP4 ADD DUP8 MSTORE DUP6 DUP8 ADD SWAP2 DUP3 MSTORE PUSH1 0x60 DUP7 ADD DUP14 SWAP1 MSTORE PUSH1 0x80 DUP7 ADD DUP13 SWAP1 MSTORE PUSH1 0xA0 DUP7 ADD DUP12 SWAP1 MSTORE PUSH1 0xC0 DUP7 ADD DUP2 SWAP1 MSTORE DUP8 DUP2 MSTORE PUSH1 0x3 DUP4 MSTORE SWAP6 SWAP1 SWAP6 KECCAK256 DUP5 MLOAD DUP2 SSTORE SWAP2 MLOAD PUSH1 0x1 DUP4 ADD DUP1 SLOAD PUSH1 0xFF NOT AND SWAP2 SWAP1 SWAP5 AND OR SWAP1 SWAP3 SSTORE SWAP3 MLOAD DUP1 MLOAD SWAP3 SWAP4 DUP5 SWAP4 SWAP1 SWAP3 PUSH2 0x2279 SWAP3 PUSH1 0x2 DUP6 ADD SWAP3 SWAP2 ADD SWAP1 PUSH2 0x2483 JUMP JUMPDEST POP PUSH1 0x60 DUP3 ADD MLOAD PUSH1 0x3 DUP3 ADD SSTORE PUSH1 0x80 DUP3 ADD MLOAD PUSH1 0x4 DUP3 ADD SSTORE PUSH1 0xA0 DUP3 ADD MLOAD PUSH1 0x5 DUP3 ADD SSTORE PUSH1 0xC0 SWAP1 SWAP2 ADD MLOAD PUSH1 0x6 SWAP1 SWAP2 ADD DUP1 SLOAD PUSH1 0xFF NOT AND SWAP2 ISZERO ISZERO SWAP2 SWAP1 SWAP2 OR SWAP1 SSTORE PUSH1 0x0 SWAP4 POP JUMPDEST DUP8 MLOAD DUP5 LT ISZERO PUSH2 0x2319 JUMPI PUSH1 0x3 PUSH1 0x0 DUP4 DUP2 MSTORE PUSH1 0x20 ADD SWAP1 DUP2 MSTORE PUSH1 0x20 ADD PUSH1 0x0 KECCAK256 PUSH1 0x2 ADD DUP9 DUP6 DUP2 MLOAD DUP2 LT PUSH2 0x22E8 JUMPI PUSH2 0x22E8 PUSH2 0x2971 JUMP JUMPDEST PUSH1 0x20 SWAP1 DUP2 MUL SWAP2 SWAP1 SWAP2 ADD DUP2 ADD MLOAD DUP3 SLOAD PUSH1 0x1 DUP2 ADD DUP5 SSTORE PUSH1 0x0 SWAP4 DUP5 MSTORE SWAP2 SWAP1 SWAP3 KECCAK256 ADD SSTORE DUP4 PUSH2 0x2311 DUP2 PUSH2 0x2948 JUMP JUMPDEST SWAP5 POP POP PUSH2 0x22B7 JUMP JUMPDEST DUP3 ISZERO PUSH2 0x2355 JUMPI PUSH1 0x40 DUP1 MLOAD CALLER DUP2 MSTORE PUSH1 0x20 DUP2 ADD DUP5 SWAP1 MSTORE PUSH32 0x9A581DB5A4322FF40F46AFCF48414597CC769603683F040592C0AAACDB830885 SWAP2 ADD PUSH2 0xD15 JUMP JUMPDEST PUSH1 0x40 DUP1 MLOAD CALLER DUP2 MSTORE PUSH1 0x20 DUP2 ADD DUP5 SWAP1 MSTORE PUSH32 0x71124BD86CEC580C57EA511EA7DBA49EFF5D65D0ABFAF5F6F87A730F7F32722 SWAP2 ADD PUSH2 0xD54 JUMP JUMPDEST PUSH1 0x8 DUP1 SLOAD PUSH1 0x1 PUSH1 0x1 PUSH1 0xA0 SHL SUB DUP4 DUP2 AND PUSH1 0x1 PUSH1 0x1 PUSH1 0xA0 SHL SUB NOT DUP4 AND DUP2 OR SWAP1 SWAP4 SSTORE PUSH1 0x40 MLOAD SWAP2 AND SWAP2 SWAP1 DUP3 SWAP1 PUSH32 0x8BE0079C531659141344CD1FD0A4F28419497F9722A3DAAFE3B4186F6B6457E0 SWAP1 PUSH1 0x0 SWAP1 LOG3 POP POP JUMP JUMPDEST DUP3 DUP1 SLOAD DUP3 DUP3 SSTORE SWAP1 PUSH1 0x0 MSTORE PUSH1 0x20 PUSH1 0x0 KECCAK256 SWAP1 PUSH1 0x1F ADD PUSH1 0x20 SWAP1 DIV DUP2 ADD SWAP3 DUP3 ISZERO PUSH2 0x2473 JUMPI SWAP2 PUSH1 0x20 MUL DUP3 ADD PUSH1 0x0 JUMPDEST DUP4 DUP3 GT ISZERO PUSH2 0x2444 JUMPI DUP4 MLOAD DUP4 DUP3 PUSH2 0x100 EXP DUP2 SLOAD DUP2 PUSH1 0xFF MUL NOT AND SWAP1 DUP4 PUSH1 0xFF AND MUL OR SWAP1 SSTORE POP SWAP3 PUSH1 0x20 ADD SWAP3 PUSH1 0x1 ADD PUSH1 0x20 DUP2 PUSH1 0x0 ADD DIV SWAP3 DUP4 ADD SWAP3 PUSH1 0x1 SUB MUL PUSH2 0x2406 JUMP JUMPDEST DUP1 ISZERO PUSH2 0x2471 JUMPI DUP3 DUP2 PUSH2 0x100 EXP DUP2 SLOAD SWAP1 PUSH1 0xFF MUL NOT AND SWAP1 SSTORE PUSH1 0x1 ADD PUSH1 0x20 DUP2 PUSH1 0x0 ADD DIV SWAP3 DUP4 ADD SWAP3 PUSH1 0x1 SUB MUL PUSH2 0x2444 JUMP JUMPDEST POP JUMPDEST POP PUSH2 0x247F SWAP3 SWAP2 POP PUSH2 0x24BE JUMP JUMPDEST POP SWAP1 JUMP JUMPDEST DUP3 DUP1 SLOAD DUP3 DUP3 SSTORE SWAP1 PUSH1 0x0 MSTORE PUSH1 0x20 PUSH1 0x0 KECCAK256 SWAP1 DUP2 ADD SWAP3 DUP3 ISZERO PUSH2 0x2473 JUMPI SWAP2 PUSH1 0x20 MUL DUP3 ADD JUMPDEST DUP3 DUP2 GT ISZERO PUSH2 0x2473 JUMPI DUP3 MLOAD DUP3 SSTORE SWAP2 PUSH1 0x20 ADD SWAP2 SWAP1 PUSH1 0x1 ADD SWAP1 PUSH2 0x24A3 JUMP JUMPDEST JUMPDEST DUP1 DUP3 GT ISZERO PUSH2 0x247F JUMPI PUSH1 0x0 DUP2 SSTORE PUSH1 0x1 ADD PUSH2 0x24BF JUMP JUMPDEST DUP1 CALLDATALOAD PUSH1 0xFF DUP2 AND DUP2 EQ PUSH2 0x24E4 JUMPI PUSH1 0x0 DUP1 REVERT JUMPDEST SWAP2 SWAP1 POP JUMP JUMPDEST PUSH1 0x0 PUSH1 0x20 DUP3 DUP5 SUB SLT ISZERO PUSH2 0x24FB JUMPI PUSH1 0x0 DUP1 REVERT JUMPDEST DUP2 CALLDATALOAD PUSH1 0x1 PUSH1 0x1 PUSH1 0xA0 SHL SUB DUP2 AND DUP2 EQ PUSH2 0x2512 JUMPI PUSH1 0x0 DUP1 REVERT JUMPDEST SWAP4 SWAP3 POP POP POP JUMP JUMPDEST PUSH1 0x0 PUSH1 0x20 DUP3 DUP5 SUB SLT ISZERO PUSH2 0x252B JUMPI PUSH1 0x0 DUP1 REVERT JUMPDEST POP CALLDATALOAD SWAP2 SWAP1 POP JUMP JUMPDEST PUSH1 0x0 DUP1 PUSH1 0x0 DUP1 PUSH1 0x0 DUP1 PUSH1 0xC0 DUP8 DUP10 SUB SLT ISZERO PUSH2 0x254B JUMPI PUSH1 0x0 DUP1 REVERT JUMPDEST DUP7 CALLDATALOAD SWAP6 POP PUSH1 0x20 PUSH2 0x255C DUP2 DUP10 ADD PUSH2 0x24D3 JUMP JUMPDEST SWAP6 POP PUSH1 0x40 DUP9 ADD CALLDATALOAD PUSH8 0xFFFFFFFFFFFFFFFF DUP2 GT ISZERO PUSH2 0x2578 JUMPI PUSH1 0x0 DUP1 REVERT JUMPDEST DUP9 ADD PUSH1 0x1F DUP2 ADD DUP11 SGT PUSH2 0x2589 JUMPI PUSH1 0x0 DUP1 REVERT JUMPDEST DUP1 CALLDATALOAD PUSH2 0x259C PUSH2 0x2597 DUP3 PUSH2 0x2924 JUMP JUMPDEST PUSH2 0x28F3 JUMP JUMPDEST DUP1 DUP3 DUP3 MSTORE DUP5 DUP3 ADD SWAP2 POP DUP5 DUP5 ADD DUP14 DUP7 DUP6 PUSH1 0x5 SHL DUP8 ADD ADD GT ISZERO PUSH2 0x25BC JUMPI PUSH1 0x0 DUP1 REVERT JUMPDEST PUSH1 0x0 SWAP5 POP JUMPDEST DUP4 DUP6 LT ISZERO PUSH2 0x25DF JUMPI DUP1 CALLDATALOAD DUP4 MSTORE PUSH1 0x1 SWAP5 SWAP1 SWAP5 ADD SWAP4 SWAP2 DUP6 ADD SWAP2 DUP6 ADD PUSH2 0x25C1 JUMP JUMPDEST POP SWAP10 SWAP13 SWAP9 SWAP12 POP SWAP9 SWAP10 PUSH1 0x60 DUP2 ADD CALLDATALOAD SWAP10 POP PUSH1 0x80 DUP2 ADD CALLDATALOAD SWAP9 PUSH1 0xA0 SWAP1 SWAP2 ADD CALLDATALOAD SWAP8 POP SWAP6 POP POP POP POP POP POP JUMP JUMPDEST PUSH1 0x0 DUP1 PUSH1 0x0 DUP1 PUSH1 0x0 DUP1 PUSH1 0xC0 DUP8 DUP10 SUB SLT ISZERO PUSH2 0x261E JUMPI PUSH1 0x0 DUP1 REVERT JUMPDEST DUP7 CALLDATALOAD SWAP6 POP PUSH1 0x20 PUSH2 0x262F DUP2 DUP10 ADD PUSH2 0x24D3 JUMP JUMPDEST SWAP6 POP PUSH2 0x263D PUSH1 0x40 DUP10 ADD PUSH2 0x24D3 JUMP JUMPDEST SWAP5 POP PUSH1 0x60 DUP9 ADD CALLDATALOAD PUSH8 0xFFFFFFFFFFFFFFFF DUP2 GT ISZERO PUSH2 0x2659 JUMPI PUSH1 0x0 DUP1 REVERT JUMPDEST DUP9 ADD PUSH1 0x1F DUP2 ADD DUP11 SGT PUSH2 0x266A JUMPI PUSH1 0x0 DUP1 REVERT JUMPDEST DUP1 CALLDATALOAD PUSH2 0x2678 PUSH2 0x2597 DUP3 PUSH2 0x2924 JUMP JUMPDEST DUP1 DUP3 DUP3 MSTORE DUP5 DUP3 ADD SWAP2 POP DUP5 DUP5 ADD DUP14 DUP7 DUP6 PUSH1 0x5 SHL DUP8 ADD ADD GT ISZERO PUSH2 0x2698 JUMPI PUSH1 0x0 DUP1 REVERT JUMPDEST PUSH1 0x0 SWAP5 POP JUMPDEST DUP4 DUP6 LT ISZERO PUSH2 0x26C2 JUMPI PUSH2 0x26AE DUP2 PUSH2 0x24D3 JUMP JUMPDEST DUP4 MSTORE PUSH1 0x1 SWAP5 SWAP1 SWAP5 ADD SWAP4 SWAP2 DUP6 ADD SWAP2 DUP6 ADD PUSH2 0x269D JUMP JUMPDEST POP DUP1 SWAP8 POP POP POP POP POP POP PUSH2 0x26D7 PUSH1 0x80 DUP9 ADD PUSH2 0x24D3 JUMP JUMPDEST SWAP2 POP PUSH1 0xA0 DUP8 ADD CALLDATALOAD SWAP1 POP SWAP3 SWAP6 POP SWAP3 SWAP6 POP SWAP3 SWAP6 JUMP JUMPDEST PUSH1 0x0 DUP1 PUSH1 0x0 DUP1 PUSH1 0x0 DUP1 PUSH1 0x0 DUP1 PUSH1 0x0 PUSH2 0x120 DUP11 DUP13 SUB SLT ISZERO PUSH2 0x2709 JUMPI PUSH1 0x0 DUP1 REVERT JUMPDEST DUP10 CALLDATALOAD SWAP9 POP PUSH2 0x2719 PUSH1 0x20 DUP12 ADD PUSH2 0x24D3 JUMP JUMPDEST SWAP8 POP PUSH2 0x2727 PUSH1 0x40 DUP12 ADD PUSH2 0x24D3 JUMP JUMPDEST SWAP7 POP PUSH2 0x2735 PUSH1 0x60 DUP12 ADD PUSH2 0x24D3 JUMP JUMPDEST SWAP6 POP PUSH2 0x2743 PUSH1 0x80 DUP12 ADD PUSH2 0x24D3 JUMP JUMPDEST SWAP5 POP PUSH2 0x2751 PUSH1 0xA0 DUP12 ADD PUSH2 0x24D3 JUMP JUMPDEST SWAP4 POP PUSH2 0x275F PUSH1 0xC0 DUP12 ADD PUSH2 0x24D3 JUMP JUMPDEST SWAP3 POP PUSH2 0x276D PUSH1 0xE0 DUP12 ADD PUSH2 0x24D3 JUMP JUMPDEST SWAP2 POP PUSH2 0x100 DUP11 ADD CALLDATALOAD SWAP1 POP SWAP3 SWAP6 SWAP9 POP SWAP3 SWAP6 SWAP9 POP SWAP3 SWAP6 SWAP9 JUMP JUMPDEST PUSH1 0x20 DUP1 DUP3 MSTORE DUP2 DUP2 ADD MSTORE PUSH32 0x4F776E61626C653A2063616C6C6572206973206E6F7420746865206F776E6572 PUSH1 0x40 DUP3 ADD MSTORE PUSH1 0x60 ADD SWAP1 JUMP JUMPDEST PUSH1 0x20 DUP1 DUP3 MSTORE PUSH1 0x1F SWAP1 DUP3 ADD MSTORE PUSH32 0x5265656E7472616E637947756172643A207265656E7472616E742063616C6C00 PUSH1 0x40 DUP3 ADD MSTORE PUSH1 0x60 ADD SWAP1 JUMP JUMPDEST PUSH1 0x0 PUSH1 0xE0 DUP3 ADD DUP10 DUP4 MSTORE PUSH1 0x20 PUSH1 0xFF DUP11 AND DUP2 DUP6 ADD MSTORE PUSH1 0xE0 PUSH1 0x40 DUP6 ADD MSTORE DUP2 DUP10 MLOAD DUP1 DUP5 MSTORE PUSH2 0x100 DUP7 ADD SWAP2 POP DUP3 DUP12 ADD SWAP4 POP PUSH1 0x0 JUMPDEST DUP2 DUP2 LT ISZERO PUSH2 0x283B JUMPI DUP5 MLOAD DUP4 MSTORE SWAP4 DUP4 ADD SWAP4 SWAP2 DUP4 ADD SWAP2 PUSH1 0x1 ADD PUSH2 0x281F JUMP JUMPDEST POP POP PUSH1 0x60 DUP6 ADD SWAP9 SWAP1 SWAP9 MSTORE POP POP POP PUSH1 0x80 DUP2 ADD SWAP4 SWAP1 SWAP4 MSTORE PUSH1 0xA0 DUP4 ADD SWAP2 SWAP1 SWAP2 MSTORE ISZERO ISZERO PUSH1 0xC0 SWAP1 SWAP2 ADD MSTORE SWAP4 SWAP3 POP POP POP JUMP JUMPDEST PUSH1 0x0 PUSH1 0xE0 DUP3 ADD DUP10 DUP4 MSTORE PUSH1 0x20 PUSH1 0xFF DUP1 DUP12 AND DUP3 DUP7 ADD MSTORE DUP1 DUP11 AND PUSH1 0x40 DUP7 ADD MSTORE PUSH1 0xE0 PUSH1 0x60 DUP7 ADD MSTORE DUP3 DUP10 MLOAD DUP1 DUP6 MSTORE PUSH2 0x100 DUP8 ADD SWAP2 POP DUP4 DUP12 ADD SWAP5 POP PUSH1 0x0 JUMPDEST DUP2 DUP2 LT ISZERO PUSH2 0x28BD JUMPI DUP6 MLOAD DUP5 AND DUP4 MSTORE SWAP5 DUP5 ADD SWAP5 SWAP2 DUP5 ADD SWAP2 PUSH1 0x1 ADD PUSH2 0x289F JUMP JUMPDEST POP POP PUSH1 0xFF DUP10 AND PUSH1 0x80 DUP8 ADD MSTORE SWAP4 POP PUSH2 0x28D3 SWAP3 POP POP POP JUMP JUMPDEST DUP4 PUSH1 0xA0 DUP4 ADD MSTORE PUSH2 0x28E7 PUSH1 0xC0 DUP4 ADD DUP5 ISZERO ISZERO SWAP1 MSTORE JUMP JUMPDEST SWAP9 SWAP8 POP POP POP POP POP POP POP POP JUMP JUMPDEST PUSH1 0x40 MLOAD PUSH1 0x1F DUP3 ADD PUSH1 0x1F NOT AND DUP2 ADD PUSH8 0xFFFFFFFFFFFFFFFF DUP2 GT DUP3 DUP3 LT OR ISZERO PUSH2 0x291C JUMPI PUSH2 0x291C PUSH2 0x2987 JUMP JUMPDEST PUSH1 0x40 MSTORE SWAP2 SWAP1 POP JUMP JUMPDEST PUSH1 0x0 PUSH8 0xFFFFFFFFFFFFFFFF DUP3 GT ISZERO PUSH2 0x293E JUMPI PUSH2 0x293E PUSH2 0x2987 JUMP JUMPDEST POP PUSH1 0x5 SHL PUSH1 0x20 ADD SWAP1 JUMP JUMPDEST PUSH1 0x0 PUSH1 0x0 NOT DUP3 EQ ISZERO PUSH2 0x296A JUMPI PUSH4 0x4E487B71 PUSH1 0xE0 SHL PUSH1 0x0 MSTORE PUSH1 0x11 PUSH1 0x4 MSTORE PUSH1 0x24 PUSH1 0x0 REVERT JUMPDEST POP PUSH1 0x1 ADD SWAP1 JUMP JUMPDEST PUSH4 0x4E487B71 PUSH1 0xE0 SHL PUSH1 0x0 MSTORE PUSH1 0x32 PUSH1 0x4 MSTORE PUSH1 0x24 PUSH1 0x0 REVERT JUMPDEST PUSH4 0x4E487B71 PUSH1 0xE0 SHL PUSH1 0x0 MSTORE PUSH1 0x41 PUSH1 0x4 MSTORE PUSH1 0x24 PUSH1 0x0 REVERT INVALID LOG2 PUSH5 0x6970667358 0x22 SLT KECCAK256 0xD 0xCD 0xC5 0xE6 0xCA 0xDC 0xAA CREATE PUSH7 0x199A8AA2395E24 0xEF PUSH5 0xCF2EA001B RETURNDATASIZE NOT 0xBA 0xB0 PUSH6 0x89CCC7526473 PUSH16 0x6C634300080700330000000000000000 "
		},
		"gasEstimates": {
			"creation": {
				"codeDepositCost": "2141400",
				"executionCost": "70254",
				"totalCost": "2211654"
			},
			"external": {
				"crateUmblData(uint256)": "11179",
				"deleteCrate(uint256)": "infinite",
				"deletePackage(uint256)": "infinite",
				"deletePreset(uint256)": "313243",
				"getCrate(uint256)": "infinite",
				"getPackage(uint256)": "infinite",
				"getPreset(uint256)": "11688",
				"makeCrate(uint256,uint8,uint8,uint8[],uint8,uint256)": "infinite",
				"makePackage(uint256,uint8,uint256[],uint256,uint256,uint256)": "infinite",
				"makePreset(uint256,uint8,uint8,uint8,uint8,uint8,uint8,uint8,uint256)": "infinite",
				"nextCrateId()": "2362",
				"nextPackageId()": "2339",
				"nextPresetId()": "2340",
				"nextTokenId()": "2385",
				"owner()": "2413",
				"packageUmblData(uint256)": "13155",
				"presetUmblData(uint256)": "9244",
				"renounceOwnership()": "28185",
				"tokenUmblData(uint256)": "11382",
				"transferOwnership(address)": "28365"
			}
		},
		"methodIdentifiers": {
			"crateUmblData(uint256)": "b38d817c",
			"deleteCrate(uint256)": "955a6615",
			"deletePackage(uint256)": "d71c1008",
			"deletePreset(uint256)": "da4f8666",
			"getCrate(uint256)": "a09ea8c4",
			"getPackage(uint256)": "b99dfe18",
			"getPreset(uint256)": "aabc4b3c",
			"makeCrate(uint256,uint8,uint8,uint8[],uint8,uint256)": "98c4dd31",
			"makePackage(uint256,uint8,uint256[],uint256,uint256,uint256)": "f9d20f5c",
			"makePreset(uint256,uint8,uint8,uint8,uint8,uint8,uint8,uint8,uint256)": "d0c2de6c",
			"nextCrateId()": "cb9953e7",
			"nextPackageId()": "d7da9e4f",
			"nextPresetId()": "c8a768e6",
			"nextTokenId()": "75794a3c",
			"owner()": "8da5cb5b",
			"packageUmblData(uint256)": "0c802789",
			"presetUmblData(uint256)": "cefa3e9f",
			"renounceOwnership()": "715018a6",
			"tokenUmblData(uint256)": "1280cb62",
			"transferOwnership(address)": "f2fde38b"
		}
	},
	"abi": [
		{
			"anonymous": false,
			"inputs": [
				{
					"indexed": true,
					"internalType": "address",
					"name": "previousOwner",
					"type": "address"
				},
				{
					"indexed": true,
					"internalType": "address",
					"name": "newOwner",
					"type": "address"
				}
			],
			"name": "OwnershipTransferred",
			"type": "event"
		},
		{
			"anonymous": false,
			"inputs": [
				{
					"indexed": false,
					"internalType": "address",
					"name": "owner",
					"type": "address"
				},
				{
					"indexed": false,
					"internalType": "uint256",
					"name": "id",
					"type": "uint256"
				}
			],
			"name": "UmblCrateCreated",
			"type": "event"
		},
		{
			"anonymous": false,
			"inputs": [
				{
					"indexed": false,
					"internalType": "address",
					"name": "owner",
					"type": "address"
				},
				{
					"indexed": false,
					"internalType": "uint256",
					"name": "id",
					"type": "uint256"
				}
			],
			"name": "UmblCrateDeleted",
			"type": "event"
		},
		{
			"anonymous": false,
			"inputs": [
				{
					"indexed": false,
					"internalType": "address",
					"name": "owner",
					"type": "address"
				},
				{
					"indexed": false,
					"internalType": "uint256",
					"name": "id",
					"type": "uint256"
				},
				{
					"indexed": false,
					"internalType": "uint256[]",
					"name": "tokenIds",
					"type": "uint256[]"
				}
			],
			"name": "UmblCrateMinted",
			"type": "event"
		},
		{
			"anonymous": false,
			"inputs": [
				{
					"indexed": false,
					"internalType": "address",
					"name": "owner",
					"type": "address"
				},
				{
					"indexed": false,
					"internalType": "uint256",
					"name": "id",
					"type": "uint256"
				}
			],
			"name": "UmblCrateUpdated",
			"type": "event"
		},
		{
			"anonymous": false,
			"inputs": [
				{
					"indexed": false,
					"internalType": "address",
					"name": "owner",
					"type": "address"
				},
				{
					"indexed": false,
					"internalType": "address",
					"name": "marketPlaceContract",
					"type": "address"
				}
			],
			"name": "UmblMarketPlaceContractUpdated",
			"type": "event"
		},
		{
			"anonymous": false,
			"inputs": [
				{
					"indexed": false,
					"internalType": "address",
					"name": "owner",
					"type": "address"
				},
				{
					"indexed": false,
					"internalType": "bool",
					"name": "isEnabled",
					"type": "bool"
				}
			],
			"name": "UmblMarketPlaceStateUpdated",
			"type": "event"
		},
		{
			"anonymous": false,
			"inputs": [
				{
					"indexed": false,
					"internalType": "address",
					"name": "owner",
					"type": "address"
				},
				{
					"indexed": false,
					"internalType": "uint256",
					"name": "id",
					"type": "uint256"
				}
			],
			"name": "UmblPackageCreated",
			"type": "event"
		},
		{
			"anonymous": false,
			"inputs": [
				{
					"indexed": false,
					"internalType": "address",
					"name": "owner",
					"type": "address"
				},
				{
					"indexed": false,
					"internalType": "uint256",
					"name": "id",
					"type": "uint256"
				}
			],
			"name": "UmblPackageDeleted",
			"type": "event"
		},
		{
			"anonymous": false,
			"inputs": [
				{
					"indexed": false,
					"internalType": "address",
					"name": "owner",
					"type": "address"
				},
				{
					"indexed": false,
					"internalType": "uint256",
					"name": "id",
					"type": "uint256"
				},
				{
					"indexed": false,
					"internalType": "uint256[]",
					"name": "tokenIds",
					"type": "uint256[]"
				}
			],
			"name": "UmblPackageMinted",
			"type": "event"
		},
		{
			"anonymous": false,
			"inputs": [
				{
					"indexed": false,
					"internalType": "address",
					"name": "owner",
					"type": "address"
				},
				{
					"indexed": false,
					"internalType": "uint256",
					"name": "id",
					"type": "uint256"
				}
			],
			"name": "UmblPackageUpdated",
			"type": "event"
		},
		{
			"anonymous": false,
			"inputs": [
				{
					"indexed": false,
					"internalType": "address",
					"name": "owner",
					"type": "address"
				},
				{
					"indexed": false,
					"internalType": "uint256",
					"name": "id",
					"type": "uint256"
				},
				{
					"indexed": false,
					"internalType": "uint256",
					"name": "price",
					"type": "uint256"
				}
			],
			"name": "UmblPaidForCrate",
			"type": "event"
		},
		{
			"anonymous": false,
			"inputs": [
				{
					"indexed": false,
					"internalType": "address",
					"name": "owner",
					"type": "address"
				},
				{
					"indexed": false,
					"internalType": "uint256",
					"name": "id",
					"type": "uint256"
				}
			],
			"name": "UmblPresetCreated",
			"type": "event"
		},
		{
			"anonymous": false,
			"inputs": [
				{
					"indexed": false,
					"internalType": "address",
					"name": "owner",
					"type": "address"
				},
				{
					"indexed": false,
					"internalType": "uint256",
					"name": "id",
					"type": "uint256"
				}
			],
			"name": "UmblPresetDeleted",
			"type": "event"
		},
		{
			"anonymous": false,
			"inputs": [
				{
					"indexed": false,
					"internalType": "address",
					"name": "owner",
					"type": "address"
				},
				{
					"indexed": false,
					"internalType": "address[]",
					"name": "to",
					"type": "address[]"
				},
				{
					"indexed": false,
					"internalType": "uint256[]",
					"name": "id",
					"type": "uint256[]"
				},
				{
					"indexed": false,
					"internalType": "uint256[]",
					"name": "amount",
					"type": "uint256[]"
				}
			],
			"name": "UmblPresetMinted",
			"type": "event"
		},
		{
			"anonymous": false,
			"inputs": [
				{
					"indexed": false,
					"internalType": "address",
					"name": "owner",
					"type": "address"
				},
				{
					"indexed": false,
					"internalType": "uint256",
					"name": "id",
					"type": "uint256"
				}
			],
			"name": "UmblPresetUpdated",
			"type": "event"
		},
		{
			"anonymous": false,
			"inputs": [
				{
					"indexed": false,
					"internalType": "address",
					"name": "owner",
					"type": "address"
				},
				{
					"indexed": false,
					"internalType": "uint256",
					"name": "id",
					"type": "uint256"
				},
				{
					"indexed": false,
					"internalType": "address",
					"name": "newOwner",
					"type": "address"
				},
				{
					"indexed": false,
					"internalType": "uint8",
					"name": "newState",
					"type": "uint8"
				},
				{
					"indexed": false,
					"internalType": "uint8",
					"name": "newHealth",
					"type": "uint8"
				},
				{
					"indexed": false,
					"internalType": "uint256",
					"name": "newPrice",
					"type": "uint256"
				},
				{
					"indexed": false,
					"internalType": "bool",
					"name": "newIsSale",
					"type": "bool"
				}
			],
			"name": "UmblTokenDataUpdated",
			"type": "event"
		},
		{
			"anonymous": false,
			"inputs": [
				{
					"indexed": false,
					"internalType": "address",
					"name": "owner",
					"type": "address"
				},
				{
					"indexed": false,
					"internalType": "address[]",
					"name": "to",
					"type": "address[]"
				},
				{
					"indexed": false,
					"internalType": "uint256[][]",
					"name": "ids",
					"type": "uint256[][]"
				}
			],
			"name": "UmblTokenListAssigned",
			"type": "event"
		},
		{
			"inputs": [
				{
					"internalType": "uint256",
					"name": "",
					"type": "uint256"
				}
			],
			"name": "crateUmblData",
			"outputs": [
				{
					"internalType": "uint256",
					"name": "id",
					"type": "uint256"
				},
				{
					"internalType": "uint8",
					"name": "level",
					"type": "uint8"
				},
				{
					"internalType": "uint8",
					"name": "faction",
					"type": "uint8"
				},
				{
					"internalType": "uint8",
					"name": "tokenCount",
					"type": "uint8"
				},
				{
					"internalType": "uint256",
					"name": "price",
					"type": "uint256"
				},
				{
					"internalType": "bool",
					"name": "isDeleted",
					"type": "bool"
				}
			],
			"stateMutability": "view",
			"type": "function"
		},
		{
			"inputs": [
				{
					"internalType": "uint256",
					"name": "_id",
					"type": "uint256"
				}
			],
			"name": "deleteCrate",
			"outputs": [],
			"stateMutability": "nonpayable",
			"type": "function"
		},
		{
			"inputs": [
				{
					"internalType": "uint256",
					"name": "_id",
					"type": "uint256"
				}
			],
			"name": "deletePackage",
			"outputs": [],
			"stateMutability": "nonpayable",
			"type": "function"
		},
		{
			"inputs": [
				{
					"internalType": "uint256",
					"name": "_id",
					"type": "uint256"
				}
			],
			"name": "deletePreset",
			"outputs": [],
			"stateMutability": "nonpayable",
			"type": "function"
		},
		{
			"inputs": [
				{
					"internalType": "uint256",
					"name": "_id",
					"type": "uint256"
				}
			],
			"name": "getCrate",
			"outputs": [
				{
					"internalType": "uint256",
					"name": "id",
					"type": "uint256"
				},
				{
					"internalType": "uint8",
					"name": "level",
					"type": "uint8"
				},
				{
					"internalType": "uint8",
					"name": "faction",
					"type": "uint8"
				},
				{
					"internalType": "uint8[]",
					"name": "rarities",
					"type": "uint8[]"
				},
				{
					"internalType": "uint8",
					"name": "tokenCount",
					"type": "uint8"
				},
				{
					"internalType": "uint256",
					"name": "price",
					"type": "uint256"
				},
				{
					"internalType": "bool",
					"name": "isDeleted",
					"type": "bool"
				}
			],
			"stateMutability": "view",
			"type": "function"
		},
		{
			"inputs": [
				{
					"internalType": "uint256",
					"name": "_id",
					"type": "uint256"
				}
			],
			"name": "getPackage",
			"outputs": [
				{
					"internalType": "uint256",
					"name": "id",
					"type": "uint256"
				},
				{
					"internalType": "uint8",
					"name": "tokenCount",
					"type": "uint8"
				},
				{
					"internalType": "uint256[]",
					"name": "presetIds",
					"type": "uint256[]"
				},
				{
					"internalType": "uint256",
					"name": "startTime",
					"type": "uint256"
				},
				{
					"internalType": "uint256",
					"name": "endTime",
					"type": "uint256"
				},
				{
					"internalType": "uint256",
					"name": "price",
					"type": "uint256"
				},
				{
					"internalType": "bool",
					"name": "isDeleted",
					"type": "bool"
				}
			],
			"stateMutability": "view",
			"type": "function"
		},
		{
			"inputs": [
				{
					"internalType": "uint256",
					"name": "_id",
					"type": "uint256"
				}
			],
			"name": "getPreset",
			"outputs": [
				{
					"internalType": "uint256",
					"name": "id",
					"type": "uint256"
				},
				{
					"internalType": "uint8",
					"name": "tokenType",
					"type": "uint8"
				},
				{
					"internalType": "uint8",
					"name": "level",
					"type": "uint8"
				},
				{
					"internalType": "uint8",
					"name": "faction",
					"type": "uint8"
				},
				{
					"internalType": "uint8",
					"name": "category",
					"type": "uint8"
				},
				{
					"internalType": "uint8",
					"name": "rarity",
					"type": "uint8"
				},
				{
					"internalType": "uint8",
					"name": "badgeType",
					"type": "uint8"
				},
				{
					"internalType": "uint8",
					"name": "zoneType",
					"type": "uint8"
				},
				{
					"internalType": "uint256",
					"name": "price",
					"type": "uint256"
				},
				{
					"internalType": "bool",
					"name": "isDeleted",
					"type": "bool"
				}
			],
			"stateMutability": "view",
			"type": "function"
		},
		{
			"inputs": [
				{
					"internalType": "uint256",
					"name": "_id",
					"type": "uint256"
				},
				{
					"internalType": "uint8",
					"name": "_level",
					"type": "uint8"
				},
				{
					"internalType": "uint8",
					"name": "_faction",
					"type": "uint8"
				},
				{
					"internalType": "uint8[]",
					"name": "_rarities",
					"type": "uint8[]"
				},
				{
					"internalType": "uint8",
					"name": "_tokenCount",
					"type": "uint8"
				},
				{
					"internalType": "uint256",
					"name": "_price",
					"type": "uint256"
				}
			],
			"name": "makeCrate",
			"outputs": [],
			"stateMutability": "nonpayable",
			"type": "function"
		},
		{
			"inputs": [
				{
					"internalType": "uint256",
					"name": "_id",
					"type": "uint256"
				},
				{
					"internalType": "uint8",
					"name": "_tokenCount",
					"type": "uint8"
				},
				{
					"internalType": "uint256[]",
					"name": "_presetIds",
					"type": "uint256[]"
				},
				{
					"internalType": "uint256",
					"name": "_startTime",
					"type": "uint256"
				},
				{
					"internalType": "uint256",
					"name": "_endTime",
					"type": "uint256"
				},
				{
					"internalType": "uint256",
					"name": "_price",
					"type": "uint256"
				}
			],
			"name": "makePackage",
			"outputs": [],
			"stateMutability": "nonpayable",
			"type": "function"
		},
		{
			"inputs": [
				{
					"internalType": "uint256",
					"name": "_id",
					"type": "uint256"
				},
				{
					"internalType": "uint8",
					"name": "_tokenType",
					"type": "uint8"
				},
				{
					"internalType": "uint8",
					"name": "_level",
					"type": "uint8"
				},
				{
					"internalType": "uint8",
					"name": "_faction",
					"type": "uint8"
				},
				{
					"internalType": "uint8",
					"name": "_category",
					"type": "uint8"
				},
				{
					"internalType": "uint8",
					"name": "_rarity",
					"type": "uint8"
				},
				{
					"internalType": "uint8",
					"name": "_badgeType",
					"type": "uint8"
				},
				{
					"internalType": "uint8",
					"name": "_zoneType",
					"type": "uint8"
				},
				{
					"internalType": "uint256",
					"name": "_price",
					"type": "uint256"
				}
			],
			"name": "makePreset",
			"outputs": [],
			"stateMutability": "nonpayable",
			"type": "function"
		},
		{
			"inputs": [],
			"name": "nextCrateId",
			"outputs": [
				{
					"internalType": "uint256",
					"name": "",
					"type": "uint256"
				}
			],
			"stateMutability": "view",
			"type": "function"
		},
		{
			"inputs": [],
			"name": "nextPackageId",
			"outputs": [
				{
					"internalType": "uint256",
					"name": "",
					"type": "uint256"
				}
			],
			"stateMutability": "view",
			"type": "function"
		},
		{
			"inputs": [],
			"name": "nextPresetId",
			"outputs": [
				{
					"internalType": "uint256",
					"name": "",
					"type": "uint256"
				}
			],
			"stateMutability": "view",
			"type": "function"
		},
		{
			"inputs": [],
			"name": "nextTokenId",
			"outputs": [
				{
					"internalType": "uint256",
					"name": "",
					"type": "uint256"
				}
			],
			"stateMutability": "view",
			"type": "function"
		},
		{
			"inputs": [],
			"name": "owner",
			"outputs": [
				{
					"internalType": "address",
					"name": "",
					"type": "address"
				}
			],
			"stateMutability": "view",
			"type": "function"
		},
		{
			"inputs": [
				{
					"internalType": "uint256",
					"name": "",
					"type": "uint256"
				}
			],
			"name": "packageUmblData",
			"outputs": [
				{
					"internalType": "uint256",
					"name": "id",
					"type": "uint256"
				},
				{
					"internalType": "uint8",
					"name": "tokenCount",
					"type": "uint8"
				},
				{
					"internalType": "uint256",
					"name": "startTime",
					"type": "uint256"
				},
				{
					"internalType": "uint256",
					"name": "endTime",
					"type": "uint256"
				},
				{
					"internalType": "uint256",
					"name": "price",
					"type": "uint256"
				},
				{
					"internalType": "bool",
					"name": "isDeleted",
					"type": "bool"
				}
			],
			"stateMutability": "view",
			"type": "function"
		},
		{
			"inputs": [
				{
					"internalType": "uint256",
					"name": "",
					"type": "uint256"
				}
			],
			"name": "presetUmblData",
			"outputs": [
				{
					"internalType": "uint256",
					"name": "id",
					"type": "uint256"
				},
				{
					"internalType": "uint8",
					"name": "tokenType",
					"type": "uint8"
				},
				{
					"internalType": "uint8",
					"name": "level",
					"type": "uint8"
				},
				{
					"internalType": "uint8",
					"name": "faction",
					"type": "uint8"
				},
				{
					"internalType": "uint8",
					"name": "category",
					"type": "uint8"
				},
				{
					"internalType": "uint8",
					"name": "rarity",
					"type": "uint8"
				},
				{
					"internalType": "uint8",
					"name": "badgeType",
					"type": "uint8"
				},
				{
					"internalType": "uint8",
					"name": "zoneType",
					"type": "uint8"
				},
				{
					"internalType": "uint256",
					"name": "price",
					"type": "uint256"
				},
				{
					"internalType": "bool",
					"name": "isDeleted",
					"type": "bool"
				}
			],
			"stateMutability": "view",
			"type": "function"
		},
		{
			"inputs": [],
			"name": "renounceOwnership",
			"outputs": [],
			"stateMutability": "nonpayable",
			"type": "function"
		},
		{
			"inputs": [
				{
					"internalType": "uint256",
					"name": "",
					"type": "uint256"
				}
			],
			"name": "tokenUmblData",
			"outputs": [
				{
					"internalType": "uint256",
					"name": "id",
					"type": "uint256"
				},
				{
					"internalType": "uint256",
					"name": "presetId",
					"type": "uint256"
				},
				{
					"internalType": "address",
					"name": "owner",
					"type": "address"
				},
				{
					"internalType": "uint8",
					"name": "level",
					"type": "uint8"
				},
				{
					"internalType": "uint8",
					"name": "faction",
					"type": "uint8"
				},
				{
					"internalType": "uint8",
					"name": "category",
					"type": "uint8"
				},
				{
					"internalType": "uint8",
					"name": "rarity",
					"type": "uint8"
				},
				{
					"internalType": "uint8",
					"name": "state",
					"type": "uint8"
				},
				{
					"internalType": "uint8",
					"name": "health",
					"type": "uint8"
				},
				{
					"internalType": "uint256",
					"name": "price",
					"type": "uint256"
				},
				{
					"internalType": "bool",
					"name": "isSale",
					"type": "bool"
				}
			],
			"stateMutability": "view",
			"type": "function"
		},
		{
			"inputs": [
				{
					"internalType": "address",
					"name": "newOwner",
					"type": "address"
				}
			],
			"name": "transferOwnership",
			"outputs": [],
			"stateMutability": "nonpayable",
			"type": "function"
		}
	]
}