{
	"data": {
		"bytecode": {
			"linkReferences": {},
			"object": "600060048190556005819055600681905560075560c0604052600d60808190526c556d6272656c6c6120436f726560981b60a09081526200004291908162000201565b5060408051808201909152600880825267556d626c436f726560c01b60209092019182526200007491600e9162000201565b5060405180606001604052806031815260200162005c3d603191398051620000a591600f9160209091019062000201565b50601080546001600160a01b03191690556012805460ff19169055348015620000cd57600080fd5b50600f8054620000dd90620002a7565b80601f01602080910402602001604051908101604052809291908181526020018280546200010b90620002a7565b80156200015c5780601f1062000130576101008083540402835291602001916200015c565b820191906000526020600020905b8154815290600101906020018083116200013e57829003601f168201915b50505050506200017b620001756200019260201b60201c565b62000196565b60016009556200018b81620001e8565b50620002e4565b3390565b600880546001600160a01b038381166001600160a01b0319831681179093556040519116919082907f8be0079c531659141344cd1fd0a4f28419497f9722a3daafe3b4186f6b6457e090600090a35050565b8051620001fd90600c90602084019062000201565b5050565b8280546200020f90620002a7565b90600052602060002090601f0160209004810192826200023357600085556200027e565b82601f106200024e57805160ff19168380011785556200027e565b828001600101855582156200027e579182015b828111156200027e57825182559160200191906001019062000261565b506200028c92915062000290565b5090565b5b808211156200028c576000815560010162000291565b600181811c90821680620002bc57607f821691505b60208210811415620002de57634e487b7160e01b600052602260045260246000fd5b50919050565b61594980620002f46000396000f3fe608060405234801561001057600080fd5b50600436106102475760003560e01c806398c4dd311161013b578063cb9953e7116100b8578063da4f86661161007c578063da4f8666146107a0578063e985e9c5146107b3578063f242432a146107ef578063f2fde38b14610802578063f9d20f5c1461081557600080fd5b8063cb9953e7146106f2578063cefa3e9f146106fb578063d0c2de6c14610771578063d71c100814610784578063d7da9e4f1461079757600080fd5b8063b38d817c116100ff578063b38d817c1461060b578063b99dfe1814610690578063bc4ed68f146106b6578063bd85b039146106c9578063c8a768e6146106e957600080fd5b806398c4dd311461053d5780639e4d3fbf14610550578063a09ea8c414610563578063a22cb46514610589578063aabc4b3c1461059c57600080fd5b80633094d9ab116101c95780637e518ec81161018d5780637e518ec8146104eb5780638da5cb5b146104fe5780638eaa08c71461050f578063955a66151461052257806395d89b411461053557600080fd5b80633094d9ab146104825780633dc37e1a1461048f5780634e1273f4146104ba578063715018a6146104da57806375794a3c146104e257600080fd5b80630e89341c116102105780630e89341c1461033b5780631280cb621461034e578063192087f51461043c5780632693ebf21461044f5780632eb2c2d61461046f57600080fd5b8062fdd58e1461024c57806301ffc9a71461027257806306fdde0314610295578063091c5c55146102aa5780630c802789146102bf575b600080fd5b61025f61025a366004614c1e565b610828565b6040519081526020015b60405180910390f35b610285610280366004614e31565b6108c1565b6040519015158152602001610269565b61029d610913565b604051610269919061544b565b6102bd6102b8366004614c48565b6109a1565b005b61030a6102cd366004614eb3565b6003602081905260009182526040909120805460018201549282015460048301546005840154600690940154929460ff9081169492939192911686565b6040805196875260ff90951660208701529385019290925260608401526080830152151560a082015260c001610269565b61029d610349366004614eb3565b610ff5565b6103d261035c366004614eb3565b60006020819052908152604090208054600182015460028301546003840154600490940154929391926001600160a01b0382169260ff600160a01b8404811693600160a81b8104821693600160b01b8204831693600160b81b8304841693600160c01b8404811693600160c81b9004811692168b565b604080519b8c5260208c019a909a526001600160a01b03909816988a019890985260ff95861660608a0152938516608089015291841660a0880152831660c0870152821660e086015216610100840152610120830191909152151561014082015261016001610269565b6102bd61044a366004614d8f565b611182565b61025f61045d366004614eb3565b60116020526000908152604090205481565b6102bd61047d366004614ae7565b61189f565b6012546102859060ff1681565b6010546104a2906001600160a01b031681565b6040516001600160a01b039091168152602001610269565b6104cd6104c8366004614d2c565b611936565b6040516102699190615413565b6102bd611a5f565b61025f60045481565b6102bd6104f9366004614e6b565b611a95565b6008546001600160a01b03166104a2565b6102bd61051d366004614ecc565b611ad6565b6102bd610530366004614eb3565b611e64565b61029d6120d0565b6102bd61054b366004614fa4565b6120dd565b6102bd61055e366004614a99565b61266b565b610576610571366004614eb3565b61278b565b6040516102699796959493929190615635565b6102bd610597366004614bf4565b6129ae565b6105af6105aa366004614eb3565b612a85565b604080519a8b5260ff998a1660208c0152978916978a01979097529487166060890152928616608088015290851660a0870152841660c086015290921660e0840152610100830191909152151561012082015261014001610269565b610657610619366004614eb3565b60026020526000908152604090208054600182015460038301546004840154600590940154929360ff80841694610100909404811693928116921686565b6040805196875260ff958616602088015293851693860193909352921660608401526080830191909152151560a082015260c001610269565b6106a361069e366004614eb3565b612bbb565b60405161026997969594939291906155eb565b6102bd6106c4366004614e16565b612db6565b61025f6106d7366004614eb3565b60009081526011602052604090205490565b61025f60055481565b61025f60065481565b6105af610709366004614eb3565b6001602081905260009182526040909120805491810154600282015460039092015460ff808316936101008404821693620100008104831693630100000082048416936401000000008304811693600160281b8404821693600160301b90048216929091168a565b6102bd61077f366004615092565b612e42565b6102bd610792366004614eb3565b6133fd565b61025f60075481565b6102bd6107ae366004614eb3565b613628565b6102856107c1366004614ab4565b6001600160a01b039182166000908152600b6020908152604080832093909416825291909152205460ff1690565b6102bd6107fd366004614b90565b613986565b6102bd610810366004614a99565b613a0d565b6102bd610823366004614f32565b613aa8565b60006001600160a01b0383166108995760405162461bcd60e51b815260206004820152602b60248201527f455243313135353a2062616c616e636520717565727920666f7220746865207a60448201526a65726f206164647265737360a81b60648201526084015b60405180910390fd5b506000908152600a602090815260408083206001600160a01b03949094168352929052205490565b60006001600160e01b03198216636cdb3d1360e11b14806108f257506001600160e01b031982166303a24d0760e21b145b8061090d57506301ffc9a760e01b6001600160e01b03198316145b92915050565b600d80546109209061576a565b80601f016020809104026020016040519081016040528092919081815260200182805461094c9061576a565b80156109995780601f1061096e57610100808354040283529160200191610999565b820191906000526020600020905b81548152906001019060200180831161097c57829003601f168201915b505050505081565b6008546001600160a01b031633146109cb5760405162461bcd60e51b815260040161089090615535565b60005b8251811015610abc5760006001600160a01b03168382815181106109f4576109f461582c565b60200260200101516001600160a01b031614158015610a4957506008546001600160a01b03166001600160a01b0316838281518110610a3557610a3561582c565b60200260200101516001600160a01b031614155b610aaa5760405162461bcd60e51b815260206004820152602c60248201527f556d626c436f72652361737369676e4261746368507265736574733a20494e5660448201526b414c49445f4144445245535360a01b6064820152608401610890565b80610ab4816157d1565b9150506109ce565b5060005b8151811015610bae5760005b828281518110610ade57610ade61582c565b602002602001015151811015610b9b57600454838381518110610b0357610b0361582c565b60200260200101518281518110610b1c57610b1c61582c565b60200260200101511115610b895760405162461bcd60e51b815260206004820152602e60248201527f556d626c436f72652361737369676e4261746368507265736574733a204e4f4e60448201526d22ac24a9aa22a72a2faa27a5a2a760911b6064820152608401610890565b80610b93816157d1565b915050610acc565b5080610ba6816157d1565b915050610ac0565b5060005b8151811015610fb5576000828281518110610bcf57610bcf61582c565b6020026020010151516001600160401b03811115610bef57610bef615842565b604051908082528060200260200182016040528015610c18578160200160208202803683370190505b5090506000838381518110610c2f57610c2f61582c565b6020026020010151516001600160401b03811115610c4f57610c4f615842565b604051908082528060200260200182016040528015610c78578160200160208202803683370190505b50905060005b848481518110610c9057610c9061582c565b602002602001015151811015610f59576000806000878781518110610cb757610cb761582c565b60200260200101518481518110610cd057610cd061582c565b602090810291909101810151825281810192909252604090810160002081516101608101835281548152600182015493810184905260028201546001600160a01b0381169382019390935260ff600160a01b840481166060830152600160a81b840481166080830152600160b01b8404811660a0830152600160b81b8404811660c0830152600160c01b8404811660e0830152600160c81b9093048316610100820152600382015461012082015260049091015490911615156101408201528551909250859084908110610da657610da661582c565b6020026020010181815250506001838381518110610dc657610dc661582c565b602002602001018181525050868581518110610de457610de461582c565b60209081029190910101516001600160a01b03166040820152600260e0820152855181906000908190899089908110610e1f57610e1f61582c565b60200260200101518581518110610e3857610e3861582c565b6020908102919091018101518252818101929092526040908101600020835181559183015160018301558201516002820180546060850151608086015160a087015160c088015160e08901516101008a01516001600160a01b039098166001600160a81b031990961695909517600160a01b60ff958616021761ffff60a81b1916600160a81b9385169390930260ff60b01b191692909217600160b01b918416919091021761ffff60b81b1916600160b81b9183169190910260ff60c01b191617600160c01b928216929092029190911760ff60c81b1916600160c81b91909316029190911790556101208201516003820155610140909101516004909101805460ff19169115159190911790555080610f51816157d1565b915050610c7e565b50610fa0610f6f6008546001600160a01b031690565b868581518110610f8157610f8161582c565b602002602001015184846040518060200160405280600081525061189f565b50508080610fad906157d1565b915050610bb2565b507f98cec7c1176442a0bd677ec951e70d0a40ef4ac6f0d252118fefdd1a99338efa338383604051610fe993929190615332565b60405180910390a15050565b60606004548211156110495760405162461bcd60e51b815260206004820152601f60248201527f556d626c436f7265237572693a204e4f4e4558495354454e545f544f4b454e006044820152606401610890565b60008281526020818152604080832081516101608101835281548152600182015481850181905260028301546001600160a01b0381168386015260ff600160a01b820481166060850152600160a81b820481166080850152600160b01b8204811660a0850152600160b81b8204811660c0850152600160c01b8204811660e0850152600160c81b90910481166101008401526003840154610120840152600490930154909216151561014082015290845260119092529091205461114f5760405162461bcd60e51b815260206004820152601f60248201527f556d626c436f7265237572693a204e4f4e4558495354454e545f544f4b454e006044820152606401610890565b600f61115a84613f8c565b60405160200161116b9291906151e8565b604051602081830303815290604052915050919050565b6010546001600160a01b03166111f25760405162461bcd60e51b815260206004820152602f60248201527f556d626c436f7265236d61726b65744f6e6c793a204d41524b45545f434f4e5460448201526e149050d517d393d511115192539151608a1b6064820152608401610890565b6010546001600160a01b031633148061121557506008546001600160a01b031633145b61126d5760405162461bcd60e51b8152602060048201526024808201527f556d626c436f7265236d61726b65744f6e6c793a20494e56414c49445f4144446044820152635245535360e01b6064820152608401610890565b6010546001600160a01b031633148061129057506008546001600160a01b031633145b6112ac5760405162461bcd60e51b81526004016108909061556a565b60005b83518110156113165760006001600160a01b03168482815181106112d5576112d561582c565b60200260200101516001600160a01b031614156113045760405162461bcd60e51b81526004016108909061556a565b8061130e816157d1565b9150506112af565b5060005b82518110156113b6576005548382815181106113385761133861582c565b602002602001015111156113a45760405162461bcd60e51b815260206004820152602d60248201527f556d626c436f7265236d696e744261746368507265736574733a204e4f4e455860448201526c1254d511539517d4149154d155609a1b6064820152608401610890565b806113ae816157d1565b91505061131a565b506000805b82518110156113fd578281815181106113d6576113d661582c565b6020026020010151826113e991906156d8565b9150806113f5816157d1565b9150506113bb565b50600084518261140d9190615704565b6001600160401b0381111561142457611424615842565b60405190808252806020026020018201604052801561144d578160200160208202803683370190505b5090506000805b86518110156118575760005b8651811015611844576000600160008984815181106114815761148161582c565b602090810291909101810151825281810192909252604090810160002081516101408101835281548152600182015460ff808216958301959095526101008082048616948301949094526201000081048516606083015263010000008104851660808301526401000000008104851660a0830152600160281b8104851660c0830152600160301b9004841660e08201526002820154928101929092526003015490911615156101208201528951909150611583908a90859081106115475761154761582c565b602002602001015182600001518985815181106115665761156661582c565b602002602001015160405180602001604052806000815250614091565b6115c68783815181106115985761159861582c565b602002602001015160116000846000015181526020019081526020016000205461419d90919063ffffffff16565b81516000908152601160205260409020556008546002906001600160a01b03166001600160a01b03168a85815181106116015761160161582c565b60200260200101516001600160a01b0316141561161c575060015b60005b8884815181106116315761163161582c565b602002602001015181101561182e5760048054906000611650836157d1565b919050555060006040518061016001604052806004548152602001856000015181526020018d88815181106116875761168761582c565b6020908102919091018101516001600160a01b0390811683528782015160ff908116848401526060808a015182166040808701919091526080808c015184168388015260a0808d01518516828901528b851681890152606460c0808a0191909152610100808f015160e0808c019190915260009a82018b9052600480548c528b8b529a8690208c518155998c015160018b0155948b015160028a018054978d0151958d0151948d0151938d0151968d0151928d0151919099166001600160a81b031990971696909617600160a01b948816949094029390931761ffff60a81b1916600160a81b9287169290920260ff60b01b191691909117600160b01b918616919091021761ffff60b81b1916600160b81b9285169290920260ff60c01b191691909117600160c01b918416919091021760ff60c81b1916600160c81b91909216021790556101208301516003820155610140830151908201805460ff19169115159190911790555490915088886117fe816157d1565b9950815181106118105761181061582c565b60209081029190910101525080611826816157d1565b91505061161f565b505050808061183c906157d1565b915050611460565b508061184f816157d1565b915050611454565b507f9c174172041d26a160d1a16ae0f635511c461309994d78e0e197aca8cd67d231338787858860405161188f9594939291906153b5565b60405180910390a1505050505050565b6001600160a01b0385163314806118bb57506118bb85336107c1565b6119225760405162461bcd60e51b815260206004820152603260248201527f455243313135353a207472616e736665722063616c6c6572206973206e6f74206044820152711bdddb995c881b9bdc88185c1c1c9bdd995960721b6064820152608401610890565b61192f85858585856141b0565b5050505050565b6060815183511461199b5760405162461bcd60e51b815260206004820152602960248201527f455243313135353a206163636f756e747320616e6420696473206c656e677468604482015268040dad2e6dac2e8c6d60bb1b6064820152608401610890565b600083516001600160401b038111156119b6576119b6615842565b6040519080825280602002602001820160405280156119df578160200160208202803683370190505b50905060005b8451811015611a5757611a2a858281518110611a0357611a0361582c565b6020026020010151858381518110611a1d57611a1d61582c565b6020026020010151610828565b828281518110611a3c57611a3c61582c565b6020908102919091010152611a50816157d1565b90506119e5565b509392505050565b6008546001600160a01b03163314611a895760405162461bcd60e51b815260040161089090615535565b611a936000614390565b565b6008546001600160a01b03163314611abf5760405162461bcd60e51b815260040161089090615535565b8051611ad290600f906020840190614783565b5050565b600454861115611b3c5760405162461bcd60e51b815260206004820152602b60248201527f554d424c4241534523757064617465546f6b656e446174613a204e4f4e45584960448201526a29aa22a72a2faa27a5a2a760a91b6064820152608401610890565b600086815260208181526040918290208251610160810184528154815260018201549281019290925260028101546001600160a01b0381169383019390935260ff600160a01b840481166060840152600160a81b840481166080840152600160b01b8404811660a0840152600160b81b8404811660c0840152600160c01b8404811660e0840152600160c81b90930483166101008301526003810154610120830152600401549091161515610140820152611bff6008546001600160a01b031690565b6001600160a01b0316336001600160a01b03161480611c33575080604001516001600160a01b0316336001600160a01b0316145b80611c4857506010546001600160a01b031633145b611ca95760405162461bcd60e51b815260206004820152602c60248201527f554d424c4241534523757064617465546f6b656e446174613a20494e56414c4960448201526b222fa822a926a4a9a9a4a7a760a11b6064820152608401610890565b6001600160a01b03808716604080840191825260ff80891660e0860190815288821661010087019081526101208701898152881515610140890190815260008f81526020818152908790208a518155908a01516001820155965160028801805460608c015160808d015160a08e015160c08f0151995198518b16600160c81b0260ff60c81b19998c16600160c01b0260ff60c01b199b8d16600160b81b029b909b1661ffff60b81b19928d16600160b01b0260ff60b01b19948e16600160a81b029490941661ffff60a81b1995909d16600160a01b026001600160a81b031990961697909f16969096179390931791909116989098179790971796909616989098179390931791909116959095179091559251600383015591516004909101805491151560ff1992909216919091179055517f7c578784d052d5113142cb149bcac5c1de38ae6f17bb0237254d89bb7a711f1c90611e539033908a908a908a908a908a908a906001600160a01b039788168152602081019690965293909516604085015260ff918216606085015216608083015260a082019290925290151560c082015260e00190565b60405180910390a150505050505050565b6008546001600160a01b03163314611e8e5760405162461bcd60e51b815260040161089090615535565b60026009541415611eb15760405162461bcd60e51b8152600401610890906155b4565b6002600955600654811115611f185760405162461bcd60e51b815260206004820152602760248201527f554d424c424153452364656c65746543726174653a204e4f4e4558495354454e604482015266545f435241544560c81b6064820152608401610890565b6000818152600260208181526040808420815160e08101835281548152600182015460ff8082168387015261010090910416818401529381018054835181860281018601909452808452919360608601939290830182828015611fb857602002820191906000526020600020906000905b825461010083900a900460ff16815260206001928301818104948501949093039092029101808411611f895790505b5050509183525050600382015460ff908116602080840191909152600484015460408085019190915260059094015482161515606093840152600160c086018190526000888152600280845290869020875181558784015192810180549789015186166101000261ffff19909816939095169290921795909517909255918401518051949550859491936120529390850192910190614807565b50608082015160038201805460ff90921660ff1992831617905560a0830151600483015560c090920151600590910180549115159190921617905560408051338152602081018490527fa45f99a9ca24f747f4a318c973ca4b5087ea41c28b6ff10b827340279844b33591015b60405180910390a150506001600955565b600e80546109209061576a565b6008546001600160a01b031633146121075760405162461bcd60e51b815260040161089090615535565b6002600954141561212a5760405162461bcd60e51b8152600401610890906155b4565b60026009556000808060ff871660011480612148575060ff87166002145b6121a05760405162461bcd60e51b815260206004820152602360248201527f554d424c42415345236d616b6543726174653a20494e56414c49445f4641435460448201526224a7a760e91b6064820152608401610890565b600086511180156121b35750600a865111155b6122115760405162461bcd60e51b815260206004820152602960248201527f554d424c42415345236d616b6543726174653a20494e56414c49445f524152496044820152680a8b2be988a9c8ea8960bb1b6064820152608401610890565b600092505b85518310156122de57600160ff168684815181106122365761223661582c565b602002602001015160ff161015801561226f5750600760ff168684815181106122615761226161582c565b602002602001015160ff1611155b6122cc5760405162461bcd60e51b815260206004820152602860248201527f554d424c42415345236d616b6543726174653a20494e56414c49445f5241524960448201526754595f56414c554560c01b6064820152608401610890565b826122d6816157d1565b935050612216565b60008560ff161180156122f5575060648560ff1611155b6123505760405162461bcd60e51b815260206004820152602660248201527f554d424c42415345236d616b6543726174653a20494e56414c49445f544f4b456044820152651390d3d5539560d21b6064820152608401610890565b600084116123aa5760405162461bcd60e51b815260206004820152602160248201527f554d424c42415345236d616b6543726174653a20494e56414c49445f505249436044820152604560f81b6064820152608401610890565b886123d257600680549060006123bf836157d1565b9190505550600654905060019150612439565b6006548911156124325760405162461bcd60e51b815260206004820152602560248201527f554d424c42415345236d616b6543726174653a204e4f4e4558495354454e545f604482015264435241544560d81b6064820152608401610890565b5060009050875b60006040518060e001604052808381526020018a60ff1681526020018960ff16815260200160006001600160401b0381111561247757612477615842565b6040519080825280602002602001820160405280156124a0578160200160208202803683370190505b50815260ff80891660208084019190915260408084018a90526000606094850181905287815260028084529082902086518155868401516001820180549489015187166101000261ffff199095169190961617929092179093559284015180519495508594612516938501929190910190614807565b50608082015160038201805460ff90921660ff1992831617905560a0830151600483015560c0909201516005909101805491151591909216179055600093505b86518410156125da57600260008381526020019081526020016000206002018785815181106125875761258761582c565b6020908102919091018101518254600181018455600093845292829020918304909101805460ff928316601f9094166101000a9384029290930219909216179055836125d2816157d1565b945050612556565b821561261f5760408051338152602081018490527f71d6b09b1d3cb8617f35f6df2357d050aefa8ec19564d09dafbadb6256a894f191015b60405180910390a161265a565b60408051338152602081018490527ff37e5f6d4062b02ae67880a9f1c05ee577e8cd0c07ee5fcf5c93d957dcc0935b91015b60405180910390a15b505060016009555050505050505050565b6008546001600160a01b031633146126955760405162461bcd60e51b815260040161089090615535565b6001600160a01b0381166127115760405162461bcd60e51b815260206004820152603860248201527f556d626c436f7265237365744d61726b6574506c616365436f6e74726163743a60448201527f204d41524b45545f434f4e54524143545f494e56414c494400000000000000006064820152608401610890565b601080546001600160a01b0383166001600160a01b03199091161790557f47ec0afc80996e09aa40bb033864dd7f6c3da75cac550739cff0d732d714daa46127616008546001600160a01b031690565b601054604080516001600160a01b039384168152929091166020830152015b60405180910390a150565b6000806000606060008060006006548811156127f55760405162461bcd60e51b8152602060048201526024808201527f554d424c424153452367657443726174653a204e4f4e4558495354454e545f436044820152635241544560e01b6064820152608401610890565b6000888152600260208181526040808420815160e08101835281548152600182015460ff808216838701526101009091041681840152938101805483518186028101860190945280845291936060860193929083018282801561289557602002820191906000526020600020906000905b825461010083900a900460ff168152602060019283018181049485019490930390920291018084116128665790505b5050509183525050600382015460ff9081166020830152600483015460408301526005909201549091161515606091820152810151519091506000906001600160401b038111156128e8576128e8615842565b604051908082528060200260200182016040528015612911578160200160208202803683370190505b50905060005b826060015151811015612978578260600151818151811061293a5761293a61582c565b60200260200101518282815181106129545761295461582c565b60ff9092166020928302919091019091015280612970816157d1565b915050612917565b50815160208301516040840151608085015160a086015160c090960151939e929d50909b50929950919750919550909350915050565b336001600160a01b0383161415612a195760405162461bcd60e51b815260206004820152602960248201527f455243313135353a2073657474696e6720617070726f76616c20737461747573604482015268103337b91039b2b63360b91b6064820152608401610890565b336000818152600b602090815260408083206001600160a01b03871680855290835292819020805460ff191686151590811790915590519081529192917f17307eab39ab6107e8899845ad3d59bd9653f200f220920489ca2b5937696c31910160405180910390a35050565b6000806000806000806000806000806005548b1115612af55760405162461bcd60e51b815260206004820152602660248201527f554d424c42415345236765745072657365743a204e4f4e4558495354454e545f60448201526514149154d15560d21b6064820152608401610890565b5050506000978852505060016020818152604097889020885161014081018a5281548082529382015460ff80821694830185905261010080830482169c84018d9052620100008304821660608501819052630100000084048316608086018190526401000000008504841660a08701819052600160281b8604851660c08801819052600160301b909604851660e0880181905260028901549488018590526003909801549094161515610120909601869052979e969d9c509a5095985096509450909291565b6000806060600080600080600754881115612c295760405162461bcd60e51b815260206004820152602860248201527f554d424c42415345236765745061636b6167653a204e4f4e4558495354454e546044820152675f5041434b41474560c01b6064820152608401610890565b6000888152600360209081526040808320815160e08101835281548152600182015460ff1681850152600282018054845181870281018701865281815292959394860193830182828015612c9c57602002820191906000526020600020905b815481526020019060010190808311612c88575b50505091835250506003820154602082015260048201546040808301919091526005830154606083015260069092015460ff161515608090910152810151519091506000906001600160401b03811115612cf857612cf8615842565b604051908082528060200260200182016040528015612d21578160200160208202803683370190505b50905060005b826040015151811015612d815782604001518181518110612d4a57612d4a61582c565b6020026020010151828281518110612d6457612d6461582c565b602090810291909101015280612d79816157d1565b915050612d27565b50815160208301516060840151608085015160a086015160c090960151939e929d50939b509950919750919550909350915050565b6008546001600160a01b03163314612de05760405162461bcd60e51b815260040161089090615535565b6012805460ff19168215151790556008547fc3889419940e25af3579cc72a7f6e5cab56ca4687af79b31ae8b7c31e90df3c7906001600160a01b0316601254604080516001600160a01b03909316835260ff9091161515602083015201612780565b6008546001600160a01b03163314612e6c5760405162461bcd60e51b815260040161089090615535565b60026009541415612e8f5760405162461bcd60e51b8152600401610890906155b4565b6002600955600080600460ff8b161115612efa5760405162461bcd60e51b815260206004820152602660248201527f554d424c42415345236d616b655072657365743a20494e56414c49445f544f4b604482015265454e5459504560d01b6064820152608401610890565b60648960ff161115612f5f5760405162461bcd60e51b815260206004820152602860248201527f554d424c42415345236d616b655072657365743a20494e56414c49445f4c4556604482015267454c5f56414c554560c01b6064820152608401610890565b600260ff89161115612fbf5760405162461bcd60e51b8152602060048201526024808201527f554d424c42415345236d616b655072657365743a20494e56414c49445f4641436044820152632a24a7a760e11b6064820152608401610890565b600660ff881611156130215760405162461bcd60e51b815260206004820152602560248201527f554d424c42415345236d616b655072657365743a20494e56414c49445f43415460448201526445474f525960d81b6064820152608401610890565b600760ff871611156130815760405162461bcd60e51b815260206004820152602360248201527f554d424c42415345236d616b655072657365743a20494e56414c49445f52415260448201526249545960e81b6064820152608401610890565b600560ff861611156130e45760405162461bcd60e51b815260206004820152602660248201527f554d424c42415345236d616b655072657365743a20494e56414c49445f42414460448201526547455459504560d01b6064820152608401610890565b600860ff851611156131465760405162461bcd60e51b815260206004820152602560248201527f554d424c42415345236d616b655072657365743a20494e56414c49445f5a4f4e604482015264455459504560d81b6064820152608401610890565b600083116131a15760405162461bcd60e51b815260206004820152602260248201527f554d424c42415345236d616b655072657365743a20494e56414c49445f505249604482015261434560f01b6064820152608401610890565b8a6131c957600580549060006131b6836157d1565b9190505550600554905060019150613232565b6005548b111561322b5760405162461bcd60e51b815260206004820152602760248201527f554d424c42415345236d616b655072657365743a204e4f4e4558495354454e5460448201526617d4149154d15560ca1b6064820152608401610890565b5060009050895b604080516101408101825282815260ff8c811660208084019182528d83168486019081528d8416606086019081528d8516608087019081528d861660a088019081528d871660c089019081528d881660e08a01908152610100808b018f815260006101208d018181528f825260019a8b90529d90208c5181559951988a018054985197519651955194519351998c1661ffff1990991698909817968b169091029590951763ffff0000191662010000948a169490940263ff0000001916939093176301000000928916929092029190911765ffff0000000019166401000000009188169190910265ff0000000000191617600160281b918716919091021766ff0000000000001916600160301b9390951692909202939093179092559051600282015591516003909201805460ff19169215159290921790915582156133b05760408051338152602081018490527fa3e5ef09feab9d2ebb9b46e4a29ff22b784d2752957cc7cf4e9a9e18b50add19910160405180910390a16133ea565b60408051338152602081018490527f45af7cf685331762081be8e61f7359823871a70d85550aa4feeb01f16a447014910160405180910390a15b5050600160095550505050505050505050565b6008546001600160a01b031633146134275760405162461bcd60e51b815260040161089090615535565b6002600954141561344a5760405162461bcd60e51b8152600401610890906155b4565b60026009556007548111156134b55760405162461bcd60e51b815260206004820152602b60248201527f554d424c424153452364656c6574655061636b6167653a204e4f4e455849535460448201526a454e545f5041434b41474560a81b6064820152608401610890565b6000818152600360209081526040808320815160e08101835281548152600182015460ff168185015260028201805484518187028101870186528181529295939486019383018282801561352857602002820191906000526020600020905b815481526020019060010190808311613514575b505050918352505060038281015460208084019190915260048401546040808501919091526005850154606085015260069094015460ff9081161515608090940193909352600160c086018190526000888152928252918490208551815585820151928101805460ff1916939094169290921790925591830151805193945084936135b992600285019201906148a8565b50606082015160038201556080820151600482015560a0820151600582015560c0909101516006909101805460ff191691151591909117905560408051338152602081018490527f820e8eb770b2c0e12f47fdba648be0833de85f9ced90a050394e798b98a4711e91016120bf565b6008546001600160a01b031633146136525760405162461bcd60e51b815260040161089090615535565b600260095414156136755760405162461bcd60e51b8152600401610890906155b4565b60026009556005548111156136de5760405162461bcd60e51b815260206004820152602960248201527f554d424c424153452364656c6574655072657365743a204e4f4e455849535445604482015268139517d4149154d15560ba1b6064820152608401610890565b60006001600083815260200190815260200160002060405180610140016040529081600082015481526020016001820160009054906101000a900460ff1660ff1660ff1681526020016001820160019054906101000a900460ff1660ff1660ff1681526020016001820160029054906101000a900460ff1660ff1660ff1681526020016001820160039054906101000a900460ff1660ff1660ff1681526020016001820160049054906101000a900460ff1660ff1660ff1681526020016001820160059054906101000a900460ff1660ff1660ff1681526020016001820160069054906101000a900460ff1660ff1660ff168152602001600282015481526020016003820160009054906101000a900460ff161515151581525050905060018161012001901515908115158152505080600160008481526020019081526020016000206000820151816000015560208201518160010160006101000a81548160ff021916908360ff16021790555060408201518160010160016101000a81548160ff021916908360ff16021790555060608201518160010160026101000a81548160ff021916908360ff16021790555060808201518160010160036101000a81548160ff021916908360ff16021790555060a08201518160010160046101000a81548160ff021916908360ff16021790555060c08201518160010160056101000a81548160ff021916908360ff16021790555060e08201518160010160066101000a81548160ff021916908360ff16021790555061010082015181600201556101208201518160030160006101000a81548160ff0219169083151502179055509050507f7fbfbd3c8e7bc3f73b7158da75e0698904615382767f71e38895820b30ca554d33836040516120bf9291906001600160a01b03929092168252602082015260400190565b6001600160a01b0385163314806139a257506139a285336107c1565b613a005760405162461bcd60e51b815260206004820152602960248201527f455243313135353a2063616c6c6572206973206e6f74206f776e6572206e6f7260448201526808185c1c1c9bdd995960ba1b6064820152608401610890565b61192f85858585856143e2565b6008546001600160a01b03163314613a375760405162461bcd60e51b815260040161089090615535565b6001600160a01b038116613a9c5760405162461bcd60e51b815260206004820152602660248201527f4f776e61626c653a206e6577206f776e657220697320746865207a65726f206160448201526564647265737360d01b6064820152608401610890565b613aa581614390565b50565b6008546001600160a01b03163314613ad25760405162461bcd60e51b815260040161089090615535565b60026009541415613af55760405162461bcd60e51b8152600401610890906155b4565b60026009556000808060ff881615801590613b14575060648860ff1611155b613b715760405162461bcd60e51b815260206004820152602860248201527f554d424c42415345236d616b655061636b6167653a20494e56414c49445f544f60448201526712d15390d3d5539560c21b6064820152608401610890565b60008751118015613b8457506064875111155b613be45760405162461bcd60e51b815260206004820152602b60248201527f554d424c42415345236d616b655061636b6167653a20494e56414c49445f505260448201526a08aa68aa8be988a9c8ea8960ab1b6064820152608401610890565b600092505b8651831015613ca7576000878481518110613c0657613c0661582c565b6020026020010151118015613c365750600554878481518110613c2b57613c2b61582c565b602002602001015111155b613c955760405162461bcd60e51b815260206004820152602a60248201527f554d424c42415345236d616b655061636b6167653a20494e56414c49445f5052604482015269455345545f56414c554560b01b6064820152608401610890565b82613c9f816157d1565b935050613be9565b848610613d055760405162461bcd60e51b815260206004820152602660248201527f554d424c42415345236d616b655061636b6167653a20494e56414c49445f4441604482015265544554494d4560d01b6064820152608401610890565b60008411613d615760405162461bcd60e51b815260206004820152602360248201527f554d424c42415345236d616b655061636b6167653a20494e56414c49445f505260448201526249434560e81b6064820152608401610890565b88613d895760078054906000613d76836157d1565b9190505550600754905060019150613df4565b600754891115613ded5760405162461bcd60e51b815260206004820152602960248201527f554d424c42415345236d616b655061636b6167653a204e4f4e4558495354454e604482015268545f5041434b41474560b81b6064820152608401610890565b5060009050875b6040805160e08101825282815260ff8a81166020808401918252845160008082528183018752858701918252606086018d9052608086018c905260a086018b905260c08601819052878152600383529590952084518155915160018301805460ff1916919094161790925592518051929384939092613e7a9260028501929101906148a8565b50606082015160038201556080820151600482015560a0820151600582015560c0909101516006909101805460ff1916911515919091179055600093505b8751841015613f1a5760036000838152602001908152602001600020600201888581518110613ee957613ee961582c565b6020908102919091018101518254600181018455600093845291909220015583613f12816157d1565b945050613eb8565b8215613f565760408051338152602081018490527f9a581db5a4322ff40f46afcf48414597cc769603683f040592c0aaacdb8308859101612612565b60408051338152602081018490527f071124bd86cec580c57ea511ea7dba49eff5d65d0abfaf5f6f87a730f7f327229101612651565b606081613fb05750506040805180820190915260018152600360fc1b602082015290565b8160005b8115613fda5780613fc4816157d1565b9150613fd39050600a836156f0565b9150613fb4565b6000816001600160401b03811115613ff457613ff4615842565b6040519080825280601f01601f19166020018201604052801561401e576020820181803683370190505b5090505b841561408957614033600183615723565b9150614040600a866157ec565b61404b9060306156d8565b60f81b8183815181106140605761406061582c565b60200101906001600160f81b031916908160001a905350614082600a866156f0565b9450614022565b949350505050565b6001600160a01b0384166140f15760405162461bcd60e51b815260206004820152602160248201527f455243313135353a206d696e7420746f20746865207a65726f206164647265736044820152607360f81b6064820152608401610890565b3361410b8160008761410288614503565b61192f88614503565b6000848152600a602090815260408083206001600160a01b03891684529091528120805485929061413d9084906156d8565b909155505060408051858152602081018590526001600160a01b0380881692600092918516917fc3d58168c5ae7397731d063d5bbf3d657854427343f4c083240f7aacaa2d0f62910160405180910390a461192f8160008787878761454e565b60006141a982846156d8565b9392505050565b81518351146142125760405162461bcd60e51b815260206004820152602860248201527f455243313135353a2069647320616e6420616d6f756e7473206c656e677468206044820152670dad2e6dac2e8c6d60c31b6064820152608401610890565b6001600160a01b0384166142385760405162461bcd60e51b8152600401610890906154a6565b3360005b84518110156143225760008582815181106142595761425961582c565b6020026020010151905060008583815181106142775761427761582c565b6020908102919091018101516000848152600a835260408082206001600160a01b038e1683529093529190912054909150818110156142c85760405162461bcd60e51b8152600401610890906154eb565b6000838152600a602090815260408083206001600160a01b038e8116855292528083208585039055908b168252812080548492906143079084906156d8565b925050819055505050508061431b906157d1565b905061423c565b50846001600160a01b0316866001600160a01b0316826001600160a01b03167f4a39dc06d4c0dbc64b70af90fd698a233a518aa5d07e595d983b8c0526c8f7fb8787604051614372929190615426565b60405180910390a46143888187878787876146b9565b505050505050565b600880546001600160a01b038381166001600160a01b0319831681179093556040519116919082907f8be0079c531659141344cd1fd0a4f28419497f9722a3daafe3b4186f6b6457e090600090a35050565b6001600160a01b0384166144085760405162461bcd60e51b8152600401610890906154a6565b3361441881878761410288614503565b6000848152600a602090815260408083206001600160a01b038a1684529091529020548381101561445b5760405162461bcd60e51b8152600401610890906154eb565b6000858152600a602090815260408083206001600160a01b038b811685529252808320878503905590881682528120805486929061449a9084906156d8565b909155505060408051868152602081018690526001600160a01b03808916928a821692918616917fc3d58168c5ae7397731d063d5bbf3d657854427343f4c083240f7aacaa2d0f62910160405180910390a46144fa82888888888861454e565b50505050505050565b6040805160018082528183019092526060916000919060208083019080368337019050509050828160008151811061453d5761453d61582c565b602090810291909101015292915050565b6001600160a01b0384163b156143885760405163f23a6e6160e01b81526001600160a01b0385169063f23a6e619061459290899089908890889088906004016152ed565b602060405180830381600087803b1580156145ac57600080fd5b505af19250505080156145dc575060408051601f3d908101601f191682019092526145d991810190614e4e565b60015b614689576145e8615858565b806308c379a0141561462257506145fd615874565b806146085750614624565b8060405162461bcd60e51b8152600401610890919061544b565b505b60405162461bcd60e51b815260206004820152603460248201527f455243313135353a207472616e7366657220746f206e6f6e20455243313135356044820152732932b1b2b4bb32b91034b6b83632b6b2b73a32b960611b6064820152608401610890565b6001600160e01b0319811663f23a6e6160e01b146144fa5760405162461bcd60e51b81526004016108909061545e565b6001600160a01b0384163b156143885760405163bc197c8160e01b81526001600160a01b0385169063bc197c81906146fd908990899088908890889060040161528f565b602060405180830381600087803b15801561471757600080fd5b505af1925050508015614747575060408051601f3d908101601f1916820190925261474491810190614e4e565b60015b614753576145e8615858565b6001600160e01b0319811663bc197c8160e01b146144fa5760405162461bcd60e51b81526004016108909061545e565b82805461478f9061576a565b90600052602060002090601f0160209004810192826147b157600085556147f7565b82601f106147ca57805160ff19168380011785556147f7565b828001600101855582156147f7579182015b828111156147f75782518255916020019190600101906147dc565b506148039291506148e2565b5090565b82805482825590600052602060002090601f016020900481019282156147f75791602002820160005b8382111561486e57835183826101000a81548160ff021916908360ff1602179055509260200192600101602081600001049283019260010302614830565b801561489b5782816101000a81549060ff021916905560010160208160000104928301926001030261486e565b50506148039291506148e2565b8280548282559060005260206000209081019282156147f757916020028201828111156147f75782518255916020019190600101906147dc565b5b8082111561480357600081556001016148e3565b60006001600160401b0383111561491057614910615842565b604051614927601f8501601f1916602001826157a5565b80915083815284848401111561493c57600080fd5b83836020830137600060208583010152509392505050565b80356001600160a01b038116811461496b57600080fd5b919050565b600082601f83011261498157600080fd5b8135602061498e826156b5565b60405161499b82826157a5565b8381528281019150858301600585901b870184018810156149bb57600080fd5b60005b858110156149e1576149cf82614954565b845292840192908401906001016149be565b5090979650505050505050565b600082601f8301126149ff57600080fd5b81356020614a0c826156b5565b604051614a1982826157a5565b8381528281019150858301600585901b87018401881015614a3957600080fd5b60005b858110156149e157813584529284019290840190600101614a3c565b8035801515811461496b57600080fd5b600082601f830112614a7957600080fd5b6141a9838335602085016148f7565b803560ff8116811461496b57600080fd5b600060208284031215614aab57600080fd5b6141a982614954565b60008060408385031215614ac757600080fd5b614ad083614954565b9150614ade60208401614954565b90509250929050565b600080600080600060a08688031215614aff57600080fd5b614b0886614954565b9450614b1660208701614954565b935060408601356001600160401b0380821115614b3257600080fd5b614b3e89838a016149ee565b94506060880135915080821115614b5457600080fd5b614b6089838a016149ee565b93506080880135915080821115614b7657600080fd5b50614b8388828901614a68565b9150509295509295909350565b600080600080600060a08688031215614ba857600080fd5b614bb186614954565b9450614bbf60208701614954565b9350604086013592506060860135915060808601356001600160401b03811115614be857600080fd5b614b8388828901614a68565b60008060408385031215614c0757600080fd5b614c1083614954565b9150614ade60208401614a58565b60008060408385031215614c3157600080fd5b614c3a83614954565b946020939093013593505050565b60008060408385031215614c5b57600080fd5b82356001600160401b0380821115614c7257600080fd5b614c7e86838701614970565b9350602091508185013581811115614c9557600080fd5b8501601f81018713614ca657600080fd5b8035614cb1816156b5565b604051614cbe82826157a5565b8281528581019150838601600584901b850187018b1015614cde57600080fd5b6000805b85811015614d1957823588811115614cf8578283fd5b614d068e8b838b01016149ee565b8652509388019391880191600101614ce2565b5050508096505050505050509250929050565b60008060408385031215614d3f57600080fd5b82356001600160401b0380821115614d5657600080fd5b614d6286838701614970565b93506020850135915080821115614d7857600080fd5b50614d85858286016149ee565b9150509250929050565b600080600060608486031215614da457600080fd5b83356001600160401b0380821115614dbb57600080fd5b614dc787838801614970565b94506020860135915080821115614ddd57600080fd5b614de9878388016149ee565b93506040860135915080821115614dff57600080fd5b50614e0c868287016149ee565b9150509250925092565b600060208284031215614e2857600080fd5b6141a982614a58565b600060208284031215614e4357600080fd5b81356141a9816158fd565b600060208284031215614e6057600080fd5b81516141a9816158fd565b600060208284031215614e7d57600080fd5b81356001600160401b03811115614e9357600080fd5b8201601f81018413614ea457600080fd5b614089848235602084016148f7565b600060208284031215614ec557600080fd5b5035919050565b60008060008060008060c08789031215614ee557600080fd5b86359550614ef560208801614954565b9450614f0360408801614a88565b9350614f1160608801614a88565b925060808701359150614f2660a08801614a58565b90509295509295509295565b60008060008060008060c08789031215614f4b57600080fd5b86359550614f5b60208801614a88565b945060408701356001600160401b03811115614f7657600080fd5b614f8289828a016149ee565b945050606087013592506080870135915060a087013590509295509295509295565b60008060008060008060c08789031215614fbd57600080fd5b863595506020614fce818901614a88565b9550614fdc60408901614a88565b945060608801356001600160401b03811115614ff757600080fd5b8801601f81018a1361500857600080fd5b8035615013816156b5565b60405161502082826157a5565b8281528481019150838501600584901b850186018e101561504057600080fd5b600094505b8385101561506a5761505681614a88565b835260019490940193918501918501615045565b50809750505050505061507f60808801614a88565b915060a087013590509295509295509295565b60008060008060008060008060006101208a8c0312156150b157600080fd5b893598506150c160208b01614a88565b97506150cf60408b01614a88565b96506150dd60608b01614a88565b95506150eb60808b01614a88565b94506150f960a08b01614a88565b935061510760c08b01614a88565b925061511560e08b01614a88565b91506101008a013590509295985092959850929598565b600081518084526020808501945080840160005b838110156151655781516001600160a01b031687529582019590820190600101615140565b509495945050505050565b600081518084526020808501945080840160005b8381101561516557815187529582019590820190600101615184565b600081518084526151b881602086016020860161573a565b601f01601f19169290920160200192915050565b600081516151de81856020860161573a565b9290920192915050565b600080845481600182811c91508083168061520457607f831692505b602080841082141561522457634e487b7160e01b86526022600452602486fd5b818015615238576001811461524957615276565b60ff19861689528489019650615276565b60008b81526020902060005b8681101561526e5781548b820152908501908301615255565b505084890196505b50505050505061528681856151cc565b95945050505050565b6001600160a01b0386811682528516602082015260a0604082018190526000906152bb90830186615170565b82810360608401526152cd8186615170565b905082810360808401526152e181856151a0565b98975050505050505050565b6001600160a01b03868116825285166020820152604081018490526060810183905260a060808201819052600090615327908301846151a0565b979650505050505050565b6001600160a01b0384168152606060208083018290526000916153579084018661512c565b8381036040850152845180825282820190600581901b8301840184880160005b838110156153a557601f19868403018552615393838351615170565b94870194925090860190600101615377565b50909a9950505050505050505050565b6001600160a01b038616815260a0602082018190526000906153d99083018761512c565b82810360408401526153eb8187615170565b905082810360608401526153ff8186615170565b905082810360808401526152e18185615170565b6020815260006141a96020830184615170565b6040815260006154396040830185615170565b82810360208401526152868185615170565b6020815260006141a960208301846151a0565b60208082526028908201527f455243313135353a204552433131353552656365697665722072656a656374656040820152676420746f6b656e7360c01b606082015260800190565b60208082526025908201527f455243313135353a207472616e7366657220746f20746865207a65726f206164604082015264647265737360d81b606082015260800190565b6020808252602a908201527f455243313135353a20696e73756666696369656e742062616c616e636520666f60408201526939103a3930b739b332b960b11b606082015260800190565b6020808252818101527f4f776e61626c653a2063616c6c6572206973206e6f7420746865206f776e6572604082015260600190565b6020808252602a908201527f556d626c436f7265236d696e744261746368507265736574733a20494e56414c60408201526949445f4144445245535360b01b606082015260800190565b6020808252601f908201527f5265656e7472616e637947756172643a207265656e7472616e742063616c6c00604082015260600190565b87815260ff8716602082015260e06040820152600061560d60e0830188615170565b90508560608301528460808301528360a083015282151560c083015298975050505050505050565b600060e08201898352602060ff808b1682860152808a16604086015260e0606086015282895180855261010087019150838b01945060005b8181101561568b57855184168352948401949184019160010161566d565b505060ff8916608087015293506156a192505050565b8360a08301526152e160c083018415159052565b60006001600160401b038211156156ce576156ce615842565b5060051b60200190565b600082198211156156eb576156eb615800565b500190565b6000826156ff576156ff615816565b500490565b600081600019048311821515161561571e5761571e615800565b500290565b60008282101561573557615735615800565b500390565b60005b8381101561575557818101518382015260200161573d565b83811115615764576000848401525b50505050565b600181811c9082168061577e57607f821691505b6020821081141561579f57634e487b7160e01b600052602260045260246000fd5b50919050565b601f8201601f191681016001600160401b03811182821017156157ca576157ca615842565b6040525050565b60006000198214156157e5576157e5615800565b5060010190565b6000826157fb576157fb615816565b500690565b634e487b7160e01b600052601160045260246000fd5b634e487b7160e01b600052601260045260246000fd5b634e487b7160e01b600052603260045260246000fd5b634e487b7160e01b600052604160045260246000fd5b600060033d11156158715760046000803e5060005160e01c5b90565b600060443d10156158825790565b6040516003193d81016004833e81513d6001600160401b0381602484011181841117156158b157505050505090565b82850191508151818111156158c95750505050505090565b843d87010160208285010111156158e35750505050505090565b6158f2602082860101876157a5565b509095945050505050565b6001600160e01b031981168114613aa557600080fdfea26469706673582212209ec98164f00c46b3b75aac2bae757371de1550340412fe56c34bad3751e5b74464736f6c63430008070033687474703a2f2f706f7274616c2e756d6272656c6c6170726f6a6563742e6c6f63616c686f73742f6d657461646174612f",
			"opcodes": "PUSH1 0x0 PUSH1 0x4 DUP2 SWAP1 SSTORE PUSH1 0x5 DUP2 SWAP1 SSTORE PUSH1 0x6 DUP2 SWAP1 SSTORE PUSH1 0x7 SSTORE PUSH1 0xC0 PUSH1 0x40 MSTORE PUSH1 0xD PUSH1 0x80 DUP2 SWAP1 MSTORE PUSH13 0x556D6272656C6C6120436F7265 PUSH1 0x98 SHL PUSH1 0xA0 SWAP1 DUP2 MSTORE PUSH3 0x42 SWAP2 SWAP1 DUP2 PUSH3 0x201 JUMP JUMPDEST POP PUSH1 0x40 DUP1 MLOAD DUP1 DUP3 ADD SWAP1 SWAP2 MSTORE PUSH1 0x8 DUP1 DUP3 MSTORE PUSH8 0x556D626C436F7265 PUSH1 0xC0 SHL PUSH1 0x20 SWAP1 SWAP3 ADD SWAP2 DUP3 MSTORE PUSH3 0x74 SWAP2 PUSH1 0xE SWAP2 PUSH3 0x201 JUMP JUMPDEST POP PUSH1 0x40 MLOAD DUP1 PUSH1 0x60 ADD PUSH1 0x40 MSTORE DUP1 PUSH1 0x31 DUP2 MSTORE PUSH1 0x20 ADD PUSH3 0x5C3D PUSH1 0x31 SWAP2 CODECOPY DUP1 MLOAD PUSH3 0xA5 SWAP2 PUSH1 0xF SWAP2 PUSH1 0x20 SWAP1 SWAP2 ADD SWAP1 PUSH3 0x201 JUMP JUMPDEST POP PUSH1 0x10 DUP1 SLOAD PUSH1 0x1 PUSH1 0x1 PUSH1 0xA0 SHL SUB NOT AND SWAP1 SSTORE PUSH1 0x12 DUP1 SLOAD PUSH1 0xFF NOT AND SWAP1 SSTORE CALLVALUE DUP1 ISZERO PUSH3 0xCD JUMPI PUSH1 0x0 DUP1 REVERT JUMPDEST POP PUSH1 0xF DUP1 SLOAD PUSH3 0xDD SWAP1 PUSH3 0x2A7 JUMP JUMPDEST DUP1 PUSH1 0x1F ADD PUSH1 0x20 DUP1 SWAP2 DIV MUL PUSH1 0x20 ADD PUSH1 0x40 MLOAD SWAP1 DUP2 ADD PUSH1 0x40 MSTORE DUP1 SWAP3 SWAP2 SWAP1 DUP2 DUP2 MSTORE PUSH1 0x20 ADD DUP3 DUP1 SLOAD PUSH3 0x10B SWAP1 PUSH3 0x2A7 JUMP JUMPDEST DUP1 ISZERO PUSH3 0x15C JUMPI DUP1 PUSH1 0x1F LT PUSH3 0x130 JUMPI PUSH2 0x100 DUP1 DUP4 SLOAD DIV MUL DUP4 MSTORE SWAP2 PUSH1 0x20 ADD SWAP2 PUSH3 0x15C JUMP JUMPDEST DUP3 ADD SWAP2 SWAP1 PUSH1 0x0 MSTORE PUSH1 0x20 PUSH1 0x0 KECCAK256 SWAP1 JUMPDEST DUP2 SLOAD DUP2 MSTORE SWAP1 PUSH1 0x1 ADD SWAP1 PUSH1 0x20 ADD DUP1 DUP4 GT PUSH3 0x13E JUMPI DUP3 SWAP1 SUB PUSH1 0x1F AND DUP3 ADD SWAP2 JUMPDEST POP POP POP POP POP PUSH3 0x17B PUSH3 0x175 PUSH3 0x192 PUSH1 0x20 SHL PUSH1 0x20 SHR JUMP JUMPDEST PUSH3 0x196 JUMP JUMPDEST PUSH1 0x1 PUSH1 0x9 SSTORE PUSH3 0x18B DUP2 PUSH3 0x1E8 JUMP JUMPDEST POP PUSH3 0x2E4 JUMP JUMPDEST CALLER SWAP1 JUMP JUMPDEST PUSH1 0x8 DUP1 SLOAD PUSH1 0x1 PUSH1 0x1 PUSH1 0xA0 SHL SUB DUP4 DUP2 AND PUSH1 0x1 PUSH1 0x1 PUSH1 0xA0 SHL SUB NOT DUP4 AND DUP2 OR SWAP1 SWAP4 SSTORE PUSH1 0x40 MLOAD SWAP2 AND SWAP2 SWAP1 DUP3 SWAP1 PUSH32 0x8BE0079C531659141344CD1FD0A4F28419497F9722A3DAAFE3B4186F6B6457E0 SWAP1 PUSH1 0x0 SWAP1 LOG3 POP POP JUMP JUMPDEST DUP1 MLOAD PUSH3 0x1FD SWAP1 PUSH1 0xC SWAP1 PUSH1 0x20 DUP5 ADD SWAP1 PUSH3 0x201 JUMP JUMPDEST POP POP JUMP JUMPDEST DUP3 DUP1 SLOAD PUSH3 0x20F SWAP1 PUSH3 0x2A7 JUMP JUMPDEST SWAP1 PUSH1 0x0 MSTORE PUSH1 0x20 PUSH1 0x0 KECCAK256 SWAP1 PUSH1 0x1F ADD PUSH1 0x20 SWAP1 DIV DUP2 ADD SWAP3 DUP3 PUSH3 0x233 JUMPI PUSH1 0x0 DUP6 SSTORE PUSH3 0x27E JUMP JUMPDEST DUP3 PUSH1 0x1F LT PUSH3 0x24E JUMPI DUP1 MLOAD PUSH1 0xFF NOT AND DUP4 DUP1 ADD OR DUP6 SSTORE PUSH3 0x27E JUMP JUMPDEST DUP3 DUP1 ADD PUSH1 0x1 ADD DUP6 SSTORE DUP3 ISZERO PUSH3 0x27E JUMPI SWAP2 DUP3 ADD JUMPDEST DUP3 DUP2 GT ISZERO PUSH3 0x27E JUMPI DUP3 MLOAD DUP3 SSTORE SWAP2 PUSH1 0x20 ADD SWAP2 SWAP1 PUSH1 0x1 ADD SWAP1 PUSH3 0x261 JUMP JUMPDEST POP PUSH3 0x28C SWAP3 SWAP2 POP PUSH3 0x290 JUMP JUMPDEST POP SWAP1 JUMP JUMPDEST JUMPDEST DUP1 DUP3 GT ISZERO PUSH3 0x28C JUMPI PUSH1 0x0 DUP2 SSTORE PUSH1 0x1 ADD PUSH3 0x291 JUMP JUMPDEST PUSH1 0x1 DUP2 DUP2 SHR SWAP1 DUP3 AND DUP1 PUSH3 0x2BC JUMPI PUSH1 0x7F DUP3 AND SWAP2 POP JUMPDEST PUSH1 0x20 DUP3 LT DUP2 EQ ISZERO PUSH3 0x2DE JUMPI PUSH4 0x4E487B71 PUSH1 0xE0 SHL PUSH1 0x0 MSTORE PUSH1 0x22 PUSH1 0x4 MSTORE PUSH1 0x24 PUSH1 0x0 REVERT JUMPDEST POP SWAP2 SWAP1 POP JUMP JUMPDEST PUSH2 0x5949 DUP1 PUSH3 0x2F4 PUSH1 0x0 CODECOPY PUSH1 0x0 RETURN INVALID PUSH1 0x80 PUSH1 0x40 MSTORE CALLVALUE DUP1 ISZERO PUSH2 0x10 JUMPI PUSH1 0x0 DUP1 REVERT JUMPDEST POP PUSH1 0x4 CALLDATASIZE LT PUSH2 0x247 JUMPI PUSH1 0x0 CALLDATALOAD PUSH1 0xE0 SHR DUP1 PUSH4 0x98C4DD31 GT PUSH2 0x13B JUMPI DUP1 PUSH4 0xCB9953E7 GT PUSH2 0xB8 JUMPI DUP1 PUSH4 0xDA4F8666 GT PUSH2 0x7C JUMPI DUP1 PUSH4 0xDA4F8666 EQ PUSH2 0x7A0 JUMPI DUP1 PUSH4 0xE985E9C5 EQ PUSH2 0x7B3 JUMPI DUP1 PUSH4 0xF242432A EQ PUSH2 0x7EF JUMPI DUP1 PUSH4 0xF2FDE38B EQ PUSH2 0x802 JUMPI DUP1 PUSH4 0xF9D20F5C EQ PUSH2 0x815 JUMPI PUSH1 0x0 DUP1 REVERT JUMPDEST DUP1 PUSH4 0xCB9953E7 EQ PUSH2 0x6F2 JUMPI DUP1 PUSH4 0xCEFA3E9F EQ PUSH2 0x6FB JUMPI DUP1 PUSH4 0xD0C2DE6C EQ PUSH2 0x771 JUMPI DUP1 PUSH4 0xD71C1008 EQ PUSH2 0x784 JUMPI DUP1 PUSH4 0xD7DA9E4F EQ PUSH2 0x797 JUMPI PUSH1 0x0 DUP1 REVERT JUMPDEST DUP1 PUSH4 0xB38D817C GT PUSH2 0xFF JUMPI DUP1 PUSH4 0xB38D817C EQ PUSH2 0x60B JUMPI DUP1 PUSH4 0xB99DFE18 EQ PUSH2 0x690 JUMPI DUP1 PUSH4 0xBC4ED68F EQ PUSH2 0x6B6 JUMPI DUP1 PUSH4 0xBD85B039 EQ PUSH2 0x6C9 JUMPI DUP1 PUSH4 0xC8A768E6 EQ PUSH2 0x6E9 JUMPI PUSH1 0x0 DUP1 REVERT JUMPDEST DUP1 PUSH4 0x98C4DD31 EQ PUSH2 0x53D JUMPI DUP1 PUSH4 0x9E4D3FBF EQ PUSH2 0x550 JUMPI DUP1 PUSH4 0xA09EA8C4 EQ PUSH2 0x563 JUMPI DUP1 PUSH4 0xA22CB465 EQ PUSH2 0x589 JUMPI DUP1 PUSH4 0xAABC4B3C EQ PUSH2 0x59C JUMPI PUSH1 0x0 DUP1 REVERT JUMPDEST DUP1 PUSH4 0x3094D9AB GT PUSH2 0x1C9 JUMPI DUP1 PUSH4 0x7E518EC8 GT PUSH2 0x18D JUMPI DUP1 PUSH4 0x7E518EC8 EQ PUSH2 0x4EB JUMPI DUP1 PUSH4 0x8DA5CB5B EQ PUSH2 0x4FE JUMPI DUP1 PUSH4 0x8EAA08C7 EQ PUSH2 0x50F JUMPI DUP1 PUSH4 0x955A6615 EQ PUSH2 0x522 JUMPI DUP1 PUSH4 0x95D89B41 EQ PUSH2 0x535 JUMPI PUSH1 0x0 DUP1 REVERT JUMPDEST DUP1 PUSH4 0x3094D9AB EQ PUSH2 0x482 JUMPI DUP1 PUSH4 0x3DC37E1A EQ PUSH2 0x48F JUMPI DUP1 PUSH4 0x4E1273F4 EQ PUSH2 0x4BA JUMPI DUP1 PUSH4 0x715018A6 EQ PUSH2 0x4DA JUMPI DUP1 PUSH4 0x75794A3C EQ PUSH2 0x4E2 JUMPI PUSH1 0x0 DUP1 REVERT JUMPDEST DUP1 PUSH4 0xE89341C GT PUSH2 0x210 JUMPI DUP1 PUSH4 0xE89341C EQ PUSH2 0x33B JUMPI DUP1 PUSH4 0x1280CB62 EQ PUSH2 0x34E JUMPI DUP1 PUSH4 0x192087F5 EQ PUSH2 0x43C JUMPI DUP1 PUSH4 0x2693EBF2 EQ PUSH2 0x44F JUMPI DUP1 PUSH4 0x2EB2C2D6 EQ PUSH2 0x46F JUMPI PUSH1 0x0 DUP1 REVERT JUMPDEST DUP1 PUSH3 0xFDD58E EQ PUSH2 0x24C JUMPI DUP1 PUSH4 0x1FFC9A7 EQ PUSH2 0x272 JUMPI DUP1 PUSH4 0x6FDDE03 EQ PUSH2 0x295 JUMPI DUP1 PUSH4 0x91C5C55 EQ PUSH2 0x2AA JUMPI DUP1 PUSH4 0xC802789 EQ PUSH2 0x2BF JUMPI JUMPDEST PUSH1 0x0 DUP1 REVERT JUMPDEST PUSH2 0x25F PUSH2 0x25A CALLDATASIZE PUSH1 0x4 PUSH2 0x4C1E JUMP JUMPDEST PUSH2 0x828 JUMP JUMPDEST PUSH1 0x40 MLOAD SWAP1 DUP2 MSTORE PUSH1 0x20 ADD JUMPDEST PUSH1 0x40 MLOAD DUP1 SWAP2 SUB SWAP1 RETURN JUMPDEST PUSH2 0x285 PUSH2 0x280 CALLDATASIZE PUSH1 0x4 PUSH2 0x4E31 JUMP JUMPDEST PUSH2 0x8C1 JUMP JUMPDEST PUSH1 0x40 MLOAD SWAP1 ISZERO ISZERO DUP2 MSTORE PUSH1 0x20 ADD PUSH2 0x269 JUMP JUMPDEST PUSH2 0x29D PUSH2 0x913 JUMP JUMPDEST PUSH1 0x40 MLOAD PUSH2 0x269 SWAP2 SWAP1 PUSH2 0x544B JUMP JUMPDEST PUSH2 0x2BD PUSH2 0x2B8 CALLDATASIZE PUSH1 0x4 PUSH2 0x4C48 JUMP JUMPDEST PUSH2 0x9A1 JUMP JUMPDEST STOP JUMPDEST PUSH2 0x30A PUSH2 0x2CD CALLDATASIZE PUSH1 0x4 PUSH2 0x4EB3 JUMP JUMPDEST PUSH1 0x3 PUSH1 0x20 DUP2 SWAP1 MSTORE PUSH1 0x0 SWAP2 DUP3 MSTORE PUSH1 0x40 SWAP1 SWAP2 KECCAK256 DUP1 SLOAD PUSH1 0x1 DUP3 ADD SLOAD SWAP3 DUP3 ADD SLOAD PUSH1 0x4 DUP4 ADD SLOAD PUSH1 0x5 DUP5 ADD SLOAD PUSH1 0x6 SWAP1 SWAP5 ADD SLOAD SWAP3 SWAP5 PUSH1 0xFF SWAP1 DUP2 AND SWAP5 SWAP3 SWAP4 SWAP2 SWAP3 SWAP2 AND DUP7 JUMP JUMPDEST PUSH1 0x40 DUP1 MLOAD SWAP7 DUP8 MSTORE PUSH1 0xFF SWAP1 SWAP6 AND PUSH1 0x20 DUP8 ADD MSTORE SWAP4 DUP6 ADD SWAP3 SWAP1 SWAP3 MSTORE PUSH1 0x60 DUP5 ADD MSTORE PUSH1 0x80 DUP4 ADD MSTORE ISZERO ISZERO PUSH1 0xA0 DUP3 ADD MSTORE PUSH1 0xC0 ADD PUSH2 0x269 JUMP JUMPDEST PUSH2 0x29D PUSH2 0x349 CALLDATASIZE PUSH1 0x4 PUSH2 0x4EB3 JUMP JUMPDEST PUSH2 0xFF5 JUMP JUMPDEST PUSH2 0x3D2 PUSH2 0x35C CALLDATASIZE PUSH1 0x4 PUSH2 0x4EB3 JUMP JUMPDEST PUSH1 0x0 PUSH1 0x20 DUP2 SWAP1 MSTORE SWAP1 DUP2 MSTORE PUSH1 0x40 SWAP1 KECCAK256 DUP1 SLOAD PUSH1 0x1 DUP3 ADD SLOAD PUSH1 0x2 DUP4 ADD SLOAD PUSH1 0x3 DUP5 ADD SLOAD PUSH1 0x4 SWAP1 SWAP5 ADD SLOAD SWAP3 SWAP4 SWAP2 SWAP3 PUSH1 0x1 PUSH1 0x1 PUSH1 0xA0 SHL SUB DUP3 AND SWAP3 PUSH1 0xFF PUSH1 0x1 PUSH1 0xA0 SHL DUP5 DIV DUP2 AND SWAP4 PUSH1 0x1 PUSH1 0xA8 SHL DUP2 DIV DUP3 AND SWAP4 PUSH1 0x1 PUSH1 0xB0 SHL DUP3 DIV DUP4 AND SWAP4 PUSH1 0x1 PUSH1 0xB8 SHL DUP4 DIV DUP5 AND SWAP4 PUSH1 0x1 PUSH1 0xC0 SHL DUP5 DIV DUP2 AND SWAP4 PUSH1 0x1 PUSH1 0xC8 SHL SWAP1 DIV DUP2 AND SWAP3 AND DUP12 JUMP JUMPDEST PUSH1 0x40 DUP1 MLOAD SWAP12 DUP13 MSTORE PUSH1 0x20 DUP13 ADD SWAP11 SWAP1 SWAP11 MSTORE PUSH1 0x1 PUSH1 0x1 PUSH1 0xA0 SHL SUB SWAP1 SWAP9 AND SWAP9 DUP11 ADD SWAP9 SWAP1 SWAP9 MSTORE PUSH1 0xFF SWAP6 DUP7 AND PUSH1 0x60 DUP11 ADD MSTORE SWAP4 DUP6 AND PUSH1 0x80 DUP10 ADD MSTORE SWAP2 DUP5 AND PUSH1 0xA0 DUP9 ADD MSTORE DUP4 AND PUSH1 0xC0 DUP8 ADD MSTORE DUP3 AND PUSH1 0xE0 DUP7 ADD MSTORE AND PUSH2 0x100 DUP5 ADD MSTORE PUSH2 0x120 DUP4 ADD SWAP2 SWAP1 SWAP2 MSTORE ISZERO ISZERO PUSH2 0x140 DUP3 ADD MSTORE PUSH2 0x160 ADD PUSH2 0x269 JUMP JUMPDEST PUSH2 0x2BD PUSH2 0x44A CALLDATASIZE PUSH1 0x4 PUSH2 0x4D8F JUMP JUMPDEST PUSH2 0x1182 JUMP JUMPDEST PUSH2 0x25F PUSH2 0x45D CALLDATASIZE PUSH1 0x4 PUSH2 0x4EB3 JUMP JUMPDEST PUSH1 0x11 PUSH1 0x20 MSTORE PUSH1 0x0 SWAP1 DUP2 MSTORE PUSH1 0x40 SWAP1 KECCAK256 SLOAD DUP2 JUMP JUMPDEST PUSH2 0x2BD PUSH2 0x47D CALLDATASIZE PUSH1 0x4 PUSH2 0x4AE7 JUMP JUMPDEST PUSH2 0x189F JUMP JUMPDEST PUSH1 0x12 SLOAD PUSH2 0x285 SWAP1 PUSH1 0xFF AND DUP2 JUMP JUMPDEST PUSH1 0x10 SLOAD PUSH2 0x4A2 SWAP1 PUSH1 0x1 PUSH1 0x1 PUSH1 0xA0 SHL SUB AND DUP2 JUMP JUMPDEST PUSH1 0x40 MLOAD PUSH1 0x1 PUSH1 0x1 PUSH1 0xA0 SHL SUB SWAP1 SWAP2 AND DUP2 MSTORE PUSH1 0x20 ADD PUSH2 0x269 JUMP JUMPDEST PUSH2 0x4CD PUSH2 0x4C8 CALLDATASIZE PUSH1 0x4 PUSH2 0x4D2C JUMP JUMPDEST PUSH2 0x1936 JUMP JUMPDEST PUSH1 0x40 MLOAD PUSH2 0x269 SWAP2 SWAP1 PUSH2 0x5413 JUMP JUMPDEST PUSH2 0x2BD PUSH2 0x1A5F JUMP JUMPDEST PUSH2 0x25F PUSH1 0x4 SLOAD DUP2 JUMP JUMPDEST PUSH2 0x2BD PUSH2 0x4F9 CALLDATASIZE PUSH1 0x4 PUSH2 0x4E6B JUMP JUMPDEST PUSH2 0x1A95 JUMP JUMPDEST PUSH1 0x8 SLOAD PUSH1 0x1 PUSH1 0x1 PUSH1 0xA0 SHL SUB AND PUSH2 0x4A2 JUMP JUMPDEST PUSH2 0x2BD PUSH2 0x51D CALLDATASIZE PUSH1 0x4 PUSH2 0x4ECC JUMP JUMPDEST PUSH2 0x1AD6 JUMP JUMPDEST PUSH2 0x2BD PUSH2 0x530 CALLDATASIZE PUSH1 0x4 PUSH2 0x4EB3 JUMP JUMPDEST PUSH2 0x1E64 JUMP JUMPDEST PUSH2 0x29D PUSH2 0x20D0 JUMP JUMPDEST PUSH2 0x2BD PUSH2 0x54B CALLDATASIZE PUSH1 0x4 PUSH2 0x4FA4 JUMP JUMPDEST PUSH2 0x20DD JUMP JUMPDEST PUSH2 0x2BD PUSH2 0x55E CALLDATASIZE PUSH1 0x4 PUSH2 0x4A99 JUMP JUMPDEST PUSH2 0x266B JUMP JUMPDEST PUSH2 0x576 PUSH2 0x571 CALLDATASIZE PUSH1 0x4 PUSH2 0x4EB3 JUMP JUMPDEST PUSH2 0x278B JUMP JUMPDEST PUSH1 0x40 MLOAD PUSH2 0x269 SWAP8 SWAP7 SWAP6 SWAP5 SWAP4 SWAP3 SWAP2 SWAP1 PUSH2 0x5635 JUMP JUMPDEST PUSH2 0x2BD PUSH2 0x597 CALLDATASIZE PUSH1 0x4 PUSH2 0x4BF4 JUMP JUMPDEST PUSH2 0x29AE JUMP JUMPDEST PUSH2 0x5AF PUSH2 0x5AA CALLDATASIZE PUSH1 0x4 PUSH2 0x4EB3 JUMP JUMPDEST PUSH2 0x2A85 JUMP JUMPDEST PUSH1 0x40 DUP1 MLOAD SWAP11 DUP12 MSTORE PUSH1 0xFF SWAP10 DUP11 AND PUSH1 0x20 DUP13 ADD MSTORE SWAP8 DUP10 AND SWAP8 DUP11 ADD SWAP8 SWAP1 SWAP8 MSTORE SWAP5 DUP8 AND PUSH1 0x60 DUP10 ADD MSTORE SWAP3 DUP7 AND PUSH1 0x80 DUP9 ADD MSTORE SWAP1 DUP6 AND PUSH1 0xA0 DUP8 ADD MSTORE DUP5 AND PUSH1 0xC0 DUP7 ADD MSTORE SWAP1 SWAP3 AND PUSH1 0xE0 DUP5 ADD MSTORE PUSH2 0x100 DUP4 ADD SWAP2 SWAP1 SWAP2 MSTORE ISZERO ISZERO PUSH2 0x120 DUP3 ADD MSTORE PUSH2 0x140 ADD PUSH2 0x269 JUMP JUMPDEST PUSH2 0x657 PUSH2 0x619 CALLDATASIZE PUSH1 0x4 PUSH2 0x4EB3 JUMP JUMPDEST PUSH1 0x2 PUSH1 0x20 MSTORE PUSH1 0x0 SWAP1 DUP2 MSTORE PUSH1 0x40 SWAP1 KECCAK256 DUP1 SLOAD PUSH1 0x1 DUP3 ADD SLOAD PUSH1 0x3 DUP4 ADD SLOAD PUSH1 0x4 DUP5 ADD SLOAD PUSH1 0x5 SWAP1 SWAP5 ADD SLOAD SWAP3 SWAP4 PUSH1 0xFF DUP1 DUP5 AND SWAP5 PUSH2 0x100 SWAP1 SWAP5 DIV DUP2 AND SWAP4 SWAP3 DUP2 AND SWAP3 AND DUP7 JUMP JUMPDEST PUSH1 0x40 DUP1 MLOAD SWAP7 DUP8 MSTORE PUSH1 0xFF SWAP6 DUP7 AND PUSH1 0x20 DUP9 ADD MSTORE SWAP4 DUP6 AND SWAP4 DUP7 ADD SWAP4 SWAP1 SWAP4 MSTORE SWAP3 AND PUSH1 0x60 DUP5 ADD MSTORE PUSH1 0x80 DUP4 ADD SWAP2 SWAP1 SWAP2 MSTORE ISZERO ISZERO PUSH1 0xA0 DUP3 ADD MSTORE PUSH1 0xC0 ADD PUSH2 0x269 JUMP JUMPDEST PUSH2 0x6A3 PUSH2 0x69E CALLDATASIZE PUSH1 0x4 PUSH2 0x4EB3 JUMP JUMPDEST PUSH2 0x2BBB JUMP JUMPDEST PUSH1 0x40 MLOAD PUSH2 0x269 SWAP8 SWAP7 SWAP6 SWAP5 SWAP4 SWAP3 SWAP2 SWAP1 PUSH2 0x55EB JUMP JUMPDEST PUSH2 0x2BD PUSH2 0x6C4 CALLDATASIZE PUSH1 0x4 PUSH2 0x4E16 JUMP JUMPDEST PUSH2 0x2DB6 JUMP JUMPDEST PUSH2 0x25F PUSH2 0x6D7 CALLDATASIZE PUSH1 0x4 PUSH2 0x4EB3 JUMP JUMPDEST PUSH1 0x0 SWAP1 DUP2 MSTORE PUSH1 0x11 PUSH1 0x20 MSTORE PUSH1 0x40 SWAP1 KECCAK256 SLOAD SWAP1 JUMP JUMPDEST PUSH2 0x25F PUSH1 0x5 SLOAD DUP2 JUMP JUMPDEST PUSH2 0x25F PUSH1 0x6 SLOAD DUP2 JUMP JUMPDEST PUSH2 0x5AF PUSH2 0x709 CALLDATASIZE PUSH1 0x4 PUSH2 0x4EB3 JUMP JUMPDEST PUSH1 0x1 PUSH1 0x20 DUP2 SWAP1 MSTORE PUSH1 0x0 SWAP2 DUP3 MSTORE PUSH1 0x40 SWAP1 SWAP2 KECCAK256 DUP1 SLOAD SWAP2 DUP2 ADD SLOAD PUSH1 0x2 DUP3 ADD SLOAD PUSH1 0x3 SWAP1 SWAP3 ADD SLOAD PUSH1 0xFF DUP1 DUP4 AND SWAP4 PUSH2 0x100 DUP5 DIV DUP3 AND SWAP4 PUSH3 0x10000 DUP2 DIV DUP4 AND SWAP4 PUSH4 0x1000000 DUP3 DIV DUP5 AND SWAP4 PUSH5 0x100000000 DUP4 DIV DUP2 AND SWAP4 PUSH1 0x1 PUSH1 0x28 SHL DUP5 DIV DUP3 AND SWAP4 PUSH1 0x1 PUSH1 0x30 SHL SWAP1 DIV DUP3 AND SWAP3 SWAP1 SWAP2 AND DUP11 JUMP JUMPDEST PUSH2 0x2BD PUSH2 0x77F CALLDATASIZE PUSH1 0x4 PUSH2 0x5092 JUMP JUMPDEST PUSH2 0x2E42 JUMP JUMPDEST PUSH2 0x2BD PUSH2 0x792 CALLDATASIZE PUSH1 0x4 PUSH2 0x4EB3 JUMP JUMPDEST PUSH2 0x33FD JUMP JUMPDEST PUSH2 0x25F PUSH1 0x7 SLOAD DUP2 JUMP JUMPDEST PUSH2 0x2BD PUSH2 0x7AE CALLDATASIZE PUSH1 0x4 PUSH2 0x4EB3 JUMP JUMPDEST PUSH2 0x3628 JUMP JUMPDEST PUSH2 0x285 PUSH2 0x7C1 CALLDATASIZE PUSH1 0x4 PUSH2 0x4AB4 JUMP JUMPDEST PUSH1 0x1 PUSH1 0x1 PUSH1 0xA0 SHL SUB SWAP2 DUP3 AND PUSH1 0x0 SWAP1 DUP2 MSTORE PUSH1 0xB PUSH1 0x20 SWAP1 DUP2 MSTORE PUSH1 0x40 DUP1 DUP4 KECCAK256 SWAP4 SWAP1 SWAP5 AND DUP3 MSTORE SWAP2 SWAP1 SWAP2 MSTORE KECCAK256 SLOAD PUSH1 0xFF AND SWAP1 JUMP JUMPDEST PUSH2 0x2BD PUSH2 0x7FD CALLDATASIZE PUSH1 0x4 PUSH2 0x4B90 JUMP JUMPDEST PUSH2 0x3986 JUMP JUMPDEST PUSH2 0x2BD PUSH2 0x810 CALLDATASIZE PUSH1 0x4 PUSH2 0x4A99 JUMP JUMPDEST PUSH2 0x3A0D JUMP JUMPDEST PUSH2 0x2BD PUSH2 0x823 CALLDATASIZE PUSH1 0x4 PUSH2 0x4F32 JUMP JUMPDEST PUSH2 0x3AA8 JUMP JUMPDEST PUSH1 0x0 PUSH1 0x1 PUSH1 0x1 PUSH1 0xA0 SHL SUB DUP4 AND PUSH2 0x899 JUMPI PUSH1 0x40 MLOAD PUSH3 0x461BCD PUSH1 0xE5 SHL DUP2 MSTORE PUSH1 0x20 PUSH1 0x4 DUP3 ADD MSTORE PUSH1 0x2B PUSH1 0x24 DUP3 ADD MSTORE PUSH32 0x455243313135353A2062616C616E636520717565727920666F7220746865207A PUSH1 0x44 DUP3 ADD MSTORE PUSH11 0x65726F2061646472657373 PUSH1 0xA8 SHL PUSH1 0x64 DUP3 ADD MSTORE PUSH1 0x84 ADD JUMPDEST PUSH1 0x40 MLOAD DUP1 SWAP2 SUB SWAP1 REVERT JUMPDEST POP PUSH1 0x0 SWAP1 DUP2 MSTORE PUSH1 0xA PUSH1 0x20 SWAP1 DUP2 MSTORE PUSH1 0x40 DUP1 DUP4 KECCAK256 PUSH1 0x1 PUSH1 0x1 PUSH1 0xA0 SHL SUB SWAP5 SWAP1 SWAP5 AND DUP4 MSTORE SWAP3 SWAP1 MSTORE KECCAK256 SLOAD SWAP1 JUMP JUMPDEST PUSH1 0x0 PUSH1 0x1 PUSH1 0x1 PUSH1 0xE0 SHL SUB NOT DUP3 AND PUSH4 0x6CDB3D13 PUSH1 0xE1 SHL EQ DUP1 PUSH2 0x8F2 JUMPI POP PUSH1 0x1 PUSH1 0x1 PUSH1 0xE0 SHL SUB NOT DUP3 AND PUSH4 0x3A24D07 PUSH1 0xE2 SHL EQ JUMPDEST DUP1 PUSH2 0x90D JUMPI POP PUSH4 0x1FFC9A7 PUSH1 0xE0 SHL PUSH1 0x1 PUSH1 0x1 PUSH1 0xE0 SHL SUB NOT DUP4 AND EQ JUMPDEST SWAP3 SWAP2 POP POP JUMP JUMPDEST PUSH1 0xD DUP1 SLOAD PUSH2 0x920 SWAP1 PUSH2 0x576A JUMP JUMPDEST DUP1 PUSH1 0x1F ADD PUSH1 0x20 DUP1 SWAP2 DIV MUL PUSH1 0x20 ADD PUSH1 0x40 MLOAD SWAP1 DUP2 ADD PUSH1 0x40 MSTORE DUP1 SWAP3 SWAP2 SWAP1 DUP2 DUP2 MSTORE PUSH1 0x20 ADD DUP3 DUP1 SLOAD PUSH2 0x94C SWAP1 PUSH2 0x576A JUMP JUMPDEST DUP1 ISZERO PUSH2 0x999 JUMPI DUP1 PUSH1 0x1F LT PUSH2 0x96E JUMPI PUSH2 0x100 DUP1 DUP4 SLOAD DIV MUL DUP4 MSTORE SWAP2 PUSH1 0x20 ADD SWAP2 PUSH2 0x999 JUMP JUMPDEST DUP3 ADD SWAP2 SWAP1 PUSH1 0x0 MSTORE PUSH1 0x20 PUSH1 0x0 KECCAK256 SWAP1 JUMPDEST DUP2 SLOAD DUP2 MSTORE SWAP1 PUSH1 0x1 ADD SWAP1 PUSH1 0x20 ADD DUP1 DUP4 GT PUSH2 0x97C JUMPI DUP3 SWAP1 SUB PUSH1 0x1F AND DUP3 ADD SWAP2 JUMPDEST POP POP POP POP POP DUP2 JUMP JUMPDEST PUSH1 0x8 SLOAD PUSH1 0x1 PUSH1 0x1 PUSH1 0xA0 SHL SUB AND CALLER EQ PUSH2 0x9CB JUMPI PUSH1 0x40 MLOAD PUSH3 0x461BCD PUSH1 0xE5 SHL DUP2 MSTORE PUSH1 0x4 ADD PUSH2 0x890 SWAP1 PUSH2 0x5535 JUMP JUMPDEST PUSH1 0x0 JUMPDEST DUP3 MLOAD DUP2 LT ISZERO PUSH2 0xABC JUMPI PUSH1 0x0 PUSH1 0x1 PUSH1 0x1 PUSH1 0xA0 SHL SUB AND DUP4 DUP3 DUP2 MLOAD DUP2 LT PUSH2 0x9F4 JUMPI PUSH2 0x9F4 PUSH2 0x582C JUMP JUMPDEST PUSH1 0x20 MUL PUSH1 0x20 ADD ADD MLOAD PUSH1 0x1 PUSH1 0x1 PUSH1 0xA0 SHL SUB AND EQ ISZERO DUP1 ISZERO PUSH2 0xA49 JUMPI POP PUSH1 0x8 SLOAD PUSH1 0x1 PUSH1 0x1 PUSH1 0xA0 SHL SUB AND PUSH1 0x1 PUSH1 0x1 PUSH1 0xA0 SHL SUB AND DUP4 DUP3 DUP2 MLOAD DUP2 LT PUSH2 0xA35 JUMPI PUSH2 0xA35 PUSH2 0x582C JUMP JUMPDEST PUSH1 0x20 MUL PUSH1 0x20 ADD ADD MLOAD PUSH1 0x1 PUSH1 0x1 PUSH1 0xA0 SHL SUB AND EQ ISZERO JUMPDEST PUSH2 0xAAA JUMPI PUSH1 0x40 MLOAD PUSH3 0x461BCD PUSH1 0xE5 SHL DUP2 MSTORE PUSH1 0x20 PUSH1 0x4 DUP3 ADD MSTORE PUSH1 0x2C PUSH1 0x24 DUP3 ADD MSTORE PUSH32 0x556D626C436F72652361737369676E4261746368507265736574733A20494E56 PUSH1 0x44 DUP3 ADD MSTORE PUSH12 0x414C49445F41444452455353 PUSH1 0xA0 SHL PUSH1 0x64 DUP3 ADD MSTORE PUSH1 0x84 ADD PUSH2 0x890 JUMP JUMPDEST DUP1 PUSH2 0xAB4 DUP2 PUSH2 0x57D1 JUMP JUMPDEST SWAP2 POP POP PUSH2 0x9CE JUMP JUMPDEST POP PUSH1 0x0 JUMPDEST DUP2 MLOAD DUP2 LT ISZERO PUSH2 0xBAE JUMPI PUSH1 0x0 JUMPDEST DUP3 DUP3 DUP2 MLOAD DUP2 LT PUSH2 0xADE JUMPI PUSH2 0xADE PUSH2 0x582C JUMP JUMPDEST PUSH1 0x20 MUL PUSH1 0x20 ADD ADD MLOAD MLOAD DUP2 LT ISZERO PUSH2 0xB9B JUMPI PUSH1 0x4 SLOAD DUP4 DUP4 DUP2 MLOAD DUP2 LT PUSH2 0xB03 JUMPI PUSH2 0xB03 PUSH2 0x582C JUMP JUMPDEST PUSH1 0x20 MUL PUSH1 0x20 ADD ADD MLOAD DUP3 DUP2 MLOAD DUP2 LT PUSH2 0xB1C JUMPI PUSH2 0xB1C PUSH2 0x582C JUMP JUMPDEST PUSH1 0x20 MUL PUSH1 0x20 ADD ADD MLOAD GT ISZERO PUSH2 0xB89 JUMPI PUSH1 0x40 MLOAD PUSH3 0x461BCD PUSH1 0xE5 SHL DUP2 MSTORE PUSH1 0x20 PUSH1 0x4 DUP3 ADD MSTORE PUSH1 0x2E PUSH1 0x24 DUP3 ADD MSTORE PUSH32 0x556D626C436F72652361737369676E4261746368507265736574733A204E4F4E PUSH1 0x44 DUP3 ADD MSTORE PUSH14 0x22AC24A9AA22A72A2FAA27A5A2A7 PUSH1 0x91 SHL PUSH1 0x64 DUP3 ADD MSTORE PUSH1 0x84 ADD PUSH2 0x890 JUMP JUMPDEST DUP1 PUSH2 0xB93 DUP2 PUSH2 0x57D1 JUMP JUMPDEST SWAP2 POP POP PUSH2 0xACC JUMP JUMPDEST POP DUP1 PUSH2 0xBA6 DUP2 PUSH2 0x57D1 JUMP JUMPDEST SWAP2 POP POP PUSH2 0xAC0 JUMP JUMPDEST POP PUSH1 0x0 JUMPDEST DUP2 MLOAD DUP2 LT ISZERO PUSH2 0xFB5 JUMPI PUSH1 0x0 DUP3 DUP3 DUP2 MLOAD DUP2 LT PUSH2 0xBCF JUMPI PUSH2 0xBCF PUSH2 0x582C JUMP JUMPDEST PUSH1 0x20 MUL PUSH1 0x20 ADD ADD MLOAD MLOAD PUSH1 0x1 PUSH1 0x1 PUSH1 0x40 SHL SUB DUP2 GT ISZERO PUSH2 0xBEF JUMPI PUSH2 0xBEF PUSH2 0x5842 JUMP JUMPDEST PUSH1 0x40 MLOAD SWAP1 DUP1 DUP3 MSTORE DUP1 PUSH1 0x20 MUL PUSH1 0x20 ADD DUP3 ADD PUSH1 0x40 MSTORE DUP1 ISZERO PUSH2 0xC18 JUMPI DUP2 PUSH1 0x20 ADD PUSH1 0x20 DUP3 MUL DUP1 CALLDATASIZE DUP4 CALLDATACOPY ADD SWAP1 POP JUMPDEST POP SWAP1 POP PUSH1 0x0 DUP4 DUP4 DUP2 MLOAD DUP2 LT PUSH2 0xC2F JUMPI PUSH2 0xC2F PUSH2 0x582C JUMP JUMPDEST PUSH1 0x20 MUL PUSH1 0x20 ADD ADD MLOAD MLOAD PUSH1 0x1 PUSH1 0x1 PUSH1 0x40 SHL SUB DUP2 GT ISZERO PUSH2 0xC4F JUMPI PUSH2 0xC4F PUSH2 0x5842 JUMP JUMPDEST PUSH1 0x40 MLOAD SWAP1 DUP1 DUP3 MSTORE DUP1 PUSH1 0x20 MUL PUSH1 0x20 ADD DUP3 ADD PUSH1 0x40 MSTORE DUP1 ISZERO PUSH2 0xC78 JUMPI DUP2 PUSH1 0x20 ADD PUSH1 0x20 DUP3 MUL DUP1 CALLDATASIZE DUP4 CALLDATACOPY ADD SWAP1 POP JUMPDEST POP SWAP1 POP PUSH1 0x0 JUMPDEST DUP5 DUP5 DUP2 MLOAD DUP2 LT PUSH2 0xC90 JUMPI PUSH2 0xC90 PUSH2 0x582C JUMP JUMPDEST PUSH1 0x20 MUL PUSH1 0x20 ADD ADD MLOAD MLOAD DUP2 LT ISZERO PUSH2 0xF59 JUMPI PUSH1 0x0 DUP1 PUSH1 0x0 DUP8 DUP8 DUP2 MLOAD DUP2 LT PUSH2 0xCB7 JUMPI PUSH2 0xCB7 PUSH2 0x582C JUMP JUMPDEST PUSH1 0x20 MUL PUSH1 0x20 ADD ADD MLOAD DUP5 DUP2 MLOAD DUP2 LT PUSH2 0xCD0 JUMPI PUSH2 0xCD0 PUSH2 0x582C JUMP JUMPDEST PUSH1 0x20 SWAP1 DUP2 MUL SWAP2 SWAP1 SWAP2 ADD DUP2 ADD MLOAD DUP3 MSTORE DUP2 DUP2 ADD SWAP3 SWAP1 SWAP3 MSTORE PUSH1 0x40 SWAP1 DUP2 ADD PUSH1 0x0 KECCAK256 DUP2 MLOAD PUSH2 0x160 DUP2 ADD DUP4 MSTORE DUP2 SLOAD DUP2 MSTORE PUSH1 0x1 DUP3 ADD SLOAD SWAP4 DUP2 ADD DUP5 SWAP1 MSTORE PUSH1 0x2 DUP3 ADD SLOAD PUSH1 0x1 PUSH1 0x1 PUSH1 0xA0 SHL SUB DUP2 AND SWAP4 DUP3 ADD SWAP4 SWAP1 SWAP4 MSTORE PUSH1 0xFF PUSH1 0x1 PUSH1 0xA0 SHL DUP5 DIV DUP2 AND PUSH1 0x60 DUP4 ADD MSTORE PUSH1 0x1 PUSH1 0xA8 SHL DUP5 DIV DUP2 AND PUSH1 0x80 DUP4 ADD MSTORE PUSH1 0x1 PUSH1 0xB0 SHL DUP5 DIV DUP2 AND PUSH1 0xA0 DUP4 ADD MSTORE PUSH1 0x1 PUSH1 0xB8 SHL DUP5 DIV DUP2 AND PUSH1 0xC0 DUP4 ADD MSTORE PUSH1 0x1 PUSH1 0xC0 SHL DUP5 DIV DUP2 AND PUSH1 0xE0 DUP4 ADD MSTORE PUSH1 0x1 PUSH1 0xC8 SHL SWAP1 SWAP4 DIV DUP4 AND PUSH2 0x100 DUP3 ADD MSTORE PUSH1 0x3 DUP3 ADD SLOAD PUSH2 0x120 DUP3 ADD MSTORE PUSH1 0x4 SWAP1 SWAP2 ADD SLOAD SWAP1 SWAP2 AND ISZERO ISZERO PUSH2 0x140 DUP3 ADD MSTORE DUP6 MLOAD SWAP1 SWAP3 POP DUP6 SWAP1 DUP5 SWAP1 DUP2 LT PUSH2 0xDA6 JUMPI PUSH2 0xDA6 PUSH2 0x582C JUMP JUMPDEST PUSH1 0x20 MUL PUSH1 0x20 ADD ADD DUP2 DUP2 MSTORE POP POP PUSH1 0x1 DUP4 DUP4 DUP2 MLOAD DUP2 LT PUSH2 0xDC6 JUMPI PUSH2 0xDC6 PUSH2 0x582C JUMP JUMPDEST PUSH1 0x20 MUL PUSH1 0x20 ADD ADD DUP2 DUP2 MSTORE POP POP DUP7 DUP6 DUP2 MLOAD DUP2 LT PUSH2 0xDE4 JUMPI PUSH2 0xDE4 PUSH2 0x582C JUMP JUMPDEST PUSH1 0x20 SWAP1 DUP2 MUL SWAP2 SWAP1 SWAP2 ADD ADD MLOAD PUSH1 0x1 PUSH1 0x1 PUSH1 0xA0 SHL SUB AND PUSH1 0x40 DUP3 ADD MSTORE PUSH1 0x2 PUSH1 0xE0 DUP3 ADD MSTORE DUP6 MLOAD DUP2 SWAP1 PUSH1 0x0 SWAP1 DUP2 SWAP1 DUP10 SWAP1 DUP10 SWAP1 DUP2 LT PUSH2 0xE1F JUMPI PUSH2 0xE1F PUSH2 0x582C JUMP JUMPDEST PUSH1 0x20 MUL PUSH1 0x20 ADD ADD MLOAD DUP6 DUP2 MLOAD DUP2 LT PUSH2 0xE38 JUMPI PUSH2 0xE38 PUSH2 0x582C JUMP JUMPDEST PUSH1 0x20 SWAP1 DUP2 MUL SWAP2 SWAP1 SWAP2 ADD DUP2 ADD MLOAD DUP3 MSTORE DUP2 DUP2 ADD SWAP3 SWAP1 SWAP3 MSTORE PUSH1 0x40 SWAP1 DUP2 ADD PUSH1 0x0 KECCAK256 DUP4 MLOAD DUP2 SSTORE SWAP2 DUP4 ADD MLOAD PUSH1 0x1 DUP4 ADD SSTORE DUP3 ADD MLOAD PUSH1 0x2 DUP3 ADD DUP1 SLOAD PUSH1 0x60 DUP6 ADD MLOAD PUSH1 0x80 DUP7 ADD MLOAD PUSH1 0xA0 DUP8 ADD MLOAD PUSH1 0xC0 DUP9 ADD MLOAD PUSH1 0xE0 DUP10 ADD MLOAD PUSH2 0x100 DUP11 ADD MLOAD PUSH1 0x1 PUSH1 0x1 PUSH1 0xA0 SHL SUB SWAP1 SWAP9 AND PUSH1 0x1 PUSH1 0x1 PUSH1 0xA8 SHL SUB NOT SWAP1 SWAP7 AND SWAP6 SWAP1 SWAP6 OR PUSH1 0x1 PUSH1 0xA0 SHL PUSH1 0xFF SWAP6 DUP7 AND MUL OR PUSH2 0xFFFF PUSH1 0xA8 SHL NOT AND PUSH1 0x1 PUSH1 0xA8 SHL SWAP4 DUP6 AND SWAP4 SWAP1 SWAP4 MUL PUSH1 0xFF PUSH1 0xB0 SHL NOT AND SWAP3 SWAP1 SWAP3 OR PUSH1 0x1 PUSH1 0xB0 SHL SWAP2 DUP5 AND SWAP2 SWAP1 SWAP2 MUL OR PUSH2 0xFFFF PUSH1 0xB8 SHL NOT AND PUSH1 0x1 PUSH1 0xB8 SHL SWAP2 DUP4 AND SWAP2 SWAP1 SWAP2 MUL PUSH1 0xFF PUSH1 0xC0 SHL NOT AND OR PUSH1 0x1 PUSH1 0xC0 SHL SWAP3 DUP3 AND SWAP3 SWAP1 SWAP3 MUL SWAP2 SWAP1 SWAP2 OR PUSH1 0xFF PUSH1 0xC8 SHL NOT AND PUSH1 0x1 PUSH1 0xC8 SHL SWAP2 SWAP1 SWAP4 AND MUL SWAP2 SWAP1 SWAP2 OR SWAP1 SSTORE PUSH2 0x120 DUP3 ADD MLOAD PUSH1 0x3 DUP3 ADD SSTORE PUSH2 0x140 SWAP1 SWAP2 ADD MLOAD PUSH1 0x4 SWAP1 SWAP2 ADD DUP1 SLOAD PUSH1 0xFF NOT AND SWAP2 ISZERO ISZERO SWAP2 SWAP1 SWAP2 OR SWAP1 SSTORE POP DUP1 PUSH2 0xF51 DUP2 PUSH2 0x57D1 JUMP JUMPDEST SWAP2 POP POP PUSH2 0xC7E JUMP JUMPDEST POP PUSH2 0xFA0 PUSH2 0xF6F PUSH1 0x8 SLOAD PUSH1 0x1 PUSH1 0x1 PUSH1 0xA0 SHL SUB AND SWAP1 JUMP JUMPDEST DUP7 DUP6 DUP2 MLOAD DUP2 LT PUSH2 0xF81 JUMPI PUSH2 0xF81 PUSH2 0x582C JUMP JUMPDEST PUSH1 0x20 MUL PUSH1 0x20 ADD ADD MLOAD DUP5 DUP5 PUSH1 0x40 MLOAD DUP1 PUSH1 0x20 ADD PUSH1 0x40 MSTORE DUP1 PUSH1 0x0 DUP2 MSTORE POP PUSH2 0x189F JUMP JUMPDEST POP POP DUP1 DUP1 PUSH2 0xFAD SWAP1 PUSH2 0x57D1 JUMP JUMPDEST SWAP2 POP POP PUSH2 0xBB2 JUMP JUMPDEST POP PUSH32 0x98CEC7C1176442A0BD677EC951E70D0A40EF4AC6F0D252118FEFDD1A99338EFA CALLER DUP4 DUP4 PUSH1 0x40 MLOAD PUSH2 0xFE9 SWAP4 SWAP3 SWAP2 SWAP1 PUSH2 0x5332 JUMP JUMPDEST PUSH1 0x40 MLOAD DUP1 SWAP2 SUB SWAP1 LOG1 POP POP JUMP JUMPDEST PUSH1 0x60 PUSH1 0x4 SLOAD DUP3 GT ISZERO PUSH2 0x1049 JUMPI PUSH1 0x40 MLOAD PUSH3 0x461BCD PUSH1 0xE5 SHL DUP2 MSTORE PUSH1 0x20 PUSH1 0x4 DUP3 ADD MSTORE PUSH1 0x1F PUSH1 0x24 DUP3 ADD MSTORE PUSH32 0x556D626C436F7265237572693A204E4F4E4558495354454E545F544F4B454E00 PUSH1 0x44 DUP3 ADD MSTORE PUSH1 0x64 ADD PUSH2 0x890 JUMP JUMPDEST PUSH1 0x0 DUP3 DUP2 MSTORE PUSH1 0x20 DUP2 DUP2 MSTORE PUSH1 0x40 DUP1 DUP4 KECCAK256 DUP2 MLOAD PUSH2 0x160 DUP2 ADD DUP4 MSTORE DUP2 SLOAD DUP2 MSTORE PUSH1 0x1 DUP3 ADD SLOAD DUP2 DUP6 ADD DUP2 SWAP1 MSTORE PUSH1 0x2 DUP4 ADD SLOAD PUSH1 0x1 PUSH1 0x1 PUSH1 0xA0 SHL SUB DUP2 AND DUP4 DUP7 ADD MSTORE PUSH1 0xFF PUSH1 0x1 PUSH1 0xA0 SHL DUP3 DIV DUP2 AND PUSH1 0x60 DUP6 ADD MSTORE PUSH1 0x1 PUSH1 0xA8 SHL DUP3 DIV DUP2 AND PUSH1 0x80 DUP6 ADD MSTORE PUSH1 0x1 PUSH1 0xB0 SHL DUP3 DIV DUP2 AND PUSH1 0xA0 DUP6 ADD MSTORE PUSH1 0x1 PUSH1 0xB8 SHL DUP3 DIV DUP2 AND PUSH1 0xC0 DUP6 ADD MSTORE PUSH1 0x1 PUSH1 0xC0 SHL DUP3 DIV DUP2 AND PUSH1 0xE0 DUP6 ADD MSTORE PUSH1 0x1 PUSH1 0xC8 SHL SWAP1 SWAP2 DIV DUP2 AND PUSH2 0x100 DUP5 ADD MSTORE PUSH1 0x3 DUP5 ADD SLOAD PUSH2 0x120 DUP5 ADD MSTORE PUSH1 0x4 SWAP1 SWAP4 ADD SLOAD SWAP1 SWAP3 AND ISZERO ISZERO PUSH2 0x140 DUP3 ADD MSTORE SWAP1 DUP5 MSTORE PUSH1 0x11 SWAP1 SWAP3 MSTORE SWAP1 SWAP2 KECCAK256 SLOAD PUSH2 0x114F JUMPI PUSH1 0x40 MLOAD PUSH3 0x461BCD PUSH1 0xE5 SHL DUP2 MSTORE PUSH1 0x20 PUSH1 0x4 DUP3 ADD MSTORE PUSH1 0x1F PUSH1 0x24 DUP3 ADD MSTORE PUSH32 0x556D626C436F7265237572693A204E4F4E4558495354454E545F544F4B454E00 PUSH1 0x44 DUP3 ADD MSTORE PUSH1 0x64 ADD PUSH2 0x890 JUMP JUMPDEST PUSH1 0xF PUSH2 0x115A DUP5 PUSH2 0x3F8C JUMP JUMPDEST PUSH1 0x40 MLOAD PUSH1 0x20 ADD PUSH2 0x116B SWAP3 SWAP2 SWAP1 PUSH2 0x51E8 JUMP JUMPDEST PUSH1 0x40 MLOAD PUSH1 0x20 DUP2 DUP4 SUB SUB DUP2 MSTORE SWAP1 PUSH1 0x40 MSTORE SWAP2 POP POP SWAP2 SWAP1 POP JUMP JUMPDEST PUSH1 0x10 SLOAD PUSH1 0x1 PUSH1 0x1 PUSH1 0xA0 SHL SUB AND PUSH2 0x11F2 JUMPI PUSH1 0x40 MLOAD PUSH3 0x461BCD PUSH1 0xE5 SHL DUP2 MSTORE PUSH1 0x20 PUSH1 0x4 DUP3 ADD MSTORE PUSH1 0x2F PUSH1 0x24 DUP3 ADD MSTORE PUSH32 0x556D626C436F7265236D61726B65744F6E6C793A204D41524B45545F434F4E54 PUSH1 0x44 DUP3 ADD MSTORE PUSH15 0x149050D517D393D511115192539151 PUSH1 0x8A SHL PUSH1 0x64 DUP3 ADD MSTORE PUSH1 0x84 ADD PUSH2 0x890 JUMP JUMPDEST PUSH1 0x10 SLOAD PUSH1 0x1 PUSH1 0x1 PUSH1 0xA0 SHL SUB AND CALLER EQ DUP1 PUSH2 0x1215 JUMPI POP PUSH1 0x8 SLOAD PUSH1 0x1 PUSH1 0x1 PUSH1 0xA0 SHL SUB AND CALLER EQ JUMPDEST PUSH2 0x126D JUMPI PUSH1 0x40 MLOAD PUSH3 0x461BCD PUSH1 0xE5 SHL DUP2 MSTORE PUSH1 0x20 PUSH1 0x4 DUP3 ADD MSTORE PUSH1 0x24 DUP1 DUP3 ADD MSTORE PUSH32 0x556D626C436F7265236D61726B65744F6E6C793A20494E56414C49445F414444 PUSH1 0x44 DUP3 ADD MSTORE PUSH4 0x52455353 PUSH1 0xE0 SHL PUSH1 0x64 DUP3 ADD MSTORE PUSH1 0x84 ADD PUSH2 0x890 JUMP JUMPDEST PUSH1 0x10 SLOAD PUSH1 0x1 PUSH1 0x1 PUSH1 0xA0 SHL SUB AND CALLER EQ DUP1 PUSH2 0x1290 JUMPI POP PUSH1 0x8 SLOAD PUSH1 0x1 PUSH1 0x1 PUSH1 0xA0 SHL SUB AND CALLER EQ JUMPDEST PUSH2 0x12AC JUMPI PUSH1 0x40 MLOAD PUSH3 0x461BCD PUSH1 0xE5 SHL DUP2 MSTORE PUSH1 0x4 ADD PUSH2 0x890 SWAP1 PUSH2 0x556A JUMP JUMPDEST PUSH1 0x0 JUMPDEST DUP4 MLOAD DUP2 LT ISZERO PUSH2 0x1316 JUMPI PUSH1 0x0 PUSH1 0x1 PUSH1 0x1 PUSH1 0xA0 SHL SUB AND DUP5 DUP3 DUP2 MLOAD DUP2 LT PUSH2 0x12D5 JUMPI PUSH2 0x12D5 PUSH2 0x582C JUMP JUMPDEST PUSH1 0x20 MUL PUSH1 0x20 ADD ADD MLOAD PUSH1 0x1 PUSH1 0x1 PUSH1 0xA0 SHL SUB AND EQ ISZERO PUSH2 0x1304 JUMPI PUSH1 0x40 MLOAD PUSH3 0x461BCD PUSH1 0xE5 SHL DUP2 MSTORE PUSH1 0x4 ADD PUSH2 0x890 SWAP1 PUSH2 0x556A JUMP JUMPDEST DUP1 PUSH2 0x130E DUP2 PUSH2 0x57D1 JUMP JUMPDEST SWAP2 POP POP PUSH2 0x12AF JUMP JUMPDEST POP PUSH1 0x0 JUMPDEST DUP3 MLOAD DUP2 LT ISZERO PUSH2 0x13B6 JUMPI PUSH1 0x5 SLOAD DUP4 DUP3 DUP2 MLOAD DUP2 LT PUSH2 0x1338 JUMPI PUSH2 0x1338 PUSH2 0x582C JUMP JUMPDEST PUSH1 0x20 MUL PUSH1 0x20 ADD ADD MLOAD GT ISZERO PUSH2 0x13A4 JUMPI PUSH1 0x40 MLOAD PUSH3 0x461BCD PUSH1 0xE5 SHL DUP2 MSTORE PUSH1 0x20 PUSH1 0x4 DUP3 ADD MSTORE PUSH1 0x2D PUSH1 0x24 DUP3 ADD MSTORE PUSH32 0x556D626C436F7265236D696E744261746368507265736574733A204E4F4E4558 PUSH1 0x44 DUP3 ADD MSTORE PUSH13 0x1254D511539517D4149154D155 PUSH1 0x9A SHL PUSH1 0x64 DUP3 ADD MSTORE PUSH1 0x84 ADD PUSH2 0x890 JUMP JUMPDEST DUP1 PUSH2 0x13AE DUP2 PUSH2 0x57D1 JUMP JUMPDEST SWAP2 POP POP PUSH2 0x131A JUMP JUMPDEST POP PUSH1 0x0 DUP1 JUMPDEST DUP3 MLOAD DUP2 LT ISZERO PUSH2 0x13FD JUMPI DUP3 DUP2 DUP2 MLOAD DUP2 LT PUSH2 0x13D6 JUMPI PUSH2 0x13D6 PUSH2 0x582C JUMP JUMPDEST PUSH1 0x20 MUL PUSH1 0x20 ADD ADD MLOAD DUP3 PUSH2 0x13E9 SWAP2 SWAP1 PUSH2 0x56D8 JUMP JUMPDEST SWAP2 POP DUP1 PUSH2 0x13F5 DUP2 PUSH2 0x57D1 JUMP JUMPDEST SWAP2 POP POP PUSH2 0x13BB JUMP JUMPDEST POP PUSH1 0x0 DUP5 MLOAD DUP3 PUSH2 0x140D SWAP2 SWAP1 PUSH2 0x5704 JUMP JUMPDEST PUSH1 0x1 PUSH1 0x1 PUSH1 0x40 SHL SUB DUP2 GT ISZERO PUSH2 0x1424 JUMPI PUSH2 0x1424 PUSH2 0x5842 JUMP JUMPDEST PUSH1 0x40 MLOAD SWAP1 DUP1 DUP3 MSTORE DUP1 PUSH1 0x20 MUL PUSH1 0x20 ADD DUP3 ADD PUSH1 0x40 MSTORE DUP1 ISZERO PUSH2 0x144D JUMPI DUP2 PUSH1 0x20 ADD PUSH1 0x20 DUP3 MUL DUP1 CALLDATASIZE DUP4 CALLDATACOPY ADD SWAP1 POP JUMPDEST POP SWAP1 POP PUSH1 0x0 DUP1 JUMPDEST DUP7 MLOAD DUP2 LT ISZERO PUSH2 0x1857 JUMPI PUSH1 0x0 JUMPDEST DUP7 MLOAD DUP2 LT ISZERO PUSH2 0x1844 JUMPI PUSH1 0x0 PUSH1 0x1 PUSH1 0x0 DUP10 DUP5 DUP2 MLOAD DUP2 LT PUSH2 0x1481 JUMPI PUSH2 0x1481 PUSH2 0x582C JUMP JUMPDEST PUSH1 0x20 SWAP1 DUP2 MUL SWAP2 SWAP1 SWAP2 ADD DUP2 ADD MLOAD DUP3 MSTORE DUP2 DUP2 ADD SWAP3 SWAP1 SWAP3 MSTORE PUSH1 0x40 SWAP1 DUP2 ADD PUSH1 0x0 KECCAK256 DUP2 MLOAD PUSH2 0x140 DUP2 ADD DUP4 MSTORE DUP2 SLOAD DUP2 MSTORE PUSH1 0x1 DUP3 ADD SLOAD PUSH1 0xFF DUP1 DUP3 AND SWAP6 DUP4 ADD SWAP6 SWAP1 SWAP6 MSTORE PUSH2 0x100 DUP1 DUP3 DIV DUP7 AND SWAP5 DUP4 ADD SWAP5 SWAP1 SWAP5 MSTORE PUSH3 0x10000 DUP2 DIV DUP6 AND PUSH1 0x60 DUP4 ADD MSTORE PUSH4 0x1000000 DUP2 DIV DUP6 AND PUSH1 0x80 DUP4 ADD MSTORE PUSH5 0x100000000 DUP2 DIV DUP6 AND PUSH1 0xA0 DUP4 ADD MSTORE PUSH1 0x1 PUSH1 0x28 SHL DUP2 DIV DUP6 AND PUSH1 0xC0 DUP4 ADD MSTORE PUSH1 0x1 PUSH1 0x30 SHL SWAP1 DIV DUP5 AND PUSH1 0xE0 DUP3 ADD MSTORE PUSH1 0x2 DUP3 ADD SLOAD SWAP3 DUP2 ADD SWAP3 SWAP1 SWAP3 MSTORE PUSH1 0x3 ADD SLOAD SWAP1 SWAP2 AND ISZERO ISZERO PUSH2 0x120 DUP3 ADD MSTORE DUP10 MLOAD SWAP1 SWAP2 POP PUSH2 0x1583 SWAP1 DUP11 SWAP1 DUP6 SWAP1 DUP2 LT PUSH2 0x1547 JUMPI PUSH2 0x1547 PUSH2 0x582C JUMP JUMPDEST PUSH1 0x20 MUL PUSH1 0x20 ADD ADD MLOAD DUP3 PUSH1 0x0 ADD MLOAD DUP10 DUP6 DUP2 MLOAD DUP2 LT PUSH2 0x1566 JUMPI PUSH2 0x1566 PUSH2 0x582C JUMP JUMPDEST PUSH1 0x20 MUL PUSH1 0x20 ADD ADD MLOAD PUSH1 0x40 MLOAD DUP1 PUSH1 0x20 ADD PUSH1 0x40 MSTORE DUP1 PUSH1 0x0 DUP2 MSTORE POP PUSH2 0x4091 JUMP JUMPDEST PUSH2 0x15C6 DUP8 DUP4 DUP2 MLOAD DUP2 LT PUSH2 0x1598 JUMPI PUSH2 0x1598 PUSH2 0x582C JUMP JUMPDEST PUSH1 0x20 MUL PUSH1 0x20 ADD ADD MLOAD PUSH1 0x11 PUSH1 0x0 DUP5 PUSH1 0x0 ADD MLOAD DUP2 MSTORE PUSH1 0x20 ADD SWAP1 DUP2 MSTORE PUSH1 0x20 ADD PUSH1 0x0 KECCAK256 SLOAD PUSH2 0x419D SWAP1 SWAP2 SWAP1 PUSH4 0xFFFFFFFF AND JUMP JUMPDEST DUP2 MLOAD PUSH1 0x0 SWAP1 DUP2 MSTORE PUSH1 0x11 PUSH1 0x20 MSTORE PUSH1 0x40 SWAP1 KECCAK256 SSTORE PUSH1 0x8 SLOAD PUSH1 0x2 SWAP1 PUSH1 0x1 PUSH1 0x1 PUSH1 0xA0 SHL SUB AND PUSH1 0x1 PUSH1 0x1 PUSH1 0xA0 SHL SUB AND DUP11 DUP6 DUP2 MLOAD DUP2 LT PUSH2 0x1601 JUMPI PUSH2 0x1601 PUSH2 0x582C JUMP JUMPDEST PUSH1 0x20 MUL PUSH1 0x20 ADD ADD MLOAD PUSH1 0x1 PUSH1 0x1 PUSH1 0xA0 SHL SUB AND EQ ISZERO PUSH2 0x161C JUMPI POP PUSH1 0x1 JUMPDEST PUSH1 0x0 JUMPDEST DUP9 DUP5 DUP2 MLOAD DUP2 LT PUSH2 0x1631 JUMPI PUSH2 0x1631 PUSH2 0x582C JUMP JUMPDEST PUSH1 0x20 MUL PUSH1 0x20 ADD ADD MLOAD DUP2 LT ISZERO PUSH2 0x182E JUMPI PUSH1 0x4 DUP1 SLOAD SWAP1 PUSH1 0x0 PUSH2 0x1650 DUP4 PUSH2 0x57D1 JUMP JUMPDEST SWAP2 SWAP1 POP SSTORE POP PUSH1 0x0 PUSH1 0x40 MLOAD DUP1 PUSH2 0x160 ADD PUSH1 0x40 MSTORE DUP1 PUSH1 0x4 SLOAD DUP2 MSTORE PUSH1 0x20 ADD DUP6 PUSH1 0x0 ADD MLOAD DUP2 MSTORE PUSH1 0x20 ADD DUP14 DUP9 DUP2 MLOAD DUP2 LT PUSH2 0x1687 JUMPI PUSH2 0x1687 PUSH2 0x582C JUMP JUMPDEST PUSH1 0x20 SWAP1 DUP2 MUL SWAP2 SWAP1 SWAP2 ADD DUP2 ADD MLOAD PUSH1 0x1 PUSH1 0x1 PUSH1 0xA0 SHL SUB SWAP1 DUP2 AND DUP4 MSTORE DUP8 DUP3 ADD MLOAD PUSH1 0xFF SWAP1 DUP2 AND DUP5 DUP5 ADD MSTORE PUSH1 0x60 DUP1 DUP11 ADD MLOAD DUP3 AND PUSH1 0x40 DUP1 DUP8 ADD SWAP2 SWAP1 SWAP2 MSTORE PUSH1 0x80 DUP1 DUP13 ADD MLOAD DUP5 AND DUP4 DUP9 ADD MSTORE PUSH1 0xA0 DUP1 DUP14 ADD MLOAD DUP6 AND DUP3 DUP10 ADD MSTORE DUP12 DUP6 AND DUP2 DUP10 ADD MSTORE PUSH1 0x64 PUSH1 0xC0 DUP1 DUP11 ADD SWAP2 SWAP1 SWAP2 MSTORE PUSH2 0x100 DUP1 DUP16 ADD MLOAD PUSH1 0xE0 DUP1 DUP13 ADD SWAP2 SWAP1 SWAP2 MSTORE PUSH1 0x0 SWAP11 DUP3 ADD DUP12 SWAP1 MSTORE PUSH1 0x4 DUP1 SLOAD DUP13 MSTORE DUP12 DUP12 MSTORE SWAP11 DUP7 SWAP1 KECCAK256 DUP13 MLOAD DUP2 SSTORE SWAP10 DUP13 ADD MLOAD PUSH1 0x1 DUP12 ADD SSTORE SWAP5 DUP12 ADD MLOAD PUSH1 0x2 DUP11 ADD DUP1 SLOAD SWAP8 DUP14 ADD MLOAD SWAP6 DUP14 ADD MLOAD SWAP5 DUP14 ADD MLOAD SWAP4 DUP14 ADD MLOAD SWAP7 DUP14 ADD MLOAD SWAP3 DUP14 ADD MLOAD SWAP2 SWAP1 SWAP10 AND PUSH1 0x1 PUSH1 0x1 PUSH1 0xA8 SHL SUB NOT SWAP1 SWAP8 AND SWAP7 SWAP1 SWAP7 OR PUSH1 0x1 PUSH1 0xA0 SHL SWAP5 DUP9 AND SWAP5 SWAP1 SWAP5 MUL SWAP4 SWAP1 SWAP4 OR PUSH2 0xFFFF PUSH1 0xA8 SHL NOT AND PUSH1 0x1 PUSH1 0xA8 SHL SWAP3 DUP8 AND SWAP3 SWAP1 SWAP3 MUL PUSH1 0xFF PUSH1 0xB0 SHL NOT AND SWAP2 SWAP1 SWAP2 OR PUSH1 0x1 PUSH1 0xB0 SHL SWAP2 DUP7 AND SWAP2 SWAP1 SWAP2 MUL OR PUSH2 0xFFFF PUSH1 0xB8 SHL NOT AND PUSH1 0x1 PUSH1 0xB8 SHL SWAP3 DUP6 AND SWAP3 SWAP1 SWAP3 MUL PUSH1 0xFF PUSH1 0xC0 SHL NOT AND SWAP2 SWAP1 SWAP2 OR PUSH1 0x1 PUSH1 0xC0 SHL SWAP2 DUP5 AND SWAP2 SWAP1 SWAP2 MUL OR PUSH1 0xFF PUSH1 0xC8 SHL NOT AND PUSH1 0x1 PUSH1 0xC8 SHL SWAP2 SWAP1 SWAP3 AND MUL OR SWAP1 SSTORE PUSH2 0x120 DUP4 ADD MLOAD PUSH1 0x3 DUP3 ADD SSTORE PUSH2 0x140 DUP4 ADD MLOAD SWAP1 DUP3 ADD DUP1 SLOAD PUSH1 0xFF NOT AND SWAP2 ISZERO ISZERO SWAP2 SWAP1 SWAP2 OR SWAP1 SSTORE SLOAD SWAP1 SWAP2 POP DUP9 DUP9 PUSH2 0x17FE DUP2 PUSH2 0x57D1 JUMP JUMPDEST SWAP10 POP DUP2 MLOAD DUP2 LT PUSH2 0x1810 JUMPI PUSH2 0x1810 PUSH2 0x582C JUMP JUMPDEST PUSH1 0x20 SWAP1 DUP2 MUL SWAP2 SWAP1 SWAP2 ADD ADD MSTORE POP DUP1 PUSH2 0x1826 DUP2 PUSH2 0x57D1 JUMP JUMPDEST SWAP2 POP POP PUSH2 0x161F JUMP JUMPDEST POP POP POP DUP1 DUP1 PUSH2 0x183C SWAP1 PUSH2 0x57D1 JUMP JUMPDEST SWAP2 POP POP PUSH2 0x1460 JUMP JUMPDEST POP DUP1 PUSH2 0x184F DUP2 PUSH2 0x57D1 JUMP JUMPDEST SWAP2 POP POP PUSH2 0x1454 JUMP JUMPDEST POP PUSH32 0x9C174172041D26A160D1A16AE0F635511C461309994D78E0E197ACA8CD67D231 CALLER DUP8 DUP8 DUP6 DUP9 PUSH1 0x40 MLOAD PUSH2 0x188F SWAP6 SWAP5 SWAP4 SWAP3 SWAP2 SWAP1 PUSH2 0x53B5 JUMP JUMPDEST PUSH1 0x40 MLOAD DUP1 SWAP2 SUB SWAP1 LOG1 POP POP POP POP POP POP JUMP JUMPDEST PUSH1 0x1 PUSH1 0x1 PUSH1 0xA0 SHL SUB DUP6 AND CALLER EQ DUP1 PUSH2 0x18BB JUMPI POP PUSH2 0x18BB DUP6 CALLER PUSH2 0x7C1 JUMP JUMPDEST PUSH2 0x1922 JUMPI PUSH1 0x40 MLOAD PUSH3 0x461BCD PUSH1 0xE5 SHL DUP2 MSTORE PUSH1 0x20 PUSH1 0x4 DUP3 ADD MSTORE PUSH1 0x32 PUSH1 0x24 DUP3 ADD MSTORE PUSH32 0x455243313135353A207472616E736665722063616C6C6572206973206E6F7420 PUSH1 0x44 DUP3 ADD MSTORE PUSH18 0x1BDDDB995C881B9BDC88185C1C1C9BDD9959 PUSH1 0x72 SHL PUSH1 0x64 DUP3 ADD MSTORE PUSH1 0x84 ADD PUSH2 0x890 JUMP JUMPDEST PUSH2 0x192F DUP6 DUP6 DUP6 DUP6 DUP6 PUSH2 0x41B0 JUMP JUMPDEST POP POP POP POP POP JUMP JUMPDEST PUSH1 0x60 DUP2 MLOAD DUP4 MLOAD EQ PUSH2 0x199B JUMPI PUSH1 0x40 MLOAD PUSH3 0x461BCD PUSH1 0xE5 SHL DUP2 MSTORE PUSH1 0x20 PUSH1 0x4 DUP3 ADD MSTORE PUSH1 0x29 PUSH1 0x24 DUP3 ADD MSTORE PUSH32 0x455243313135353A206163636F756E747320616E6420696473206C656E677468 PUSH1 0x44 DUP3 ADD MSTORE PUSH9 0x40DAD2E6DAC2E8C6D PUSH1 0xBB SHL PUSH1 0x64 DUP3 ADD MSTORE PUSH1 0x84 ADD PUSH2 0x890 JUMP JUMPDEST PUSH1 0x0 DUP4 MLOAD PUSH1 0x1 PUSH1 0x1 PUSH1 0x40 SHL SUB DUP2 GT ISZERO PUSH2 0x19B6 JUMPI PUSH2 0x19B6 PUSH2 0x5842 JUMP JUMPDEST PUSH1 0x40 MLOAD SWAP1 DUP1 DUP3 MSTORE DUP1 PUSH1 0x20 MUL PUSH1 0x20 ADD DUP3 ADD PUSH1 0x40 MSTORE DUP1 ISZERO PUSH2 0x19DF JUMPI DUP2 PUSH1 0x20 ADD PUSH1 0x20 DUP3 MUL DUP1 CALLDATASIZE DUP4 CALLDATACOPY ADD SWAP1 POP JUMPDEST POP SWAP1 POP PUSH1 0x0 JUMPDEST DUP5 MLOAD DUP2 LT ISZERO PUSH2 0x1A57 JUMPI PUSH2 0x1A2A DUP6 DUP3 DUP2 MLOAD DUP2 LT PUSH2 0x1A03 JUMPI PUSH2 0x1A03 PUSH2 0x582C JUMP JUMPDEST PUSH1 0x20 MUL PUSH1 0x20 ADD ADD MLOAD DUP6 DUP4 DUP2 MLOAD DUP2 LT PUSH2 0x1A1D JUMPI PUSH2 0x1A1D PUSH2 0x582C JUMP JUMPDEST PUSH1 0x20 MUL PUSH1 0x20 ADD ADD MLOAD PUSH2 0x828 JUMP JUMPDEST DUP3 DUP3 DUP2 MLOAD DUP2 LT PUSH2 0x1A3C JUMPI PUSH2 0x1A3C PUSH2 0x582C JUMP JUMPDEST PUSH1 0x20 SWAP1 DUP2 MUL SWAP2 SWAP1 SWAP2 ADD ADD MSTORE PUSH2 0x1A50 DUP2 PUSH2 0x57D1 JUMP JUMPDEST SWAP1 POP PUSH2 0x19E5 JUMP JUMPDEST POP SWAP4 SWAP3 POP POP POP JUMP JUMPDEST PUSH1 0x8 SLOAD PUSH1 0x1 PUSH1 0x1 PUSH1 0xA0 SHL SUB AND CALLER EQ PUSH2 0x1A89 JUMPI PUSH1 0x40 MLOAD PUSH3 0x461BCD PUSH1 0xE5 SHL DUP2 MSTORE PUSH1 0x4 ADD PUSH2 0x890 SWAP1 PUSH2 0x5535 JUMP JUMPDEST PUSH2 0x1A93 PUSH1 0x0 PUSH2 0x4390 JUMP JUMPDEST JUMP JUMPDEST PUSH1 0x8 SLOAD PUSH1 0x1 PUSH1 0x1 PUSH1 0xA0 SHL SUB AND CALLER EQ PUSH2 0x1ABF JUMPI PUSH1 0x40 MLOAD PUSH3 0x461BCD PUSH1 0xE5 SHL DUP2 MSTORE PUSH1 0x4 ADD PUSH2 0x890 SWAP1 PUSH2 0x5535 JUMP JUMPDEST DUP1 MLOAD PUSH2 0x1AD2 SWAP1 PUSH1 0xF SWAP1 PUSH1 0x20 DUP5 ADD SWAP1 PUSH2 0x4783 JUMP JUMPDEST POP POP JUMP JUMPDEST PUSH1 0x4 SLOAD DUP7 GT ISZERO PUSH2 0x1B3C JUMPI PUSH1 0x40 MLOAD PUSH3 0x461BCD PUSH1 0xE5 SHL DUP2 MSTORE PUSH1 0x20 PUSH1 0x4 DUP3 ADD MSTORE PUSH1 0x2B PUSH1 0x24 DUP3 ADD MSTORE PUSH32 0x554D424C4241534523757064617465546F6B656E446174613A204E4F4E455849 PUSH1 0x44 DUP3 ADD MSTORE PUSH11 0x29AA22A72A2FAA27A5A2A7 PUSH1 0xA9 SHL PUSH1 0x64 DUP3 ADD MSTORE PUSH1 0x84 ADD PUSH2 0x890 JUMP JUMPDEST PUSH1 0x0 DUP7 DUP2 MSTORE PUSH1 0x20 DUP2 DUP2 MSTORE PUSH1 0x40 SWAP2 DUP3 SWAP1 KECCAK256 DUP3 MLOAD PUSH2 0x160 DUP2 ADD DUP5 MSTORE DUP2 SLOAD DUP2 MSTORE PUSH1 0x1 DUP3 ADD SLOAD SWAP3 DUP2 ADD SWAP3 SWAP1 SWAP3 MSTORE PUSH1 0x2 DUP2 ADD SLOAD PUSH1 0x1 PUSH1 0x1 PUSH1 0xA0 SHL SUB DUP2 AND SWAP4 DUP4 ADD SWAP4 SWAP1 SWAP4 MSTORE PUSH1 0xFF PUSH1 0x1 PUSH1 0xA0 SHL DUP5 DIV DUP2 AND PUSH1 0x60 DUP5 ADD MSTORE PUSH1 0x1 PUSH1 0xA8 SHL DUP5 DIV DUP2 AND PUSH1 0x80 DUP5 ADD MSTORE PUSH1 0x1 PUSH1 0xB0 SHL DUP5 DIV DUP2 AND PUSH1 0xA0 DUP5 ADD MSTORE PUSH1 0x1 PUSH1 0xB8 SHL DUP5 DIV DUP2 AND PUSH1 0xC0 DUP5 ADD MSTORE PUSH1 0x1 PUSH1 0xC0 SHL DUP5 DIV DUP2 AND PUSH1 0xE0 DUP5 ADD MSTORE PUSH1 0x1 PUSH1 0xC8 SHL SWAP1 SWAP4 DIV DUP4 AND PUSH2 0x100 DUP4 ADD MSTORE PUSH1 0x3 DUP2 ADD SLOAD PUSH2 0x120 DUP4 ADD MSTORE PUSH1 0x4 ADD SLOAD SWAP1 SWAP2 AND ISZERO ISZERO PUSH2 0x140 DUP3 ADD MSTORE PUSH2 0x1BFF PUSH1 0x8 SLOAD PUSH1 0x1 PUSH1 0x1 PUSH1 0xA0 SHL SUB AND SWAP1 JUMP JUMPDEST PUSH1 0x1 PUSH1 0x1 PUSH1 0xA0 SHL SUB AND CALLER PUSH1 0x1 PUSH1 0x1 PUSH1 0xA0 SHL SUB AND EQ DUP1 PUSH2 0x1C33 JUMPI POP DUP1 PUSH1 0x40 ADD MLOAD PUSH1 0x1 PUSH1 0x1 PUSH1 0xA0 SHL SUB AND CALLER PUSH1 0x1 PUSH1 0x1 PUSH1 0xA0 SHL SUB AND EQ JUMPDEST DUP1 PUSH2 0x1C48 JUMPI POP PUSH1 0x10 SLOAD PUSH1 0x1 PUSH1 0x1 PUSH1 0xA0 SHL SUB AND CALLER EQ JUMPDEST PUSH2 0x1CA9 JUMPI PUSH1 0x40 MLOAD PUSH3 0x461BCD PUSH1 0xE5 SHL DUP2 MSTORE PUSH1 0x20 PUSH1 0x4 DUP3 ADD MSTORE PUSH1 0x2C PUSH1 0x24 DUP3 ADD MSTORE PUSH32 0x554D424C4241534523757064617465546F6B656E446174613A20494E56414C49 PUSH1 0x44 DUP3 ADD MSTORE PUSH12 0x222FA822A926A4A9A9A4A7A7 PUSH1 0xA1 SHL PUSH1 0x64 DUP3 ADD MSTORE PUSH1 0x84 ADD PUSH2 0x890 JUMP JUMPDEST PUSH1 0x1 PUSH1 0x1 PUSH1 0xA0 SHL SUB DUP1 DUP8 AND PUSH1 0x40 DUP1 DUP5 ADD SWAP2 DUP3 MSTORE PUSH1 0xFF DUP1 DUP10 AND PUSH1 0xE0 DUP7 ADD SWAP1 DUP2 MSTORE DUP9 DUP3 AND PUSH2 0x100 DUP8 ADD SWAP1 DUP2 MSTORE PUSH2 0x120 DUP8 ADD DUP10 DUP2 MSTORE DUP9 ISZERO ISZERO PUSH2 0x140 DUP10 ADD SWAP1 DUP2 MSTORE PUSH1 0x0 DUP16 DUP2 MSTORE PUSH1 0x20 DUP2 DUP2 MSTORE SWAP1 DUP8 SWAP1 KECCAK256 DUP11 MLOAD DUP2 SSTORE SWAP1 DUP11 ADD MLOAD PUSH1 0x1 DUP3 ADD SSTORE SWAP7 MLOAD PUSH1 0x2 DUP9 ADD DUP1 SLOAD PUSH1 0x60 DUP13 ADD MLOAD PUSH1 0x80 DUP14 ADD MLOAD PUSH1 0xA0 DUP15 ADD MLOAD PUSH1 0xC0 DUP16 ADD MLOAD SWAP10 MLOAD SWAP9 MLOAD DUP12 AND PUSH1 0x1 PUSH1 0xC8 SHL MUL PUSH1 0xFF PUSH1 0xC8 SHL NOT SWAP10 DUP13 AND PUSH1 0x1 PUSH1 0xC0 SHL MUL PUSH1 0xFF PUSH1 0xC0 SHL NOT SWAP12 DUP14 AND PUSH1 0x1 PUSH1 0xB8 SHL MUL SWAP12 SWAP1 SWAP12 AND PUSH2 0xFFFF PUSH1 0xB8 SHL NOT SWAP3 DUP14 AND PUSH1 0x1 PUSH1 0xB0 SHL MUL PUSH1 0xFF PUSH1 0xB0 SHL NOT SWAP5 DUP15 AND PUSH1 0x1 PUSH1 0xA8 SHL MUL SWAP5 SWAP1 SWAP5 AND PUSH2 0xFFFF PUSH1 0xA8 SHL NOT SWAP6 SWAP1 SWAP14 AND PUSH1 0x1 PUSH1 0xA0 SHL MUL PUSH1 0x1 PUSH1 0x1 PUSH1 0xA8 SHL SUB NOT SWAP1 SWAP7 AND SWAP8 SWAP1 SWAP16 AND SWAP7 SWAP1 SWAP7 OR SWAP4 SWAP1 SWAP4 OR SWAP2 SWAP1 SWAP2 AND SWAP9 SWAP1 SWAP9 OR SWAP8 SWAP1 SWAP8 OR SWAP7 SWAP1 SWAP7 AND SWAP9 SWAP1 SWAP9 OR SWAP4 SWAP1 SWAP4 OR SWAP2 SWAP1 SWAP2 AND SWAP6 SWAP1 SWAP6 OR SWAP1 SWAP2 SSTORE SWAP3 MLOAD PUSH1 0x3 DUP4 ADD SSTORE SWAP2 MLOAD PUSH1 0x4 SWAP1 SWAP2 ADD DUP1 SLOAD SWAP2 ISZERO ISZERO PUSH1 0xFF NOT SWAP3 SWAP1 SWAP3 AND SWAP2 SWAP1 SWAP2 OR SWAP1 SSTORE MLOAD PUSH32 0x7C578784D052D5113142CB149BCAC5C1DE38AE6F17BB0237254D89BB7A711F1C SWAP1 PUSH2 0x1E53 SWAP1 CALLER SWAP1 DUP11 SWAP1 DUP11 SWAP1 DUP11 SWAP1 DUP11 SWAP1 DUP11 SWAP1 DUP11 SWAP1 PUSH1 0x1 PUSH1 0x1 PUSH1 0xA0 SHL SUB SWAP8 DUP9 AND DUP2 MSTORE PUSH1 0x20 DUP2 ADD SWAP7 SWAP1 SWAP7 MSTORE SWAP4 SWAP1 SWAP6 AND PUSH1 0x40 DUP6 ADD MSTORE PUSH1 0xFF SWAP2 DUP3 AND PUSH1 0x60 DUP6 ADD MSTORE AND PUSH1 0x80 DUP4 ADD MSTORE PUSH1 0xA0 DUP3 ADD SWAP3 SWAP1 SWAP3 MSTORE SWAP1 ISZERO ISZERO PUSH1 0xC0 DUP3 ADD MSTORE PUSH1 0xE0 ADD SWAP1 JUMP JUMPDEST PUSH1 0x40 MLOAD DUP1 SWAP2 SUB SWAP1 LOG1 POP POP POP POP POP POP POP JUMP JUMPDEST PUSH1 0x8 SLOAD PUSH1 0x1 PUSH1 0x1 PUSH1 0xA0 SHL SUB AND CALLER EQ PUSH2 0x1E8E JUMPI PUSH1 0x40 MLOAD PUSH3 0x461BCD PUSH1 0xE5 SHL DUP2 MSTORE PUSH1 0x4 ADD PUSH2 0x890 SWAP1 PUSH2 0x5535 JUMP JUMPDEST PUSH1 0x2 PUSH1 0x9 SLOAD EQ ISZERO PUSH2 0x1EB1 JUMPI PUSH1 0x40 MLOAD PUSH3 0x461BCD PUSH1 0xE5 SHL DUP2 MSTORE PUSH1 0x4 ADD PUSH2 0x890 SWAP1 PUSH2 0x55B4 JUMP JUMPDEST PUSH1 0x2 PUSH1 0x9 SSTORE PUSH1 0x6 SLOAD DUP2 GT ISZERO PUSH2 0x1F18 JUMPI PUSH1 0x40 MLOAD PUSH3 0x461BCD PUSH1 0xE5 SHL DUP2 MSTORE PUSH1 0x20 PUSH1 0x4 DUP3 ADD MSTORE PUSH1 0x27 PUSH1 0x24 DUP3 ADD MSTORE PUSH32 0x554D424C424153452364656C65746543726174653A204E4F4E4558495354454E PUSH1 0x44 DUP3 ADD MSTORE PUSH7 0x545F4352415445 PUSH1 0xC8 SHL PUSH1 0x64 DUP3 ADD MSTORE PUSH1 0x84 ADD PUSH2 0x890 JUMP JUMPDEST PUSH1 0x0 DUP2 DUP2 MSTORE PUSH1 0x2 PUSH1 0x20 DUP2 DUP2 MSTORE PUSH1 0x40 DUP1 DUP5 KECCAK256 DUP2 MLOAD PUSH1 0xE0 DUP2 ADD DUP4 MSTORE DUP2 SLOAD DUP2 MSTORE PUSH1 0x1 DUP3 ADD SLOAD PUSH1 0xFF DUP1 DUP3 AND DUP4 DUP8 ADD MSTORE PUSH2 0x100 SWAP1 SWAP2 DIV AND DUP2 DUP5 ADD MSTORE SWAP4 DUP2 ADD DUP1 SLOAD DUP4 MLOAD DUP2 DUP7 MUL DUP2 ADD DUP7 ADD SWAP1 SWAP5 MSTORE DUP1 DUP5 MSTORE SWAP2 SWAP4 PUSH1 0x60 DUP7 ADD SWAP4 SWAP3 SWAP1 DUP4 ADD DUP3 DUP3 DUP1 ISZERO PUSH2 0x1FB8 JUMPI PUSH1 0x20 MUL DUP3 ADD SWAP2 SWAP1 PUSH1 0x0 MSTORE PUSH1 0x20 PUSH1 0x0 KECCAK256 SWAP1 PUSH1 0x0 SWAP1 JUMPDEST DUP3 SLOAD PUSH2 0x100 DUP4 SWAP1 EXP SWAP1 DIV PUSH1 0xFF AND DUP2 MSTORE PUSH1 0x20 PUSH1 0x1 SWAP3 DUP4 ADD DUP2 DUP2 DIV SWAP5 DUP6 ADD SWAP5 SWAP1 SWAP4 SUB SWAP1 SWAP3 MUL SWAP2 ADD DUP1 DUP5 GT PUSH2 0x1F89 JUMPI SWAP1 POP JUMPDEST POP POP POP SWAP2 DUP4 MSTORE POP POP PUSH1 0x3 DUP3 ADD SLOAD PUSH1 0xFF SWAP1 DUP2 AND PUSH1 0x20 DUP1 DUP5 ADD SWAP2 SWAP1 SWAP2 MSTORE PUSH1 0x4 DUP5 ADD SLOAD PUSH1 0x40 DUP1 DUP6 ADD SWAP2 SWAP1 SWAP2 MSTORE PUSH1 0x5 SWAP1 SWAP5 ADD SLOAD DUP3 AND ISZERO ISZERO PUSH1 0x60 SWAP4 DUP5 ADD MSTORE PUSH1 0x1 PUSH1 0xC0 DUP7 ADD DUP2 SWAP1 MSTORE PUSH1 0x0 DUP9 DUP2 MSTORE PUSH1 0x2 DUP1 DUP5 MSTORE SWAP1 DUP7 SWAP1 KECCAK256 DUP8 MLOAD DUP2 SSTORE DUP8 DUP5 ADD MLOAD SWAP3 DUP2 ADD DUP1 SLOAD SWAP8 DUP10 ADD MLOAD DUP7 AND PUSH2 0x100 MUL PUSH2 0xFFFF NOT SWAP1 SWAP9 AND SWAP4 SWAP1 SWAP6 AND SWAP3 SWAP1 SWAP3 OR SWAP6 SWAP1 SWAP6 OR SWAP1 SWAP3 SSTORE SWAP2 DUP5 ADD MLOAD DUP1 MLOAD SWAP5 SWAP6 POP DUP6 SWAP5 SWAP2 SWAP4 PUSH2 0x2052 SWAP4 SWAP1 DUP6 ADD SWAP3 SWAP2 ADD SWAP1 PUSH2 0x4807 JUMP JUMPDEST POP PUSH1 0x80 DUP3 ADD MLOAD PUSH1 0x3 DUP3 ADD DUP1 SLOAD PUSH1 0xFF SWAP1 SWAP3 AND PUSH1 0xFF NOT SWAP3 DUP4 AND OR SWAP1 SSTORE PUSH1 0xA0 DUP4 ADD MLOAD PUSH1 0x4 DUP4 ADD SSTORE PUSH1 0xC0 SWAP1 SWAP3 ADD MLOAD PUSH1 0x5 SWAP1 SWAP2 ADD DUP1 SLOAD SWAP2 ISZERO ISZERO SWAP2 SWAP1 SWAP3 AND OR SWAP1 SSTORE PUSH1 0x40 DUP1 MLOAD CALLER DUP2 MSTORE PUSH1 0x20 DUP2 ADD DUP5 SWAP1 MSTORE PUSH32 0xA45F99A9CA24F747F4A318C973CA4B5087EA41C28B6FF10B827340279844B335 SWAP2 ADD JUMPDEST PUSH1 0x40 MLOAD DUP1 SWAP2 SUB SWAP1 LOG1 POP POP PUSH1 0x1 PUSH1 0x9 SSTORE JUMP JUMPDEST PUSH1 0xE DUP1 SLOAD PUSH2 0x920 SWAP1 PUSH2 0x576A JUMP JUMPDEST PUSH1 0x8 SLOAD PUSH1 0x1 PUSH1 0x1 PUSH1 0xA0 SHL SUB AND CALLER EQ PUSH2 0x2107 JUMPI PUSH1 0x40 MLOAD PUSH3 0x461BCD PUSH1 0xE5 SHL DUP2 MSTORE PUSH1 0x4 ADD PUSH2 0x890 SWAP1 PUSH2 0x5535 JUMP JUMPDEST PUSH1 0x2 PUSH1 0x9 SLOAD EQ ISZERO PUSH2 0x212A JUMPI PUSH1 0x40 MLOAD PUSH3 0x461BCD PUSH1 0xE5 SHL DUP2 MSTORE PUSH1 0x4 ADD PUSH2 0x890 SWAP1 PUSH2 0x55B4 JUMP JUMPDEST PUSH1 0x2 PUSH1 0x9 SSTORE PUSH1 0x0 DUP1 DUP1 PUSH1 0xFF DUP8 AND PUSH1 0x1 EQ DUP1 PUSH2 0x2148 JUMPI POP PUSH1 0xFF DUP8 AND PUSH1 0x2 EQ JUMPDEST PUSH2 0x21A0 JUMPI PUSH1 0x40 MLOAD PUSH3 0x461BCD PUSH1 0xE5 SHL DUP2 MSTORE PUSH1 0x20 PUSH1 0x4 DUP3 ADD MSTORE PUSH1 0x23 PUSH1 0x24 DUP3 ADD MSTORE PUSH32 0x554D424C42415345236D616B6543726174653A20494E56414C49445F46414354 PUSH1 0x44 DUP3 ADD MSTORE PUSH3 0x24A7A7 PUSH1 0xE9 SHL PUSH1 0x64 DUP3 ADD MSTORE PUSH1 0x84 ADD PUSH2 0x890 JUMP JUMPDEST PUSH1 0x0 DUP7 MLOAD GT DUP1 ISZERO PUSH2 0x21B3 JUMPI POP PUSH1 0xA DUP7 MLOAD GT ISZERO JUMPDEST PUSH2 0x2211 JUMPI PUSH1 0x40 MLOAD PUSH3 0x461BCD PUSH1 0xE5 SHL DUP2 MSTORE PUSH1 0x20 PUSH1 0x4 DUP3 ADD MSTORE PUSH1 0x29 PUSH1 0x24 DUP3 ADD MSTORE PUSH32 0x554D424C42415345236D616B6543726174653A20494E56414C49445F52415249 PUSH1 0x44 DUP3 ADD MSTORE PUSH9 0xA8B2BE988A9C8EA89 PUSH1 0xBB SHL PUSH1 0x64 DUP3 ADD MSTORE PUSH1 0x84 ADD PUSH2 0x890 JUMP JUMPDEST PUSH1 0x0 SWAP3 POP JUMPDEST DUP6 MLOAD DUP4 LT ISZERO PUSH2 0x22DE JUMPI PUSH1 0x1 PUSH1 0xFF AND DUP7 DUP5 DUP2 MLOAD DUP2 LT PUSH2 0x2236 JUMPI PUSH2 0x2236 PUSH2 0x582C JUMP JUMPDEST PUSH1 0x20 MUL PUSH1 0x20 ADD ADD MLOAD PUSH1 0xFF AND LT ISZERO DUP1 ISZERO PUSH2 0x226F JUMPI POP PUSH1 0x7 PUSH1 0xFF AND DUP7 DUP5 DUP2 MLOAD DUP2 LT PUSH2 0x2261 JUMPI PUSH2 0x2261 PUSH2 0x582C JUMP JUMPDEST PUSH1 0x20 MUL PUSH1 0x20 ADD ADD MLOAD PUSH1 0xFF AND GT ISZERO JUMPDEST PUSH2 0x22CC JUMPI PUSH1 0x40 MLOAD PUSH3 0x461BCD PUSH1 0xE5 SHL DUP2 MSTORE PUSH1 0x20 PUSH1 0x4 DUP3 ADD MSTORE PUSH1 0x28 PUSH1 0x24 DUP3 ADD MSTORE PUSH32 0x554D424C42415345236D616B6543726174653A20494E56414C49445F52415249 PUSH1 0x44 DUP3 ADD MSTORE PUSH8 0x54595F56414C5545 PUSH1 0xC0 SHL PUSH1 0x64 DUP3 ADD MSTORE PUSH1 0x84 ADD PUSH2 0x890 JUMP JUMPDEST DUP3 PUSH2 0x22D6 DUP2 PUSH2 0x57D1 JUMP JUMPDEST SWAP4 POP POP PUSH2 0x2216 JUMP JUMPDEST PUSH1 0x0 DUP6 PUSH1 0xFF AND GT DUP1 ISZERO PUSH2 0x22F5 JUMPI POP PUSH1 0x64 DUP6 PUSH1 0xFF AND GT ISZERO JUMPDEST PUSH2 0x2350 JUMPI PUSH1 0x40 MLOAD PUSH3 0x461BCD PUSH1 0xE5 SHL DUP2 MSTORE PUSH1 0x20 PUSH1 0x4 DUP3 ADD MSTORE PUSH1 0x26 PUSH1 0x24 DUP3 ADD MSTORE PUSH32 0x554D424C42415345236D616B6543726174653A20494E56414C49445F544F4B45 PUSH1 0x44 DUP3 ADD MSTORE PUSH6 0x1390D3D55395 PUSH1 0xD2 SHL PUSH1 0x64 DUP3 ADD MSTORE PUSH1 0x84 ADD PUSH2 0x890 JUMP JUMPDEST PUSH1 0x0 DUP5 GT PUSH2 0x23AA JUMPI PUSH1 0x40 MLOAD PUSH3 0x461BCD PUSH1 0xE5 SHL DUP2 MSTORE PUSH1 0x20 PUSH1 0x4 DUP3 ADD MSTORE PUSH1 0x21 PUSH1 0x24 DUP3 ADD MSTORE PUSH32 0x554D424C42415345236D616B6543726174653A20494E56414C49445F50524943 PUSH1 0x44 DUP3 ADD MSTORE PUSH1 0x45 PUSH1 0xF8 SHL PUSH1 0x64 DUP3 ADD MSTORE PUSH1 0x84 ADD PUSH2 0x890 JUMP JUMPDEST DUP9 PUSH2 0x23D2 JUMPI PUSH1 0x6 DUP1 SLOAD SWAP1 PUSH1 0x0 PUSH2 0x23BF DUP4 PUSH2 0x57D1 JUMP JUMPDEST SWAP2 SWAP1 POP SSTORE POP PUSH1 0x6 SLOAD SWAP1 POP PUSH1 0x1 SWAP2 POP PUSH2 0x2439 JUMP JUMPDEST PUSH1 0x6 SLOAD DUP10 GT ISZERO PUSH2 0x2432 JUMPI PUSH1 0x40 MLOAD PUSH3 0x461BCD PUSH1 0xE5 SHL DUP2 MSTORE PUSH1 0x20 PUSH1 0x4 DUP3 ADD MSTORE PUSH1 0x25 PUSH1 0x24 DUP3 ADD MSTORE PUSH32 0x554D424C42415345236D616B6543726174653A204E4F4E4558495354454E545F PUSH1 0x44 DUP3 ADD MSTORE PUSH5 0x4352415445 PUSH1 0xD8 SHL PUSH1 0x64 DUP3 ADD MSTORE PUSH1 0x84 ADD PUSH2 0x890 JUMP JUMPDEST POP PUSH1 0x0 SWAP1 POP DUP8 JUMPDEST PUSH1 0x0 PUSH1 0x40 MLOAD DUP1 PUSH1 0xE0 ADD PUSH1 0x40 MSTORE DUP1 DUP4 DUP2 MSTORE PUSH1 0x20 ADD DUP11 PUSH1 0xFF AND DUP2 MSTORE PUSH1 0x20 ADD DUP10 PUSH1 0xFF AND DUP2 MSTORE PUSH1 0x20 ADD PUSH1 0x0 PUSH1 0x1 PUSH1 0x1 PUSH1 0x40 SHL SUB DUP2 GT ISZERO PUSH2 0x2477 JUMPI PUSH2 0x2477 PUSH2 0x5842 JUMP JUMPDEST PUSH1 0x40 MLOAD SWAP1 DUP1 DUP3 MSTORE DUP1 PUSH1 0x20 MUL PUSH1 0x20 ADD DUP3 ADD PUSH1 0x40 MSTORE DUP1 ISZERO PUSH2 0x24A0 JUMPI DUP2 PUSH1 0x20 ADD PUSH1 0x20 DUP3 MUL DUP1 CALLDATASIZE DUP4 CALLDATACOPY ADD SWAP1 POP JUMPDEST POP DUP2 MSTORE PUSH1 0xFF DUP1 DUP10 AND PUSH1 0x20 DUP1 DUP5 ADD SWAP2 SWAP1 SWAP2 MSTORE PUSH1 0x40 DUP1 DUP5 ADD DUP11 SWAP1 MSTORE PUSH1 0x0 PUSH1 0x60 SWAP5 DUP6 ADD DUP2 SWAP1 MSTORE DUP8 DUP2 MSTORE PUSH1 0x2 DUP1 DUP5 MSTORE SWAP1 DUP3 SWAP1 KECCAK256 DUP7 MLOAD DUP2 SSTORE DUP7 DUP5 ADD MLOAD PUSH1 0x1 DUP3 ADD DUP1 SLOAD SWAP5 DUP10 ADD MLOAD DUP8 AND PUSH2 0x100 MUL PUSH2 0xFFFF NOT SWAP1 SWAP6 AND SWAP2 SWAP1 SWAP7 AND OR SWAP3 SWAP1 SWAP3 OR SWAP1 SWAP4 SSTORE SWAP3 DUP5 ADD MLOAD DUP1 MLOAD SWAP5 SWAP6 POP DUP6 SWAP5 PUSH2 0x2516 SWAP4 DUP6 ADD SWAP3 SWAP2 SWAP1 SWAP2 ADD SWAP1 PUSH2 0x4807 JUMP JUMPDEST POP PUSH1 0x80 DUP3 ADD MLOAD PUSH1 0x3 DUP3 ADD DUP1 SLOAD PUSH1 0xFF SWAP1 SWAP3 AND PUSH1 0xFF NOT SWAP3 DUP4 AND OR SWAP1 SSTORE PUSH1 0xA0 DUP4 ADD MLOAD PUSH1 0x4 DUP4 ADD SSTORE PUSH1 0xC0 SWAP1 SWAP3 ADD MLOAD PUSH1 0x5 SWAP1 SWAP2 ADD DUP1 SLOAD SWAP2 ISZERO ISZERO SWAP2 SWAP1 SWAP3 AND OR SWAP1 SSTORE PUSH1 0x0 SWAP4 POP JUMPDEST DUP7 MLOAD DUP5 LT ISZERO PUSH2 0x25DA JUMPI PUSH1 0x2 PUSH1 0x0 DUP4 DUP2 MSTORE PUSH1 0x20 ADD SWAP1 DUP2 MSTORE PUSH1 0x20 ADD PUSH1 0x0 KECCAK256 PUSH1 0x2 ADD DUP8 DUP6 DUP2 MLOAD DUP2 LT PUSH2 0x2587 JUMPI PUSH2 0x2587 PUSH2 0x582C JUMP JUMPDEST PUSH1 0x20 SWAP1 DUP2 MUL SWAP2 SWAP1 SWAP2 ADD DUP2 ADD MLOAD DUP3 SLOAD PUSH1 0x1 DUP2 ADD DUP5 SSTORE PUSH1 0x0 SWAP4 DUP5 MSTORE SWAP3 DUP3 SWAP1 KECCAK256 SWAP2 DUP4 DIV SWAP1 SWAP2 ADD DUP1 SLOAD PUSH1 0xFF SWAP3 DUP4 AND PUSH1 0x1F SWAP1 SWAP5 AND PUSH2 0x100 EXP SWAP4 DUP5 MUL SWAP3 SWAP1 SWAP4 MUL NOT SWAP1 SWAP3 AND OR SWAP1 SSTORE DUP4 PUSH2 0x25D2 DUP2 PUSH2 0x57D1 JUMP JUMPDEST SWAP5 POP POP PUSH2 0x2556 JUMP JUMPDEST DUP3 ISZERO PUSH2 0x261F JUMPI PUSH1 0x40 DUP1 MLOAD CALLER DUP2 MSTORE PUSH1 0x20 DUP2 ADD DUP5 SWAP1 MSTORE PUSH32 0x71D6B09B1D3CB8617F35F6DF2357D050AEFA8EC19564D09DAFBADB6256A894F1 SWAP2 ADD JUMPDEST PUSH1 0x40 MLOAD DUP1 SWAP2 SUB SWAP1 LOG1 PUSH2 0x265A JUMP JUMPDEST PUSH1 0x40 DUP1 MLOAD CALLER DUP2 MSTORE PUSH1 0x20 DUP2 ADD DUP5 SWAP1 MSTORE PUSH32 0xF37E5F6D4062B02AE67880A9F1C05EE577E8CD0C07EE5FCF5C93D957DCC0935B SWAP2 ADD JUMPDEST PUSH1 0x40 MLOAD DUP1 SWAP2 SUB SWAP1 LOG1 JUMPDEST POP POP PUSH1 0x1 PUSH1 0x9 SSTORE POP POP POP POP POP POP POP POP JUMP JUMPDEST PUSH1 0x8 SLOAD PUSH1 0x1 PUSH1 0x1 PUSH1 0xA0 SHL SUB AND CALLER EQ PUSH2 0x2695 JUMPI PUSH1 0x40 MLOAD PUSH3 0x461BCD PUSH1 0xE5 SHL DUP2 MSTORE PUSH1 0x4 ADD PUSH2 0x890 SWAP1 PUSH2 0x5535 JUMP JUMPDEST PUSH1 0x1 PUSH1 0x1 PUSH1 0xA0 SHL SUB DUP2 AND PUSH2 0x2711 JUMPI PUSH1 0x40 MLOAD PUSH3 0x461BCD PUSH1 0xE5 SHL DUP2 MSTORE PUSH1 0x20 PUSH1 0x4 DUP3 ADD MSTORE PUSH1 0x38 PUSH1 0x24 DUP3 ADD MSTORE PUSH32 0x556D626C436F7265237365744D61726B6574506C616365436F6E74726163743A PUSH1 0x44 DUP3 ADD MSTORE PUSH32 0x204D41524B45545F434F4E54524143545F494E56414C49440000000000000000 PUSH1 0x64 DUP3 ADD MSTORE PUSH1 0x84 ADD PUSH2 0x890 JUMP JUMPDEST PUSH1 0x10 DUP1 SLOAD PUSH1 0x1 PUSH1 0x1 PUSH1 0xA0 SHL SUB DUP4 AND PUSH1 0x1 PUSH1 0x1 PUSH1 0xA0 SHL SUB NOT SWAP1 SWAP2 AND OR SWAP1 SSTORE PUSH32 0x47EC0AFC80996E09AA40BB033864DD7F6C3DA75CAC550739CFF0D732D714DAA4 PUSH2 0x2761 PUSH1 0x8 SLOAD PUSH1 0x1 PUSH1 0x1 PUSH1 0xA0 SHL SUB AND SWAP1 JUMP JUMPDEST PUSH1 0x10 SLOAD PUSH1 0x40 DUP1 MLOAD PUSH1 0x1 PUSH1 0x1 PUSH1 0xA0 SHL SUB SWAP4 DUP5 AND DUP2 MSTORE SWAP3 SWAP1 SWAP2 AND PUSH1 0x20 DUP4 ADD MSTORE ADD JUMPDEST PUSH1 0x40 MLOAD DUP1 SWAP2 SUB SWAP1 LOG1 POP JUMP JUMPDEST PUSH1 0x0 DUP1 PUSH1 0x0 PUSH1 0x60 PUSH1 0x0 DUP1 PUSH1 0x0 PUSH1 0x6 SLOAD DUP9 GT ISZERO PUSH2 0x27F5 JUMPI PUSH1 0x40 MLOAD PUSH3 0x461BCD PUSH1 0xE5 SHL DUP2 MSTORE PUSH1 0x20 PUSH1 0x4 DUP3 ADD MSTORE PUSH1 0x24 DUP1 DUP3 ADD MSTORE PUSH32 0x554D424C424153452367657443726174653A204E4F4E4558495354454E545F43 PUSH1 0x44 DUP3 ADD MSTORE PUSH4 0x52415445 PUSH1 0xE0 SHL PUSH1 0x64 DUP3 ADD MSTORE PUSH1 0x84 ADD PUSH2 0x890 JUMP JUMPDEST PUSH1 0x0 DUP9 DUP2 MSTORE PUSH1 0x2 PUSH1 0x20 DUP2 DUP2 MSTORE PUSH1 0x40 DUP1 DUP5 KECCAK256 DUP2 MLOAD PUSH1 0xE0 DUP2 ADD DUP4 MSTORE DUP2 SLOAD DUP2 MSTORE PUSH1 0x1 DUP3 ADD SLOAD PUSH1 0xFF DUP1 DUP3 AND DUP4 DUP8 ADD MSTORE PUSH2 0x100 SWAP1 SWAP2 DIV AND DUP2 DUP5 ADD MSTORE SWAP4 DUP2 ADD DUP1 SLOAD DUP4 MLOAD DUP2 DUP7 MUL DUP2 ADD DUP7 ADD SWAP1 SWAP5 MSTORE DUP1 DUP5 MSTORE SWAP2 SWAP4 PUSH1 0x60 DUP7 ADD SWAP4 SWAP3 SWAP1 DUP4 ADD DUP3 DUP3 DUP1 ISZERO PUSH2 0x2895 JUMPI PUSH1 0x20 MUL DUP3 ADD SWAP2 SWAP1 PUSH1 0x0 MSTORE PUSH1 0x20 PUSH1 0x0 KECCAK256 SWAP1 PUSH1 0x0 SWAP1 JUMPDEST DUP3 SLOAD PUSH2 0x100 DUP4 SWAP1 EXP SWAP1 DIV PUSH1 0xFF AND DUP2 MSTORE PUSH1 0x20 PUSH1 0x1 SWAP3 DUP4 ADD DUP2 DUP2 DIV SWAP5 DUP6 ADD SWAP5 SWAP1 SWAP4 SUB SWAP1 SWAP3 MUL SWAP2 ADD DUP1 DUP5 GT PUSH2 0x2866 JUMPI SWAP1 POP JUMPDEST POP POP POP SWAP2 DUP4 MSTORE POP POP PUSH1 0x3 DUP3 ADD SLOAD PUSH1 0xFF SWAP1 DUP2 AND PUSH1 0x20 DUP4 ADD MSTORE PUSH1 0x4 DUP4 ADD SLOAD PUSH1 0x40 DUP4 ADD MSTORE PUSH1 0x5 SWAP1 SWAP3 ADD SLOAD SWAP1 SWAP2 AND ISZERO ISZERO PUSH1 0x60 SWAP2 DUP3 ADD MSTORE DUP2 ADD MLOAD MLOAD SWAP1 SWAP2 POP PUSH1 0x0 SWAP1 PUSH1 0x1 PUSH1 0x1 PUSH1 0x40 SHL SUB DUP2 GT ISZERO PUSH2 0x28E8 JUMPI PUSH2 0x28E8 PUSH2 0x5842 JUMP JUMPDEST PUSH1 0x40 MLOAD SWAP1 DUP1 DUP3 MSTORE DUP1 PUSH1 0x20 MUL PUSH1 0x20 ADD DUP3 ADD PUSH1 0x40 MSTORE DUP1 ISZERO PUSH2 0x2911 JUMPI DUP2 PUSH1 0x20 ADD PUSH1 0x20 DUP3 MUL DUP1 CALLDATASIZE DUP4 CALLDATACOPY ADD SWAP1 POP JUMPDEST POP SWAP1 POP PUSH1 0x0 JUMPDEST DUP3 PUSH1 0x60 ADD MLOAD MLOAD DUP2 LT ISZERO PUSH2 0x2978 JUMPI DUP3 PUSH1 0x60 ADD MLOAD DUP2 DUP2 MLOAD DUP2 LT PUSH2 0x293A JUMPI PUSH2 0x293A PUSH2 0x582C JUMP JUMPDEST PUSH1 0x20 MUL PUSH1 0x20 ADD ADD MLOAD DUP3 DUP3 DUP2 MLOAD DUP2 LT PUSH2 0x2954 JUMPI PUSH2 0x2954 PUSH2 0x582C JUMP JUMPDEST PUSH1 0xFF SWAP1 SWAP3 AND PUSH1 0x20 SWAP3 DUP4 MUL SWAP2 SWAP1 SWAP2 ADD SWAP1 SWAP2 ADD MSTORE DUP1 PUSH2 0x2970 DUP2 PUSH2 0x57D1 JUMP JUMPDEST SWAP2 POP POP PUSH2 0x2917 JUMP JUMPDEST POP DUP2 MLOAD PUSH1 0x20 DUP4 ADD MLOAD PUSH1 0x40 DUP5 ADD MLOAD PUSH1 0x80 DUP6 ADD MLOAD PUSH1 0xA0 DUP7 ADD MLOAD PUSH1 0xC0 SWAP1 SWAP7 ADD MLOAD SWAP4 SWAP15 SWAP3 SWAP14 POP SWAP1 SWAP12 POP SWAP3 SWAP10 POP SWAP2 SWAP8 POP SWAP2 SWAP6 POP SWAP1 SWAP4 POP SWAP2 POP POP JUMP JUMPDEST CALLER PUSH1 0x1 PUSH1 0x1 PUSH1 0xA0 SHL SUB DUP4 AND EQ ISZERO PUSH2 0x2A19 JUMPI PUSH1 0x40 MLOAD PUSH3 0x461BCD PUSH1 0xE5 SHL DUP2 MSTORE PUSH1 0x20 PUSH1 0x4 DUP3 ADD MSTORE PUSH1 0x29 PUSH1 0x24 DUP3 ADD MSTORE PUSH32 0x455243313135353A2073657474696E6720617070726F76616C20737461747573 PUSH1 0x44 DUP3 ADD MSTORE PUSH9 0x103337B91039B2B633 PUSH1 0xB9 SHL PUSH1 0x64 DUP3 ADD MSTORE PUSH1 0x84 ADD PUSH2 0x890 JUMP JUMPDEST CALLER PUSH1 0x0 DUP2 DUP2 MSTORE PUSH1 0xB PUSH1 0x20 SWAP1 DUP2 MSTORE PUSH1 0x40 DUP1 DUP4 KECCAK256 PUSH1 0x1 PUSH1 0x1 PUSH1 0xA0 SHL SUB DUP8 AND DUP1 DUP6 MSTORE SWAP1 DUP4 MSTORE SWAP3 DUP2 SWAP1 KECCAK256 DUP1 SLOAD PUSH1 0xFF NOT AND DUP7 ISZERO ISZERO SWAP1 DUP2 OR SWAP1 SWAP2 SSTORE SWAP1 MLOAD SWAP1 DUP2 MSTORE SWAP2 SWAP3 SWAP2 PUSH32 0x17307EAB39AB6107E8899845AD3D59BD9653F200F220920489CA2B5937696C31 SWAP2 ADD PUSH1 0x40 MLOAD DUP1 SWAP2 SUB SWAP1 LOG3 POP POP JUMP JUMPDEST PUSH1 0x0 DUP1 PUSH1 0x0 DUP1 PUSH1 0x0 DUP1 PUSH1 0x0 DUP1 PUSH1 0x0 DUP1 PUSH1 0x5 SLOAD DUP12 GT ISZERO PUSH2 0x2AF5 JUMPI PUSH1 0x40 MLOAD PUSH3 0x461BCD PUSH1 0xE5 SHL DUP2 MSTORE PUSH1 0x20 PUSH1 0x4 DUP3 ADD MSTORE PUSH1 0x26 PUSH1 0x24 DUP3 ADD MSTORE PUSH32 0x554D424C42415345236765745072657365743A204E4F4E4558495354454E545F PUSH1 0x44 DUP3 ADD MSTORE PUSH6 0x14149154D155 PUSH1 0xD2 SHL PUSH1 0x64 DUP3 ADD MSTORE PUSH1 0x84 ADD PUSH2 0x890 JUMP JUMPDEST POP POP POP PUSH1 0x0 SWAP8 DUP9 MSTORE POP POP PUSH1 0x1 PUSH1 0x20 DUP2 DUP2 MSTORE PUSH1 0x40 SWAP8 DUP9 SWAP1 KECCAK256 DUP9 MLOAD PUSH2 0x140 DUP2 ADD DUP11 MSTORE DUP2 SLOAD DUP1 DUP3 MSTORE SWAP4 DUP3 ADD SLOAD PUSH1 0xFF DUP1 DUP3 AND SWAP5 DUP4 ADD DUP6 SWAP1 MSTORE PUSH2 0x100 DUP1 DUP4 DIV DUP3 AND SWAP13 DUP5 ADD DUP14 SWAP1 MSTORE PUSH3 0x10000 DUP4 DIV DUP3 AND PUSH1 0x60 DUP6 ADD DUP2 SWAP1 MSTORE PUSH4 0x1000000 DUP5 DIV DUP4 AND PUSH1 0x80 DUP7 ADD DUP2 SWAP1 MSTORE PUSH5 0x100000000 DUP6 DIV DUP5 AND PUSH1 0xA0 DUP8 ADD DUP2 SWAP1 MSTORE PUSH1 0x1 PUSH1 0x28 SHL DUP7 DIV DUP6 AND PUSH1 0xC0 DUP9 ADD DUP2 SWAP1 MSTORE PUSH1 0x1 PUSH1 0x30 SHL SWAP1 SWAP7 DIV DUP6 AND PUSH1 0xE0 DUP9 ADD DUP2 SWAP1 MSTORE PUSH1 0x2 DUP10 ADD SLOAD SWAP5 DUP9 ADD DUP6 SWAP1 MSTORE PUSH1 0x3 SWAP1 SWAP9 ADD SLOAD SWAP1 SWAP5 AND ISZERO ISZERO PUSH2 0x120 SWAP1 SWAP7 ADD DUP7 SWAP1 MSTORE SWAP8 SWAP15 SWAP7 SWAP14 SWAP13 POP SWAP11 POP SWAP6 SWAP9 POP SWAP7 POP SWAP5 POP SWAP1 SWAP3 SWAP2 JUMP JUMPDEST PUSH1 0x0 DUP1 PUSH1 0x60 PUSH1 0x0 DUP1 PUSH1 0x0 DUP1 PUSH1 0x7 SLOAD DUP9 GT ISZERO PUSH2 0x2C29 JUMPI PUSH1 0x40 MLOAD PUSH3 0x461BCD PUSH1 0xE5 SHL DUP2 MSTORE PUSH1 0x20 PUSH1 0x4 DUP3 ADD MSTORE PUSH1 0x28 PUSH1 0x24 DUP3 ADD MSTORE PUSH32 0x554D424C42415345236765745061636B6167653A204E4F4E4558495354454E54 PUSH1 0x44 DUP3 ADD MSTORE PUSH8 0x5F5041434B414745 PUSH1 0xC0 SHL PUSH1 0x64 DUP3 ADD MSTORE PUSH1 0x84 ADD PUSH2 0x890 JUMP JUMPDEST PUSH1 0x0 DUP9 DUP2 MSTORE PUSH1 0x3 PUSH1 0x20 SWAP1 DUP2 MSTORE PUSH1 0x40 DUP1 DUP4 KECCAK256 DUP2 MLOAD PUSH1 0xE0 DUP2 ADD DUP4 MSTORE DUP2 SLOAD DUP2 MSTORE PUSH1 0x1 DUP3 ADD SLOAD PUSH1 0xFF AND DUP2 DUP6 ADD MSTORE PUSH1 0x2 DUP3 ADD DUP1 SLOAD DUP5 MLOAD DUP2 DUP8 MUL DUP2 ADD DUP8 ADD DUP7 MSTORE DUP2 DUP2 MSTORE SWAP3 SWAP6 SWAP4 SWAP5 DUP7 ADD SWAP4 DUP4 ADD DUP3 DUP3 DUP1 ISZERO PUSH2 0x2C9C JUMPI PUSH1 0x20 MUL DUP3 ADD SWAP2 SWAP1 PUSH1 0x0 MSTORE PUSH1 0x20 PUSH1 0x0 KECCAK256 SWAP1 JUMPDEST DUP2 SLOAD DUP2 MSTORE PUSH1 0x20 ADD SWAP1 PUSH1 0x1 ADD SWAP1 DUP1 DUP4 GT PUSH2 0x2C88 JUMPI JUMPDEST POP POP POP SWAP2 DUP4 MSTORE POP POP PUSH1 0x3 DUP3 ADD SLOAD PUSH1 0x20 DUP3 ADD MSTORE PUSH1 0x4 DUP3 ADD SLOAD PUSH1 0x40 DUP1 DUP4 ADD SWAP2 SWAP1 SWAP2 MSTORE PUSH1 0x5 DUP4 ADD SLOAD PUSH1 0x60 DUP4 ADD MSTORE PUSH1 0x6 SWAP1 SWAP3 ADD SLOAD PUSH1 0xFF AND ISZERO ISZERO PUSH1 0x80 SWAP1 SWAP2 ADD MSTORE DUP2 ADD MLOAD MLOAD SWAP1 SWAP2 POP PUSH1 0x0 SWAP1 PUSH1 0x1 PUSH1 0x1 PUSH1 0x40 SHL SUB DUP2 GT ISZERO PUSH2 0x2CF8 JUMPI PUSH2 0x2CF8 PUSH2 0x5842 JUMP JUMPDEST PUSH1 0x40 MLOAD SWAP1 DUP1 DUP3 MSTORE DUP1 PUSH1 0x20 MUL PUSH1 0x20 ADD DUP3 ADD PUSH1 0x40 MSTORE DUP1 ISZERO PUSH2 0x2D21 JUMPI DUP2 PUSH1 0x20 ADD PUSH1 0x20 DUP3 MUL DUP1 CALLDATASIZE DUP4 CALLDATACOPY ADD SWAP1 POP JUMPDEST POP SWAP1 POP PUSH1 0x0 JUMPDEST DUP3 PUSH1 0x40 ADD MLOAD MLOAD DUP2 LT ISZERO PUSH2 0x2D81 JUMPI DUP3 PUSH1 0x40 ADD MLOAD DUP2 DUP2 MLOAD DUP2 LT PUSH2 0x2D4A JUMPI PUSH2 0x2D4A PUSH2 0x582C JUMP JUMPDEST PUSH1 0x20 MUL PUSH1 0x20 ADD ADD MLOAD DUP3 DUP3 DUP2 MLOAD DUP2 LT PUSH2 0x2D64 JUMPI PUSH2 0x2D64 PUSH2 0x582C JUMP JUMPDEST PUSH1 0x20 SWAP1 DUP2 MUL SWAP2 SWAP1 SWAP2 ADD ADD MSTORE DUP1 PUSH2 0x2D79 DUP2 PUSH2 0x57D1 JUMP JUMPDEST SWAP2 POP POP PUSH2 0x2D27 JUMP JUMPDEST POP DUP2 MLOAD PUSH1 0x20 DUP4 ADD MLOAD PUSH1 0x60 DUP5 ADD MLOAD PUSH1 0x80 DUP6 ADD MLOAD PUSH1 0xA0 DUP7 ADD MLOAD PUSH1 0xC0 SWAP1 SWAP7 ADD MLOAD SWAP4 SWAP15 SWAP3 SWAP14 POP SWAP4 SWAP12 POP SWAP10 POP SWAP2 SWAP8 POP SWAP2 SWAP6 POP SWAP1 SWAP4 POP SWAP2 POP POP JUMP JUMPDEST PUSH1 0x8 SLOAD PUSH1 0x1 PUSH1 0x1 PUSH1 0xA0 SHL SUB AND CALLER EQ PUSH2 0x2DE0 JUMPI PUSH1 0x40 MLOAD PUSH3 0x461BCD PUSH1 0xE5 SHL DUP2 MSTORE PUSH1 0x4 ADD PUSH2 0x890 SWAP1 PUSH2 0x5535 JUMP JUMPDEST PUSH1 0x12 DUP1 SLOAD PUSH1 0xFF NOT AND DUP3 ISZERO ISZERO OR SWAP1 SSTORE PUSH1 0x8 SLOAD PUSH32 0xC3889419940E25AF3579CC72A7F6E5CAB56CA4687AF79B31AE8B7C31E90DF3C7 SWAP1 PUSH1 0x1 PUSH1 0x1 PUSH1 0xA0 SHL SUB AND PUSH1 0x12 SLOAD PUSH1 0x40 DUP1 MLOAD PUSH1 0x1 PUSH1 0x1 PUSH1 0xA0 SHL SUB SWAP1 SWAP4 AND DUP4 MSTORE PUSH1 0xFF SWAP1 SWAP2 AND ISZERO ISZERO PUSH1 0x20 DUP4 ADD MSTORE ADD PUSH2 0x2780 JUMP JUMPDEST PUSH1 0x8 SLOAD PUSH1 0x1 PUSH1 0x1 PUSH1 0xA0 SHL SUB AND CALLER EQ PUSH2 0x2E6C JUMPI PUSH1 0x40 MLOAD PUSH3 0x461BCD PUSH1 0xE5 SHL DUP2 MSTORE PUSH1 0x4 ADD PUSH2 0x890 SWAP1 PUSH2 0x5535 JUMP JUMPDEST PUSH1 0x2 PUSH1 0x9 SLOAD EQ ISZERO PUSH2 0x2E8F JUMPI PUSH1 0x40 MLOAD PUSH3 0x461BCD PUSH1 0xE5 SHL DUP2 MSTORE PUSH1 0x4 ADD PUSH2 0x890 SWAP1 PUSH2 0x55B4 JUMP JUMPDEST PUSH1 0x2 PUSH1 0x9 SSTORE PUSH1 0x0 DUP1 PUSH1 0x4 PUSH1 0xFF DUP12 AND GT ISZERO PUSH2 0x2EFA JUMPI PUSH1 0x40 MLOAD PUSH3 0x461BCD PUSH1 0xE5 SHL DUP2 MSTORE PUSH1 0x20 PUSH1 0x4 DUP3 ADD MSTORE PUSH1 0x26 PUSH1 0x24 DUP3 ADD MSTORE PUSH32 0x554D424C42415345236D616B655072657365743A20494E56414C49445F544F4B PUSH1 0x44 DUP3 ADD MSTORE PUSH6 0x454E54595045 PUSH1 0xD0 SHL PUSH1 0x64 DUP3 ADD MSTORE PUSH1 0x84 ADD PUSH2 0x890 JUMP JUMPDEST PUSH1 0x64 DUP10 PUSH1 0xFF AND GT ISZERO PUSH2 0x2F5F JUMPI PUSH1 0x40 MLOAD PUSH3 0x461BCD PUSH1 0xE5 SHL DUP2 MSTORE PUSH1 0x20 PUSH1 0x4 DUP3 ADD MSTORE PUSH1 0x28 PUSH1 0x24 DUP3 ADD MSTORE PUSH32 0x554D424C42415345236D616B655072657365743A20494E56414C49445F4C4556 PUSH1 0x44 DUP3 ADD MSTORE PUSH8 0x454C5F56414C5545 PUSH1 0xC0 SHL PUSH1 0x64 DUP3 ADD MSTORE PUSH1 0x84 ADD PUSH2 0x890 JUMP JUMPDEST PUSH1 0x2 PUSH1 0xFF DUP10 AND GT ISZERO PUSH2 0x2FBF JUMPI PUSH1 0x40 MLOAD PUSH3 0x461BCD PUSH1 0xE5 SHL DUP2 MSTORE PUSH1 0x20 PUSH1 0x4 DUP3 ADD MSTORE PUSH1 0x24 DUP1 DUP3 ADD MSTORE PUSH32 0x554D424C42415345236D616B655072657365743A20494E56414C49445F464143 PUSH1 0x44 DUP3 ADD MSTORE PUSH4 0x2A24A7A7 PUSH1 0xE1 SHL PUSH1 0x64 DUP3 ADD MSTORE PUSH1 0x84 ADD PUSH2 0x890 JUMP JUMPDEST PUSH1 0x6 PUSH1 0xFF DUP9 AND GT ISZERO PUSH2 0x3021 JUMPI PUSH1 0x40 MLOAD PUSH3 0x461BCD PUSH1 0xE5 SHL DUP2 MSTORE PUSH1 0x20 PUSH1 0x4 DUP3 ADD MSTORE PUSH1 0x25 PUSH1 0x24 DUP3 ADD MSTORE PUSH32 0x554D424C42415345236D616B655072657365743A20494E56414C49445F434154 PUSH1 0x44 DUP3 ADD MSTORE PUSH5 0x45474F5259 PUSH1 0xD8 SHL PUSH1 0x64 DUP3 ADD MSTORE PUSH1 0x84 ADD PUSH2 0x890 JUMP JUMPDEST PUSH1 0x7 PUSH1 0xFF DUP8 AND GT ISZERO PUSH2 0x3081 JUMPI PUSH1 0x40 MLOAD PUSH3 0x461BCD PUSH1 0xE5 SHL DUP2 MSTORE PUSH1 0x20 PUSH1 0x4 DUP3 ADD MSTORE PUSH1 0x23 PUSH1 0x24 DUP3 ADD MSTORE PUSH32 0x554D424C42415345236D616B655072657365743A20494E56414C49445F524152 PUSH1 0x44 DUP3 ADD MSTORE PUSH3 0x495459 PUSH1 0xE8 SHL PUSH1 0x64 DUP3 ADD MSTORE PUSH1 0x84 ADD PUSH2 0x890 JUMP JUMPDEST PUSH1 0x5 PUSH1 0xFF DUP7 AND GT ISZERO PUSH2 0x30E4 JUMPI PUSH1 0x40 MLOAD PUSH3 0x461BCD PUSH1 0xE5 SHL DUP2 MSTORE PUSH1 0x20 PUSH1 0x4 DUP3 ADD MSTORE PUSH1 0x26 PUSH1 0x24 DUP3 ADD MSTORE PUSH32 0x554D424C42415345236D616B655072657365743A20494E56414C49445F424144 PUSH1 0x44 DUP3 ADD MSTORE PUSH6 0x474554595045 PUSH1 0xD0 SHL PUSH1 0x64 DUP3 ADD MSTORE PUSH1 0x84 ADD PUSH2 0x890 JUMP JUMPDEST PUSH1 0x8 PUSH1 0xFF DUP6 AND GT ISZERO PUSH2 0x3146 JUMPI PUSH1 0x40 MLOAD PUSH3 0x461BCD PUSH1 0xE5 SHL DUP2 MSTORE PUSH1 0x20 PUSH1 0x4 DUP3 ADD MSTORE PUSH1 0x25 PUSH1 0x24 DUP3 ADD MSTORE PUSH32 0x554D424C42415345236D616B655072657365743A20494E56414C49445F5A4F4E PUSH1 0x44 DUP3 ADD MSTORE PUSH5 0x4554595045 PUSH1 0xD8 SHL PUSH1 0x64 DUP3 ADD MSTORE PUSH1 0x84 ADD PUSH2 0x890 JUMP JUMPDEST PUSH1 0x0 DUP4 GT PUSH2 0x31A1 JUMPI PUSH1 0x40 MLOAD PUSH3 0x461BCD PUSH1 0xE5 SHL DUP2 MSTORE PUSH1 0x20 PUSH1 0x4 DUP3 ADD MSTORE PUSH1 0x22 PUSH1 0x24 DUP3 ADD MSTORE PUSH32 0x554D424C42415345236D616B655072657365743A20494E56414C49445F505249 PUSH1 0x44 DUP3 ADD MSTORE PUSH2 0x4345 PUSH1 0xF0 SHL PUSH1 0x64 DUP3 ADD MSTORE PUSH1 0x84 ADD PUSH2 0x890 JUMP JUMPDEST DUP11 PUSH2 0x31C9 JUMPI PUSH1 0x5 DUP1 SLOAD SWAP1 PUSH1 0x0 PUSH2 0x31B6 DUP4 PUSH2 0x57D1 JUMP JUMPDEST SWAP2 SWAP1 POP SSTORE POP PUSH1 0x5 SLOAD SWAP1 POP PUSH1 0x1 SWAP2 POP PUSH2 0x3232 JUMP JUMPDEST PUSH1 0x5 SLOAD DUP12 GT ISZERO PUSH2 0x322B JUMPI PUSH1 0x40 MLOAD PUSH3 0x461BCD PUSH1 0xE5 SHL DUP2 MSTORE PUSH1 0x20 PUSH1 0x4 DUP3 ADD MSTORE PUSH1 0x27 PUSH1 0x24 DUP3 ADD MSTORE PUSH32 0x554D424C42415345236D616B655072657365743A204E4F4E4558495354454E54 PUSH1 0x44 DUP3 ADD MSTORE PUSH7 0x17D4149154D155 PUSH1 0xCA SHL PUSH1 0x64 DUP3 ADD MSTORE PUSH1 0x84 ADD PUSH2 0x890 JUMP JUMPDEST POP PUSH1 0x0 SWAP1 POP DUP10 JUMPDEST PUSH1 0x40 DUP1 MLOAD PUSH2 0x140 DUP2 ADD DUP3 MSTORE DUP3 DUP2 MSTORE PUSH1 0xFF DUP13 DUP2 AND PUSH1 0x20 DUP1 DUP5 ADD SWAP2 DUP3 MSTORE DUP14 DUP4 AND DUP5 DUP7 ADD SWAP1 DUP2 MSTORE DUP14 DUP5 AND PUSH1 0x60 DUP7 ADD SWAP1 DUP2 MSTORE DUP14 DUP6 AND PUSH1 0x80 DUP8 ADD SWAP1 DUP2 MSTORE DUP14 DUP7 AND PUSH1 0xA0 DUP9 ADD SWAP1 DUP2 MSTORE DUP14 DUP8 AND PUSH1 0xC0 DUP10 ADD SWAP1 DUP2 MSTORE DUP14 DUP9 AND PUSH1 0xE0 DUP11 ADD SWAP1 DUP2 MSTORE PUSH2 0x100 DUP1 DUP12 ADD DUP16 DUP2 MSTORE PUSH1 0x0 PUSH2 0x120 DUP14 ADD DUP2 DUP2 MSTORE DUP16 DUP3 MSTORE PUSH1 0x1 SWAP11 DUP12 SWAP1 MSTORE SWAP14 SWAP1 KECCAK256 DUP13 MLOAD DUP2 SSTORE SWAP10 MLOAD SWAP9 DUP11 ADD DUP1 SLOAD SWAP9 MLOAD SWAP8 MLOAD SWAP7 MLOAD SWAP6 MLOAD SWAP5 MLOAD SWAP4 MLOAD SWAP10 DUP13 AND PUSH2 0xFFFF NOT SWAP1 SWAP10 AND SWAP9 SWAP1 SWAP9 OR SWAP7 DUP12 AND SWAP1 SWAP2 MUL SWAP6 SWAP1 SWAP6 OR PUSH4 0xFFFF0000 NOT AND PUSH3 0x10000 SWAP5 DUP11 AND SWAP5 SWAP1 SWAP5 MUL PUSH4 0xFF000000 NOT AND SWAP4 SWAP1 SWAP4 OR PUSH4 0x1000000 SWAP3 DUP10 AND SWAP3 SWAP1 SWAP3 MUL SWAP2 SWAP1 SWAP2 OR PUSH6 0xFFFF00000000 NOT AND PUSH5 0x100000000 SWAP2 DUP9 AND SWAP2 SWAP1 SWAP2 MUL PUSH6 0xFF0000000000 NOT AND OR PUSH1 0x1 PUSH1 0x28 SHL SWAP2 DUP8 AND SWAP2 SWAP1 SWAP2 MUL OR PUSH7 0xFF000000000000 NOT AND PUSH1 0x1 PUSH1 0x30 SHL SWAP4 SWAP1 SWAP6 AND SWAP3 SWAP1 SWAP3 MUL SWAP4 SWAP1 SWAP4 OR SWAP1 SWAP3 SSTORE SWAP1 MLOAD PUSH1 0x2 DUP3 ADD SSTORE SWAP2 MLOAD PUSH1 0x3 SWAP1 SWAP3 ADD DUP1 SLOAD PUSH1 0xFF NOT AND SWAP3 ISZERO ISZERO SWAP3 SWAP1 SWAP3 OR SWAP1 SWAP2 SSTORE DUP3 ISZERO PUSH2 0x33B0 JUMPI PUSH1 0x40 DUP1 MLOAD CALLER DUP2 MSTORE PUSH1 0x20 DUP2 ADD DUP5 SWAP1 MSTORE PUSH32 0xA3E5EF09FEAB9D2EBB9B46E4A29FF22B784D2752957CC7CF4E9A9E18B50ADD19 SWAP2 ADD PUSH1 0x40 MLOAD DUP1 SWAP2 SUB SWAP1 LOG1 PUSH2 0x33EA JUMP JUMPDEST PUSH1 0x40 DUP1 MLOAD CALLER DUP2 MSTORE PUSH1 0x20 DUP2 ADD DUP5 SWAP1 MSTORE PUSH32 0x45AF7CF685331762081BE8E61F7359823871A70D85550AA4FEEB01F16A447014 SWAP2 ADD PUSH1 0x40 MLOAD DUP1 SWAP2 SUB SWAP1 LOG1 JUMPDEST POP POP PUSH1 0x1 PUSH1 0x9 SSTORE POP POP POP POP POP POP POP POP POP POP JUMP JUMPDEST PUSH1 0x8 SLOAD PUSH1 0x1 PUSH1 0x1 PUSH1 0xA0 SHL SUB AND CALLER EQ PUSH2 0x3427 JUMPI PUSH1 0x40 MLOAD PUSH3 0x461BCD PUSH1 0xE5 SHL DUP2 MSTORE PUSH1 0x4 ADD PUSH2 0x890 SWAP1 PUSH2 0x5535 JUMP JUMPDEST PUSH1 0x2 PUSH1 0x9 SLOAD EQ ISZERO PUSH2 0x344A JUMPI PUSH1 0x40 MLOAD PUSH3 0x461BCD PUSH1 0xE5 SHL DUP2 MSTORE PUSH1 0x4 ADD PUSH2 0x890 SWAP1 PUSH2 0x55B4 JUMP JUMPDEST PUSH1 0x2 PUSH1 0x9 SSTORE PUSH1 0x7 SLOAD DUP2 GT ISZERO PUSH2 0x34B5 JUMPI PUSH1 0x40 MLOAD PUSH3 0x461BCD PUSH1 0xE5 SHL DUP2 MSTORE PUSH1 0x20 PUSH1 0x4 DUP3 ADD MSTORE PUSH1 0x2B PUSH1 0x24 DUP3 ADD MSTORE PUSH32 0x554D424C424153452364656C6574655061636B6167653A204E4F4E4558495354 PUSH1 0x44 DUP3 ADD MSTORE PUSH11 0x454E545F5041434B414745 PUSH1 0xA8 SHL PUSH1 0x64 DUP3 ADD MSTORE PUSH1 0x84 ADD PUSH2 0x890 JUMP JUMPDEST PUSH1 0x0 DUP2 DUP2 MSTORE PUSH1 0x3 PUSH1 0x20 SWAP1 DUP2 MSTORE PUSH1 0x40 DUP1 DUP4 KECCAK256 DUP2 MLOAD PUSH1 0xE0 DUP2 ADD DUP4 MSTORE DUP2 SLOAD DUP2 MSTORE PUSH1 0x1 DUP3 ADD SLOAD PUSH1 0xFF AND DUP2 DUP6 ADD MSTORE PUSH1 0x2 DUP3 ADD DUP1 SLOAD DUP5 MLOAD DUP2 DUP8 MUL DUP2 ADD DUP8 ADD DUP7 MSTORE DUP2 DUP2 MSTORE SWAP3 SWAP6 SWAP4 SWAP5 DUP7 ADD SWAP4 DUP4 ADD DUP3 DUP3 DUP1 ISZERO PUSH2 0x3528 JUMPI PUSH1 0x20 MUL DUP3 ADD SWAP2 SWAP1 PUSH1 0x0 MSTORE PUSH1 0x20 PUSH1 0x0 KECCAK256 SWAP1 JUMPDEST DUP2 SLOAD DUP2 MSTORE PUSH1 0x20 ADD SWAP1 PUSH1 0x1 ADD SWAP1 DUP1 DUP4 GT PUSH2 0x3514 JUMPI JUMPDEST POP POP POP SWAP2 DUP4 MSTORE POP POP PUSH1 0x3 DUP3 DUP2 ADD SLOAD PUSH1 0x20 DUP1 DUP5 ADD SWAP2 SWAP1 SWAP2 MSTORE PUSH1 0x4 DUP5 ADD SLOAD PUSH1 0x40 DUP1 DUP6 ADD SWAP2 SWAP1 SWAP2 MSTORE PUSH1 0x5 DUP6 ADD SLOAD PUSH1 0x60 DUP6 ADD MSTORE PUSH1 0x6 SWAP1 SWAP5 ADD SLOAD PUSH1 0xFF SWAP1 DUP2 AND ISZERO ISZERO PUSH1 0x80 SWAP1 SWAP5 ADD SWAP4 SWAP1 SWAP4 MSTORE PUSH1 0x1 PUSH1 0xC0 DUP7 ADD DUP2 SWAP1 MSTORE PUSH1 0x0 DUP9 DUP2 MSTORE SWAP3 DUP3 MSTORE SWAP2 DUP5 SWAP1 KECCAK256 DUP6 MLOAD DUP2 SSTORE DUP6 DUP3 ADD MLOAD SWAP3 DUP2 ADD DUP1 SLOAD PUSH1 0xFF NOT AND SWAP4 SWAP1 SWAP5 AND SWAP3 SWAP1 SWAP3 OR SWAP1 SWAP3 SSTORE SWAP2 DUP4 ADD MLOAD DUP1 MLOAD SWAP4 SWAP5 POP DUP5 SWAP4 PUSH2 0x35B9 SWAP3 PUSH1 0x2 DUP6 ADD SWAP3 ADD SWAP1 PUSH2 0x48A8 JUMP JUMPDEST POP PUSH1 0x60 DUP3 ADD MLOAD PUSH1 0x3 DUP3 ADD SSTORE PUSH1 0x80 DUP3 ADD MLOAD PUSH1 0x4 DUP3 ADD SSTORE PUSH1 0xA0 DUP3 ADD MLOAD PUSH1 0x5 DUP3 ADD SSTORE PUSH1 0xC0 SWAP1 SWAP2 ADD MLOAD PUSH1 0x6 SWAP1 SWAP2 ADD DUP1 SLOAD PUSH1 0xFF NOT AND SWAP2 ISZERO ISZERO SWAP2 SWAP1 SWAP2 OR SWAP1 SSTORE PUSH1 0x40 DUP1 MLOAD CALLER DUP2 MSTORE PUSH1 0x20 DUP2 ADD DUP5 SWAP1 MSTORE PUSH32 0x820E8EB770B2C0E12F47FDBA648BE0833DE85F9CED90A050394E798B98A4711E SWAP2 ADD PUSH2 0x20BF JUMP JUMPDEST PUSH1 0x8 SLOAD PUSH1 0x1 PUSH1 0x1 PUSH1 0xA0 SHL SUB AND CALLER EQ PUSH2 0x3652 JUMPI PUSH1 0x40 MLOAD PUSH3 0x461BCD PUSH1 0xE5 SHL DUP2 MSTORE PUSH1 0x4 ADD PUSH2 0x890 SWAP1 PUSH2 0x5535 JUMP JUMPDEST PUSH1 0x2 PUSH1 0x9 SLOAD EQ ISZERO PUSH2 0x3675 JUMPI PUSH1 0x40 MLOAD PUSH3 0x461BCD PUSH1 0xE5 SHL DUP2 MSTORE PUSH1 0x4 ADD PUSH2 0x890 SWAP1 PUSH2 0x55B4 JUMP JUMPDEST PUSH1 0x2 PUSH1 0x9 SSTORE PUSH1 0x5 SLOAD DUP2 GT ISZERO PUSH2 0x36DE JUMPI PUSH1 0x40 MLOAD PUSH3 0x461BCD PUSH1 0xE5 SHL DUP2 MSTORE PUSH1 0x20 PUSH1 0x4 DUP3 ADD MSTORE PUSH1 0x29 PUSH1 0x24 DUP3 ADD MSTORE PUSH32 0x554D424C424153452364656C6574655072657365743A204E4F4E455849535445 PUSH1 0x44 DUP3 ADD MSTORE PUSH9 0x139517D4149154D155 PUSH1 0xBA SHL PUSH1 0x64 DUP3 ADD MSTORE PUSH1 0x84 ADD PUSH2 0x890 JUMP JUMPDEST PUSH1 0x0 PUSH1 0x1 PUSH1 0x0 DUP4 DUP2 MSTORE PUSH1 0x20 ADD SWAP1 DUP2 MSTORE PUSH1 0x20 ADD PUSH1 0x0 KECCAK256 PUSH1 0x40 MLOAD DUP1 PUSH2 0x140 ADD PUSH1 0x40 MSTORE SWAP1 DUP2 PUSH1 0x0 DUP3 ADD SLOAD DUP2 MSTORE PUSH1 0x20 ADD PUSH1 0x1 DUP3 ADD PUSH1 0x0 SWAP1 SLOAD SWAP1 PUSH2 0x100 EXP SWAP1 DIV PUSH1 0xFF AND PUSH1 0xFF AND PUSH1 0xFF AND DUP2 MSTORE PUSH1 0x20 ADD PUSH1 0x1 DUP3 ADD PUSH1 0x1 SWAP1 SLOAD SWAP1 PUSH2 0x100 EXP SWAP1 DIV PUSH1 0xFF AND PUSH1 0xFF AND PUSH1 0xFF AND DUP2 MSTORE PUSH1 0x20 ADD PUSH1 0x1 DUP3 ADD PUSH1 0x2 SWAP1 SLOAD SWAP1 PUSH2 0x100 EXP SWAP1 DIV PUSH1 0xFF AND PUSH1 0xFF AND PUSH1 0xFF AND DUP2 MSTORE PUSH1 0x20 ADD PUSH1 0x1 DUP3 ADD PUSH1 0x3 SWAP1 SLOAD SWAP1 PUSH2 0x100 EXP SWAP1 DIV PUSH1 0xFF AND PUSH1 0xFF AND PUSH1 0xFF AND DUP2 MSTORE PUSH1 0x20 ADD PUSH1 0x1 DUP3 ADD PUSH1 0x4 SWAP1 SLOAD SWAP1 PUSH2 0x100 EXP SWAP1 DIV PUSH1 0xFF AND PUSH1 0xFF AND PUSH1 0xFF AND DUP2 MSTORE PUSH1 0x20 ADD PUSH1 0x1 DUP3 ADD PUSH1 0x5 SWAP1 SLOAD SWAP1 PUSH2 0x100 EXP SWAP1 DIV PUSH1 0xFF AND PUSH1 0xFF AND PUSH1 0xFF AND DUP2 MSTORE PUSH1 0x20 ADD PUSH1 0x1 DUP3 ADD PUSH1 0x6 SWAP1 SLOAD SWAP1 PUSH2 0x100 EXP SWAP1 DIV PUSH1 0xFF AND PUSH1 0xFF AND PUSH1 0xFF AND DUP2 MSTORE PUSH1 0x20 ADD PUSH1 0x2 DUP3 ADD SLOAD DUP2 MSTORE PUSH1 0x20 ADD PUSH1 0x3 DUP3 ADD PUSH1 0x0 SWAP1 SLOAD SWAP1 PUSH2 0x100 EXP SWAP1 DIV PUSH1 0xFF AND ISZERO ISZERO ISZERO ISZERO DUP2 MSTORE POP POP SWAP1 POP PUSH1 0x1 DUP2 PUSH2 0x120 ADD SWAP1 ISZERO ISZERO SWAP1 DUP2 ISZERO ISZERO DUP2 MSTORE POP POP DUP1 PUSH1 0x1 PUSH1 0x0 DUP5 DUP2 MSTORE PUSH1 0x20 ADD SWAP1 DUP2 MSTORE PUSH1 0x20 ADD PUSH1 0x0 KECCAK256 PUSH1 0x0 DUP3 ADD MLOAD DUP2 PUSH1 0x0 ADD SSTORE PUSH1 0x20 DUP3 ADD MLOAD DUP2 PUSH1 0x1 ADD PUSH1 0x0 PUSH2 0x100 EXP DUP2 SLOAD DUP2 PUSH1 0xFF MUL NOT AND SWAP1 DUP4 PUSH1 0xFF AND MUL OR SWAP1 SSTORE POP PUSH1 0x40 DUP3 ADD MLOAD DUP2 PUSH1 0x1 ADD PUSH1 0x1 PUSH2 0x100 EXP DUP2 SLOAD DUP2 PUSH1 0xFF MUL NOT AND SWAP1 DUP4 PUSH1 0xFF AND MUL OR SWAP1 SSTORE POP PUSH1 0x60 DUP3 ADD MLOAD DUP2 PUSH1 0x1 ADD PUSH1 0x2 PUSH2 0x100 EXP DUP2 SLOAD DUP2 PUSH1 0xFF MUL NOT AND SWAP1 DUP4 PUSH1 0xFF AND MUL OR SWAP1 SSTORE POP PUSH1 0x80 DUP3 ADD MLOAD DUP2 PUSH1 0x1 ADD PUSH1 0x3 PUSH2 0x100 EXP DUP2 SLOAD DUP2 PUSH1 0xFF MUL NOT AND SWAP1 DUP4 PUSH1 0xFF AND MUL OR SWAP1 SSTORE POP PUSH1 0xA0 DUP3 ADD MLOAD DUP2 PUSH1 0x1 ADD PUSH1 0x4 PUSH2 0x100 EXP DUP2 SLOAD DUP2 PUSH1 0xFF MUL NOT AND SWAP1 DUP4 PUSH1 0xFF AND MUL OR SWAP1 SSTORE POP PUSH1 0xC0 DUP3 ADD MLOAD DUP2 PUSH1 0x1 ADD PUSH1 0x5 PUSH2 0x100 EXP DUP2 SLOAD DUP2 PUSH1 0xFF MUL NOT AND SWAP1 DUP4 PUSH1 0xFF AND MUL OR SWAP1 SSTORE POP PUSH1 0xE0 DUP3 ADD MLOAD DUP2 PUSH1 0x1 ADD PUSH1 0x6 PUSH2 0x100 EXP DUP2 SLOAD DUP2 PUSH1 0xFF MUL NOT AND SWAP1 DUP4 PUSH1 0xFF AND MUL OR SWAP1 SSTORE POP PUSH2 0x100 DUP3 ADD MLOAD DUP2 PUSH1 0x2 ADD SSTORE PUSH2 0x120 DUP3 ADD MLOAD DUP2 PUSH1 0x3 ADD PUSH1 0x0 PUSH2 0x100 EXP DUP2 SLOAD DUP2 PUSH1 0xFF MUL NOT AND SWAP1 DUP4 ISZERO ISZERO MUL OR SWAP1 SSTORE POP SWAP1 POP POP PUSH32 0x7FBFBD3C8E7BC3F73B7158DA75E0698904615382767F71E38895820B30CA554D CALLER DUP4 PUSH1 0x40 MLOAD PUSH2 0x20BF SWAP3 SWAP2 SWAP1 PUSH1 0x1 PUSH1 0x1 PUSH1 0xA0 SHL SUB SWAP3 SWAP1 SWAP3 AND DUP3 MSTORE PUSH1 0x20 DUP3 ADD MSTORE PUSH1 0x40 ADD SWAP1 JUMP JUMPDEST PUSH1 0x1 PUSH1 0x1 PUSH1 0xA0 SHL SUB DUP6 AND CALLER EQ DUP1 PUSH2 0x39A2 JUMPI POP PUSH2 0x39A2 DUP6 CALLER PUSH2 0x7C1 JUMP JUMPDEST PUSH2 0x3A00 JUMPI PUSH1 0x40 MLOAD PUSH3 0x461BCD PUSH1 0xE5 SHL DUP2 MSTORE PUSH1 0x20 PUSH1 0x4 DUP3 ADD MSTORE PUSH1 0x29 PUSH1 0x24 DUP3 ADD MSTORE PUSH32 0x455243313135353A2063616C6C6572206973206E6F74206F776E6572206E6F72 PUSH1 0x44 DUP3 ADD MSTORE PUSH9 0x8185C1C1C9BDD9959 PUSH1 0xBA SHL PUSH1 0x64 DUP3 ADD MSTORE PUSH1 0x84 ADD PUSH2 0x890 JUMP JUMPDEST PUSH2 0x192F DUP6 DUP6 DUP6 DUP6 DUP6 PUSH2 0x43E2 JUMP JUMPDEST PUSH1 0x8 SLOAD PUSH1 0x1 PUSH1 0x1 PUSH1 0xA0 SHL SUB AND CALLER EQ PUSH2 0x3A37 JUMPI PUSH1 0x40 MLOAD PUSH3 0x461BCD PUSH1 0xE5 SHL DUP2 MSTORE PUSH1 0x4 ADD PUSH2 0x890 SWAP1 PUSH2 0x5535 JUMP JUMPDEST PUSH1 0x1 PUSH1 0x1 PUSH1 0xA0 SHL SUB DUP2 AND PUSH2 0x3A9C JUMPI PUSH1 0x40 MLOAD PUSH3 0x461BCD PUSH1 0xE5 SHL DUP2 MSTORE PUSH1 0x20 PUSH1 0x4 DUP3 ADD MSTORE PUSH1 0x26 PUSH1 0x24 DUP3 ADD MSTORE PUSH32 0x4F776E61626C653A206E6577206F776E657220697320746865207A65726F2061 PUSH1 0x44 DUP3 ADD MSTORE PUSH6 0x646472657373 PUSH1 0xD0 SHL PUSH1 0x64 DUP3 ADD MSTORE PUSH1 0x84 ADD PUSH2 0x890 JUMP JUMPDEST PUSH2 0x3AA5 DUP2 PUSH2 0x4390 JUMP JUMPDEST POP JUMP JUMPDEST PUSH1 0x8 SLOAD PUSH1 0x1 PUSH1 0x1 PUSH1 0xA0 SHL SUB AND CALLER EQ PUSH2 0x3AD2 JUMPI PUSH1 0x40 MLOAD PUSH3 0x461BCD PUSH1 0xE5 SHL DUP2 MSTORE PUSH1 0x4 ADD PUSH2 0x890 SWAP1 PUSH2 0x5535 JUMP JUMPDEST PUSH1 0x2 PUSH1 0x9 SLOAD EQ ISZERO PUSH2 0x3AF5 JUMPI PUSH1 0x40 MLOAD PUSH3 0x461BCD PUSH1 0xE5 SHL DUP2 MSTORE PUSH1 0x4 ADD PUSH2 0x890 SWAP1 PUSH2 0x55B4 JUMP JUMPDEST PUSH1 0x2 PUSH1 0x9 SSTORE PUSH1 0x0 DUP1 DUP1 PUSH1 0xFF DUP9 AND ISZERO DUP1 ISZERO SWAP1 PUSH2 0x3B14 JUMPI POP PUSH1 0x64 DUP9 PUSH1 0xFF AND GT ISZERO JUMPDEST PUSH2 0x3B71 JUMPI PUSH1 0x40 MLOAD PUSH3 0x461BCD PUSH1 0xE5 SHL DUP2 MSTORE PUSH1 0x20 PUSH1 0x4 DUP3 ADD MSTORE PUSH1 0x28 PUSH1 0x24 DUP3 ADD MSTORE PUSH32 0x554D424C42415345236D616B655061636B6167653A20494E56414C49445F544F PUSH1 0x44 DUP3 ADD MSTORE PUSH8 0x12D15390D3D55395 PUSH1 0xC2 SHL PUSH1 0x64 DUP3 ADD MSTORE PUSH1 0x84 ADD PUSH2 0x890 JUMP JUMPDEST PUSH1 0x0 DUP8 MLOAD GT DUP1 ISZERO PUSH2 0x3B84 JUMPI POP PUSH1 0x64 DUP8 MLOAD GT ISZERO JUMPDEST PUSH2 0x3BE4 JUMPI PUSH1 0x40 MLOAD PUSH3 0x461BCD PUSH1 0xE5 SHL DUP2 MSTORE PUSH1 0x20 PUSH1 0x4 DUP3 ADD MSTORE PUSH1 0x2B PUSH1 0x24 DUP3 ADD MSTORE PUSH32 0x554D424C42415345236D616B655061636B6167653A20494E56414C49445F5052 PUSH1 0x44 DUP3 ADD MSTORE PUSH11 0x8AA68AA8BE988A9C8EA89 PUSH1 0xAB SHL PUSH1 0x64 DUP3 ADD MSTORE PUSH1 0x84 ADD PUSH2 0x890 JUMP JUMPDEST PUSH1 0x0 SWAP3 POP JUMPDEST DUP7 MLOAD DUP4 LT ISZERO PUSH2 0x3CA7 JUMPI PUSH1 0x0 DUP8 DUP5 DUP2 MLOAD DUP2 LT PUSH2 0x3C06 JUMPI PUSH2 0x3C06 PUSH2 0x582C JUMP JUMPDEST PUSH1 0x20 MUL PUSH1 0x20 ADD ADD MLOAD GT DUP1 ISZERO PUSH2 0x3C36 JUMPI POP PUSH1 0x5 SLOAD DUP8 DUP5 DUP2 MLOAD DUP2 LT PUSH2 0x3C2B JUMPI PUSH2 0x3C2B PUSH2 0x582C JUMP JUMPDEST PUSH1 0x20 MUL PUSH1 0x20 ADD ADD MLOAD GT ISZERO JUMPDEST PUSH2 0x3C95 JUMPI PUSH1 0x40 MLOAD PUSH3 0x461BCD PUSH1 0xE5 SHL DUP2 MSTORE PUSH1 0x20 PUSH1 0x4 DUP3 ADD MSTORE PUSH1 0x2A PUSH1 0x24 DUP3 ADD MSTORE PUSH32 0x554D424C42415345236D616B655061636B6167653A20494E56414C49445F5052 PUSH1 0x44 DUP3 ADD MSTORE PUSH10 0x455345545F56414C5545 PUSH1 0xB0 SHL PUSH1 0x64 DUP3 ADD MSTORE PUSH1 0x84 ADD PUSH2 0x890 JUMP JUMPDEST DUP3 PUSH2 0x3C9F DUP2 PUSH2 0x57D1 JUMP JUMPDEST SWAP4 POP POP PUSH2 0x3BE9 JUMP JUMPDEST DUP5 DUP7 LT PUSH2 0x3D05 JUMPI PUSH1 0x40 MLOAD PUSH3 0x461BCD PUSH1 0xE5 SHL DUP2 MSTORE PUSH1 0x20 PUSH1 0x4 DUP3 ADD MSTORE PUSH1 0x26 PUSH1 0x24 DUP3 ADD MSTORE PUSH32 0x554D424C42415345236D616B655061636B6167653A20494E56414C49445F4441 PUSH1 0x44 DUP3 ADD MSTORE PUSH6 0x544554494D45 PUSH1 0xD0 SHL PUSH1 0x64 DUP3 ADD MSTORE PUSH1 0x84 ADD PUSH2 0x890 JUMP JUMPDEST PUSH1 0x0 DUP5 GT PUSH2 0x3D61 JUMPI PUSH1 0x40 MLOAD PUSH3 0x461BCD PUSH1 0xE5 SHL DUP2 MSTORE PUSH1 0x20 PUSH1 0x4 DUP3 ADD MSTORE PUSH1 0x23 PUSH1 0x24 DUP3 ADD MSTORE PUSH32 0x554D424C42415345236D616B655061636B6167653A20494E56414C49445F5052 PUSH1 0x44 DUP3 ADD MSTORE PUSH3 0x494345 PUSH1 0xE8 SHL PUSH1 0x64 DUP3 ADD MSTORE PUSH1 0x84 ADD PUSH2 0x890 JUMP JUMPDEST DUP9 PUSH2 0x3D89 JUMPI PUSH1 0x7 DUP1 SLOAD SWAP1 PUSH1 0x0 PUSH2 0x3D76 DUP4 PUSH2 0x57D1 JUMP JUMPDEST SWAP2 SWAP1 POP SSTORE POP PUSH1 0x7 SLOAD SWAP1 POP PUSH1 0x1 SWAP2 POP PUSH2 0x3DF4 JUMP JUMPDEST PUSH1 0x7 SLOAD DUP10 GT ISZERO PUSH2 0x3DED JUMPI PUSH1 0x40 MLOAD PUSH3 0x461BCD PUSH1 0xE5 SHL DUP2 MSTORE PUSH1 0x20 PUSH1 0x4 DUP3 ADD MSTORE PUSH1 0x29 PUSH1 0x24 DUP3 ADD MSTORE PUSH32 0x554D424C42415345236D616B655061636B6167653A204E4F4E4558495354454E PUSH1 0x44 DUP3 ADD MSTORE PUSH9 0x545F5041434B414745 PUSH1 0xB8 SHL PUSH1 0x64 DUP3 ADD MSTORE PUSH1 0x84 ADD PUSH2 0x890 JUMP JUMPDEST POP PUSH1 0x0 SWAP1 POP DUP8 JUMPDEST PUSH1 0x40 DUP1 MLOAD PUSH1 0xE0 DUP2 ADD DUP3 MSTORE DUP3 DUP2 MSTORE PUSH1 0xFF DUP11 DUP2 AND PUSH1 0x20 DUP1 DUP5 ADD SWAP2 DUP3 MSTORE DUP5 MLOAD PUSH1 0x0 DUP1 DUP3 MSTORE DUP2 DUP4 ADD DUP8 MSTORE DUP6 DUP8 ADD SWAP2 DUP3 MSTORE PUSH1 0x60 DUP7 ADD DUP14 SWAP1 MSTORE PUSH1 0x80 DUP7 ADD DUP13 SWAP1 MSTORE PUSH1 0xA0 DUP7 ADD DUP12 SWAP1 MSTORE PUSH1 0xC0 DUP7 ADD DUP2 SWAP1 MSTORE DUP8 DUP2 MSTORE PUSH1 0x3 DUP4 MSTORE SWAP6 SWAP1 SWAP6 KECCAK256 DUP5 MLOAD DUP2 SSTORE SWAP2 MLOAD PUSH1 0x1 DUP4 ADD DUP1 SLOAD PUSH1 0xFF NOT AND SWAP2 SWAP1 SWAP5 AND OR SWAP1 SWAP3 SSTORE SWAP3 MLOAD DUP1 MLOAD SWAP3 SWAP4 DUP5 SWAP4 SWAP1 SWAP3 PUSH2 0x3E7A SWAP3 PUSH1 0x2 DUP6 ADD SWAP3 SWAP2 ADD SWAP1 PUSH2 0x48A8 JUMP JUMPDEST POP PUSH1 0x60 DUP3 ADD MLOAD PUSH1 0x3 DUP3 ADD SSTORE PUSH1 0x80 DUP3 ADD MLOAD PUSH1 0x4 DUP3 ADD SSTORE PUSH1 0xA0 DUP3 ADD MLOAD PUSH1 0x5 DUP3 ADD SSTORE PUSH1 0xC0 SWAP1 SWAP2 ADD MLOAD PUSH1 0x6 SWAP1 SWAP2 ADD DUP1 SLOAD PUSH1 0xFF NOT AND SWAP2 ISZERO ISZERO SWAP2 SWAP1 SWAP2 OR SWAP1 SSTORE PUSH1 0x0 SWAP4 POP JUMPDEST DUP8 MLOAD DUP5 LT ISZERO PUSH2 0x3F1A JUMPI PUSH1 0x3 PUSH1 0x0 DUP4 DUP2 MSTORE PUSH1 0x20 ADD SWAP1 DUP2 MSTORE PUSH1 0x20 ADD PUSH1 0x0 KECCAK256 PUSH1 0x2 ADD DUP9 DUP6 DUP2 MLOAD DUP2 LT PUSH2 0x3EE9 JUMPI PUSH2 0x3EE9 PUSH2 0x582C JUMP JUMPDEST PUSH1 0x20 SWAP1 DUP2 MUL SWAP2 SWAP1 SWAP2 ADD DUP2 ADD MLOAD DUP3 SLOAD PUSH1 0x1 DUP2 ADD DUP5 SSTORE PUSH1 0x0 SWAP4 DUP5 MSTORE SWAP2 SWAP1 SWAP3 KECCAK256 ADD SSTORE DUP4 PUSH2 0x3F12 DUP2 PUSH2 0x57D1 JUMP JUMPDEST SWAP5 POP POP PUSH2 0x3EB8 JUMP JUMPDEST DUP3 ISZERO PUSH2 0x3F56 JUMPI PUSH1 0x40 DUP1 MLOAD CALLER DUP2 MSTORE PUSH1 0x20 DUP2 ADD DUP5 SWAP1 MSTORE PUSH32 0x9A581DB5A4322FF40F46AFCF48414597CC769603683F040592C0AAACDB830885 SWAP2 ADD PUSH2 0x2612 JUMP JUMPDEST PUSH1 0x40 DUP1 MLOAD CALLER DUP2 MSTORE PUSH1 0x20 DUP2 ADD DUP5 SWAP1 MSTORE PUSH32 0x71124BD86CEC580C57EA511EA7DBA49EFF5D65D0ABFAF5F6F87A730F7F32722 SWAP2 ADD PUSH2 0x2651 JUMP JUMPDEST PUSH1 0x60 DUP2 PUSH2 0x3FB0 JUMPI POP POP PUSH1 0x40 DUP1 MLOAD DUP1 DUP3 ADD SWAP1 SWAP2 MSTORE PUSH1 0x1 DUP2 MSTORE PUSH1 0x3 PUSH1 0xFC SHL PUSH1 0x20 DUP3 ADD MSTORE SWAP1 JUMP JUMPDEST DUP2 PUSH1 0x0 JUMPDEST DUP2 ISZERO PUSH2 0x3FDA JUMPI DUP1 PUSH2 0x3FC4 DUP2 PUSH2 0x57D1 JUMP JUMPDEST SWAP2 POP PUSH2 0x3FD3 SWAP1 POP PUSH1 0xA DUP4 PUSH2 0x56F0 JUMP JUMPDEST SWAP2 POP PUSH2 0x3FB4 JUMP JUMPDEST PUSH1 0x0 DUP2 PUSH1 0x1 PUSH1 0x1 PUSH1 0x40 SHL SUB DUP2 GT ISZERO PUSH2 0x3FF4 JUMPI PUSH2 0x3FF4 PUSH2 0x5842 JUMP JUMPDEST PUSH1 0x40 MLOAD SWAP1 DUP1 DUP3 MSTORE DUP1 PUSH1 0x1F ADD PUSH1 0x1F NOT AND PUSH1 0x20 ADD DUP3 ADD PUSH1 0x40 MSTORE DUP1 ISZERO PUSH2 0x401E JUMPI PUSH1 0x20 DUP3 ADD DUP2 DUP1 CALLDATASIZE DUP4 CALLDATACOPY ADD SWAP1 POP JUMPDEST POP SWAP1 POP JUMPDEST DUP5 ISZERO PUSH2 0x4089 JUMPI PUSH2 0x4033 PUSH1 0x1 DUP4 PUSH2 0x5723 JUMP JUMPDEST SWAP2 POP PUSH2 0x4040 PUSH1 0xA DUP7 PUSH2 0x57EC JUMP JUMPDEST PUSH2 0x404B SWAP1 PUSH1 0x30 PUSH2 0x56D8 JUMP JUMPDEST PUSH1 0xF8 SHL DUP2 DUP4 DUP2 MLOAD DUP2 LT PUSH2 0x4060 JUMPI PUSH2 0x4060 PUSH2 0x582C JUMP JUMPDEST PUSH1 0x20 ADD ADD SWAP1 PUSH1 0x1 PUSH1 0x1 PUSH1 0xF8 SHL SUB NOT AND SWAP1 DUP2 PUSH1 0x0 BYTE SWAP1 MSTORE8 POP PUSH2 0x4082 PUSH1 0xA DUP7 PUSH2 0x56F0 JUMP JUMPDEST SWAP5 POP PUSH2 0x4022 JUMP JUMPDEST SWAP5 SWAP4 POP POP POP POP JUMP JUMPDEST PUSH1 0x1 PUSH1 0x1 PUSH1 0xA0 SHL SUB DUP5 AND PUSH2 0x40F1 JUMPI PUSH1 0x40 MLOAD PUSH3 0x461BCD PUSH1 0xE5 SHL DUP2 MSTORE PUSH1 0x20 PUSH1 0x4 DUP3 ADD MSTORE PUSH1 0x21 PUSH1 0x24 DUP3 ADD MSTORE PUSH32 0x455243313135353A206D696E7420746F20746865207A65726F20616464726573 PUSH1 0x44 DUP3 ADD MSTORE PUSH1 0x73 PUSH1 0xF8 SHL PUSH1 0x64 DUP3 ADD MSTORE PUSH1 0x84 ADD PUSH2 0x890 JUMP JUMPDEST CALLER PUSH2 0x410B DUP2 PUSH1 0x0 DUP8 PUSH2 0x4102 DUP9 PUSH2 0x4503 JUMP JUMPDEST PUSH2 0x192F DUP9 PUSH2 0x4503 JUMP JUMPDEST PUSH1 0x0 DUP5 DUP2 MSTORE PUSH1 0xA PUSH1 0x20 SWAP1 DUP2 MSTORE PUSH1 0x40 DUP1 DUP4 KECCAK256 PUSH1 0x1 PUSH1 0x1 PUSH1 0xA0 SHL SUB DUP10 AND DUP5 MSTORE SWAP1 SWAP2 MSTORE DUP2 KECCAK256 DUP1 SLOAD DUP6 SWAP3 SWAP1 PUSH2 0x413D SWAP1 DUP5 SWAP1 PUSH2 0x56D8 JUMP JUMPDEST SWAP1 SWAP2 SSTORE POP POP PUSH1 0x40 DUP1 MLOAD DUP6 DUP2 MSTORE PUSH1 0x20 DUP2 ADD DUP6 SWAP1 MSTORE PUSH1 0x1 PUSH1 0x1 PUSH1 0xA0 SHL SUB DUP1 DUP9 AND SWAP3 PUSH1 0x0 SWAP3 SWAP2 DUP6 AND SWAP2 PUSH32 0xC3D58168C5AE7397731D063D5BBF3D657854427343F4C083240F7AACAA2D0F62 SWAP2 ADD PUSH1 0x40 MLOAD DUP1 SWAP2 SUB SWAP1 LOG4 PUSH2 0x192F DUP2 PUSH1 0x0 DUP8 DUP8 DUP8 DUP8 PUSH2 0x454E JUMP JUMPDEST PUSH1 0x0 PUSH2 0x41A9 DUP3 DUP5 PUSH2 0x56D8 JUMP JUMPDEST SWAP4 SWAP3 POP POP POP JUMP JUMPDEST DUP2 MLOAD DUP4 MLOAD EQ PUSH2 0x4212 JUMPI PUSH1 0x40 MLOAD PUSH3 0x461BCD PUSH1 0xE5 SHL DUP2 MSTORE PUSH1 0x20 PUSH1 0x4 DUP3 ADD MSTORE PUSH1 0x28 PUSH1 0x24 DUP3 ADD MSTORE PUSH32 0x455243313135353A2069647320616E6420616D6F756E7473206C656E67746820 PUSH1 0x44 DUP3 ADD MSTORE PUSH8 0xDAD2E6DAC2E8C6D PUSH1 0xC3 SHL PUSH1 0x64 DUP3 ADD MSTORE PUSH1 0x84 ADD PUSH2 0x890 JUMP JUMPDEST PUSH1 0x1 PUSH1 0x1 PUSH1 0xA0 SHL SUB DUP5 AND PUSH2 0x4238 JUMPI PUSH1 0x40 MLOAD PUSH3 0x461BCD PUSH1 0xE5 SHL DUP2 MSTORE PUSH1 0x4 ADD PUSH2 0x890 SWAP1 PUSH2 0x54A6 JUMP JUMPDEST CALLER PUSH1 0x0 JUMPDEST DUP5 MLOAD DUP2 LT ISZERO PUSH2 0x4322 JUMPI PUSH1 0x0 DUP6 DUP3 DUP2 MLOAD DUP2 LT PUSH2 0x4259 JUMPI PUSH2 0x4259 PUSH2 0x582C JUMP JUMPDEST PUSH1 0x20 MUL PUSH1 0x20 ADD ADD MLOAD SWAP1 POP PUSH1 0x0 DUP6 DUP4 DUP2 MLOAD DUP2 LT PUSH2 0x4277 JUMPI PUSH2 0x4277 PUSH2 0x582C JUMP JUMPDEST PUSH1 0x20 SWAP1 DUP2 MUL SWAP2 SWAP1 SWAP2 ADD DUP2 ADD MLOAD PUSH1 0x0 DUP5 DUP2 MSTORE PUSH1 0xA DUP4 MSTORE PUSH1 0x40 DUP1 DUP3 KECCAK256 PUSH1 0x1 PUSH1 0x1 PUSH1 0xA0 SHL SUB DUP15 AND DUP4 MSTORE SWAP1 SWAP4 MSTORE SWAP2 SWAP1 SWAP2 KECCAK256 SLOAD SWAP1 SWAP2 POP DUP2 DUP2 LT ISZERO PUSH2 0x42C8 JUMPI PUSH1 0x40 MLOAD PUSH3 0x461BCD PUSH1 0xE5 SHL DUP2 MSTORE PUSH1 0x4 ADD PUSH2 0x890 SWAP1 PUSH2 0x54EB JUMP JUMPDEST PUSH1 0x0 DUP4 DUP2 MSTORE PUSH1 0xA PUSH1 0x20 SWAP1 DUP2 MSTORE PUSH1 0x40 DUP1 DUP4 KECCAK256 PUSH1 0x1 PUSH1 0x1 PUSH1 0xA0 SHL SUB DUP15 DUP2 AND DUP6 MSTORE SWAP3 MSTORE DUP1 DUP4 KECCAK256 DUP6 DUP6 SUB SWAP1 SSTORE SWAP1 DUP12 AND DUP3 MSTORE DUP2 KECCAK256 DUP1 SLOAD DUP5 SWAP3 SWAP1 PUSH2 0x4307 SWAP1 DUP5 SWAP1 PUSH2 0x56D8 JUMP JUMPDEST SWAP3 POP POP DUP2 SWAP1 SSTORE POP POP POP POP DUP1 PUSH2 0x431B SWAP1 PUSH2 0x57D1 JUMP JUMPDEST SWAP1 POP PUSH2 0x423C JUMP JUMPDEST POP DUP5 PUSH1 0x1 PUSH1 0x1 PUSH1 0xA0 SHL SUB AND DUP7 PUSH1 0x1 PUSH1 0x1 PUSH1 0xA0 SHL SUB AND DUP3 PUSH1 0x1 PUSH1 0x1 PUSH1 0xA0 SHL SUB AND PUSH32 0x4A39DC06D4C0DBC64B70AF90FD698A233A518AA5D07E595D983B8C0526C8F7FB DUP8 DUP8 PUSH1 0x40 MLOAD PUSH2 0x4372 SWAP3 SWAP2 SWAP1 PUSH2 0x5426 JUMP JUMPDEST PUSH1 0x40 MLOAD DUP1 SWAP2 SUB SWAP1 LOG4 PUSH2 0x4388 DUP2 DUP8 DUP8 DUP8 DUP8 DUP8 PUSH2 0x46B9 JUMP JUMPDEST POP POP POP POP POP POP JUMP JUMPDEST PUSH1 0x8 DUP1 SLOAD PUSH1 0x1 PUSH1 0x1 PUSH1 0xA0 SHL SUB DUP4 DUP2 AND PUSH1 0x1 PUSH1 0x1 PUSH1 0xA0 SHL SUB NOT DUP4 AND DUP2 OR SWAP1 SWAP4 SSTORE PUSH1 0x40 MLOAD SWAP2 AND SWAP2 SWAP1 DUP3 SWAP1 PUSH32 0x8BE0079C531659141344CD1FD0A4F28419497F9722A3DAAFE3B4186F6B6457E0 SWAP1 PUSH1 0x0 SWAP1 LOG3 POP POP JUMP JUMPDEST PUSH1 0x1 PUSH1 0x1 PUSH1 0xA0 SHL SUB DUP5 AND PUSH2 0x4408 JUMPI PUSH1 0x40 MLOAD PUSH3 0x461BCD PUSH1 0xE5 SHL DUP2 MSTORE PUSH1 0x4 ADD PUSH2 0x890 SWAP1 PUSH2 0x54A6 JUMP JUMPDEST CALLER PUSH2 0x4418 DUP2 DUP8 DUP8 PUSH2 0x4102 DUP9 PUSH2 0x4503 JUMP JUMPDEST PUSH1 0x0 DUP5 DUP2 MSTORE PUSH1 0xA PUSH1 0x20 SWAP1 DUP2 MSTORE PUSH1 0x40 DUP1 DUP4 KECCAK256 PUSH1 0x1 PUSH1 0x1 PUSH1 0xA0 SHL SUB DUP11 AND DUP5 MSTORE SWAP1 SWAP2 MSTORE SWAP1 KECCAK256 SLOAD DUP4 DUP2 LT ISZERO PUSH2 0x445B JUMPI PUSH1 0x40 MLOAD PUSH3 0x461BCD PUSH1 0xE5 SHL DUP2 MSTORE PUSH1 0x4 ADD PUSH2 0x890 SWAP1 PUSH2 0x54EB JUMP JUMPDEST PUSH1 0x0 DUP6 DUP2 MSTORE PUSH1 0xA PUSH1 0x20 SWAP1 DUP2 MSTORE PUSH1 0x40 DUP1 DUP4 KECCAK256 PUSH1 0x1 PUSH1 0x1 PUSH1 0xA0 SHL SUB DUP12 DUP2 AND DUP6 MSTORE SWAP3 MSTORE DUP1 DUP4 KECCAK256 DUP8 DUP6 SUB SWAP1 SSTORE SWAP1 DUP9 AND DUP3 MSTORE DUP2 KECCAK256 DUP1 SLOAD DUP7 SWAP3 SWAP1 PUSH2 0x449A SWAP1 DUP5 SWAP1 PUSH2 0x56D8 JUMP JUMPDEST SWAP1 SWAP2 SSTORE POP POP PUSH1 0x40 DUP1 MLOAD DUP7 DUP2 MSTORE PUSH1 0x20 DUP2 ADD DUP7 SWAP1 MSTORE PUSH1 0x1 PUSH1 0x1 PUSH1 0xA0 SHL SUB DUP1 DUP10 AND SWAP3 DUP11 DUP3 AND SWAP3 SWAP2 DUP7 AND SWAP2 PUSH32 0xC3D58168C5AE7397731D063D5BBF3D657854427343F4C083240F7AACAA2D0F62 SWAP2 ADD PUSH1 0x40 MLOAD DUP1 SWAP2 SUB SWAP1 LOG4 PUSH2 0x44FA DUP3 DUP9 DUP9 DUP9 DUP9 DUP9 PUSH2 0x454E JUMP JUMPDEST POP POP POP POP POP POP POP JUMP JUMPDEST PUSH1 0x40 DUP1 MLOAD PUSH1 0x1 DUP1 DUP3 MSTORE DUP2 DUP4 ADD SWAP1 SWAP3 MSTORE PUSH1 0x60 SWAP2 PUSH1 0x0 SWAP2 SWAP1 PUSH1 0x20 DUP1 DUP4 ADD SWAP1 DUP1 CALLDATASIZE DUP4 CALLDATACOPY ADD SWAP1 POP POP SWAP1 POP DUP3 DUP2 PUSH1 0x0 DUP2 MLOAD DUP2 LT PUSH2 0x453D JUMPI PUSH2 0x453D PUSH2 0x582C JUMP JUMPDEST PUSH1 0x20 SWAP1 DUP2 MUL SWAP2 SWAP1 SWAP2 ADD ADD MSTORE SWAP3 SWAP2 POP POP JUMP JUMPDEST PUSH1 0x1 PUSH1 0x1 PUSH1 0xA0 SHL SUB DUP5 AND EXTCODESIZE ISZERO PUSH2 0x4388 JUMPI PUSH1 0x40 MLOAD PUSH4 0xF23A6E61 PUSH1 0xE0 SHL DUP2 MSTORE PUSH1 0x1 PUSH1 0x1 PUSH1 0xA0 SHL SUB DUP6 AND SWAP1 PUSH4 0xF23A6E61 SWAP1 PUSH2 0x4592 SWAP1 DUP10 SWAP1 DUP10 SWAP1 DUP9 SWAP1 DUP9 SWAP1 DUP9 SWAP1 PUSH1 0x4 ADD PUSH2 0x52ED JUMP JUMPDEST PUSH1 0x20 PUSH1 0x40 MLOAD DUP1 DUP4 SUB DUP2 PUSH1 0x0 DUP8 DUP1 EXTCODESIZE ISZERO DUP1 ISZERO PUSH2 0x45AC JUMPI PUSH1 0x0 DUP1 REVERT JUMPDEST POP GAS CALL SWAP3 POP POP POP DUP1 ISZERO PUSH2 0x45DC JUMPI POP PUSH1 0x40 DUP1 MLOAD PUSH1 0x1F RETURNDATASIZE SWAP1 DUP2 ADD PUSH1 0x1F NOT AND DUP3 ADD SWAP1 SWAP3 MSTORE PUSH2 0x45D9 SWAP2 DUP2 ADD SWAP1 PUSH2 0x4E4E JUMP JUMPDEST PUSH1 0x1 JUMPDEST PUSH2 0x4689 JUMPI PUSH2 0x45E8 PUSH2 0x5858 JUMP JUMPDEST DUP1 PUSH4 0x8C379A0 EQ ISZERO PUSH2 0x4622 JUMPI POP PUSH2 0x45FD PUSH2 0x5874 JUMP JUMPDEST DUP1 PUSH2 0x4608 JUMPI POP PUSH2 0x4624 JUMP JUMPDEST DUP1 PUSH1 0x40 MLOAD PUSH3 0x461BCD PUSH1 0xE5 SHL DUP2 MSTORE PUSH1 0x4 ADD PUSH2 0x890 SWAP2 SWAP1 PUSH2 0x544B JUMP JUMPDEST POP JUMPDEST PUSH1 0x40 MLOAD PUSH3 0x461BCD PUSH1 0xE5 SHL DUP2 MSTORE PUSH1 0x20 PUSH1 0x4 DUP3 ADD MSTORE PUSH1 0x34 PUSH1 0x24 DUP3 ADD MSTORE PUSH32 0x455243313135353A207472616E7366657220746F206E6F6E2045524331313535 PUSH1 0x44 DUP3 ADD MSTORE PUSH20 0x2932B1B2B4BB32B91034B6B83632B6B2B73A32B9 PUSH1 0x61 SHL PUSH1 0x64 DUP3 ADD MSTORE PUSH1 0x84 ADD PUSH2 0x890 JUMP JUMPDEST PUSH1 0x1 PUSH1 0x1 PUSH1 0xE0 SHL SUB NOT DUP2 AND PUSH4 0xF23A6E61 PUSH1 0xE0 SHL EQ PUSH2 0x44FA JUMPI PUSH1 0x40 MLOAD PUSH3 0x461BCD PUSH1 0xE5 SHL DUP2 MSTORE PUSH1 0x4 ADD PUSH2 0x890 SWAP1 PUSH2 0x545E JUMP JUMPDEST PUSH1 0x1 PUSH1 0x1 PUSH1 0xA0 SHL SUB DUP5 AND EXTCODESIZE ISZERO PUSH2 0x4388 JUMPI PUSH1 0x40 MLOAD PUSH4 0xBC197C81 PUSH1 0xE0 SHL DUP2 MSTORE PUSH1 0x1 PUSH1 0x1 PUSH1 0xA0 SHL SUB DUP6 AND SWAP1 PUSH4 0xBC197C81 SWAP1 PUSH2 0x46FD SWAP1 DUP10 SWAP1 DUP10 SWAP1 DUP9 SWAP1 DUP9 SWAP1 DUP9 SWAP1 PUSH1 0x4 ADD PUSH2 0x528F JUMP JUMPDEST PUSH1 0x20 PUSH1 0x40 MLOAD DUP1 DUP4 SUB DUP2 PUSH1 0x0 DUP8 DUP1 EXTCODESIZE ISZERO DUP1 ISZERO PUSH2 0x4717 JUMPI PUSH1 0x0 DUP1 REVERT JUMPDEST POP GAS CALL SWAP3 POP POP POP DUP1 ISZERO PUSH2 0x4747 JUMPI POP PUSH1 0x40 DUP1 MLOAD PUSH1 0x1F RETURNDATASIZE SWAP1 DUP2 ADD PUSH1 0x1F NOT AND DUP3 ADD SWAP1 SWAP3 MSTORE PUSH2 0x4744 SWAP2 DUP2 ADD SWAP1 PUSH2 0x4E4E JUMP JUMPDEST PUSH1 0x1 JUMPDEST PUSH2 0x4753 JUMPI PUSH2 0x45E8 PUSH2 0x5858 JUMP JUMPDEST PUSH1 0x1 PUSH1 0x1 PUSH1 0xE0 SHL SUB NOT DUP2 AND PUSH4 0xBC197C81 PUSH1 0xE0 SHL EQ PUSH2 0x44FA JUMPI PUSH1 0x40 MLOAD PUSH3 0x461BCD PUSH1 0xE5 SHL DUP2 MSTORE PUSH1 0x4 ADD PUSH2 0x890 SWAP1 PUSH2 0x545E JUMP JUMPDEST DUP3 DUP1 SLOAD PUSH2 0x478F SWAP1 PUSH2 0x576A JUMP JUMPDEST SWAP1 PUSH1 0x0 MSTORE PUSH1 0x20 PUSH1 0x0 KECCAK256 SWAP1 PUSH1 0x1F ADD PUSH1 0x20 SWAP1 DIV DUP2 ADD SWAP3 DUP3 PUSH2 0x47B1 JUMPI PUSH1 0x0 DUP6 SSTORE PUSH2 0x47F7 JUMP JUMPDEST DUP3 PUSH1 0x1F LT PUSH2 0x47CA JUMPI DUP1 MLOAD PUSH1 0xFF NOT AND DUP4 DUP1 ADD OR DUP6 SSTORE PUSH2 0x47F7 JUMP JUMPDEST DUP3 DUP1 ADD PUSH1 0x1 ADD DUP6 SSTORE DUP3 ISZERO PUSH2 0x47F7 JUMPI SWAP2 DUP3 ADD JUMPDEST DUP3 DUP2 GT ISZERO PUSH2 0x47F7 JUMPI DUP3 MLOAD DUP3 SSTORE SWAP2 PUSH1 0x20 ADD SWAP2 SWAP1 PUSH1 0x1 ADD SWAP1 PUSH2 0x47DC JUMP JUMPDEST POP PUSH2 0x4803 SWAP3 SWAP2 POP PUSH2 0x48E2 JUMP JUMPDEST POP SWAP1 JUMP JUMPDEST DUP3 DUP1 SLOAD DUP3 DUP3 SSTORE SWAP1 PUSH1 0x0 MSTORE PUSH1 0x20 PUSH1 0x0 KECCAK256 SWAP1 PUSH1 0x1F ADD PUSH1 0x20 SWAP1 DIV DUP2 ADD SWAP3 DUP3 ISZERO PUSH2 0x47F7 JUMPI SWAP2 PUSH1 0x20 MUL DUP3 ADD PUSH1 0x0 JUMPDEST DUP4 DUP3 GT ISZERO PUSH2 0x486E JUMPI DUP4 MLOAD DUP4 DUP3 PUSH2 0x100 EXP DUP2 SLOAD DUP2 PUSH1 0xFF MUL NOT AND SWAP1 DUP4 PUSH1 0xFF AND MUL OR SWAP1 SSTORE POP SWAP3 PUSH1 0x20 ADD SWAP3 PUSH1 0x1 ADD PUSH1 0x20 DUP2 PUSH1 0x0 ADD DIV SWAP3 DUP4 ADD SWAP3 PUSH1 0x1 SUB MUL PUSH2 0x4830 JUMP JUMPDEST DUP1 ISZERO PUSH2 0x489B JUMPI DUP3 DUP2 PUSH2 0x100 EXP DUP2 SLOAD SWAP1 PUSH1 0xFF MUL NOT AND SWAP1 SSTORE PUSH1 0x1 ADD PUSH1 0x20 DUP2 PUSH1 0x0 ADD DIV SWAP3 DUP4 ADD SWAP3 PUSH1 0x1 SUB MUL PUSH2 0x486E JUMP JUMPDEST POP POP PUSH2 0x4803 SWAP3 SWAP2 POP PUSH2 0x48E2 JUMP JUMPDEST DUP3 DUP1 SLOAD DUP3 DUP3 SSTORE SWAP1 PUSH1 0x0 MSTORE PUSH1 0x20 PUSH1 0x0 KECCAK256 SWAP1 DUP2 ADD SWAP3 DUP3 ISZERO PUSH2 0x47F7 JUMPI SWAP2 PUSH1 0x20 MUL DUP3 ADD DUP3 DUP2 GT ISZERO PUSH2 0x47F7 JUMPI DUP3 MLOAD DUP3 SSTORE SWAP2 PUSH1 0x20 ADD SWAP2 SWAP1 PUSH1 0x1 ADD SWAP1 PUSH2 0x47DC JUMP JUMPDEST JUMPDEST DUP1 DUP3 GT ISZERO PUSH2 0x4803 JUMPI PUSH1 0x0 DUP2 SSTORE PUSH1 0x1 ADD PUSH2 0x48E3 JUMP JUMPDEST PUSH1 0x0 PUSH1 0x1 PUSH1 0x1 PUSH1 0x40 SHL SUB DUP4 GT ISZERO PUSH2 0x4910 JUMPI PUSH2 0x4910 PUSH2 0x5842 JUMP JUMPDEST PUSH1 0x40 MLOAD PUSH2 0x4927 PUSH1 0x1F DUP6 ADD PUSH1 0x1F NOT AND PUSH1 0x20 ADD DUP3 PUSH2 0x57A5 JUMP JUMPDEST DUP1 SWAP2 POP DUP4 DUP2 MSTORE DUP5 DUP5 DUP5 ADD GT ISZERO PUSH2 0x493C JUMPI PUSH1 0x0 DUP1 REVERT JUMPDEST DUP4 DUP4 PUSH1 0x20 DUP4 ADD CALLDATACOPY PUSH1 0x0 PUSH1 0x20 DUP6 DUP4 ADD ADD MSTORE POP SWAP4 SWAP3 POP POP POP JUMP JUMPDEST DUP1 CALLDATALOAD PUSH1 0x1 PUSH1 0x1 PUSH1 0xA0 SHL SUB DUP2 AND DUP2 EQ PUSH2 0x496B JUMPI PUSH1 0x0 DUP1 REVERT JUMPDEST SWAP2 SWAP1 POP JUMP JUMPDEST PUSH1 0x0 DUP3 PUSH1 0x1F DUP4 ADD SLT PUSH2 0x4981 JUMPI PUSH1 0x0 DUP1 REVERT JUMPDEST DUP2 CALLDATALOAD PUSH1 0x20 PUSH2 0x498E DUP3 PUSH2 0x56B5 JUMP JUMPDEST PUSH1 0x40 MLOAD PUSH2 0x499B DUP3 DUP3 PUSH2 0x57A5 JUMP JUMPDEST DUP4 DUP2 MSTORE DUP3 DUP2 ADD SWAP2 POP DUP6 DUP4 ADD PUSH1 0x5 DUP6 SWAP1 SHL DUP8 ADD DUP5 ADD DUP9 LT ISZERO PUSH2 0x49BB JUMPI PUSH1 0x0 DUP1 REVERT JUMPDEST PUSH1 0x0 JUMPDEST DUP6 DUP2 LT ISZERO PUSH2 0x49E1 JUMPI PUSH2 0x49CF DUP3 PUSH2 0x4954 JUMP JUMPDEST DUP5 MSTORE SWAP3 DUP5 ADD SWAP3 SWAP1 DUP5 ADD SWAP1 PUSH1 0x1 ADD PUSH2 0x49BE JUMP JUMPDEST POP SWAP1 SWAP8 SWAP7 POP POP POP POP POP POP POP JUMP JUMPDEST PUSH1 0x0 DUP3 PUSH1 0x1F DUP4 ADD SLT PUSH2 0x49FF JUMPI PUSH1 0x0 DUP1 REVERT JUMPDEST DUP2 CALLDATALOAD PUSH1 0x20 PUSH2 0x4A0C DUP3 PUSH2 0x56B5 JUMP JUMPDEST PUSH1 0x40 MLOAD PUSH2 0x4A19 DUP3 DUP3 PUSH2 0x57A5 JUMP JUMPDEST DUP4 DUP2 MSTORE DUP3 DUP2 ADD SWAP2 POP DUP6 DUP4 ADD PUSH1 0x5 DUP6 SWAP1 SHL DUP8 ADD DUP5 ADD DUP9 LT ISZERO PUSH2 0x4A39 JUMPI PUSH1 0x0 DUP1 REVERT JUMPDEST PUSH1 0x0 JUMPDEST DUP6 DUP2 LT ISZERO PUSH2 0x49E1 JUMPI DUP2 CALLDATALOAD DUP5 MSTORE SWAP3 DUP5 ADD SWAP3 SWAP1 DUP5 ADD SWAP1 PUSH1 0x1 ADD PUSH2 0x4A3C JUMP JUMPDEST DUP1 CALLDATALOAD DUP1 ISZERO ISZERO DUP2 EQ PUSH2 0x496B JUMPI PUSH1 0x0 DUP1 REVERT JUMPDEST PUSH1 0x0 DUP3 PUSH1 0x1F DUP4 ADD SLT PUSH2 0x4A79 JUMPI PUSH1 0x0 DUP1 REVERT JUMPDEST PUSH2 0x41A9 DUP4 DUP4 CALLDATALOAD PUSH1 0x20 DUP6 ADD PUSH2 0x48F7 JUMP JUMPDEST DUP1 CALLDATALOAD PUSH1 0xFF DUP2 AND DUP2 EQ PUSH2 0x496B JUMPI PUSH1 0x0 DUP1 REVERT JUMPDEST PUSH1 0x0 PUSH1 0x20 DUP3 DUP5 SUB SLT ISZERO PUSH2 0x4AAB JUMPI PUSH1 0x0 DUP1 REVERT JUMPDEST PUSH2 0x41A9 DUP3 PUSH2 0x4954 JUMP JUMPDEST PUSH1 0x0 DUP1 PUSH1 0x40 DUP4 DUP6 SUB SLT ISZERO PUSH2 0x4AC7 JUMPI PUSH1 0x0 DUP1 REVERT JUMPDEST PUSH2 0x4AD0 DUP4 PUSH2 0x4954 JUMP JUMPDEST SWAP2 POP PUSH2 0x4ADE PUSH1 0x20 DUP5 ADD PUSH2 0x4954 JUMP JUMPDEST SWAP1 POP SWAP3 POP SWAP3 SWAP1 POP JUMP JUMPDEST PUSH1 0x0 DUP1 PUSH1 0x0 DUP1 PUSH1 0x0 PUSH1 0xA0 DUP7 DUP9 SUB SLT ISZERO PUSH2 0x4AFF JUMPI PUSH1 0x0 DUP1 REVERT JUMPDEST PUSH2 0x4B08 DUP7 PUSH2 0x4954 JUMP JUMPDEST SWAP5 POP PUSH2 0x4B16 PUSH1 0x20 DUP8 ADD PUSH2 0x4954 JUMP JUMPDEST SWAP4 POP PUSH1 0x40 DUP7 ADD CALLDATALOAD PUSH1 0x1 PUSH1 0x1 PUSH1 0x40 SHL SUB DUP1 DUP3 GT ISZERO PUSH2 0x4B32 JUMPI PUSH1 0x0 DUP1 REVERT JUMPDEST PUSH2 0x4B3E DUP10 DUP4 DUP11 ADD PUSH2 0x49EE JUMP JUMPDEST SWAP5 POP PUSH1 0x60 DUP9 ADD CALLDATALOAD SWAP2 POP DUP1 DUP3 GT ISZERO PUSH2 0x4B54 JUMPI PUSH1 0x0 DUP1 REVERT JUMPDEST PUSH2 0x4B60 DUP10 DUP4 DUP11 ADD PUSH2 0x49EE JUMP JUMPDEST SWAP4 POP PUSH1 0x80 DUP9 ADD CALLDATALOAD SWAP2 POP DUP1 DUP3 GT ISZERO PUSH2 0x4B76 JUMPI PUSH1 0x0 DUP1 REVERT JUMPDEST POP PUSH2 0x4B83 DUP9 DUP3 DUP10 ADD PUSH2 0x4A68 JUMP JUMPDEST SWAP2 POP POP SWAP3 SWAP6 POP SWAP3 SWAP6 SWAP1 SWAP4 POP JUMP JUMPDEST PUSH1 0x0 DUP1 PUSH1 0x0 DUP1 PUSH1 0x0 PUSH1 0xA0 DUP7 DUP9 SUB SLT ISZERO PUSH2 0x4BA8 JUMPI PUSH1 0x0 DUP1 REVERT JUMPDEST PUSH2 0x4BB1 DUP7 PUSH2 0x4954 JUMP JUMPDEST SWAP5 POP PUSH2 0x4BBF PUSH1 0x20 DUP8 ADD PUSH2 0x4954 JUMP JUMPDEST SWAP4 POP PUSH1 0x40 DUP7 ADD CALLDATALOAD SWAP3 POP PUSH1 0x60 DUP7 ADD CALLDATALOAD SWAP2 POP PUSH1 0x80 DUP7 ADD CALLDATALOAD PUSH1 0x1 PUSH1 0x1 PUSH1 0x40 SHL SUB DUP2 GT ISZERO PUSH2 0x4BE8 JUMPI PUSH1 0x0 DUP1 REVERT JUMPDEST PUSH2 0x4B83 DUP9 DUP3 DUP10 ADD PUSH2 0x4A68 JUMP JUMPDEST PUSH1 0x0 DUP1 PUSH1 0x40 DUP4 DUP6 SUB SLT ISZERO PUSH2 0x4C07 JUMPI PUSH1 0x0 DUP1 REVERT JUMPDEST PUSH2 0x4C10 DUP4 PUSH2 0x4954 JUMP JUMPDEST SWAP2 POP PUSH2 0x4ADE PUSH1 0x20 DUP5 ADD PUSH2 0x4A58 JUMP JUMPDEST PUSH1 0x0 DUP1 PUSH1 0x40 DUP4 DUP6 SUB SLT ISZERO PUSH2 0x4C31 JUMPI PUSH1 0x0 DUP1 REVERT JUMPDEST PUSH2 0x4C3A DUP4 PUSH2 0x4954 JUMP JUMPDEST SWAP5 PUSH1 0x20 SWAP4 SWAP1 SWAP4 ADD CALLDATALOAD SWAP4 POP POP POP JUMP JUMPDEST PUSH1 0x0 DUP1 PUSH1 0x40 DUP4 DUP6 SUB SLT ISZERO PUSH2 0x4C5B JUMPI PUSH1 0x0 DUP1 REVERT JUMPDEST DUP3 CALLDATALOAD PUSH1 0x1 PUSH1 0x1 PUSH1 0x40 SHL SUB DUP1 DUP3 GT ISZERO PUSH2 0x4C72 JUMPI PUSH1 0x0 DUP1 REVERT JUMPDEST PUSH2 0x4C7E DUP7 DUP4 DUP8 ADD PUSH2 0x4970 JUMP JUMPDEST SWAP4 POP PUSH1 0x20 SWAP2 POP DUP2 DUP6 ADD CALLDATALOAD DUP2 DUP2 GT ISZERO PUSH2 0x4C95 JUMPI PUSH1 0x0 DUP1 REVERT JUMPDEST DUP6 ADD PUSH1 0x1F DUP2 ADD DUP8 SGT PUSH2 0x4CA6 JUMPI PUSH1 0x0 DUP1 REVERT JUMPDEST DUP1 CALLDATALOAD PUSH2 0x4CB1 DUP2 PUSH2 0x56B5 JUMP JUMPDEST PUSH1 0x40 MLOAD PUSH2 0x4CBE DUP3 DUP3 PUSH2 0x57A5 JUMP JUMPDEST DUP3 DUP2 MSTORE DUP6 DUP2 ADD SWAP2 POP DUP4 DUP7 ADD PUSH1 0x5 DUP5 SWAP1 SHL DUP6 ADD DUP8 ADD DUP12 LT ISZERO PUSH2 0x4CDE JUMPI PUSH1 0x0 DUP1 REVERT JUMPDEST PUSH1 0x0 DUP1 JUMPDEST DUP6 DUP2 LT ISZERO PUSH2 0x4D19 JUMPI DUP3 CALLDATALOAD DUP9 DUP2 GT ISZERO PUSH2 0x4CF8 JUMPI DUP3 DUP4 REVERT JUMPDEST PUSH2 0x4D06 DUP15 DUP12 DUP4 DUP12 ADD ADD PUSH2 0x49EE JUMP JUMPDEST DUP7 MSTORE POP SWAP4 DUP9 ADD SWAP4 SWAP2 DUP9 ADD SWAP2 PUSH1 0x1 ADD PUSH2 0x4CE2 JUMP JUMPDEST POP POP POP DUP1 SWAP7 POP POP POP POP POP POP POP SWAP3 POP SWAP3 SWAP1 POP JUMP JUMPDEST PUSH1 0x0 DUP1 PUSH1 0x40 DUP4 DUP6 SUB SLT ISZERO PUSH2 0x4D3F JUMPI PUSH1 0x0 DUP1 REVERT JUMPDEST DUP3 CALLDATALOAD PUSH1 0x1 PUSH1 0x1 PUSH1 0x40 SHL SUB DUP1 DUP3 GT ISZERO PUSH2 0x4D56 JUMPI PUSH1 0x0 DUP1 REVERT JUMPDEST PUSH2 0x4D62 DUP7 DUP4 DUP8 ADD PUSH2 0x4970 JUMP JUMPDEST SWAP4 POP PUSH1 0x20 DUP6 ADD CALLDATALOAD SWAP2 POP DUP1 DUP3 GT ISZERO PUSH2 0x4D78 JUMPI PUSH1 0x0 DUP1 REVERT JUMPDEST POP PUSH2 0x4D85 DUP6 DUP3 DUP7 ADD PUSH2 0x49EE JUMP JUMPDEST SWAP2 POP POP SWAP3 POP SWAP3 SWAP1 POP JUMP JUMPDEST PUSH1 0x0 DUP1 PUSH1 0x0 PUSH1 0x60 DUP5 DUP7 SUB SLT ISZERO PUSH2 0x4DA4 JUMPI PUSH1 0x0 DUP1 REVERT JUMPDEST DUP4 CALLDATALOAD PUSH1 0x1 PUSH1 0x1 PUSH1 0x40 SHL SUB DUP1 DUP3 GT ISZERO PUSH2 0x4DBB JUMPI PUSH1 0x0 DUP1 REVERT JUMPDEST PUSH2 0x4DC7 DUP8 DUP4 DUP9 ADD PUSH2 0x4970 JUMP JUMPDEST SWAP5 POP PUSH1 0x20 DUP7 ADD CALLDATALOAD SWAP2 POP DUP1 DUP3 GT ISZERO PUSH2 0x4DDD JUMPI PUSH1 0x0 DUP1 REVERT JUMPDEST PUSH2 0x4DE9 DUP8 DUP4 DUP9 ADD PUSH2 0x49EE JUMP JUMPDEST SWAP4 POP PUSH1 0x40 DUP7 ADD CALLDATALOAD SWAP2 POP DUP1 DUP3 GT ISZERO PUSH2 0x4DFF JUMPI PUSH1 0x0 DUP1 REVERT JUMPDEST POP PUSH2 0x4E0C DUP7 DUP3 DUP8 ADD PUSH2 0x49EE JUMP JUMPDEST SWAP2 POP POP SWAP3 POP SWAP3 POP SWAP3 JUMP JUMPDEST PUSH1 0x0 PUSH1 0x20 DUP3 DUP5 SUB SLT ISZERO PUSH2 0x4E28 JUMPI PUSH1 0x0 DUP1 REVERT JUMPDEST PUSH2 0x41A9 DUP3 PUSH2 0x4A58 JUMP JUMPDEST PUSH1 0x0 PUSH1 0x20 DUP3 DUP5 SUB SLT ISZERO PUSH2 0x4E43 JUMPI PUSH1 0x0 DUP1 REVERT JUMPDEST DUP2 CALLDATALOAD PUSH2 0x41A9 DUP2 PUSH2 0x58FD JUMP JUMPDEST PUSH1 0x0 PUSH1 0x20 DUP3 DUP5 SUB SLT ISZERO PUSH2 0x4E60 JUMPI PUSH1 0x0 DUP1 REVERT JUMPDEST DUP2 MLOAD PUSH2 0x41A9 DUP2 PUSH2 0x58FD JUMP JUMPDEST PUSH1 0x0 PUSH1 0x20 DUP3 DUP5 SUB SLT ISZERO PUSH2 0x4E7D JUMPI PUSH1 0x0 DUP1 REVERT JUMPDEST DUP2 CALLDATALOAD PUSH1 0x1 PUSH1 0x1 PUSH1 0x40 SHL SUB DUP2 GT ISZERO PUSH2 0x4E93 JUMPI PUSH1 0x0 DUP1 REVERT JUMPDEST DUP3 ADD PUSH1 0x1F DUP2 ADD DUP5 SGT PUSH2 0x4EA4 JUMPI PUSH1 0x0 DUP1 REVERT JUMPDEST PUSH2 0x4089 DUP5 DUP3 CALLDATALOAD PUSH1 0x20 DUP5 ADD PUSH2 0x48F7 JUMP JUMPDEST PUSH1 0x0 PUSH1 0x20 DUP3 DUP5 SUB SLT ISZERO PUSH2 0x4EC5 JUMPI PUSH1 0x0 DUP1 REVERT JUMPDEST POP CALLDATALOAD SWAP2 SWAP1 POP JUMP JUMPDEST PUSH1 0x0 DUP1 PUSH1 0x0 DUP1 PUSH1 0x0 DUP1 PUSH1 0xC0 DUP8 DUP10 SUB SLT ISZERO PUSH2 0x4EE5 JUMPI PUSH1 0x0 DUP1 REVERT JUMPDEST DUP7 CALLDATALOAD SWAP6 POP PUSH2 0x4EF5 PUSH1 0x20 DUP9 ADD PUSH2 0x4954 JUMP JUMPDEST SWAP5 POP PUSH2 0x4F03 PUSH1 0x40 DUP9 ADD PUSH2 0x4A88 JUMP JUMPDEST SWAP4 POP PUSH2 0x4F11 PUSH1 0x60 DUP9 ADD PUSH2 0x4A88 JUMP JUMPDEST SWAP3 POP PUSH1 0x80 DUP8 ADD CALLDATALOAD SWAP2 POP PUSH2 0x4F26 PUSH1 0xA0 DUP9 ADD PUSH2 0x4A58 JUMP JUMPDEST SWAP1 POP SWAP3 SWAP6 POP SWAP3 SWAP6 POP SWAP3 SWAP6 JUMP JUMPDEST PUSH1 0x0 DUP1 PUSH1 0x0 DUP1 PUSH1 0x0 DUP1 PUSH1 0xC0 DUP8 DUP10 SUB SLT ISZERO PUSH2 0x4F4B JUMPI PUSH1 0x0 DUP1 REVERT JUMPDEST DUP7 CALLDATALOAD SWAP6 POP PUSH2 0x4F5B PUSH1 0x20 DUP9 ADD PUSH2 0x4A88 JUMP JUMPDEST SWAP5 POP PUSH1 0x40 DUP8 ADD CALLDATALOAD PUSH1 0x1 PUSH1 0x1 PUSH1 0x40 SHL SUB DUP2 GT ISZERO PUSH2 0x4F76 JUMPI PUSH1 0x0 DUP1 REVERT JUMPDEST PUSH2 0x4F82 DUP10 DUP3 DUP11 ADD PUSH2 0x49EE JUMP JUMPDEST SWAP5 POP POP PUSH1 0x60 DUP8 ADD CALLDATALOAD SWAP3 POP PUSH1 0x80 DUP8 ADD CALLDATALOAD SWAP2 POP PUSH1 0xA0 DUP8 ADD CALLDATALOAD SWAP1 POP SWAP3 SWAP6 POP SWAP3 SWAP6 POP SWAP3 SWAP6 JUMP JUMPDEST PUSH1 0x0 DUP1 PUSH1 0x0 DUP1 PUSH1 0x0 DUP1 PUSH1 0xC0 DUP8 DUP10 SUB SLT ISZERO PUSH2 0x4FBD JUMPI PUSH1 0x0 DUP1 REVERT JUMPDEST DUP7 CALLDATALOAD SWAP6 POP PUSH1 0x20 PUSH2 0x4FCE DUP2 DUP10 ADD PUSH2 0x4A88 JUMP JUMPDEST SWAP6 POP PUSH2 0x4FDC PUSH1 0x40 DUP10 ADD PUSH2 0x4A88 JUMP JUMPDEST SWAP5 POP PUSH1 0x60 DUP9 ADD CALLDATALOAD PUSH1 0x1 PUSH1 0x1 PUSH1 0x40 SHL SUB DUP2 GT ISZERO PUSH2 0x4FF7 JUMPI PUSH1 0x0 DUP1 REVERT JUMPDEST DUP9 ADD PUSH1 0x1F DUP2 ADD DUP11 SGT PUSH2 0x5008 JUMPI PUSH1 0x0 DUP1 REVERT JUMPDEST DUP1 CALLDATALOAD PUSH2 0x5013 DUP2 PUSH2 0x56B5 JUMP JUMPDEST PUSH1 0x40 MLOAD PUSH2 0x5020 DUP3 DUP3 PUSH2 0x57A5 JUMP JUMPDEST DUP3 DUP2 MSTORE DUP5 DUP2 ADD SWAP2 POP DUP4 DUP6 ADD PUSH1 0x5 DUP5 SWAP1 SHL DUP6 ADD DUP7 ADD DUP15 LT ISZERO PUSH2 0x5040 JUMPI PUSH1 0x0 DUP1 REVERT JUMPDEST PUSH1 0x0 SWAP5 POP JUMPDEST DUP4 DUP6 LT ISZERO PUSH2 0x506A JUMPI PUSH2 0x5056 DUP2 PUSH2 0x4A88 JUMP JUMPDEST DUP4 MSTORE PUSH1 0x1 SWAP5 SWAP1 SWAP5 ADD SWAP4 SWAP2 DUP6 ADD SWAP2 DUP6 ADD PUSH2 0x5045 JUMP JUMPDEST POP DUP1 SWAP8 POP POP POP POP POP POP PUSH2 0x507F PUSH1 0x80 DUP9 ADD PUSH2 0x4A88 JUMP JUMPDEST SWAP2 POP PUSH1 0xA0 DUP8 ADD CALLDATALOAD SWAP1 POP SWAP3 SWAP6 POP SWAP3 SWAP6 POP SWAP3 SWAP6 JUMP JUMPDEST PUSH1 0x0 DUP1 PUSH1 0x0 DUP1 PUSH1 0x0 DUP1 PUSH1 0x0 DUP1 PUSH1 0x0 PUSH2 0x120 DUP11 DUP13 SUB SLT ISZERO PUSH2 0x50B1 JUMPI PUSH1 0x0 DUP1 REVERT JUMPDEST DUP10 CALLDATALOAD SWAP9 POP PUSH2 0x50C1 PUSH1 0x20 DUP12 ADD PUSH2 0x4A88 JUMP JUMPDEST SWAP8 POP PUSH2 0x50CF PUSH1 0x40 DUP12 ADD PUSH2 0x4A88 JUMP JUMPDEST SWAP7 POP PUSH2 0x50DD PUSH1 0x60 DUP12 ADD PUSH2 0x4A88 JUMP JUMPDEST SWAP6 POP PUSH2 0x50EB PUSH1 0x80 DUP12 ADD PUSH2 0x4A88 JUMP JUMPDEST SWAP5 POP PUSH2 0x50F9 PUSH1 0xA0 DUP12 ADD PUSH2 0x4A88 JUMP JUMPDEST SWAP4 POP PUSH2 0x5107 PUSH1 0xC0 DUP12 ADD PUSH2 0x4A88 JUMP JUMPDEST SWAP3 POP PUSH2 0x5115 PUSH1 0xE0 DUP12 ADD PUSH2 0x4A88 JUMP JUMPDEST SWAP2 POP PUSH2 0x100 DUP11 ADD CALLDATALOAD SWAP1 POP SWAP3 SWAP6 SWAP9 POP SWAP3 SWAP6 SWAP9 POP SWAP3 SWAP6 SWAP9 JUMP JUMPDEST PUSH1 0x0 DUP2 MLOAD DUP1 DUP5 MSTORE PUSH1 0x20 DUP1 DUP6 ADD SWAP5 POP DUP1 DUP5 ADD PUSH1 0x0 JUMPDEST DUP4 DUP2 LT ISZERO PUSH2 0x5165 JUMPI DUP2 MLOAD PUSH1 0x1 PUSH1 0x1 PUSH1 0xA0 SHL SUB AND DUP8 MSTORE SWAP6 DUP3 ADD SWAP6 SWAP1 DUP3 ADD SWAP1 PUSH1 0x1 ADD PUSH2 0x5140 JUMP JUMPDEST POP SWAP5 SWAP6 SWAP5 POP POP POP POP POP JUMP JUMPDEST PUSH1 0x0 DUP2 MLOAD DUP1 DUP5 MSTORE PUSH1 0x20 DUP1 DUP6 ADD SWAP5 POP DUP1 DUP5 ADD PUSH1 0x0 JUMPDEST DUP4 DUP2 LT ISZERO PUSH2 0x5165 JUMPI DUP2 MLOAD DUP8 MSTORE SWAP6 DUP3 ADD SWAP6 SWAP1 DUP3 ADD SWAP1 PUSH1 0x1 ADD PUSH2 0x5184 JUMP JUMPDEST PUSH1 0x0 DUP2 MLOAD DUP1 DUP5 MSTORE PUSH2 0x51B8 DUP2 PUSH1 0x20 DUP7 ADD PUSH1 0x20 DUP7 ADD PUSH2 0x573A JUMP JUMPDEST PUSH1 0x1F ADD PUSH1 0x1F NOT AND SWAP3 SWAP1 SWAP3 ADD PUSH1 0x20 ADD SWAP3 SWAP2 POP POP JUMP JUMPDEST PUSH1 0x0 DUP2 MLOAD PUSH2 0x51DE DUP2 DUP6 PUSH1 0x20 DUP7 ADD PUSH2 0x573A JUMP JUMPDEST SWAP3 SWAP1 SWAP3 ADD SWAP3 SWAP2 POP POP JUMP JUMPDEST PUSH1 0x0 DUP1 DUP5 SLOAD DUP2 PUSH1 0x1 DUP3 DUP2 SHR SWAP2 POP DUP1 DUP4 AND DUP1 PUSH2 0x5204 JUMPI PUSH1 0x7F DUP4 AND SWAP3 POP JUMPDEST PUSH1 0x20 DUP1 DUP5 LT DUP3 EQ ISZERO PUSH2 0x5224 JUMPI PUSH4 0x4E487B71 PUSH1 0xE0 SHL DUP7 MSTORE PUSH1 0x22 PUSH1 0x4 MSTORE PUSH1 0x24 DUP7 REVERT JUMPDEST DUP2 DUP1 ISZERO PUSH2 0x5238 JUMPI PUSH1 0x1 DUP2 EQ PUSH2 0x5249 JUMPI PUSH2 0x5276 JUMP JUMPDEST PUSH1 0xFF NOT DUP7 AND DUP10 MSTORE DUP5 DUP10 ADD SWAP7 POP PUSH2 0x5276 JUMP JUMPDEST PUSH1 0x0 DUP12 DUP2 MSTORE PUSH1 0x20 SWAP1 KECCAK256 PUSH1 0x0 JUMPDEST DUP7 DUP2 LT ISZERO PUSH2 0x526E JUMPI DUP2 SLOAD DUP12 DUP3 ADD MSTORE SWAP1 DUP6 ADD SWAP1 DUP4 ADD PUSH2 0x5255 JUMP JUMPDEST POP POP DUP5 DUP10 ADD SWAP7 POP JUMPDEST POP POP POP POP POP POP PUSH2 0x5286 DUP2 DUP6 PUSH2 0x51CC JUMP JUMPDEST SWAP6 SWAP5 POP POP POP POP POP JUMP JUMPDEST PUSH1 0x1 PUSH1 0x1 PUSH1 0xA0 SHL SUB DUP7 DUP2 AND DUP3 MSTORE DUP6 AND PUSH1 0x20 DUP3 ADD MSTORE PUSH1 0xA0 PUSH1 0x40 DUP3 ADD DUP2 SWAP1 MSTORE PUSH1 0x0 SWAP1 PUSH2 0x52BB SWAP1 DUP4 ADD DUP7 PUSH2 0x5170 JUMP JUMPDEST DUP3 DUP2 SUB PUSH1 0x60 DUP5 ADD MSTORE PUSH2 0x52CD DUP2 DUP7 PUSH2 0x5170 JUMP JUMPDEST SWAP1 POP DUP3 DUP2 SUB PUSH1 0x80 DUP5 ADD MSTORE PUSH2 0x52E1 DUP2 DUP6 PUSH2 0x51A0 JUMP JUMPDEST SWAP9 SWAP8 POP POP POP POP POP POP POP POP JUMP JUMPDEST PUSH1 0x1 PUSH1 0x1 PUSH1 0xA0 SHL SUB DUP7 DUP2 AND DUP3 MSTORE DUP6 AND PUSH1 0x20 DUP3 ADD MSTORE PUSH1 0x40 DUP2 ADD DUP5 SWAP1 MSTORE PUSH1 0x60 DUP2 ADD DUP4 SWAP1 MSTORE PUSH1 0xA0 PUSH1 0x80 DUP3 ADD DUP2 SWAP1 MSTORE PUSH1 0x0 SWAP1 PUSH2 0x5327 SWAP1 DUP4 ADD DUP5 PUSH2 0x51A0 JUMP JUMPDEST SWAP8 SWAP7 POP POP POP POP POP POP POP JUMP JUMPDEST PUSH1 0x1 PUSH1 0x1 PUSH1 0xA0 SHL SUB DUP5 AND DUP2 MSTORE PUSH1 0x60 PUSH1 0x20 DUP1 DUP4 ADD DUP3 SWAP1 MSTORE PUSH1 0x0 SWAP2 PUSH2 0x5357 SWAP1 DUP5 ADD DUP7 PUSH2 0x512C JUMP JUMPDEST DUP4 DUP2 SUB PUSH1 0x40 DUP6 ADD MSTORE DUP5 MLOAD DUP1 DUP3 MSTORE DUP3 DUP3 ADD SWAP1 PUSH1 0x5 DUP2 SWAP1 SHL DUP4 ADD DUP5 ADD DUP5 DUP9 ADD PUSH1 0x0 JUMPDEST DUP4 DUP2 LT ISZERO PUSH2 0x53A5 JUMPI PUSH1 0x1F NOT DUP7 DUP5 SUB ADD DUP6 MSTORE PUSH2 0x5393 DUP4 DUP4 MLOAD PUSH2 0x5170 JUMP JUMPDEST SWAP5 DUP8 ADD SWAP5 SWAP3 POP SWAP1 DUP7 ADD SWAP1 PUSH1 0x1 ADD PUSH2 0x5377 JUMP JUMPDEST POP SWAP1 SWAP11 SWAP10 POP POP POP POP POP POP POP POP POP POP JUMP JUMPDEST PUSH1 0x1 PUSH1 0x1 PUSH1 0xA0 SHL SUB DUP7 AND DUP2 MSTORE PUSH1 0xA0 PUSH1 0x20 DUP3 ADD DUP2 SWAP1 MSTORE PUSH1 0x0 SWAP1 PUSH2 0x53D9 SWAP1 DUP4 ADD DUP8 PUSH2 0x512C JUMP JUMPDEST DUP3 DUP2 SUB PUSH1 0x40 DUP5 ADD MSTORE PUSH2 0x53EB DUP2 DUP8 PUSH2 0x5170 JUMP JUMPDEST SWAP1 POP DUP3 DUP2 SUB PUSH1 0x60 DUP5 ADD MSTORE PUSH2 0x53FF DUP2 DUP7 PUSH2 0x5170 JUMP JUMPDEST SWAP1 POP DUP3 DUP2 SUB PUSH1 0x80 DUP5 ADD MSTORE PUSH2 0x52E1 DUP2 DUP6 PUSH2 0x5170 JUMP JUMPDEST PUSH1 0x20 DUP2 MSTORE PUSH1 0x0 PUSH2 0x41A9 PUSH1 0x20 DUP4 ADD DUP5 PUSH2 0x5170 JUMP JUMPDEST PUSH1 0x40 DUP2 MSTORE PUSH1 0x0 PUSH2 0x5439 PUSH1 0x40 DUP4 ADD DUP6 PUSH2 0x5170 JUMP JUMPDEST DUP3 DUP2 SUB PUSH1 0x20 DUP5 ADD MSTORE PUSH2 0x5286 DUP2 DUP6 PUSH2 0x5170 JUMP JUMPDEST PUSH1 0x20 DUP2 MSTORE PUSH1 0x0 PUSH2 0x41A9 PUSH1 0x20 DUP4 ADD DUP5 PUSH2 0x51A0 JUMP JUMPDEST PUSH1 0x20 DUP1 DUP3 MSTORE PUSH1 0x28 SWAP1 DUP3 ADD MSTORE PUSH32 0x455243313135353A204552433131353552656365697665722072656A65637465 PUSH1 0x40 DUP3 ADD MSTORE PUSH8 0x6420746F6B656E73 PUSH1 0xC0 SHL PUSH1 0x60 DUP3 ADD MSTORE PUSH1 0x80 ADD SWAP1 JUMP JUMPDEST PUSH1 0x20 DUP1 DUP3 MSTORE PUSH1 0x25 SWAP1 DUP3 ADD MSTORE PUSH32 0x455243313135353A207472616E7366657220746F20746865207A65726F206164 PUSH1 0x40 DUP3 ADD MSTORE PUSH5 0x6472657373 PUSH1 0xD8 SHL PUSH1 0x60 DUP3 ADD MSTORE PUSH1 0x80 ADD SWAP1 JUMP JUMPDEST PUSH1 0x20 DUP1 DUP3 MSTORE PUSH1 0x2A SWAP1 DUP3 ADD MSTORE PUSH32 0x455243313135353A20696E73756666696369656E742062616C616E636520666F PUSH1 0x40 DUP3 ADD MSTORE PUSH10 0x39103A3930B739B332B9 PUSH1 0xB1 SHL PUSH1 0x60 DUP3 ADD MSTORE PUSH1 0x80 ADD SWAP1 JUMP JUMPDEST PUSH1 0x20 DUP1 DUP3 MSTORE DUP2 DUP2 ADD MSTORE PUSH32 0x4F776E61626C653A2063616C6C6572206973206E6F7420746865206F776E6572 PUSH1 0x40 DUP3 ADD MSTORE PUSH1 0x60 ADD SWAP1 JUMP JUMPDEST PUSH1 0x20 DUP1 DUP3 MSTORE PUSH1 0x2A SWAP1 DUP3 ADD MSTORE PUSH32 0x556D626C436F7265236D696E744261746368507265736574733A20494E56414C PUSH1 0x40 DUP3 ADD MSTORE PUSH10 0x49445F41444452455353 PUSH1 0xB0 SHL PUSH1 0x60 DUP3 ADD MSTORE PUSH1 0x80 ADD SWAP1 JUMP JUMPDEST PUSH1 0x20 DUP1 DUP3 MSTORE PUSH1 0x1F SWAP1 DUP3 ADD MSTORE PUSH32 0x5265656E7472616E637947756172643A207265656E7472616E742063616C6C00 PUSH1 0x40 DUP3 ADD MSTORE PUSH1 0x60 ADD SWAP1 JUMP JUMPDEST DUP8 DUP2 MSTORE PUSH1 0xFF DUP8 AND PUSH1 0x20 DUP3 ADD MSTORE PUSH1 0xE0 PUSH1 0x40 DUP3 ADD MSTORE PUSH1 0x0 PUSH2 0x560D PUSH1 0xE0 DUP4 ADD DUP9 PUSH2 0x5170 JUMP JUMPDEST SWAP1 POP DUP6 PUSH1 0x60 DUP4 ADD MSTORE DUP5 PUSH1 0x80 DUP4 ADD MSTORE DUP4 PUSH1 0xA0 DUP4 ADD MSTORE DUP3 ISZERO ISZERO PUSH1 0xC0 DUP4 ADD MSTORE SWAP9 SWAP8 POP POP POP POP POP POP POP POP JUMP JUMPDEST PUSH1 0x0 PUSH1 0xE0 DUP3 ADD DUP10 DUP4 MSTORE PUSH1 0x20 PUSH1 0xFF DUP1 DUP12 AND DUP3 DUP7 ADD MSTORE DUP1 DUP11 AND PUSH1 0x40 DUP7 ADD MSTORE PUSH1 0xE0 PUSH1 0x60 DUP7 ADD MSTORE DUP3 DUP10 MLOAD DUP1 DUP6 MSTORE PUSH2 0x100 DUP8 ADD SWAP2 POP DUP4 DUP12 ADD SWAP5 POP PUSH1 0x0 JUMPDEST DUP2 DUP2 LT ISZERO PUSH2 0x568B JUMPI DUP6 MLOAD DUP5 AND DUP4 MSTORE SWAP5 DUP5 ADD SWAP5 SWAP2 DUP5 ADD SWAP2 PUSH1 0x1 ADD PUSH2 0x566D JUMP JUMPDEST POP POP PUSH1 0xFF DUP10 AND PUSH1 0x80 DUP8 ADD MSTORE SWAP4 POP PUSH2 0x56A1 SWAP3 POP POP POP JUMP JUMPDEST DUP4 PUSH1 0xA0 DUP4 ADD MSTORE PUSH2 0x52E1 PUSH1 0xC0 DUP4 ADD DUP5 ISZERO ISZERO SWAP1 MSTORE JUMP JUMPDEST PUSH1 0x0 PUSH1 0x1 PUSH1 0x1 PUSH1 0x40 SHL SUB DUP3 GT ISZERO PUSH2 0x56CE JUMPI PUSH2 0x56CE PUSH2 0x5842 JUMP JUMPDEST POP PUSH1 0x5 SHL PUSH1 0x20 ADD SWAP1 JUMP JUMPDEST PUSH1 0x0 DUP3 NOT DUP3 GT ISZERO PUSH2 0x56EB JUMPI PUSH2 0x56EB PUSH2 0x5800 JUMP JUMPDEST POP ADD SWAP1 JUMP JUMPDEST PUSH1 0x0 DUP3 PUSH2 0x56FF JUMPI PUSH2 0x56FF PUSH2 0x5816 JUMP JUMPDEST POP DIV SWAP1 JUMP JUMPDEST PUSH1 0x0 DUP2 PUSH1 0x0 NOT DIV DUP4 GT DUP3 ISZERO ISZERO AND ISZERO PUSH2 0x571E JUMPI PUSH2 0x571E PUSH2 0x5800 JUMP JUMPDEST POP MUL SWAP1 JUMP JUMPDEST PUSH1 0x0 DUP3 DUP3 LT ISZERO PUSH2 0x5735 JUMPI PUSH2 0x5735 PUSH2 0x5800 JUMP JUMPDEST POP SUB SWAP1 JUMP JUMPDEST PUSH1 0x0 JUMPDEST DUP4 DUP2 LT ISZERO PUSH2 0x5755 JUMPI DUP2 DUP2 ADD MLOAD DUP4 DUP3 ADD MSTORE PUSH1 0x20 ADD PUSH2 0x573D JUMP JUMPDEST DUP4 DUP2 GT ISZERO PUSH2 0x5764 JUMPI PUSH1 0x0 DUP5 DUP5 ADD MSTORE JUMPDEST POP POP POP POP JUMP JUMPDEST PUSH1 0x1 DUP2 DUP2 SHR SWAP1 DUP3 AND DUP1 PUSH2 0x577E JUMPI PUSH1 0x7F DUP3 AND SWAP2 POP JUMPDEST PUSH1 0x20 DUP3 LT DUP2 EQ ISZERO PUSH2 0x579F JUMPI PUSH4 0x4E487B71 PUSH1 0xE0 SHL PUSH1 0x0 MSTORE PUSH1 0x22 PUSH1 0x4 MSTORE PUSH1 0x24 PUSH1 0x0 REVERT JUMPDEST POP SWAP2 SWAP1 POP JUMP JUMPDEST PUSH1 0x1F DUP3 ADD PUSH1 0x1F NOT AND DUP2 ADD PUSH1 0x1 PUSH1 0x1 PUSH1 0x40 SHL SUB DUP2 GT DUP3 DUP3 LT OR ISZERO PUSH2 0x57CA JUMPI PUSH2 0x57CA PUSH2 0x5842 JUMP JUMPDEST PUSH1 0x40 MSTORE POP POP JUMP JUMPDEST PUSH1 0x0 PUSH1 0x0 NOT DUP3 EQ ISZERO PUSH2 0x57E5 JUMPI PUSH2 0x57E5 PUSH2 0x5800 JUMP JUMPDEST POP PUSH1 0x1 ADD SWAP1 JUMP JUMPDEST PUSH1 0x0 DUP3 PUSH2 0x57FB JUMPI PUSH2 0x57FB PUSH2 0x5816 JUMP JUMPDEST POP MOD SWAP1 JUMP JUMPDEST PUSH4 0x4E487B71 PUSH1 0xE0 SHL PUSH1 0x0 MSTORE PUSH1 0x11 PUSH1 0x4 MSTORE PUSH1 0x24 PUSH1 0x0 REVERT JUMPDEST PUSH4 0x4E487B71 PUSH1 0xE0 SHL PUSH1 0x0 MSTORE PUSH1 0x12 PUSH1 0x4 MSTORE PUSH1 0x24 PUSH1 0x0 REVERT JUMPDEST PUSH4 0x4E487B71 PUSH1 0xE0 SHL PUSH1 0x0 MSTORE PUSH1 0x32 PUSH1 0x4 MSTORE PUSH1 0x24 PUSH1 0x0 REVERT JUMPDEST PUSH4 0x4E487B71 PUSH1 0xE0 SHL PUSH1 0x0 MSTORE PUSH1 0x41 PUSH1 0x4 MSTORE PUSH1 0x24 PUSH1 0x0 REVERT JUMPDEST PUSH1 0x0 PUSH1 0x3 RETURNDATASIZE GT ISZERO PUSH2 0x5871 JUMPI PUSH1 0x4 PUSH1 0x0 DUP1 RETURNDATACOPY POP PUSH1 0x0 MLOAD PUSH1 0xE0 SHR JUMPDEST SWAP1 JUMP JUMPDEST PUSH1 0x0 PUSH1 0x44 RETURNDATASIZE LT ISZERO PUSH2 0x5882 JUMPI SWAP1 JUMP JUMPDEST PUSH1 0x40 MLOAD PUSH1 0x3 NOT RETURNDATASIZE DUP2 ADD PUSH1 0x4 DUP4 RETURNDATACOPY DUP2 MLOAD RETURNDATASIZE PUSH1 0x1 PUSH1 0x1 PUSH1 0x40 SHL SUB DUP2 PUSH1 0x24 DUP5 ADD GT DUP2 DUP5 GT OR ISZERO PUSH2 0x58B1 JUMPI POP POP POP POP POP SWAP1 JUMP JUMPDEST DUP3 DUP6 ADD SWAP2 POP DUP2 MLOAD DUP2 DUP2 GT ISZERO PUSH2 0x58C9 JUMPI POP POP POP POP POP POP SWAP1 JUMP JUMPDEST DUP5 RETURNDATASIZE DUP8 ADD ADD PUSH1 0x20 DUP3 DUP6 ADD ADD GT ISZERO PUSH2 0x58E3 JUMPI POP POP POP POP POP POP SWAP1 JUMP JUMPDEST PUSH2 0x58F2 PUSH1 0x20 DUP3 DUP7 ADD ADD DUP8 PUSH2 0x57A5 JUMP JUMPDEST POP SWAP1 SWAP6 SWAP5 POP POP POP POP POP JUMP JUMPDEST PUSH1 0x1 PUSH1 0x1 PUSH1 0xE0 SHL SUB NOT DUP2 AND DUP2 EQ PUSH2 0x3AA5 JUMPI PUSH1 0x0 DUP1 REVERT INVALID LOG2 PUSH5 0x6970667358 0x22 SLT KECCAK256 SWAP15 0xC9 DUP2 PUSH5 0xF00C46B3B7 GAS 0xAC 0x2B 0xAE PUSH22 0x7371DE1550340412FE56C34BAD3751E5B74464736F6C PUSH4 0x43000807 STOP CALLER PUSH9 0x7474703A2F2F706F72 PUSH21 0x616C2E756D6272656C6C6170726F6A6563742E6C6F PUSH4 0x616C686F PUSH20 0x742F6D657461646174612F000000000000000000 "
		},
		"gasEstimates": {
			"creation": {
				"codeDepositCost": "4571400",
				"executionCost": "infinite",
				"totalCost": "infinite"
			},
			"external": {
				"assignBatchToken(address[],uint256[][])": "infinite",
				"balanceOf(address,uint256)": "2721",
				"balanceOfBatch(address[],uint256[])": "infinite",
				"crateUmblData(uint256)": "11113",
				"deleteCrate(uint256)": "infinite",
				"deletePackage(uint256)": "infinite",
				"deletePreset(uint256)": "313221",
				"getCrate(uint256)": "infinite",
				"getPackage(uint256)": "infinite",
				"getPreset(uint256)": "11739",
				"isApprovedForAll(address,address)": "infinite",
				"isResaleFlag()": "2356",
				"makeCrate(uint256,uint8,uint8,uint8[],uint8,uint256)": "infinite",
				"makePackage(uint256,uint8,uint256[],uint256,uint256,uint256)": "infinite",
				"makePreset(uint256,uint8,uint8,uint8,uint8,uint8,uint8,uint8,uint256)": "infinite",
				"marketPlaceContract()": "2405",
				"mintBatchPresets(address[],uint256[],uint256[])": "infinite",
				"name()": "infinite",
				"nextCrateId()": "2329",
				"nextPackageId()": "2417",
				"nextPresetId()": "2417",
				"nextTokenId()": "2418",
				"owner()": "2398",
				"packageUmblData(uint256)": "13277",
				"presetUmblData(uint256)": "9228",
				"renounceOwnership()": "28229",
				"safeBatchTransferFrom(address,address,uint256[],uint256[],bytes)": "infinite",
				"safeTransferFrom(address,address,uint256,uint256,bytes)": "infinite",
				"setApprovalForAll(address,bool)": "infinite",
				"setBaseMetadataURI(string)": "infinite",
				"setMarketPlaceContract(address)": "32405",
				"setResaleFlag(bool)": "32354",
				"supportsInterface(bytes4)": "590",
				"symbol()": "infinite",
				"tokenSupply(uint256)": "2539",
				"tokenUmblData(uint256)": "11404",
				"totalSupply(uint256)": "2538",
				"transferOwnership(address)": "28422",
				"updateTokenData(uint256,address,uint8,uint8,uint256,bool)": "infinite",
				"uri(uint256)": "infinite"
			},
			"internal": {
				"_exists(uint256)": "infinite"
			}
		},
		"methodIdentifiers": {
			"assignBatchToken(address[],uint256[][])": "091c5c55",
			"balanceOf(address,uint256)": "00fdd58e",
			"balanceOfBatch(address[],uint256[])": "4e1273f4",
			"crateUmblData(uint256)": "b38d817c",
			"deleteCrate(uint256)": "955a6615",
			"deletePackage(uint256)": "d71c1008",
			"deletePreset(uint256)": "da4f8666",
			"getCrate(uint256)": "a09ea8c4",
			"getPackage(uint256)": "b99dfe18",
			"getPreset(uint256)": "aabc4b3c",
			"isApprovedForAll(address,address)": "e985e9c5",
			"isResaleFlag()": "3094d9ab",
			"makeCrate(uint256,uint8,uint8,uint8[],uint8,uint256)": "98c4dd31",
			"makePackage(uint256,uint8,uint256[],uint256,uint256,uint256)": "f9d20f5c",
			"makePreset(uint256,uint8,uint8,uint8,uint8,uint8,uint8,uint8,uint256)": "d0c2de6c",
			"marketPlaceContract()": "3dc37e1a",
			"mintBatchPresets(address[],uint256[],uint256[])": "192087f5",
			"name()": "06fdde03",
			"nextCrateId()": "cb9953e7",
			"nextPackageId()": "d7da9e4f",
			"nextPresetId()": "c8a768e6",
			"nextTokenId()": "75794a3c",
			"owner()": "8da5cb5b",
			"packageUmblData(uint256)": "0c802789",
			"presetUmblData(uint256)": "cefa3e9f",
			"renounceOwnership()": "715018a6",
			"safeBatchTransferFrom(address,address,uint256[],uint256[],bytes)": "2eb2c2d6",
			"safeTransferFrom(address,address,uint256,uint256,bytes)": "f242432a",
			"setApprovalForAll(address,bool)": "a22cb465",
			"setBaseMetadataURI(string)": "7e518ec8",
			"setMarketPlaceContract(address)": "9e4d3fbf",
			"setResaleFlag(bool)": "bc4ed68f",
			"supportsInterface(bytes4)": "01ffc9a7",
			"symbol()": "95d89b41",
			"tokenSupply(uint256)": "2693ebf2",
			"tokenUmblData(uint256)": "1280cb62",
			"totalSupply(uint256)": "bd85b039",
			"transferOwnership(address)": "f2fde38b",
			"updateTokenData(uint256,address,uint8,uint8,uint256,bool)": "8eaa08c7",
			"uri(uint256)": "0e89341c"
		}
	},
	"abi": [
		{
			"inputs": [],
			"stateMutability": "nonpayable",
			"type": "constructor"
		},
		{
			"anonymous": false,
			"inputs": [
				{
					"indexed": true,
					"internalType": "address",
					"name": "account",
					"type": "address"
				},
				{
					"indexed": true,
					"internalType": "address",
					"name": "operator",
					"type": "address"
				},
				{
					"indexed": false,
					"internalType": "bool",
					"name": "approved",
					"type": "bool"
				}
			],
			"name": "ApprovalForAll",
			"type": "event"
		},
		{
			"anonymous": false,
			"inputs": [
				{
					"indexed": true,
					"internalType": "address",
					"name": "previousOwner",
					"type": "address"
				},
				{
					"indexed": true,
					"internalType": "address",
					"name": "newOwner",
					"type": "address"
				}
			],
			"name": "OwnershipTransferred",
			"type": "event"
		},
		{
			"anonymous": false,
			"inputs": [
				{
					"indexed": true,
					"internalType": "address",
					"name": "operator",
					"type": "address"
				},
				{
					"indexed": true,
					"internalType": "address",
					"name": "from",
					"type": "address"
				},
				{
					"indexed": true,
					"internalType": "address",
					"name": "to",
					"type": "address"
				},
				{
					"indexed": false,
					"internalType": "uint256[]",
					"name": "ids",
					"type": "uint256[]"
				},
				{
					"indexed": false,
					"internalType": "uint256[]",
					"name": "values",
					"type": "uint256[]"
				}
			],
			"name": "TransferBatch",
			"type": "event"
		},
		{
			"anonymous": false,
			"inputs": [
				{
					"indexed": true,
					"internalType": "address",
					"name": "operator",
					"type": "address"
				},
				{
					"indexed": true,
					"internalType": "address",
					"name": "from",
					"type": "address"
				},
				{
					"indexed": true,
					"internalType": "address",
					"name": "to",
					"type": "address"
				},
				{
					"indexed": false,
					"internalType": "uint256",
					"name": "id",
					"type": "uint256"
				},
				{
					"indexed": false,
					"internalType": "uint256",
					"name": "value",
					"type": "uint256"
				}
			],
			"name": "TransferSingle",
			"type": "event"
		},
		{
			"anonymous": false,
			"inputs": [
				{
					"indexed": false,
					"internalType": "string",
					"name": "value",
					"type": "string"
				},
				{
					"indexed": true,
					"internalType": "uint256",
					"name": "id",
					"type": "uint256"
				}
			],
			"name": "URI",
			"type": "event"
		},
		{
			"anonymous": false,
			"inputs": [
				{
					"indexed": false,
					"internalType": "address",
					"name": "owner",
					"type": "address"
				},
				{
					"indexed": false,
					"internalType": "uint256",
					"name": "id",
					"type": "uint256"
				}
			],
			"name": "UmblCrateCreated",
			"type": "event"
		},
		{
			"anonymous": false,
			"inputs": [
				{
					"indexed": false,
					"internalType": "address",
					"name": "owner",
					"type": "address"
				},
				{
					"indexed": false,
					"internalType": "uint256",
					"name": "id",
					"type": "uint256"
				}
			],
			"name": "UmblCrateDeleted",
			"type": "event"
		},
		{
			"anonymous": false,
			"inputs": [
				{
					"indexed": false,
					"internalType": "address",
					"name": "owner",
					"type": "address"
				},
				{
					"indexed": false,
					"internalType": "uint256",
					"name": "id",
					"type": "uint256"
				},
				{
					"indexed": false,
					"internalType": "uint256[]",
					"name": "tokenIds",
					"type": "uint256[]"
				}
			],
			"name": "UmblCrateMinted",
			"type": "event"
		},
		{
			"anonymous": false,
			"inputs": [
				{
					"indexed": false,
					"internalType": "address",
					"name": "owner",
					"type": "address"
				},
				{
					"indexed": false,
					"internalType": "uint256",
					"name": "id",
					"type": "uint256"
				}
			],
			"name": "UmblCrateUpdated",
			"type": "event"
		},
		{
			"anonymous": false,
			"inputs": [
				{
					"indexed": false,
					"internalType": "address",
					"name": "owner",
					"type": "address"
				},
				{
					"indexed": false,
					"internalType": "address",
					"name": "marketPlaceContract",
					"type": "address"
				}
			],
			"name": "UmblMarketPlaceContractUpdated",
			"type": "event"
		},
		{
			"anonymous": false,
			"inputs": [
				{
					"indexed": false,
					"internalType": "address",
					"name": "owner",
					"type": "address"
				},
				{
					"indexed": false,
					"internalType": "bool",
					"name": "isMarketPlaceFlag",
					"type": "bool"
				}
			],
			"name": "UmblMarketPlaceFlagUpdated",
			"type": "event"
		},
		{
			"anonymous": false,
			"inputs": [
				{
					"indexed": false,
					"internalType": "address",
					"name": "owner",
					"type": "address"
				},
				{
					"indexed": false,
					"internalType": "uint256",
					"name": "id",
					"type": "uint256"
				}
			],
			"name": "UmblPackageCreated",
			"type": "event"
		},
		{
			"anonymous": false,
			"inputs": [
				{
					"indexed": false,
					"internalType": "address",
					"name": "owner",
					"type": "address"
				},
				{
					"indexed": false,
					"internalType": "uint256",
					"name": "id",
					"type": "uint256"
				}
			],
			"name": "UmblPackageDeleted",
			"type": "event"
		},
		{
			"anonymous": false,
			"inputs": [
				{
					"indexed": false,
					"internalType": "address",
					"name": "owner",
					"type": "address"
				},
				{
					"indexed": false,
					"internalType": "uint256",
					"name": "id",
					"type": "uint256"
				},
				{
					"indexed": false,
					"internalType": "uint256[]",
					"name": "tokenIds",
					"type": "uint256[]"
				}
			],
			"name": "UmblPackageMinted",
			"type": "event"
		},
		{
			"anonymous": false,
			"inputs": [
				{
					"indexed": false,
					"internalType": "address",
					"name": "owner",
					"type": "address"
				},
				{
					"indexed": false,
					"internalType": "uint256",
					"name": "id",
					"type": "uint256"
				}
			],
			"name": "UmblPackageUpdated",
			"type": "event"
		},
		{
			"anonymous": false,
			"inputs": [
				{
					"indexed": false,
					"internalType": "address",
					"name": "owner",
					"type": "address"
				},
				{
					"indexed": false,
					"internalType": "uint256",
					"name": "id",
					"type": "uint256"
				},
				{
					"indexed": false,
					"internalType": "uint256",
					"name": "price",
					"type": "uint256"
				}
			],
			"name": "UmblPaidForCrate",
			"type": "event"
		},
		{
			"anonymous": false,
			"inputs": [
				{
					"indexed": false,
					"internalType": "address",
					"name": "owner",
					"type": "address"
				},
				{
					"indexed": false,
					"internalType": "uint256",
					"name": "id",
					"type": "uint256"
				}
			],
			"name": "UmblPresetCreated",
			"type": "event"
		},
		{
			"anonymous": false,
			"inputs": [
				{
					"indexed": false,
					"internalType": "address",
					"name": "owner",
					"type": "address"
				},
				{
					"indexed": false,
					"internalType": "uint256",
					"name": "id",
					"type": "uint256"
				}
			],
			"name": "UmblPresetDeleted",
			"type": "event"
		},
		{
			"anonymous": false,
			"inputs": [
				{
					"indexed": false,
					"internalType": "address",
					"name": "owner",
					"type": "address"
				},
				{
					"indexed": false,
					"internalType": "address[]",
					"name": "to",
					"type": "address[]"
				},
				{
					"indexed": false,
					"internalType": "uint256[]",
					"name": "presetIds",
					"type": "uint256[]"
				},
				{
					"indexed": false,
					"internalType": "uint256[]",
					"name": "tokenIds",
					"type": "uint256[]"
				},
				{
					"indexed": false,
					"internalType": "uint256[]",
					"name": "amount",
					"type": "uint256[]"
				}
			],
			"name": "UmblPresetMinted",
			"type": "event"
		},
		{
			"anonymous": false,
			"inputs": [
				{
					"indexed": false,
					"internalType": "address",
					"name": "owner",
					"type": "address"
				},
				{
					"indexed": false,
					"internalType": "uint256",
					"name": "id",
					"type": "uint256"
				}
			],
			"name": "UmblPresetUpdated",
			"type": "event"
		},
		{
			"anonymous": false,
			"inputs": [
				{
					"indexed": false,
					"internalType": "address",
					"name": "owner",
					"type": "address"
				},
				{
					"indexed": false,
					"internalType": "bool",
					"name": "isResaleFlag",
					"type": "bool"
				}
			],
			"name": "UmblResaleFlagUpdated",
			"type": "event"
		},
		{
			"anonymous": false,
			"inputs": [
				{
					"indexed": false,
					"internalType": "address",
					"name": "owner",
					"type": "address"
				},
				{
					"indexed": false,
					"internalType": "uint256",
					"name": "id",
					"type": "uint256"
				},
				{
					"indexed": false,
					"internalType": "address",
					"name": "newOwner",
					"type": "address"
				},
				{
					"indexed": false,
					"internalType": "uint8",
					"name": "newState",
					"type": "uint8"
				},
				{
					"indexed": false,
					"internalType": "uint8",
					"name": "newHealth",
					"type": "uint8"
				},
				{
					"indexed": false,
					"internalType": "uint256",
					"name": "newPrice",
					"type": "uint256"
				},
				{
					"indexed": false,
					"internalType": "bool",
					"name": "newIsSale",
					"type": "bool"
				}
			],
			"name": "UmblTokenDataUpdated",
			"type": "event"
		},
		{
			"anonymous": false,
			"inputs": [
				{
					"indexed": false,
					"internalType": "address",
					"name": "owner",
					"type": "address"
				},
				{
					"indexed": false,
					"internalType": "address[]",
					"name": "to",
					"type": "address[]"
				},
				{
					"indexed": false,
					"internalType": "uint256[][]",
					"name": "ids",
					"type": "uint256[][]"
				}
			],
			"name": "UmblTokenListAssigned",
			"type": "event"
		},
		{
			"inputs": [
				{
					"internalType": "address[]",
					"name": "_to",
					"type": "address[]"
				},
				{
					"internalType": "uint256[][]",
					"name": "_ids",
					"type": "uint256[][]"
				}
			],
			"name": "assignBatchToken",
			"outputs": [],
			"stateMutability": "nonpayable",
			"type": "function"
		},
		{
			"inputs": [
				{
					"internalType": "address",
					"name": "account",
					"type": "address"
				},
				{
					"internalType": "uint256",
					"name": "id",
					"type": "uint256"
				}
			],
			"name": "balanceOf",
			"outputs": [
				{
					"internalType": "uint256",
					"name": "",
					"type": "uint256"
				}
			],
			"stateMutability": "view",
			"type": "function"
		},
		{
			"inputs": [
				{
					"internalType": "address[]",
					"name": "accounts",
					"type": "address[]"
				},
				{
					"internalType": "uint256[]",
					"name": "ids",
					"type": "uint256[]"
				}
			],
			"name": "balanceOfBatch",
			"outputs": [
				{
					"internalType": "uint256[]",
					"name": "",
					"type": "uint256[]"
				}
			],
			"stateMutability": "view",
			"type": "function"
		},
		{
			"inputs": [
				{
					"internalType": "uint256",
					"name": "",
					"type": "uint256"
				}
			],
			"name": "crateUmblData",
			"outputs": [
				{
					"internalType": "uint256",
					"name": "id",
					"type": "uint256"
				},
				{
					"internalType": "uint8",
					"name": "level",
					"type": "uint8"
				},
				{
					"internalType": "uint8",
					"name": "faction",
					"type": "uint8"
				},
				{
					"internalType": "uint8",
					"name": "tokenCount",
					"type": "uint8"
				},
				{
					"internalType": "uint256",
					"name": "price",
					"type": "uint256"
				},
				{
					"internalType": "bool",
					"name": "isDeleted",
					"type": "bool"
				}
			],
			"stateMutability": "view",
			"type": "function"
		},
		{
			"inputs": [
				{
					"internalType": "uint256",
					"name": "_id",
					"type": "uint256"
				}
			],
			"name": "deleteCrate",
			"outputs": [],
			"stateMutability": "nonpayable",
			"type": "function"
		},
		{
			"inputs": [
				{
					"internalType": "uint256",
					"name": "_id",
					"type": "uint256"
				}
			],
			"name": "deletePackage",
			"outputs": [],
			"stateMutability": "nonpayable",
			"type": "function"
		},
		{
			"inputs": [
				{
					"internalType": "uint256",
					"name": "_id",
					"type": "uint256"
				}
			],
			"name": "deletePreset",
			"outputs": [],
			"stateMutability": "nonpayable",
			"type": "function"
		},
		{
			"inputs": [
				{
					"internalType": "uint256",
					"name": "_id",
					"type": "uint256"
				}
			],
			"name": "getCrate",
			"outputs": [
				{
					"internalType": "uint256",
					"name": "id",
					"type": "uint256"
				},
				{
					"internalType": "uint8",
					"name": "level",
					"type": "uint8"
				},
				{
					"internalType": "uint8",
					"name": "faction",
					"type": "uint8"
				},
				{
					"internalType": "uint8[]",
					"name": "rarities",
					"type": "uint8[]"
				},
				{
					"internalType": "uint8",
					"name": "tokenCount",
					"type": "uint8"
				},
				{
					"internalType": "uint256",
					"name": "price",
					"type": "uint256"
				},
				{
					"internalType": "bool",
					"name": "isDeleted",
					"type": "bool"
				}
			],
			"stateMutability": "view",
			"type": "function"
		},
		{
			"inputs": [
				{
					"internalType": "uint256",
					"name": "_id",
					"type": "uint256"
				}
			],
			"name": "getPackage",
			"outputs": [
				{
					"internalType": "uint256",
					"name": "id",
					"type": "uint256"
				},
				{
					"internalType": "uint8",
					"name": "tokenCount",
					"type": "uint8"
				},
				{
					"internalType": "uint256[]",
					"name": "presetIds",
					"type": "uint256[]"
				},
				{
					"internalType": "uint256",
					"name": "startTime",
					"type": "uint256"
				},
				{
					"internalType": "uint256",
					"name": "endTime",
					"type": "uint256"
				},
				{
					"internalType": "uint256",
					"name": "price",
					"type": "uint256"
				},
				{
					"internalType": "bool",
					"name": "isDeleted",
					"type": "bool"
				}
			],
			"stateMutability": "view",
			"type": "function"
		},
		{
			"inputs": [
				{
					"internalType": "uint256",
					"name": "_id",
					"type": "uint256"
				}
			],
			"name": "getPreset",
			"outputs": [
				{
					"internalType": "uint256",
					"name": "id",
					"type": "uint256"
				},
				{
					"internalType": "uint8",
					"name": "tokenType",
					"type": "uint8"
				},
				{
					"internalType": "uint8",
					"name": "level",
					"type": "uint8"
				},
				{
					"internalType": "uint8",
					"name": "faction",
					"type": "uint8"
				},
				{
					"internalType": "uint8",
					"name": "category",
					"type": "uint8"
				},
				{
					"internalType": "uint8",
					"name": "rarity",
					"type": "uint8"
				},
				{
					"internalType": "uint8",
					"name": "badgeType",
					"type": "uint8"
				},
				{
					"internalType": "uint8",
					"name": "zoneType",
					"type": "uint8"
				},
				{
					"internalType": "uint256",
					"name": "price",
					"type": "uint256"
				},
				{
					"internalType": "bool",
					"name": "isDeleted",
					"type": "bool"
				}
			],
			"stateMutability": "view",
			"type": "function"
		},
		{
			"inputs": [
				{
					"internalType": "address",
					"name": "account",
					"type": "address"
				},
				{
					"internalType": "address",
					"name": "operator",
					"type": "address"
				}
			],
			"name": "isApprovedForAll",
			"outputs": [
				{
					"internalType": "bool",
					"name": "",
					"type": "bool"
				}
			],
			"stateMutability": "view",
			"type": "function"
		},
		{
			"inputs": [],
			"name": "isResaleFlag",
			"outputs": [
				{
					"internalType": "bool",
					"name": "",
					"type": "bool"
				}
			],
			"stateMutability": "view",
			"type": "function"
		},
		{
			"inputs": [
				{
					"internalType": "uint256",
					"name": "_id",
					"type": "uint256"
				},
				{
					"internalType": "uint8",
					"name": "_level",
					"type": "uint8"
				},
				{
					"internalType": "uint8",
					"name": "_faction",
					"type": "uint8"
				},
				{
					"internalType": "uint8[]",
					"name": "_rarities",
					"type": "uint8[]"
				},
				{
					"internalType": "uint8",
					"name": "_tokenCount",
					"type": "uint8"
				},
				{
					"internalType": "uint256",
					"name": "_price",
					"type": "uint256"
				}
			],
			"name": "makeCrate",
			"outputs": [],
			"stateMutability": "nonpayable",
			"type": "function"
		},
		{
			"inputs": [
				{
					"internalType": "uint256",
					"name": "_id",
					"type": "uint256"
				},
				{
					"internalType": "uint8",
					"name": "_tokenCount",
					"type": "uint8"
				},
				{
					"internalType": "uint256[]",
					"name": "_presetIds",
					"type": "uint256[]"
				},
				{
					"internalType": "uint256",
					"name": "_startTime",
					"type": "uint256"
				},
				{
					"internalType": "uint256",
					"name": "_endTime",
					"type": "uint256"
				},
				{
					"internalType": "uint256",
					"name": "_price",
					"type": "uint256"
				}
			],
			"name": "makePackage",
			"outputs": [],
			"stateMutability": "nonpayable",
			"type": "function"
		},
		{
			"inputs": [
				{
					"internalType": "uint256",
					"name": "_id",
					"type": "uint256"
				},
				{
					"internalType": "uint8",
					"name": "_tokenType",
					"type": "uint8"
				},
				{
					"internalType": "uint8",
					"name": "_level",
					"type": "uint8"
				},
				{
					"internalType": "uint8",
					"name": "_faction",
					"type": "uint8"
				},
				{
					"internalType": "uint8",
					"name": "_category",
					"type": "uint8"
				},
				{
					"internalType": "uint8",
					"name": "_rarity",
					"type": "uint8"
				},
				{
					"internalType": "uint8",
					"name": "_badgeType",
					"type": "uint8"
				},
				{
					"internalType": "uint8",
					"name": "_zoneType",
					"type": "uint8"
				},
				{
					"internalType": "uint256",
					"name": "_price",
					"type": "uint256"
				}
			],
			"name": "makePreset",
			"outputs": [],
			"stateMutability": "nonpayable",
			"type": "function"
		},
		{
			"inputs": [],
			"name": "marketPlaceContract",
			"outputs": [
				{
					"internalType": "address",
					"name": "",
					"type": "address"
				}
			],
			"stateMutability": "view",
			"type": "function"
		},
		{
			"inputs": [
				{
					"internalType": "address[]",
					"name": "_to",
					"type": "address[]"
				},
				{
					"internalType": "uint256[]",
					"name": "_ids",
					"type": "uint256[]"
				},
				{
					"internalType": "uint256[]",
					"name": "_amounts",
					"type": "uint256[]"
				}
			],
			"name": "mintBatchPresets",
			"outputs": [],
			"stateMutability": "nonpayable",
			"type": "function"
		},
		{
			"inputs": [],
			"name": "name",
			"outputs": [
				{
					"internalType": "string",
					"name": "",
					"type": "string"
				}
			],
			"stateMutability": "view",
			"type": "function"
		},
		{
			"inputs": [],
			"name": "nextCrateId",
			"outputs": [
				{
					"internalType": "uint256",
					"name": "",
					"type": "uint256"
				}
			],
			"stateMutability": "view",
			"type": "function"
		},
		{
			"inputs": [],
			"name": "nextPackageId",
			"outputs": [
				{
					"internalType": "uint256",
					"name": "",
					"type": "uint256"
				}
			],
			"stateMutability": "view",
			"type": "function"
		},
		{
			"inputs": [],
			"name": "nextPresetId",
			"outputs": [
				{
					"internalType": "uint256",
					"name": "",
					"type": "uint256"
				}
			],
			"stateMutability": "view",
			"type": "function"
		},
		{
			"inputs": [],
			"name": "nextTokenId",
			"outputs": [
				{
					"internalType": "uint256",
					"name": "",
					"type": "uint256"
				}
			],
			"stateMutability": "view",
			"type": "function"
		},
		{
			"inputs": [],
			"name": "owner",
			"outputs": [
				{
					"internalType": "address",
					"name": "",
					"type": "address"
				}
			],
			"stateMutability": "view",
			"type": "function"
		},
		{
			"inputs": [
				{
					"internalType": "uint256",
					"name": "",
					"type": "uint256"
				}
			],
			"name": "packageUmblData",
			"outputs": [
				{
					"internalType": "uint256",
					"name": "id",
					"type": "uint256"
				},
				{
					"internalType": "uint8",
					"name": "tokenCount",
					"type": "uint8"
				},
				{
					"internalType": "uint256",
					"name": "startTime",
					"type": "uint256"
				},
				{
					"internalType": "uint256",
					"name": "endTime",
					"type": "uint256"
				},
				{
					"internalType": "uint256",
					"name": "price",
					"type": "uint256"
				},
				{
					"internalType": "bool",
					"name": "isDeleted",
					"type": "bool"
				}
			],
			"stateMutability": "view",
			"type": "function"
		},
		{
			"inputs": [
				{
					"internalType": "uint256",
					"name": "",
					"type": "uint256"
				}
			],
			"name": "presetUmblData",
			"outputs": [
				{
					"internalType": "uint256",
					"name": "id",
					"type": "uint256"
				},
				{
					"internalType": "uint8",
					"name": "tokenType",
					"type": "uint8"
				},
				{
					"internalType": "uint8",
					"name": "level",
					"type": "uint8"
				},
				{
					"internalType": "uint8",
					"name": "faction",
					"type": "uint8"
				},
				{
					"internalType": "uint8",
					"name": "category",
					"type": "uint8"
				},
				{
					"internalType": "uint8",
					"name": "rarity",
					"type": "uint8"
				},
				{
					"internalType": "uint8",
					"name": "badgeType",
					"type": "uint8"
				},
				{
					"internalType": "uint8",
					"name": "zoneType",
					"type": "uint8"
				},
				{
					"internalType": "uint256",
					"name": "price",
					"type": "uint256"
				},
				{
					"internalType": "bool",
					"name": "isDeleted",
					"type": "bool"
				}
			],
			"stateMutability": "view",
			"type": "function"
		},
		{
			"inputs": [],
			"name": "renounceOwnership",
			"outputs": [],
			"stateMutability": "nonpayable",
			"type": "function"
		},
		{
			"inputs": [
				{
					"internalType": "address",
					"name": "from",
					"type": "address"
				},
				{
					"internalType": "address",
					"name": "to",
					"type": "address"
				},
				{
					"internalType": "uint256[]",
					"name": "ids",
					"type": "uint256[]"
				},
				{
					"internalType": "uint256[]",
					"name": "amounts",
					"type": "uint256[]"
				},
				{
					"internalType": "bytes",
					"name": "data",
					"type": "bytes"
				}
			],
			"name": "safeBatchTransferFrom",
			"outputs": [],
			"stateMutability": "nonpayable",
			"type": "function"
		},
		{
			"inputs": [
				{
					"internalType": "address",
					"name": "from",
					"type": "address"
				},
				{
					"internalType": "address",
					"name": "to",
					"type": "address"
				},
				{
					"internalType": "uint256",
					"name": "id",
					"type": "uint256"
				},
				{
					"internalType": "uint256",
					"name": "amount",
					"type": "uint256"
				},
				{
					"internalType": "bytes",
					"name": "data",
					"type": "bytes"
				}
			],
			"name": "safeTransferFrom",
			"outputs": [],
			"stateMutability": "nonpayable",
			"type": "function"
		},
		{
			"inputs": [
				{
					"internalType": "address",
					"name": "operator",
					"type": "address"
				},
				{
					"internalType": "bool",
					"name": "approved",
					"type": "bool"
				}
			],
			"name": "setApprovalForAll",
			"outputs": [],
			"stateMutability": "nonpayable",
			"type": "function"
		},
		{
			"inputs": [
				{
					"internalType": "string",
					"name": "_newBaseMetadataURI",
					"type": "string"
				}
			],
			"name": "setBaseMetadataURI",
			"outputs": [],
			"stateMutability": "nonpayable",
			"type": "function"
		},
		{
			"inputs": [
				{
					"internalType": "address",
					"name": "_to",
					"type": "address"
				}
			],
			"name": "setMarketPlaceContract",
			"outputs": [],
			"stateMutability": "nonpayable",
			"type": "function"
		},
		{
			"inputs": [
				{
					"internalType": "bool",
					"name": "_newState",
					"type": "bool"
				}
			],
			"name": "setResaleFlag",
			"outputs": [],
			"stateMutability": "nonpayable",
			"type": "function"
		},
		{
			"inputs": [
				{
					"internalType": "bytes4",
					"name": "interfaceId",
					"type": "bytes4"
				}
			],
			"name": "supportsInterface",
			"outputs": [
				{
					"internalType": "bool",
					"name": "",
					"type": "bool"
				}
			],
			"stateMutability": "view",
			"type": "function"
		},
		{
			"inputs": [],
			"name": "symbol",
			"outputs": [
				{
					"internalType": "string",
					"name": "",
					"type": "string"
				}
			],
			"stateMutability": "view",
			"type": "function"
		},
		{
			"inputs": [
				{
					"internalType": "uint256",
					"name": "",
					"type": "uint256"
				}
			],
			"name": "tokenSupply",
			"outputs": [
				{
					"internalType": "uint256",
					"name": "",
					"type": "uint256"
				}
			],
			"stateMutability": "view",
			"type": "function"
		},
		{
			"inputs": [
				{
					"internalType": "uint256",
					"name": "",
					"type": "uint256"
				}
			],
			"name": "tokenUmblData",
			"outputs": [
				{
					"internalType": "uint256",
					"name": "id",
					"type": "uint256"
				},
				{
					"internalType": "uint256",
					"name": "presetId",
					"type": "uint256"
				},
				{
					"internalType": "address",
					"name": "owner",
					"type": "address"
				},
				{
					"internalType": "uint8",
					"name": "level",
					"type": "uint8"
				},
				{
					"internalType": "uint8",
					"name": "faction",
					"type": "uint8"
				},
				{
					"internalType": "uint8",
					"name": "category",
					"type": "uint8"
				},
				{
					"internalType": "uint8",
					"name": "rarity",
					"type": "uint8"
				},
				{
					"internalType": "uint8",
					"name": "state",
					"type": "uint8"
				},
				{
					"internalType": "uint8",
					"name": "health",
					"type": "uint8"
				},
				{
					"internalType": "uint256",
					"name": "price",
					"type": "uint256"
				},
				{
					"internalType": "bool",
					"name": "isSale",
					"type": "bool"
				}
			],
			"stateMutability": "view",
			"type": "function"
		},
		{
			"inputs": [
				{
					"internalType": "uint256",
					"name": "_id",
					"type": "uint256"
				}
			],
			"name": "totalSupply",
			"outputs": [
				{
					"internalType": "uint256",
					"name": "",
					"type": "uint256"
				}
			],
			"stateMutability": "view",
			"type": "function"
		},
		{
			"inputs": [
				{
					"internalType": "address",
					"name": "newOwner",
					"type": "address"
				}
			],
			"name": "transferOwnership",
			"outputs": [],
			"stateMutability": "nonpayable",
			"type": "function"
		},
		{
			"inputs": [
				{
					"internalType": "uint256",
					"name": "_id",
					"type": "uint256"
				},
				{
					"internalType": "address",
					"name": "_owner",
					"type": "address"
				},
				{
					"internalType": "uint8",
					"name": "_state",
					"type": "uint8"
				},
				{
					"internalType": "uint8",
					"name": "_health",
					"type": "uint8"
				},
				{
					"internalType": "uint256",
					"name": "_price",
					"type": "uint256"
				},
				{
					"internalType": "bool",
					"name": "_isSale",
					"type": "bool"
				}
			],
			"name": "updateTokenData",
			"outputs": [],
			"stateMutability": "nonpayable",
			"type": "function"
		},
		{
			"inputs": [
				{
					"internalType": "uint256",
					"name": "_id",
					"type": "uint256"
				}
			],
			"name": "uri",
			"outputs": [
				{
					"internalType": "string",
					"name": "",
					"type": "string"
				}
			],
			"stateMutability": "view",
			"type": "function"
		}
	]
}